{
	"data": {
		"bytecode": {
			"linkReferences": {},
			"object": "608060405234801561001057600080fd5b506101f4806100206000396000f3fe6080604052600436106100295760003560e01c8063605853581461002e57806389ea642f1461004c575b600080fd5b61003661006a565b6040516100439190610117565b60405180910390f35b610054610092565b6040516100619190610132565b60405180910390f35b60007f48656c6c6f537461636b4f766572466c6f770000000000000000000000000000905090565b60606040518060400160405280601281526020017f48656c6c6f537461636b4f766572466c6f770000000000000000000000000000815250905090565b6100d881610170565b82525050565b60006100e982610154565b6100f3818561015f565b935061010381856020860161017a565b61010c816101ad565b840191505092915050565b600060208201905061012c60008301846100cf565b92915050565b6000602082019050818103600083015261014c81846100de565b905092915050565b600081519050919050565b600082825260208201905092915050565b6000819050919050565b60005b8381101561019857808201518184015260208101905061017d565b838111156101a7576000848401525b50505050565b6000601f19601f830116905091905056fea264697066735822122065ebd480bf8e22cbe5c441a66ca203433e81291674420d81ec82ffc4ba454d7664736f6c63430008070033",
			"opcodes": "PUSH1 0x80 PUSH1 0x40 MSTORE CALLVALUE DUP1 ISZERO PUSH2 0x10 JUMPI PUSH1 0x0 DUP1 REVERT JUMPDEST POP PUSH2 0x1F4 DUP1 PUSH2 0x20 PUSH1 0x0 CODECOPY PUSH1 0x0 RETURN INVALID PUSH1 0x80 PUSH1 0x40 MSTORE PUSH1 0x4 CALLDATASIZE LT PUSH2 0x29 JUMPI PUSH1 0x0 CALLDATALOAD PUSH1 0xE0 SHR DUP1 PUSH4 0x60585358 EQ PUSH2 0x2E JUMPI DUP1 PUSH4 0x89EA642F EQ PUSH2 0x4C JUMPI JUMPDEST PUSH1 0x0 DUP1 REVERT JUMPDEST PUSH2 0x36 PUSH2 0x6A JUMP JUMPDEST PUSH1 0x40 MLOAD PUSH2 0x43 SWAP2 SWAP1 PUSH2 0x117 JUMP JUMPDEST PUSH1 0x40 MLOAD DUP1 SWAP2 SUB SWAP1 RETURN JUMPDEST PUSH2 0x54 PUSH2 0x92 JUMP JUMPDEST PUSH1 0x40 MLOAD PUSH2 0x61 SWAP2 SWAP1 PUSH2 0x132 JUMP JUMPDEST PUSH1 0x40 MLOAD DUP1 SWAP2 SUB SWAP1 RETURN JUMPDEST PUSH1 0x0 PUSH32 0x48656C6C6F537461636B4F766572466C6F770000000000000000000000000000 SWAP1 POP SWAP1 JUMP JUMPDEST PUSH1 0x60 PUSH1 0x40 MLOAD DUP1 PUSH1 0x40 ADD PUSH1 0x40 MSTORE DUP1 PUSH1 0x12 DUP2 MSTORE PUSH1 0x20 ADD PUSH32 0x48656C6C6F537461636B4F766572466C6F770000000000000000000000000000 DUP2 MSTORE POP SWAP1 POP SWAP1 JUMP JUMPDEST PUSH2 0xD8 DUP2 PUSH2 0x170 JUMP JUMPDEST DUP3 MSTORE POP POP JUMP JUMPDEST PUSH1 0x0 PUSH2 0xE9 DUP3 PUSH2 0x154 JUMP JUMPDEST PUSH2 0xF3 DUP2 DUP6 PUSH2 0x15F JUMP JUMPDEST SWAP4 POP PUSH2 0x103 DUP2 DUP6 PUSH1 0x20 DUP7 ADD PUSH2 0x17A JUMP JUMPDEST PUSH2 0x10C DUP2 PUSH2 0x1AD JUMP JUMPDEST DUP5 ADD SWAP2 POP POP SWAP3 SWAP2 POP POP JUMP JUMPDEST PUSH1 0x0 PUSH1 0x20 DUP3 ADD SWAP1 POP PUSH2 0x12C PUSH1 0x0 DUP4 ADD DUP5 PUSH2 0xCF JUMP JUMPDEST SWAP3 SWAP2 POP POP JUMP JUMPDEST PUSH1 0x0 PUSH1 0x20 DUP3 ADD SWAP1 POP DUP2 DUP2 SUB PUSH1 0x0 DUP4 ADD MSTORE PUSH2 0x14C DUP2 DUP5 PUSH2 0xDE JUMP JUMPDEST SWAP1 POP SWAP3 SWAP2 POP POP JUMP JUMPDEST PUSH1 0x0 DUP2 MLOAD SWAP1 POP SWAP2 SWAP1 POP JUMP JUMPDEST PUSH1 0x0 DUP3 DUP3 MSTORE PUSH1 0x20 DUP3 ADD SWAP1 POP SWAP3 SWAP2 POP POP JUMP JUMPDEST PUSH1 0x0 DUP2 SWAP1 POP SWAP2 SWAP1 POP JUMP JUMPDEST PUSH1 0x0 JUMPDEST DUP4 DUP2 LT ISZERO PUSH2 0x198 JUMPI DUP1 DUP3 ADD MLOAD DUP2 DUP5 ADD MSTORE PUSH1 0x20 DUP2 ADD SWAP1 POP PUSH2 0x17D JUMP JUMPDEST DUP4 DUP2 GT ISZERO PUSH2 0x1A7 JUMPI PUSH1 0x0 DUP5 DUP5 ADD MSTORE JUMPDEST POP POP POP POP JUMP JUMPDEST PUSH1 0x0 PUSH1 0x1F NOT PUSH1 0x1F DUP4 ADD AND SWAP1 POP SWAP2 SWAP1 POP JUMP INVALID LOG2 PUSH5 0x6970667358 0x22 SLT KECCAK256 PUSH6 0xEBD480BF8E22 0xCB 0xE5 0xC4 COINBASE 0xA6 PUSH13 0xA203433E81291674420D81EC82 SELFDESTRUCT 0xC4 0xBA GASLIMIT 0x4D PUSH23 0x64736F6C63430008070033000000000000000000000000 "
		},
		"gasEstimates": {
			"creation": {
				"codeDepositCost": "100000",
				"executionCost": "147",
				"totalCost": "100147"
			},
			"external": {
				"getByte()": "291",
				"getString()": "infinite"
			}
		},
		"methodIdentifiers": {
			"getByte()": "60585358",
			"getString()": "89ea642f"
		}
	},
	"abi": [
		{
			"inputs": [],
			"name": "getByte",
			"outputs": [
				{
					"internalType": "bytes32",
					"name": "",
					"type": "bytes32"
				}
			],
			"stateMutability": "payable",
			"type": "function"
		},
		{
			"inputs": [],
			"name": "getString",
			"outputs": [
				{
					"internalType": "string",
					"name": "",
					"type": "string"
				}
			],
			"stateMutability": "payable",
			"type": "function"
		}
	]
}