{
	"data": {
		"bytecode": {
			"linkReferences": {},
			"object": "608060405260405180602001604052806000815250600190805190602001906200002b92919062000045565b5060006002553480156200003e57600080fd5b506200015a565b8280546200005390620000f5565b90600052602060002090601f016020900481019282620000775760008555620000c3565b82601f106200009257805160ff1916838001178555620000c3565b82800160010185558215620000c3579182015b82811115620000c2578251825591602001919060010190620000a5565b5b509050620000d29190620000d6565b5090565b5b80821115620000f1576000816000905550600101620000d7565b5090565b600060028204905060018216806200010e57607f821691505b602082108114156200012557620001246200012b565b5b50919050565b7f4e487b7100000000000000000000000000000000000000000000000000000000600052602260045260246000fd5b611cbf806200016a6000396000f3fe608060405234801561001057600080fd5b50600436106100935760003560e01c8063677342ce11610066578063677342ce146101445780636d4ce63c1461017457806389c19ddb14610192578063d2820241146101c2578063eae8ef64146101f257610093565b806310bae567146100985780632fdb8e25146100c857806341c8987c146100f857806360fe47b114610128575b600080fd5b6100b260048036038101906100ad9190610e9b565b610222565b6040516100bf91906114bf565b60405180910390f35b6100e260048036038101906100dd9190610e9b565b6102ef565b6040516100ef91906114bf565b60405180910390f35b610112600480360381019061010d9190610e9b565b61040f565b60405161011f91906114bf565b60405180910390f35b610142600480360381019061013d9190610e6e565b61048a565b005b61015e60048036038101906101599190610e6e565b6106b7565b60405161016b91906114e1565b60405180910390f35b61017c61071a565b60405161018991906114bf565b60405180910390f35b6101ac60048036038101906101a79190610df6565b6107ac565b6040516101b991906114bf565b60405180910390f35b6101dc60048036038101906101d79190610e9b565b6107d8565b6040516101e991906114bf565b60405180910390f35b61020c60048036038101906102079190610e9b565b61094a565b60405161021991906114bf565b60405180910390f35b6060610246836102006102359190611616565b60dd610241919061158f565b610b2e565b610268836102006102579190611616565b6067610263919061158f565b610b2e565b610273600254610b2e565b610296866102006102849190611616565b610122610291919061158f565b610b2e565b6102b8866102006102a79190611616565b60676102b3919061158f565b610b2e565b6102c3600254610b2e565b6040516020016102d8969594939291906111b6565b604051602081830303815290604052905092915050565b6060610313836102006103029190611616565b60bd61030e919061158f565b610b2e565b610335836102006103249190611616565b6067610330919061158f565b610b2e565b610340600254610b2e565b610363866102006103519190611616565b61010261035e919061158f565b610b2e565b610385866102006103749190611616565b6067610380919061158f565b610b2e565b610390600254610b2e565b6103b3896102006103a19190611616565b6101466103ae919061158f565b610b2e565b6103d5896102006103c49190611616565b60676103d0919061158f565b610b2e565b6103e0600254610b2e565b6040516020016103f899989796959493929190611266565b604051602081830303815290604052905092915050565b6060610434836102006104229190611616565b61010661042f919061158f565b610b2e565b610456836102006104459190611616565b6067610451919061158f565b610b2e565b610461600254610b2e565b60405160200161047393929190611159565b604051602081830303815290604052905092915050565b806000819055506000604051806101a001604052806101668152602001611b246101669139905060006040518060400160405280600681526020017f3c2f7376673e00000000000000000000000000000000000000000000000000008152509050600061050e610507600560005461050291906115e5565b6106b7565b6001610c8f565b6103e861051b91906115e5565b905061053c6105356105306000546005610c8f565b6106b7565b6001610c8f565b600261054891906115e5565b600281905550600083905060006005600054610564919061179c565b90506000806000856103e861057991906115e5565b905060005b600560005461058d91906115e5565b8110156105d85781816105a0919061179c565b935081816105ae91906115e5565b92506105c3866105be868661094a565b6107ac565b955080806105d090611753565b91505061057e565b81816105e4919061179c565b935081816105f291906115e5565b92506000851461068857600185141561061f5761061886610613868661040f565b6107ac565b9550610687565b60028514156106425761063b866106368686610222565b6107ac565b9550610686565b60038514156106655761065e8661065986866102ef565b6107ac565b9550610685565b6004851415610684576106818661067c86866107d8565b6107ac565b95505b5b5b5b5b61069286896107ac565b955085600190805190602001906106aa929190610cce565b5050505050505050505050565b60008060026001846106c9919061158f565b6106d391906115e5565b905060008390505b808210156107105781905060028283866106f591906115e5565b6106ff919061158f565b61070991906115e5565b91506106db565b8092505050919050565b606060018054610729906116f0565b80601f0160208091040260200160405190810160405280929190818152602001828054610755906116f0565b80156107a25780601f10610777576101008083540402835291602001916107a2565b820191906000526020600020905b81548152906001019060200180831161078557829003601f168201915b5050505050905090565b606082826040516020016107c192919061112a565b604051602081830303815290604052905092915050565b60606107fc836102006107eb9190611616565b60916107f7919061158f565b610b2e565b61081e8361020061080d9190611616565b6067610819919061158f565b610b2e565b610829600254610b2e565b61084b8661020061083a9190611616565b60d6610846919061158f565b610b2e565b61086d8661020061085c9190611616565b6067610868919061158f565b610b2e565b610878600254610b2e565b61089b896102006108899190611616565b61011b610896919061158f565b610b2e565b6108bd896102006108ac9190611616565b60676108b8919061158f565b610b2e565b6108c8600254610b2e565b6108eb8c6102006108d99190611616565b6101646108e6919061158f565b610b2e565b61090d8c6102006108fc9190611616565b606b610908919061158f565b610b2e565b610918600254610b2e565b6040516020016109339c9b9a99989796959493929190611369565b604051602081830303815290604052905092915050565b606061096e8361020061095d9190611616565b6091610969919061158f565b610b2e565b6109908361020061097f9190611616565b606761098b919061158f565b610b2e565b61099b600254610b2e565b6109bd866102006109ac9190611616565b60d66109b8919061158f565b610b2e565b6109df866102006109ce9190611616565b60676109da919061158f565b610b2e565b6109ea600254610b2e565b610a0d896102006109fb9190611616565b61011a610a08919061158f565b610b2e565b610a2f89610200610a1e9190611616565b6067610a2a919061158f565b610b2e565b610a3a600254610b2e565b610a5d8c610200610a4b9190611616565b610164610a58919061158f565b610b2e565b610a7f8c610200610a6e9190611616565b606b610a7a919061158f565b610b2e565b610a8a600254610b2e565b604051602001610aa59c9b9a99989796959493929190611369565b604051602081830303815290604052610ad684610200610ac59190611616565b604e610ad1919061158f565b610b2e565b610af984610200610ae79190611616565b61013b610af4919061158f565b610b2e565b610b04600254610b2e565b604051602001610b1794939291906110c0565b604051602081830303815290604052905092915050565b60606000821415610b76576040518060400160405280600181526020017f30000000000000000000000000000000000000000000000000000000000000008152509050610c8a565b600082905060005b60008214610ba8578080610b9190611753565b915050600a82610ba191906115e5565b9150610b7e565b60008167ffffffffffffffff811115610bc457610bc3611889565b5b6040519080825280601f01601f191660200182016040528015610bf65781602001600182028036833780820191505090505b5090505b60008514610c8357600182610c0f9190611670565b9150600a85610c1e919061179c565b6030610c2a919061158f565b60f81b818381518110610c4057610c3f61185a565b5b60200101907effffffffffffffffffffffffffffffffffffffffffffffffffffffffffffff1916908160001a905350600a85610c7c91906115e5565b9450610bfa565b8093505050505b919050565b6000808284610c9e919061179c565b14610caa576001610cad565b60005b60ff168284610cbc91906115e5565b610cc6919061158f565b905092915050565b828054610cda906116f0565b90600052602060002090601f016020900481019282610cfc5760008555610d43565b82601f10610d1557805160ff1916838001178555610d43565b82800160010185558215610d43579182015b82811115610d42578251825591602001919060010190610d27565b5b509050610d509190610d54565b5090565b5b80821115610d6d576000816000905550600101610d55565b5090565b6000610d84610d7f84611521565b6114fc565b905082815260208101848484011115610da057610d9f6118bd565b5b610dab8482856116ae565b509392505050565b600082601f830112610dc857610dc76118b8565b5b8135610dd8848260208601610d71565b91505092915050565b600081359050610df081611b0c565b92915050565b60008060408385031215610e0d57610e0c6118c7565b5b600083013567ffffffffffffffff811115610e2b57610e2a6118c2565b5b610e3785828601610db3565b925050602083013567ffffffffffffffff811115610e5857610e576118c2565b5b610e6485828601610db3565b9150509250929050565b600060208284031215610e8457610e836118c7565b5b6000610e9284828501610de1565b91505092915050565b60008060408385031215610eb257610eb16118c7565b5b6000610ec085828601610de1565b9250506020610ed185828601610de1565b9150509250929050565b6000610ee682611552565b610ef08185611568565b9350610f008185602086016116bd565b80840191505092915050565b6000610f178261155d565b610f218185611573565b9350610f318185602086016116bd565b610f3a816118cc565b840191505092915050565b6000610f508261155d565b610f5a8185611584565b9350610f6a8185602086016116bd565b80840191505092915050565b6000610f83603483611584565b9150610f8e826118dd565b603482019050919050565b6000610fa6603683611584565b9150610fb18261192c565b603682019050919050565b6000610fc9600183611584565b9150610fd48261197b565b600182019050919050565b6000610fec600183611584565b9150610ff7826119a4565b600182019050919050565b600061100f600483611584565b915061101a826119cd565b600482019050919050565b6000611032603883611584565b915061103d826119f6565b603882019050919050565b6000611055603683611584565b915061106082611a45565b603682019050919050565b6000611078601683611584565b915061108382611a94565b601682019050919050565b600061109b603583611584565b91506110a682611abd565b603582019050919050565b6110ba816116a4565b82525050565b60006110cc8287610edb565b91506110d78261106b565b91506110e38286610f45565b91506110ee82610fbc565b91506110fa8285610f45565b915061110582611025565b91506111118284610f45565b915061111c82611002565b915081905095945050505050565b60006111368285610f45565b915061114182610fdf565b915061114d8284610f45565b91508190509392505050565b60006111648261106b565b91506111708286610f45565b915061117b82610fbc565b91506111878285610f45565b91506111928261108e565b915061119e8284610f45565b91506111a982611002565b9150819050949350505050565b60006111c18261106b565b91506111cd8289610f45565b91506111d882610fbc565b91506111e48288610f45565b91506111ef8261108e565b91506111fb8287610f45565b915061120682611002565b91506112118261106b565b915061121d8286610f45565b915061122882610fbc565b91506112348285610f45565b915061123f82610f99565b915061124b8284610f45565b915061125682611002565b9150819050979650505050505050565b60006112718261106b565b915061127d828c610f45565b915061128882610fbc565b9150611294828b610f45565b915061129f8261108e565b91506112ab828a610f45565b91506112b682611002565b91506112c18261106b565b91506112cd8289610f45565b91506112d882610fbc565b91506112e48288610f45565b91506112ef82610f99565b91506112fb8287610f45565b915061130682611002565b91506113118261106b565b915061131d8286610f45565b915061132882610fbc565b91506113348285610f45565b915061133f82611048565b915061134b8284610f45565b915061135682611002565b91508190509a9950505050505050505050565b60006113748261106b565b9150611380828f610f45565b915061138b82610fbc565b9150611397828e610f45565b91506113a28261108e565b91506113ae828d610f45565b91506113b982611002565b91506113c48261106b565b91506113d0828c610f45565b91506113db82610fbc565b91506113e7828b610f45565b91506113f282610f99565b91506113fe828a610f45565b915061140982611002565b91506114148261106b565b91506114208289610f45565b915061142b82610fbc565b91506114378288610f45565b915061144282611048565b915061144e8287610f45565b915061145982611002565b91506114648261106b565b91506114708286610f45565b915061147b82610fbc565b91506114878285610f45565b915061149282610f76565b915061149e8284610f45565b91506114a982611002565b91508190509d9c50505050505050505050505050565b600060208201905081810360008301526114d98184610f0c565b905092915050565b60006020820190506114f660008301846110b1565b92915050565b6000611506611517565b90506115128282611722565b919050565b6000604051905090565b600067ffffffffffffffff82111561153c5761153b611889565b5b611545826118cc565b9050602081019050919050565b600081519050919050565b600081519050919050565b600081905092915050565b600082825260208201905092915050565b600081905092915050565b600061159a826116a4565b91506115a5836116a4565b9250827fffffffffffffffffffffffffffffffffffffffffffffffffffffffffffffffff038211156115da576115d96117cd565b5b828201905092915050565b60006115f0826116a4565b91506115fb836116a4565b92508261160b5761160a6117fc565b5b828204905092915050565b6000611621826116a4565b915061162c836116a4565b9250817fffffffffffffffffffffffffffffffffffffffffffffffffffffffffffffffff0483118215151615611665576116646117cd565b5b828202905092915050565b600061167b826116a4565b9150611686836116a4565b925082821015611699576116986117cd565b5b828203905092915050565b6000819050919050565b82818337600083830152505050565b60005b838110156116db5780820151818401526020810190506116c0565b838111156116ea576000848401525b50505050565b6000600282049050600182168061170857607f821691505b6020821081141561171c5761171b61182b565b5b50919050565b61172b826118cc565b810181811067ffffffffffffffff8211171561174a57611749611889565b5b80604052505050565b600061175e826116a4565b91507fffffffffffffffffffffffffffffffffffffffffffffffffffffffffffffffff821415611791576117906117cd565b5b600182019050919050565b60006117a7826116a4565b91506117b2836116a4565b9250826117c2576117c16117fc565b5b828206905092915050565b7f4e487b7100000000000000000000000000000000000000000000000000000000600052601160045260246000fd5b7f4e487b7100000000000000000000000000000000000000000000000000000000600052601260045260246000fd5b7f4e487b7100000000000000000000000000000000000000000000000000000000600052602260045260246000fd5b7f4e487b7100000000000000000000000000000000000000000000000000000000600052603260045260246000fd5b7f4e487b7100000000000000000000000000000000000000000000000000000000600052604160045260246000fd5b600080fd5b600080fd5b600080fd5b600080fd5b6000601f19601f8301169050919050565b7f2763302c302c302e36332c3231392e312c352e372c3330302e3738272073747960008201527f6c653d277472616e73666f726d3a7363616c6528000000000000000000000000602082015250565b7f63302c302d382e34332c3230382e37332c31332e36312c3238302e363927207360008201527f74796c653d277472616e73666f726d3a7363616c652800000000000000000000602082015250565b7f2c00000000000000000000000000000000000000000000000000000000000000600082015250565b7f2000000000000000000000000000000000000000000000000000000000000000600082015250565b7f29272f3e00000000000000000000000000000000000000000000000000000000600082015250565b7f2763302c302c31322e39362d37382e34342c3335352e38382d3135322e33342760008201527f207374796c653d277472616e73666f726d3a7363616c65280000000000000000602082015250565b7f63302c302d31302e31312c3139312e32332c382e36382c3236352e313327207360008201527f74796c653d277472616e73666f726d3a7363616c652800000000000000000000602082015250565b7f3c7061746820636c6173733d277374302720643d274d00000000000000000000600082015250565b7f63302c302d32372e38372c3232312e372d322e35392c3238392e31312720737460008201527f796c653d277472616e73666f726d3a7363616c65280000000000000000000000602082015250565b611b15816116a4565b8114611b2057600080fd5b5056fe3c73766720786d6c6e733d22687474703a2f2f7777772e77332e6f72672f323030302f7376672220786d6c6e733a786c696e6b3d22687474703a2f2f7777772e77332e6f72672f313939392f786c696e6b222076657273696f6e3d22312e31222069643d224c617965725f312220783d223070782220793d22307078222076696577426f783d223020302031303234203130323422207374796c653d22656e61626c652d6261636b67726f756e643a6e657720302030203130323420313032343b2220786d6c3a73706163653d227072657365727665223e3c7374796c6520747970653d22746578742f637373223e2e7374307b66696c6c3a6e6f6e653b7374726f6b653a234544323232343b7374726f6b652d77696474683a32303b7374726f6b652d6c696e656361703a726f756e643b7374726f6b652d6c696e656a6f696e3a726f756e643b7374726f6b652d6d697465726c696d69743a31303b7d3c2f7374796c653ea2646970667358221220372e01f978c51ff3106508b2eea3ea62e77b98bf71b829d3ca7978597b8a461864736f6c63430008070033",
			"opcodes": "PUSH1 0x80 PUSH1 0x40 MSTORE PUSH1 0x40 MLOAD DUP1 PUSH1 0x20 ADD PUSH1 0x40 MSTORE DUP1 PUSH1 0x0 DUP2 MSTORE POP PUSH1 0x1 SWAP1 DUP1 MLOAD SWAP1 PUSH1 0x20 ADD SWAP1 PUSH3 0x2B SWAP3 SWAP2 SWAP1 PUSH3 0x45 JUMP JUMPDEST POP PUSH1 0x0 PUSH1 0x2 SSTORE CALLVALUE DUP1 ISZERO PUSH3 0x3E JUMPI PUSH1 0x0 DUP1 REVERT JUMPDEST POP PUSH3 0x15A JUMP JUMPDEST DUP3 DUP1 SLOAD PUSH3 0x53 SWAP1 PUSH3 0xF5 JUMP JUMPDEST SWAP1 PUSH1 0x0 MSTORE PUSH1 0x20 PUSH1 0x0 KECCAK256 SWAP1 PUSH1 0x1F ADD PUSH1 0x20 SWAP1 DIV DUP2 ADD SWAP3 DUP3 PUSH3 0x77 JUMPI PUSH1 0x0 DUP6 SSTORE PUSH3 0xC3 JUMP JUMPDEST DUP3 PUSH1 0x1F LT PUSH3 0x92 JUMPI DUP1 MLOAD PUSH1 0xFF NOT AND DUP4 DUP1 ADD OR DUP6 SSTORE PUSH3 0xC3 JUMP JUMPDEST DUP3 DUP1 ADD PUSH1 0x1 ADD DUP6 SSTORE DUP3 ISZERO PUSH3 0xC3 JUMPI SWAP2 DUP3 ADD JUMPDEST DUP3 DUP2 GT ISZERO PUSH3 0xC2 JUMPI DUP3 MLOAD DUP3 SSTORE SWAP2 PUSH1 0x20 ADD SWAP2 SWAP1 PUSH1 0x1 ADD SWAP1 PUSH3 0xA5 JUMP JUMPDEST JUMPDEST POP SWAP1 POP PUSH3 0xD2 SWAP2 SWAP1 PUSH3 0xD6 JUMP JUMPDEST POP SWAP1 JUMP JUMPDEST JUMPDEST DUP1 DUP3 GT ISZERO PUSH3 0xF1 JUMPI PUSH1 0x0 DUP2 PUSH1 0x0 SWAP1 SSTORE POP PUSH1 0x1 ADD PUSH3 0xD7 JUMP JUMPDEST POP SWAP1 JUMP JUMPDEST PUSH1 0x0 PUSH1 0x2 DUP3 DIV SWAP1 POP PUSH1 0x1 DUP3 AND DUP1 PUSH3 0x10E JUMPI PUSH1 0x7F DUP3 AND SWAP2 POP JUMPDEST PUSH1 0x20 DUP3 LT DUP2 EQ ISZERO PUSH3 0x125 JUMPI PUSH3 0x124 PUSH3 0x12B JUMP JUMPDEST JUMPDEST POP SWAP2 SWAP1 POP JUMP JUMPDEST PUSH32 0x4E487B7100000000000000000000000000000000000000000000000000000000 PUSH1 0x0 MSTORE PUSH1 0x22 PUSH1 0x4 MSTORE PUSH1 0x24 PUSH1 0x0 REVERT JUMPDEST PUSH2 0x1CBF DUP1 PUSH3 0x16A PUSH1 0x0 CODECOPY PUSH1 0x0 RETURN INVALID PUSH1 0x80 PUSH1 0x40 MSTORE CALLVALUE DUP1 ISZERO PUSH2 0x10 JUMPI PUSH1 0x0 DUP1 REVERT JUMPDEST POP PUSH1 0x4 CALLDATASIZE LT PUSH2 0x93 JUMPI PUSH1 0x0 CALLDATALOAD PUSH1 0xE0 SHR DUP1 PUSH4 0x677342CE GT PUSH2 0x66 JUMPI DUP1 PUSH4 0x677342CE EQ PUSH2 0x144 JUMPI DUP1 PUSH4 0x6D4CE63C EQ PUSH2 0x174 JUMPI DUP1 PUSH4 0x89C19DDB EQ PUSH2 0x192 JUMPI DUP1 PUSH4 0xD2820241 EQ PUSH2 0x1C2 JUMPI DUP1 PUSH4 0xEAE8EF64 EQ PUSH2 0x1F2 JUMPI PUSH2 0x93 JUMP JUMPDEST DUP1 PUSH4 0x10BAE567 EQ PUSH2 0x98 JUMPI DUP1 PUSH4 0x2FDB8E25 EQ PUSH2 0xC8 JUMPI DUP1 PUSH4 0x41C8987C EQ PUSH2 0xF8 JUMPI DUP1 PUSH4 0x60FE47B1 EQ PUSH2 0x128 JUMPI JUMPDEST PUSH1 0x0 DUP1 REVERT JUMPDEST PUSH2 0xB2 PUSH1 0x4 DUP1 CALLDATASIZE SUB DUP2 ADD SWAP1 PUSH2 0xAD SWAP2 SWAP1 PUSH2 0xE9B JUMP JUMPDEST PUSH2 0x222 JUMP JUMPDEST PUSH1 0x40 MLOAD PUSH2 0xBF SWAP2 SWAP1 PUSH2 0x14BF JUMP JUMPDEST PUSH1 0x40 MLOAD DUP1 SWAP2 SUB SWAP1 RETURN JUMPDEST PUSH2 0xE2 PUSH1 0x4 DUP1 CALLDATASIZE SUB DUP2 ADD SWAP1 PUSH2 0xDD SWAP2 SWAP1 PUSH2 0xE9B JUMP JUMPDEST PUSH2 0x2EF JUMP JUMPDEST PUSH1 0x40 MLOAD PUSH2 0xEF SWAP2 SWAP1 PUSH2 0x14BF JUMP JUMPDEST PUSH1 0x40 MLOAD DUP1 SWAP2 SUB SWAP1 RETURN JUMPDEST PUSH2 0x112 PUSH1 0x4 DUP1 CALLDATASIZE SUB DUP2 ADD SWAP1 PUSH2 0x10D SWAP2 SWAP1 PUSH2 0xE9B JUMP JUMPDEST PUSH2 0x40F JUMP JUMPDEST PUSH1 0x40 MLOAD PUSH2 0x11F SWAP2 SWAP1 PUSH2 0x14BF JUMP JUMPDEST PUSH1 0x40 MLOAD DUP1 SWAP2 SUB SWAP1 RETURN JUMPDEST PUSH2 0x142 PUSH1 0x4 DUP1 CALLDATASIZE SUB DUP2 ADD SWAP1 PUSH2 0x13D SWAP2 SWAP1 PUSH2 0xE6E JUMP JUMPDEST PUSH2 0x48A JUMP JUMPDEST STOP JUMPDEST PUSH2 0x15E PUSH1 0x4 DUP1 CALLDATASIZE SUB DUP2 ADD SWAP1 PUSH2 0x159 SWAP2 SWAP1 PUSH2 0xE6E JUMP JUMPDEST PUSH2 0x6B7 JUMP JUMPDEST PUSH1 0x40 MLOAD PUSH2 0x16B SWAP2 SWAP1 PUSH2 0x14E1 JUMP JUMPDEST PUSH1 0x40 MLOAD DUP1 SWAP2 SUB SWAP1 RETURN JUMPDEST PUSH2 0x17C PUSH2 0x71A JUMP JUMPDEST PUSH1 0x40 MLOAD PUSH2 0x189 SWAP2 SWAP1 PUSH2 0x14BF JUMP JUMPDEST PUSH1 0x40 MLOAD DUP1 SWAP2 SUB SWAP1 RETURN JUMPDEST PUSH2 0x1AC PUSH1 0x4 DUP1 CALLDATASIZE SUB DUP2 ADD SWAP1 PUSH2 0x1A7 SWAP2 SWAP1 PUSH2 0xDF6 JUMP JUMPDEST PUSH2 0x7AC JUMP JUMPDEST PUSH1 0x40 MLOAD PUSH2 0x1B9 SWAP2 SWAP1 PUSH2 0x14BF JUMP JUMPDEST PUSH1 0x40 MLOAD DUP1 SWAP2 SUB SWAP1 RETURN JUMPDEST PUSH2 0x1DC PUSH1 0x4 DUP1 CALLDATASIZE SUB DUP2 ADD SWAP1 PUSH2 0x1D7 SWAP2 SWAP1 PUSH2 0xE9B JUMP JUMPDEST PUSH2 0x7D8 JUMP JUMPDEST PUSH1 0x40 MLOAD PUSH2 0x1E9 SWAP2 SWAP1 PUSH2 0x14BF JUMP JUMPDEST PUSH1 0x40 MLOAD DUP1 SWAP2 SUB SWAP1 RETURN JUMPDEST PUSH2 0x20C PUSH1 0x4 DUP1 CALLDATASIZE SUB DUP2 ADD SWAP1 PUSH2 0x207 SWAP2 SWAP1 PUSH2 0xE9B JUMP JUMPDEST PUSH2 0x94A JUMP JUMPDEST PUSH1 0x40 MLOAD PUSH2 0x219 SWAP2 SWAP1 PUSH2 0x14BF JUMP JUMPDEST PUSH1 0x40 MLOAD DUP1 SWAP2 SUB SWAP1 RETURN JUMPDEST PUSH1 0x60 PUSH2 0x246 DUP4 PUSH2 0x200 PUSH2 0x235 SWAP2 SWAP1 PUSH2 0x1616 JUMP JUMPDEST PUSH1 0xDD PUSH2 0x241 SWAP2 SWAP1 PUSH2 0x158F JUMP JUMPDEST PUSH2 0xB2E JUMP JUMPDEST PUSH2 0x268 DUP4 PUSH2 0x200 PUSH2 0x257 SWAP2 SWAP1 PUSH2 0x1616 JUMP JUMPDEST PUSH1 0x67 PUSH2 0x263 SWAP2 SWAP1 PUSH2 0x158F JUMP JUMPDEST PUSH2 0xB2E JUMP JUMPDEST PUSH2 0x273 PUSH1 0x2 SLOAD PUSH2 0xB2E JUMP JUMPDEST PUSH2 0x296 DUP7 PUSH2 0x200 PUSH2 0x284 SWAP2 SWAP1 PUSH2 0x1616 JUMP JUMPDEST PUSH2 0x122 PUSH2 0x291 SWAP2 SWAP1 PUSH2 0x158F JUMP JUMPDEST PUSH2 0xB2E JUMP JUMPDEST PUSH2 0x2B8 DUP7 PUSH2 0x200 PUSH2 0x2A7 SWAP2 SWAP1 PUSH2 0x1616 JUMP JUMPDEST PUSH1 0x67 PUSH2 0x2B3 SWAP2 SWAP1 PUSH2 0x158F JUMP JUMPDEST PUSH2 0xB2E JUMP JUMPDEST PUSH2 0x2C3 PUSH1 0x2 SLOAD PUSH2 0xB2E JUMP JUMPDEST PUSH1 0x40 MLOAD PUSH1 0x20 ADD PUSH2 0x2D8 SWAP7 SWAP6 SWAP5 SWAP4 SWAP3 SWAP2 SWAP1 PUSH2 0x11B6 JUMP JUMPDEST PUSH1 0x40 MLOAD PUSH1 0x20 DUP2 DUP4 SUB SUB DUP2 MSTORE SWAP1 PUSH1 0x40 MSTORE SWAP1 POP SWAP3 SWAP2 POP POP JUMP JUMPDEST PUSH1 0x60 PUSH2 0x313 DUP4 PUSH2 0x200 PUSH2 0x302 SWAP2 SWAP1 PUSH2 0x1616 JUMP JUMPDEST PUSH1 0xBD PUSH2 0x30E SWAP2 SWAP1 PUSH2 0x158F JUMP JUMPDEST PUSH2 0xB2E JUMP JUMPDEST PUSH2 0x335 DUP4 PUSH2 0x200 PUSH2 0x324 SWAP2 SWAP1 PUSH2 0x1616 JUMP JUMPDEST PUSH1 0x67 PUSH2 0x330 SWAP2 SWAP1 PUSH2 0x158F JUMP JUMPDEST PUSH2 0xB2E JUMP JUMPDEST PUSH2 0x340 PUSH1 0x2 SLOAD PUSH2 0xB2E JUMP JUMPDEST PUSH2 0x363 DUP7 PUSH2 0x200 PUSH2 0x351 SWAP2 SWAP1 PUSH2 0x1616 JUMP JUMPDEST PUSH2 0x102 PUSH2 0x35E SWAP2 SWAP1 PUSH2 0x158F JUMP JUMPDEST PUSH2 0xB2E JUMP JUMPDEST PUSH2 0x385 DUP7 PUSH2 0x200 PUSH2 0x374 SWAP2 SWAP1 PUSH2 0x1616 JUMP JUMPDEST PUSH1 0x67 PUSH2 0x380 SWAP2 SWAP1 PUSH2 0x158F JUMP JUMPDEST PUSH2 0xB2E JUMP JUMPDEST PUSH2 0x390 PUSH1 0x2 SLOAD PUSH2 0xB2E JUMP JUMPDEST PUSH2 0x3B3 DUP10 PUSH2 0x200 PUSH2 0x3A1 SWAP2 SWAP1 PUSH2 0x1616 JUMP JUMPDEST PUSH2 0x146 PUSH2 0x3AE SWAP2 SWAP1 PUSH2 0x158F JUMP JUMPDEST PUSH2 0xB2E JUMP JUMPDEST PUSH2 0x3D5 DUP10 PUSH2 0x200 PUSH2 0x3C4 SWAP2 SWAP1 PUSH2 0x1616 JUMP JUMPDEST PUSH1 0x67 PUSH2 0x3D0 SWAP2 SWAP1 PUSH2 0x158F JUMP JUMPDEST PUSH2 0xB2E JUMP JUMPDEST PUSH2 0x3E0 PUSH1 0x2 SLOAD PUSH2 0xB2E JUMP JUMPDEST PUSH1 0x40 MLOAD PUSH1 0x20 ADD PUSH2 0x3F8 SWAP10 SWAP9 SWAP8 SWAP7 SWAP6 SWAP5 SWAP4 SWAP3 SWAP2 SWAP1 PUSH2 0x1266 JUMP JUMPDEST PUSH1 0x40 MLOAD PUSH1 0x20 DUP2 DUP4 SUB SUB DUP2 MSTORE SWAP1 PUSH1 0x40 MSTORE SWAP1 POP SWAP3 SWAP2 POP POP JUMP JUMPDEST PUSH1 0x60 PUSH2 0x434 DUP4 PUSH2 0x200 PUSH2 0x422 SWAP2 SWAP1 PUSH2 0x1616 JUMP JUMPDEST PUSH2 0x106 PUSH2 0x42F SWAP2 SWAP1 PUSH2 0x158F JUMP JUMPDEST PUSH2 0xB2E JUMP JUMPDEST PUSH2 0x456 DUP4 PUSH2 0x200 PUSH2 0x445 SWAP2 SWAP1 PUSH2 0x1616 JUMP JUMPDEST PUSH1 0x67 PUSH2 0x451 SWAP2 SWAP1 PUSH2 0x158F JUMP JUMPDEST PUSH2 0xB2E JUMP JUMPDEST PUSH2 0x461 PUSH1 0x2 SLOAD PUSH2 0xB2E JUMP JUMPDEST PUSH1 0x40 MLOAD PUSH1 0x20 ADD PUSH2 0x473 SWAP4 SWAP3 SWAP2 SWAP1 PUSH2 0x1159 JUMP JUMPDEST PUSH1 0x40 MLOAD PUSH1 0x20 DUP2 DUP4 SUB SUB DUP2 MSTORE SWAP1 PUSH1 0x40 MSTORE SWAP1 POP SWAP3 SWAP2 POP POP JUMP JUMPDEST DUP1 PUSH1 0x0 DUP2 SWAP1 SSTORE POP PUSH1 0x0 PUSH1 0x40 MLOAD DUP1 PUSH2 0x1A0 ADD PUSH1 0x40 MSTORE DUP1 PUSH2 0x166 DUP2 MSTORE PUSH1 0x20 ADD PUSH2 0x1B24 PUSH2 0x166 SWAP2 CODECOPY SWAP1 POP PUSH1 0x0 PUSH1 0x40 MLOAD DUP1 PUSH1 0x40 ADD PUSH1 0x40 MSTORE DUP1 PUSH1 0x6 DUP2 MSTORE PUSH1 0x20 ADD PUSH32 0x3C2F7376673E0000000000000000000000000000000000000000000000000000 DUP2 MSTORE POP SWAP1 POP PUSH1 0x0 PUSH2 0x50E PUSH2 0x507 PUSH1 0x5 PUSH1 0x0 SLOAD PUSH2 0x502 SWAP2 SWAP1 PUSH2 0x15E5 JUMP JUMPDEST PUSH2 0x6B7 JUMP JUMPDEST PUSH1 0x1 PUSH2 0xC8F JUMP JUMPDEST PUSH2 0x3E8 PUSH2 0x51B SWAP2 SWAP1 PUSH2 0x15E5 JUMP JUMPDEST SWAP1 POP PUSH2 0x53C PUSH2 0x535 PUSH2 0x530 PUSH1 0x0 SLOAD PUSH1 0x5 PUSH2 0xC8F JUMP JUMPDEST PUSH2 0x6B7 JUMP JUMPDEST PUSH1 0x1 PUSH2 0xC8F JUMP JUMPDEST PUSH1 0x2 PUSH2 0x548 SWAP2 SWAP1 PUSH2 0x15E5 JUMP JUMPDEST PUSH1 0x2 DUP2 SWAP1 SSTORE POP PUSH1 0x0 DUP4 SWAP1 POP PUSH1 0x0 PUSH1 0x5 PUSH1 0x0 SLOAD PUSH2 0x564 SWAP2 SWAP1 PUSH2 0x179C JUMP JUMPDEST SWAP1 POP PUSH1 0x0 DUP1 PUSH1 0x0 DUP6 PUSH2 0x3E8 PUSH2 0x579 SWAP2 SWAP1 PUSH2 0x15E5 JUMP JUMPDEST SWAP1 POP PUSH1 0x0 JUMPDEST PUSH1 0x5 PUSH1 0x0 SLOAD PUSH2 0x58D SWAP2 SWAP1 PUSH2 0x15E5 JUMP JUMPDEST DUP2 LT ISZERO PUSH2 0x5D8 JUMPI DUP2 DUP2 PUSH2 0x5A0 SWAP2 SWAP1 PUSH2 0x179C JUMP JUMPDEST SWAP4 POP DUP2 DUP2 PUSH2 0x5AE SWAP2 SWAP1 PUSH2 0x15E5 JUMP JUMPDEST SWAP3 POP PUSH2 0x5C3 DUP7 PUSH2 0x5BE DUP7 DUP7 PUSH2 0x94A JUMP JUMPDEST PUSH2 0x7AC JUMP JUMPDEST SWAP6 POP DUP1 DUP1 PUSH2 0x5D0 SWAP1 PUSH2 0x1753 JUMP JUMPDEST SWAP2 POP POP PUSH2 0x57E JUMP JUMPDEST DUP2 DUP2 PUSH2 0x5E4 SWAP2 SWAP1 PUSH2 0x179C JUMP JUMPDEST SWAP4 POP DUP2 DUP2 PUSH2 0x5F2 SWAP2 SWAP1 PUSH2 0x15E5 JUMP JUMPDEST SWAP3 POP PUSH1 0x0 DUP6 EQ PUSH2 0x688 JUMPI PUSH1 0x1 DUP6 EQ ISZERO PUSH2 0x61F JUMPI PUSH2 0x618 DUP7 PUSH2 0x613 DUP7 DUP7 PUSH2 0x40F JUMP JUMPDEST PUSH2 0x7AC JUMP JUMPDEST SWAP6 POP PUSH2 0x687 JUMP JUMPDEST PUSH1 0x2 DUP6 EQ ISZERO PUSH2 0x642 JUMPI PUSH2 0x63B DUP7 PUSH2 0x636 DUP7 DUP7 PUSH2 0x222 JUMP JUMPDEST PUSH2 0x7AC JUMP JUMPDEST SWAP6 POP PUSH2 0x686 JUMP JUMPDEST PUSH1 0x3 DUP6 EQ ISZERO PUSH2 0x665 JUMPI PUSH2 0x65E DUP7 PUSH2 0x659 DUP7 DUP7 PUSH2 0x2EF JUMP JUMPDEST PUSH2 0x7AC JUMP JUMPDEST SWAP6 POP PUSH2 0x685 JUMP JUMPDEST PUSH1 0x4 DUP6 EQ ISZERO PUSH2 0x684 JUMPI PUSH2 0x681 DUP7 PUSH2 0x67C DUP7 DUP7 PUSH2 0x7D8 JUMP JUMPDEST PUSH2 0x7AC JUMP JUMPDEST SWAP6 POP JUMPDEST JUMPDEST JUMPDEST JUMPDEST JUMPDEST PUSH2 0x692 DUP7 DUP10 PUSH2 0x7AC JUMP JUMPDEST SWAP6 POP DUP6 PUSH1 0x1 SWAP1 DUP1 MLOAD SWAP1 PUSH1 0x20 ADD SWAP1 PUSH2 0x6AA SWAP3 SWAP2 SWAP1 PUSH2 0xCCE JUMP JUMPDEST POP POP POP POP POP POP POP POP POP POP POP JUMP JUMPDEST PUSH1 0x0 DUP1 PUSH1 0x2 PUSH1 0x1 DUP5 PUSH2 0x6C9 SWAP2 SWAP1 PUSH2 0x158F JUMP JUMPDEST PUSH2 0x6D3 SWAP2 SWAP1 PUSH2 0x15E5 JUMP JUMPDEST SWAP1 POP PUSH1 0x0 DUP4 SWAP1 POP JUMPDEST DUP1 DUP3 LT ISZERO PUSH2 0x710 JUMPI DUP2 SWAP1 POP PUSH1 0x2 DUP3 DUP4 DUP7 PUSH2 0x6F5 SWAP2 SWAP1 PUSH2 0x15E5 JUMP JUMPDEST PUSH2 0x6FF SWAP2 SWAP1 PUSH2 0x158F JUMP JUMPDEST PUSH2 0x709 SWAP2 SWAP1 PUSH2 0x15E5 JUMP JUMPDEST SWAP2 POP PUSH2 0x6DB JUMP JUMPDEST DUP1 SWAP3 POP POP POP SWAP2 SWAP1 POP JUMP JUMPDEST PUSH1 0x60 PUSH1 0x1 DUP1 SLOAD PUSH2 0x729 SWAP1 PUSH2 0x16F0 JUMP JUMPDEST DUP1 PUSH1 0x1F ADD PUSH1 0x20 DUP1 SWAP2 DIV MUL PUSH1 0x20 ADD PUSH1 0x40 MLOAD SWAP1 DUP2 ADD PUSH1 0x40 MSTORE DUP1 SWAP3 SWAP2 SWAP1 DUP2 DUP2 MSTORE PUSH1 0x20 ADD DUP3 DUP1 SLOAD PUSH2 0x755 SWAP1 PUSH2 0x16F0 JUMP JUMPDEST DUP1 ISZERO PUSH2 0x7A2 JUMPI DUP1 PUSH1 0x1F LT PUSH2 0x777 JUMPI PUSH2 0x100 DUP1 DUP4 SLOAD DIV MUL DUP4 MSTORE SWAP2 PUSH1 0x20 ADD SWAP2 PUSH2 0x7A2 JUMP JUMPDEST DUP3 ADD SWAP2 SWAP1 PUSH1 0x0 MSTORE PUSH1 0x20 PUSH1 0x0 KECCAK256 SWAP1 JUMPDEST DUP2 SLOAD DUP2 MSTORE SWAP1 PUSH1 0x1 ADD SWAP1 PUSH1 0x20 ADD DUP1 DUP4 GT PUSH2 0x785 JUMPI DUP3 SWAP1 SUB PUSH1 0x1F AND DUP3 ADD SWAP2 JUMPDEST POP POP POP POP POP SWAP1 POP SWAP1 JUMP JUMPDEST PUSH1 0x60 DUP3 DUP3 PUSH1 0x40 MLOAD PUSH1 0x20 ADD PUSH2 0x7C1 SWAP3 SWAP2 SWAP1 PUSH2 0x112A JUMP JUMPDEST PUSH1 0x40 MLOAD PUSH1 0x20 DUP2 DUP4 SUB SUB DUP2 MSTORE SWAP1 PUSH1 0x40 MSTORE SWAP1 POP SWAP3 SWAP2 POP POP JUMP JUMPDEST PUSH1 0x60 PUSH2 0x7FC DUP4 PUSH2 0x200 PUSH2 0x7EB SWAP2 SWAP1 PUSH2 0x1616 JUMP JUMPDEST PUSH1 0x91 PUSH2 0x7F7 SWAP2 SWAP1 PUSH2 0x158F JUMP JUMPDEST PUSH2 0xB2E JUMP JUMPDEST PUSH2 0x81E DUP4 PUSH2 0x200 PUSH2 0x80D SWAP2 SWAP1 PUSH2 0x1616 JUMP JUMPDEST PUSH1 0x67 PUSH2 0x819 SWAP2 SWAP1 PUSH2 0x158F JUMP JUMPDEST PUSH2 0xB2E JUMP JUMPDEST PUSH2 0x829 PUSH1 0x2 SLOAD PUSH2 0xB2E JUMP JUMPDEST PUSH2 0x84B DUP7 PUSH2 0x200 PUSH2 0x83A SWAP2 SWAP1 PUSH2 0x1616 JUMP JUMPDEST PUSH1 0xD6 PUSH2 0x846 SWAP2 SWAP1 PUSH2 0x158F JUMP JUMPDEST PUSH2 0xB2E JUMP JUMPDEST PUSH2 0x86D DUP7 PUSH2 0x200 PUSH2 0x85C SWAP2 SWAP1 PUSH2 0x1616 JUMP JUMPDEST PUSH1 0x67 PUSH2 0x868 SWAP2 SWAP1 PUSH2 0x158F JUMP JUMPDEST PUSH2 0xB2E JUMP JUMPDEST PUSH2 0x878 PUSH1 0x2 SLOAD PUSH2 0xB2E JUMP JUMPDEST PUSH2 0x89B DUP10 PUSH2 0x200 PUSH2 0x889 SWAP2 SWAP1 PUSH2 0x1616 JUMP JUMPDEST PUSH2 0x11B PUSH2 0x896 SWAP2 SWAP1 PUSH2 0x158F JUMP JUMPDEST PUSH2 0xB2E JUMP JUMPDEST PUSH2 0x8BD DUP10 PUSH2 0x200 PUSH2 0x8AC SWAP2 SWAP1 PUSH2 0x1616 JUMP JUMPDEST PUSH1 0x67 PUSH2 0x8B8 SWAP2 SWAP1 PUSH2 0x158F JUMP JUMPDEST PUSH2 0xB2E JUMP JUMPDEST PUSH2 0x8C8 PUSH1 0x2 SLOAD PUSH2 0xB2E JUMP JUMPDEST PUSH2 0x8EB DUP13 PUSH2 0x200 PUSH2 0x8D9 SWAP2 SWAP1 PUSH2 0x1616 JUMP JUMPDEST PUSH2 0x164 PUSH2 0x8E6 SWAP2 SWAP1 PUSH2 0x158F JUMP JUMPDEST PUSH2 0xB2E JUMP JUMPDEST PUSH2 0x90D DUP13 PUSH2 0x200 PUSH2 0x8FC SWAP2 SWAP1 PUSH2 0x1616 JUMP JUMPDEST PUSH1 0x6B PUSH2 0x908 SWAP2 SWAP1 PUSH2 0x158F JUMP JUMPDEST PUSH2 0xB2E JUMP JUMPDEST PUSH2 0x918 PUSH1 0x2 SLOAD PUSH2 0xB2E JUMP JUMPDEST PUSH1 0x40 MLOAD PUSH1 0x20 ADD PUSH2 0x933 SWAP13 SWAP12 SWAP11 SWAP10 SWAP9 SWAP8 SWAP7 SWAP6 SWAP5 SWAP4 SWAP3 SWAP2 SWAP1 PUSH2 0x1369 JUMP JUMPDEST PUSH1 0x40 MLOAD PUSH1 0x20 DUP2 DUP4 SUB SUB DUP2 MSTORE SWAP1 PUSH1 0x40 MSTORE SWAP1 POP SWAP3 SWAP2 POP POP JUMP JUMPDEST PUSH1 0x60 PUSH2 0x96E DUP4 PUSH2 0x200 PUSH2 0x95D SWAP2 SWAP1 PUSH2 0x1616 JUMP JUMPDEST PUSH1 0x91 PUSH2 0x969 SWAP2 SWAP1 PUSH2 0x158F JUMP JUMPDEST PUSH2 0xB2E JUMP JUMPDEST PUSH2 0x990 DUP4 PUSH2 0x200 PUSH2 0x97F SWAP2 SWAP1 PUSH2 0x1616 JUMP JUMPDEST PUSH1 0x67 PUSH2 0x98B SWAP2 SWAP1 PUSH2 0x158F JUMP JUMPDEST PUSH2 0xB2E JUMP JUMPDEST PUSH2 0x99B PUSH1 0x2 SLOAD PUSH2 0xB2E JUMP JUMPDEST PUSH2 0x9BD DUP7 PUSH2 0x200 PUSH2 0x9AC SWAP2 SWAP1 PUSH2 0x1616 JUMP JUMPDEST PUSH1 0xD6 PUSH2 0x9B8 SWAP2 SWAP1 PUSH2 0x158F JUMP JUMPDEST PUSH2 0xB2E JUMP JUMPDEST PUSH2 0x9DF DUP7 PUSH2 0x200 PUSH2 0x9CE SWAP2 SWAP1 PUSH2 0x1616 JUMP JUMPDEST PUSH1 0x67 PUSH2 0x9DA SWAP2 SWAP1 PUSH2 0x158F JUMP JUMPDEST PUSH2 0xB2E JUMP JUMPDEST PUSH2 0x9EA PUSH1 0x2 SLOAD PUSH2 0xB2E JUMP JUMPDEST PUSH2 0xA0D DUP10 PUSH2 0x200 PUSH2 0x9FB SWAP2 SWAP1 PUSH2 0x1616 JUMP JUMPDEST PUSH2 0x11A PUSH2 0xA08 SWAP2 SWAP1 PUSH2 0x158F JUMP JUMPDEST PUSH2 0xB2E JUMP JUMPDEST PUSH2 0xA2F DUP10 PUSH2 0x200 PUSH2 0xA1E SWAP2 SWAP1 PUSH2 0x1616 JUMP JUMPDEST PUSH1 0x67 PUSH2 0xA2A SWAP2 SWAP1 PUSH2 0x158F JUMP JUMPDEST PUSH2 0xB2E JUMP JUMPDEST PUSH2 0xA3A PUSH1 0x2 SLOAD PUSH2 0xB2E JUMP JUMPDEST PUSH2 0xA5D DUP13 PUSH2 0x200 PUSH2 0xA4B SWAP2 SWAP1 PUSH2 0x1616 JUMP JUMPDEST PUSH2 0x164 PUSH2 0xA58 SWAP2 SWAP1 PUSH2 0x158F JUMP JUMPDEST PUSH2 0xB2E JUMP JUMPDEST PUSH2 0xA7F DUP13 PUSH2 0x200 PUSH2 0xA6E SWAP2 SWAP1 PUSH2 0x1616 JUMP JUMPDEST PUSH1 0x6B PUSH2 0xA7A SWAP2 SWAP1 PUSH2 0x158F JUMP JUMPDEST PUSH2 0xB2E JUMP JUMPDEST PUSH2 0xA8A PUSH1 0x2 SLOAD PUSH2 0xB2E JUMP JUMPDEST PUSH1 0x40 MLOAD PUSH1 0x20 ADD PUSH2 0xAA5 SWAP13 SWAP12 SWAP11 SWAP10 SWAP9 SWAP8 SWAP7 SWAP6 SWAP5 SWAP4 SWAP3 SWAP2 SWAP1 PUSH2 0x1369 JUMP JUMPDEST PUSH1 0x40 MLOAD PUSH1 0x20 DUP2 DUP4 SUB SUB DUP2 MSTORE SWAP1 PUSH1 0x40 MSTORE PUSH2 0xAD6 DUP5 PUSH2 0x200 PUSH2 0xAC5 SWAP2 SWAP1 PUSH2 0x1616 JUMP JUMPDEST PUSH1 0x4E PUSH2 0xAD1 SWAP2 SWAP1 PUSH2 0x158F JUMP JUMPDEST PUSH2 0xB2E JUMP JUMPDEST PUSH2 0xAF9 DUP5 PUSH2 0x200 PUSH2 0xAE7 SWAP2 SWAP1 PUSH2 0x1616 JUMP JUMPDEST PUSH2 0x13B PUSH2 0xAF4 SWAP2 SWAP1 PUSH2 0x158F JUMP JUMPDEST PUSH2 0xB2E JUMP JUMPDEST PUSH2 0xB04 PUSH1 0x2 SLOAD PUSH2 0xB2E JUMP JUMPDEST PUSH1 0x40 MLOAD PUSH1 0x20 ADD PUSH2 0xB17 SWAP5 SWAP4 SWAP3 SWAP2 SWAP1 PUSH2 0x10C0 JUMP JUMPDEST PUSH1 0x40 MLOAD PUSH1 0x20 DUP2 DUP4 SUB SUB DUP2 MSTORE SWAP1 PUSH1 0x40 MSTORE SWAP1 POP SWAP3 SWAP2 POP POP JUMP JUMPDEST PUSH1 0x60 PUSH1 0x0 DUP3 EQ ISZERO PUSH2 0xB76 JUMPI PUSH1 0x40 MLOAD DUP1 PUSH1 0x40 ADD PUSH1 0x40 MSTORE DUP1 PUSH1 0x1 DUP2 MSTORE PUSH1 0x20 ADD PUSH32 0x3000000000000000000000000000000000000000000000000000000000000000 DUP2 MSTORE POP SWAP1 POP PUSH2 0xC8A JUMP JUMPDEST PUSH1 0x0 DUP3 SWAP1 POP PUSH1 0x0 JUMPDEST PUSH1 0x0 DUP3 EQ PUSH2 0xBA8 JUMPI DUP1 DUP1 PUSH2 0xB91 SWAP1 PUSH2 0x1753 JUMP JUMPDEST SWAP2 POP POP PUSH1 0xA DUP3 PUSH2 0xBA1 SWAP2 SWAP1 PUSH2 0x15E5 JUMP JUMPDEST SWAP2 POP PUSH2 0xB7E JUMP JUMPDEST PUSH1 0x0 DUP2 PUSH8 0xFFFFFFFFFFFFFFFF DUP2 GT ISZERO PUSH2 0xBC4 JUMPI PUSH2 0xBC3 PUSH2 0x1889 JUMP JUMPDEST JUMPDEST PUSH1 0x40 MLOAD SWAP1 DUP1 DUP3 MSTORE DUP1 PUSH1 0x1F ADD PUSH1 0x1F NOT AND PUSH1 0x20 ADD DUP3 ADD PUSH1 0x40 MSTORE DUP1 ISZERO PUSH2 0xBF6 JUMPI DUP2 PUSH1 0x20 ADD PUSH1 0x1 DUP3 MUL DUP1 CALLDATASIZE DUP4 CALLDATACOPY DUP1 DUP3 ADD SWAP2 POP POP SWAP1 POP JUMPDEST POP SWAP1 POP JUMPDEST PUSH1 0x0 DUP6 EQ PUSH2 0xC83 JUMPI PUSH1 0x1 DUP3 PUSH2 0xC0F SWAP2 SWAP1 PUSH2 0x1670 JUMP JUMPDEST SWAP2 POP PUSH1 0xA DUP6 PUSH2 0xC1E SWAP2 SWAP1 PUSH2 0x179C JUMP JUMPDEST PUSH1 0x30 PUSH2 0xC2A SWAP2 SWAP1 PUSH2 0x158F JUMP JUMPDEST PUSH1 0xF8 SHL DUP2 DUP4 DUP2 MLOAD DUP2 LT PUSH2 0xC40 JUMPI PUSH2 0xC3F PUSH2 0x185A JUMP JUMPDEST JUMPDEST PUSH1 0x20 ADD ADD SWAP1 PUSH31 0xFFFFFFFFFFFFFFFFFFFFFFFFFFFFFFFFFFFFFFFFFFFFFFFFFFFFFFFFFFFFFF NOT AND SWAP1 DUP2 PUSH1 0x0 BYTE SWAP1 MSTORE8 POP PUSH1 0xA DUP6 PUSH2 0xC7C SWAP2 SWAP1 PUSH2 0x15E5 JUMP JUMPDEST SWAP5 POP PUSH2 0xBFA JUMP JUMPDEST DUP1 SWAP4 POP POP POP POP JUMPDEST SWAP2 SWAP1 POP JUMP JUMPDEST PUSH1 0x0 DUP1 DUP3 DUP5 PUSH2 0xC9E SWAP2 SWAP1 PUSH2 0x179C JUMP JUMPDEST EQ PUSH2 0xCAA JUMPI PUSH1 0x1 PUSH2 0xCAD JUMP JUMPDEST PUSH1 0x0 JUMPDEST PUSH1 0xFF AND DUP3 DUP5 PUSH2 0xCBC SWAP2 SWAP1 PUSH2 0x15E5 JUMP JUMPDEST PUSH2 0xCC6 SWAP2 SWAP1 PUSH2 0x158F JUMP JUMPDEST SWAP1 POP SWAP3 SWAP2 POP POP JUMP JUMPDEST DUP3 DUP1 SLOAD PUSH2 0xCDA SWAP1 PUSH2 0x16F0 JUMP JUMPDEST SWAP1 PUSH1 0x0 MSTORE PUSH1 0x20 PUSH1 0x0 KECCAK256 SWAP1 PUSH1 0x1F ADD PUSH1 0x20 SWAP1 DIV DUP2 ADD SWAP3 DUP3 PUSH2 0xCFC JUMPI PUSH1 0x0 DUP6 SSTORE PUSH2 0xD43 JUMP JUMPDEST DUP3 PUSH1 0x1F LT PUSH2 0xD15 JUMPI DUP1 MLOAD PUSH1 0xFF NOT AND DUP4 DUP1 ADD OR DUP6 SSTORE PUSH2 0xD43 JUMP JUMPDEST DUP3 DUP1 ADD PUSH1 0x1 ADD DUP6 SSTORE DUP3 ISZERO PUSH2 0xD43 JUMPI SWAP2 DUP3 ADD JUMPDEST DUP3 DUP2 GT ISZERO PUSH2 0xD42 JUMPI DUP3 MLOAD DUP3 SSTORE SWAP2 PUSH1 0x20 ADD SWAP2 SWAP1 PUSH1 0x1 ADD SWAP1 PUSH2 0xD27 JUMP JUMPDEST JUMPDEST POP SWAP1 POP PUSH2 0xD50 SWAP2 SWAP1 PUSH2 0xD54 JUMP JUMPDEST POP SWAP1 JUMP JUMPDEST JUMPDEST DUP1 DUP3 GT ISZERO PUSH2 0xD6D JUMPI PUSH1 0x0 DUP2 PUSH1 0x0 SWAP1 SSTORE POP PUSH1 0x1 ADD PUSH2 0xD55 JUMP JUMPDEST POP SWAP1 JUMP JUMPDEST PUSH1 0x0 PUSH2 0xD84 PUSH2 0xD7F DUP5 PUSH2 0x1521 JUMP JUMPDEST PUSH2 0x14FC JUMP JUMPDEST SWAP1 POP DUP3 DUP2 MSTORE PUSH1 0x20 DUP2 ADD DUP5 DUP5 DUP5 ADD GT ISZERO PUSH2 0xDA0 JUMPI PUSH2 0xD9F PUSH2 0x18BD JUMP JUMPDEST JUMPDEST PUSH2 0xDAB DUP5 DUP3 DUP6 PUSH2 0x16AE JUMP JUMPDEST POP SWAP4 SWAP3 POP POP POP JUMP JUMPDEST PUSH1 0x0 DUP3 PUSH1 0x1F DUP4 ADD SLT PUSH2 0xDC8 JUMPI PUSH2 0xDC7 PUSH2 0x18B8 JUMP JUMPDEST JUMPDEST DUP2 CALLDATALOAD PUSH2 0xDD8 DUP5 DUP3 PUSH1 0x20 DUP7 ADD PUSH2 0xD71 JUMP JUMPDEST SWAP2 POP POP SWAP3 SWAP2 POP POP JUMP JUMPDEST PUSH1 0x0 DUP2 CALLDATALOAD SWAP1 POP PUSH2 0xDF0 DUP2 PUSH2 0x1B0C JUMP JUMPDEST SWAP3 SWAP2 POP POP JUMP JUMPDEST PUSH1 0x0 DUP1 PUSH1 0x40 DUP4 DUP6 SUB SLT ISZERO PUSH2 0xE0D JUMPI PUSH2 0xE0C PUSH2 0x18C7 JUMP JUMPDEST JUMPDEST PUSH1 0x0 DUP4 ADD CALLDATALOAD PUSH8 0xFFFFFFFFFFFFFFFF DUP2 GT ISZERO PUSH2 0xE2B JUMPI PUSH2 0xE2A PUSH2 0x18C2 JUMP JUMPDEST JUMPDEST PUSH2 0xE37 DUP6 DUP3 DUP7 ADD PUSH2 0xDB3 JUMP JUMPDEST SWAP3 POP POP PUSH1 0x20 DUP4 ADD CALLDATALOAD PUSH8 0xFFFFFFFFFFFFFFFF DUP2 GT ISZERO PUSH2 0xE58 JUMPI PUSH2 0xE57 PUSH2 0x18C2 JUMP JUMPDEST JUMPDEST PUSH2 0xE64 DUP6 DUP3 DUP7 ADD PUSH2 0xDB3 JUMP JUMPDEST SWAP2 POP POP SWAP3 POP SWAP3 SWAP1 POP JUMP JUMPDEST PUSH1 0x0 PUSH1 0x20 DUP3 DUP5 SUB SLT ISZERO PUSH2 0xE84 JUMPI PUSH2 0xE83 PUSH2 0x18C7 JUMP JUMPDEST JUMPDEST PUSH1 0x0 PUSH2 0xE92 DUP5 DUP3 DUP6 ADD PUSH2 0xDE1 JUMP JUMPDEST SWAP2 POP POP SWAP3 SWAP2 POP POP JUMP JUMPDEST PUSH1 0x0 DUP1 PUSH1 0x40 DUP4 DUP6 SUB SLT ISZERO PUSH2 0xEB2 JUMPI PUSH2 0xEB1 PUSH2 0x18C7 JUMP JUMPDEST JUMPDEST PUSH1 0x0 PUSH2 0xEC0 DUP6 DUP3 DUP7 ADD PUSH2 0xDE1 JUMP JUMPDEST SWAP3 POP POP PUSH1 0x20 PUSH2 0xED1 DUP6 DUP3 DUP7 ADD PUSH2 0xDE1 JUMP JUMPDEST SWAP2 POP POP SWAP3 POP SWAP3 SWAP1 POP JUMP JUMPDEST PUSH1 0x0 PUSH2 0xEE6 DUP3 PUSH2 0x1552 JUMP JUMPDEST PUSH2 0xEF0 DUP2 DUP6 PUSH2 0x1568 JUMP JUMPDEST SWAP4 POP PUSH2 0xF00 DUP2 DUP6 PUSH1 0x20 DUP7 ADD PUSH2 0x16BD JUMP JUMPDEST DUP1 DUP5 ADD SWAP2 POP POP SWAP3 SWAP2 POP POP JUMP JUMPDEST PUSH1 0x0 PUSH2 0xF17 DUP3 PUSH2 0x155D JUMP JUMPDEST PUSH2 0xF21 DUP2 DUP6 PUSH2 0x1573 JUMP JUMPDEST SWAP4 POP PUSH2 0xF31 DUP2 DUP6 PUSH1 0x20 DUP7 ADD PUSH2 0x16BD JUMP JUMPDEST PUSH2 0xF3A DUP2 PUSH2 0x18CC JUMP JUMPDEST DUP5 ADD SWAP2 POP POP SWAP3 SWAP2 POP POP JUMP JUMPDEST PUSH1 0x0 PUSH2 0xF50 DUP3 PUSH2 0x155D JUMP JUMPDEST PUSH2 0xF5A DUP2 DUP6 PUSH2 0x1584 JUMP JUMPDEST SWAP4 POP PUSH2 0xF6A DUP2 DUP6 PUSH1 0x20 DUP7 ADD PUSH2 0x16BD JUMP JUMPDEST DUP1 DUP5 ADD SWAP2 POP POP SWAP3 SWAP2 POP POP JUMP JUMPDEST PUSH1 0x0 PUSH2 0xF83 PUSH1 0x34 DUP4 PUSH2 0x1584 JUMP JUMPDEST SWAP2 POP PUSH2 0xF8E DUP3 PUSH2 0x18DD JUMP JUMPDEST PUSH1 0x34 DUP3 ADD SWAP1 POP SWAP2 SWAP1 POP JUMP JUMPDEST PUSH1 0x0 PUSH2 0xFA6 PUSH1 0x36 DUP4 PUSH2 0x1584 JUMP JUMPDEST SWAP2 POP PUSH2 0xFB1 DUP3 PUSH2 0x192C JUMP JUMPDEST PUSH1 0x36 DUP3 ADD SWAP1 POP SWAP2 SWAP1 POP JUMP JUMPDEST PUSH1 0x0 PUSH2 0xFC9 PUSH1 0x1 DUP4 PUSH2 0x1584 JUMP JUMPDEST SWAP2 POP PUSH2 0xFD4 DUP3 PUSH2 0x197B JUMP JUMPDEST PUSH1 0x1 DUP3 ADD SWAP1 POP SWAP2 SWAP1 POP JUMP JUMPDEST PUSH1 0x0 PUSH2 0xFEC PUSH1 0x1 DUP4 PUSH2 0x1584 JUMP JUMPDEST SWAP2 POP PUSH2 0xFF7 DUP3 PUSH2 0x19A4 JUMP JUMPDEST PUSH1 0x1 DUP3 ADD SWAP1 POP SWAP2 SWAP1 POP JUMP JUMPDEST PUSH1 0x0 PUSH2 0x100F PUSH1 0x4 DUP4 PUSH2 0x1584 JUMP JUMPDEST SWAP2 POP PUSH2 0x101A DUP3 PUSH2 0x19CD JUMP JUMPDEST PUSH1 0x4 DUP3 ADD SWAP1 POP SWAP2 SWAP1 POP JUMP JUMPDEST PUSH1 0x0 PUSH2 0x1032 PUSH1 0x38 DUP4 PUSH2 0x1584 JUMP JUMPDEST SWAP2 POP PUSH2 0x103D DUP3 PUSH2 0x19F6 JUMP JUMPDEST PUSH1 0x38 DUP3 ADD SWAP1 POP SWAP2 SWAP1 POP JUMP JUMPDEST PUSH1 0x0 PUSH2 0x1055 PUSH1 0x36 DUP4 PUSH2 0x1584 JUMP JUMPDEST SWAP2 POP PUSH2 0x1060 DUP3 PUSH2 0x1A45 JUMP JUMPDEST PUSH1 0x36 DUP3 ADD SWAP1 POP SWAP2 SWAP1 POP JUMP JUMPDEST PUSH1 0x0 PUSH2 0x1078 PUSH1 0x16 DUP4 PUSH2 0x1584 JUMP JUMPDEST SWAP2 POP PUSH2 0x1083 DUP3 PUSH2 0x1A94 JUMP JUMPDEST PUSH1 0x16 DUP3 ADD SWAP1 POP SWAP2 SWAP1 POP JUMP JUMPDEST PUSH1 0x0 PUSH2 0x109B PUSH1 0x35 DUP4 PUSH2 0x1584 JUMP JUMPDEST SWAP2 POP PUSH2 0x10A6 DUP3 PUSH2 0x1ABD JUMP JUMPDEST PUSH1 0x35 DUP3 ADD SWAP1 POP SWAP2 SWAP1 POP JUMP JUMPDEST PUSH2 0x10BA DUP2 PUSH2 0x16A4 JUMP JUMPDEST DUP3 MSTORE POP POP JUMP JUMPDEST PUSH1 0x0 PUSH2 0x10CC DUP3 DUP8 PUSH2 0xEDB JUMP JUMPDEST SWAP2 POP PUSH2 0x10D7 DUP3 PUSH2 0x106B JUMP JUMPDEST SWAP2 POP PUSH2 0x10E3 DUP3 DUP7 PUSH2 0xF45 JUMP JUMPDEST SWAP2 POP PUSH2 0x10EE DUP3 PUSH2 0xFBC JUMP JUMPDEST SWAP2 POP PUSH2 0x10FA DUP3 DUP6 PUSH2 0xF45 JUMP JUMPDEST SWAP2 POP PUSH2 0x1105 DUP3 PUSH2 0x1025 JUMP JUMPDEST SWAP2 POP PUSH2 0x1111 DUP3 DUP5 PUSH2 0xF45 JUMP JUMPDEST SWAP2 POP PUSH2 0x111C DUP3 PUSH2 0x1002 JUMP JUMPDEST SWAP2 POP DUP2 SWAP1 POP SWAP6 SWAP5 POP POP POP POP POP JUMP JUMPDEST PUSH1 0x0 PUSH2 0x1136 DUP3 DUP6 PUSH2 0xF45 JUMP JUMPDEST SWAP2 POP PUSH2 0x1141 DUP3 PUSH2 0xFDF JUMP JUMPDEST SWAP2 POP PUSH2 0x114D DUP3 DUP5 PUSH2 0xF45 JUMP JUMPDEST SWAP2 POP DUP2 SWAP1 POP SWAP4 SWAP3 POP POP POP JUMP JUMPDEST PUSH1 0x0 PUSH2 0x1164 DUP3 PUSH2 0x106B JUMP JUMPDEST SWAP2 POP PUSH2 0x1170 DUP3 DUP7 PUSH2 0xF45 JUMP JUMPDEST SWAP2 POP PUSH2 0x117B DUP3 PUSH2 0xFBC JUMP JUMPDEST SWAP2 POP PUSH2 0x1187 DUP3 DUP6 PUSH2 0xF45 JUMP JUMPDEST SWAP2 POP PUSH2 0x1192 DUP3 PUSH2 0x108E JUMP JUMPDEST SWAP2 POP PUSH2 0x119E DUP3 DUP5 PUSH2 0xF45 JUMP JUMPDEST SWAP2 POP PUSH2 0x11A9 DUP3 PUSH2 0x1002 JUMP JUMPDEST SWAP2 POP DUP2 SWAP1 POP SWAP5 SWAP4 POP POP POP POP JUMP JUMPDEST PUSH1 0x0 PUSH2 0x11C1 DUP3 PUSH2 0x106B JUMP JUMPDEST SWAP2 POP PUSH2 0x11CD DUP3 DUP10 PUSH2 0xF45 JUMP JUMPDEST SWAP2 POP PUSH2 0x11D8 DUP3 PUSH2 0xFBC JUMP JUMPDEST SWAP2 POP PUSH2 0x11E4 DUP3 DUP9 PUSH2 0xF45 JUMP JUMPDEST SWAP2 POP PUSH2 0x11EF DUP3 PUSH2 0x108E JUMP JUMPDEST SWAP2 POP PUSH2 0x11FB DUP3 DUP8 PUSH2 0xF45 JUMP JUMPDEST SWAP2 POP PUSH2 0x1206 DUP3 PUSH2 0x1002 JUMP JUMPDEST SWAP2 POP PUSH2 0x1211 DUP3 PUSH2 0x106B JUMP JUMPDEST SWAP2 POP PUSH2 0x121D DUP3 DUP7 PUSH2 0xF45 JUMP JUMPDEST SWAP2 POP PUSH2 0x1228 DUP3 PUSH2 0xFBC JUMP JUMPDEST SWAP2 POP PUSH2 0x1234 DUP3 DUP6 PUSH2 0xF45 JUMP JUMPDEST SWAP2 POP PUSH2 0x123F DUP3 PUSH2 0xF99 JUMP JUMPDEST SWAP2 POP PUSH2 0x124B DUP3 DUP5 PUSH2 0xF45 JUMP JUMPDEST SWAP2 POP PUSH2 0x1256 DUP3 PUSH2 0x1002 JUMP JUMPDEST SWAP2 POP DUP2 SWAP1 POP SWAP8 SWAP7 POP POP POP POP POP POP POP JUMP JUMPDEST PUSH1 0x0 PUSH2 0x1271 DUP3 PUSH2 0x106B JUMP JUMPDEST SWAP2 POP PUSH2 0x127D DUP3 DUP13 PUSH2 0xF45 JUMP JUMPDEST SWAP2 POP PUSH2 0x1288 DUP3 PUSH2 0xFBC JUMP JUMPDEST SWAP2 POP PUSH2 0x1294 DUP3 DUP12 PUSH2 0xF45 JUMP JUMPDEST SWAP2 POP PUSH2 0x129F DUP3 PUSH2 0x108E JUMP JUMPDEST SWAP2 POP PUSH2 0x12AB DUP3 DUP11 PUSH2 0xF45 JUMP JUMPDEST SWAP2 POP PUSH2 0x12B6 DUP3 PUSH2 0x1002 JUMP JUMPDEST SWAP2 POP PUSH2 0x12C1 DUP3 PUSH2 0x106B JUMP JUMPDEST SWAP2 POP PUSH2 0x12CD DUP3 DUP10 PUSH2 0xF45 JUMP JUMPDEST SWAP2 POP PUSH2 0x12D8 DUP3 PUSH2 0xFBC JUMP JUMPDEST SWAP2 POP PUSH2 0x12E4 DUP3 DUP9 PUSH2 0xF45 JUMP JUMPDEST SWAP2 POP PUSH2 0x12EF DUP3 PUSH2 0xF99 JUMP JUMPDEST SWAP2 POP PUSH2 0x12FB DUP3 DUP8 PUSH2 0xF45 JUMP JUMPDEST SWAP2 POP PUSH2 0x1306 DUP3 PUSH2 0x1002 JUMP JUMPDEST SWAP2 POP PUSH2 0x1311 DUP3 PUSH2 0x106B JUMP JUMPDEST SWAP2 POP PUSH2 0x131D DUP3 DUP7 PUSH2 0xF45 JUMP JUMPDEST SWAP2 POP PUSH2 0x1328 DUP3 PUSH2 0xFBC JUMP JUMPDEST SWAP2 POP PUSH2 0x1334 DUP3 DUP6 PUSH2 0xF45 JUMP JUMPDEST SWAP2 POP PUSH2 0x133F DUP3 PUSH2 0x1048 JUMP JUMPDEST SWAP2 POP PUSH2 0x134B DUP3 DUP5 PUSH2 0xF45 JUMP JUMPDEST SWAP2 POP PUSH2 0x1356 DUP3 PUSH2 0x1002 JUMP JUMPDEST SWAP2 POP DUP2 SWAP1 POP SWAP11 SWAP10 POP POP POP POP POP POP POP POP POP POP JUMP JUMPDEST PUSH1 0x0 PUSH2 0x1374 DUP3 PUSH2 0x106B JUMP JUMPDEST SWAP2 POP PUSH2 0x1380 DUP3 DUP16 PUSH2 0xF45 JUMP JUMPDEST SWAP2 POP PUSH2 0x138B DUP3 PUSH2 0xFBC JUMP JUMPDEST SWAP2 POP PUSH2 0x1397 DUP3 DUP15 PUSH2 0xF45 JUMP JUMPDEST SWAP2 POP PUSH2 0x13A2 DUP3 PUSH2 0x108E JUMP JUMPDEST SWAP2 POP PUSH2 0x13AE DUP3 DUP14 PUSH2 0xF45 JUMP JUMPDEST SWAP2 POP PUSH2 0x13B9 DUP3 PUSH2 0x1002 JUMP JUMPDEST SWAP2 POP PUSH2 0x13C4 DUP3 PUSH2 0x106B JUMP JUMPDEST SWAP2 POP PUSH2 0x13D0 DUP3 DUP13 PUSH2 0xF45 JUMP JUMPDEST SWAP2 POP PUSH2 0x13DB DUP3 PUSH2 0xFBC JUMP JUMPDEST SWAP2 POP PUSH2 0x13E7 DUP3 DUP12 PUSH2 0xF45 JUMP JUMPDEST SWAP2 POP PUSH2 0x13F2 DUP3 PUSH2 0xF99 JUMP JUMPDEST SWAP2 POP PUSH2 0x13FE DUP3 DUP11 PUSH2 0xF45 JUMP JUMPDEST SWAP2 POP PUSH2 0x1409 DUP3 PUSH2 0x1002 JUMP JUMPDEST SWAP2 POP PUSH2 0x1414 DUP3 PUSH2 0x106B JUMP JUMPDEST SWAP2 POP PUSH2 0x1420 DUP3 DUP10 PUSH2 0xF45 JUMP JUMPDEST SWAP2 POP PUSH2 0x142B DUP3 PUSH2 0xFBC JUMP JUMPDEST SWAP2 POP PUSH2 0x1437 DUP3 DUP9 PUSH2 0xF45 JUMP JUMPDEST SWAP2 POP PUSH2 0x1442 DUP3 PUSH2 0x1048 JUMP JUMPDEST SWAP2 POP PUSH2 0x144E DUP3 DUP8 PUSH2 0xF45 JUMP JUMPDEST SWAP2 POP PUSH2 0x1459 DUP3 PUSH2 0x1002 JUMP JUMPDEST SWAP2 POP PUSH2 0x1464 DUP3 PUSH2 0x106B JUMP JUMPDEST SWAP2 POP PUSH2 0x1470 DUP3 DUP7 PUSH2 0xF45 JUMP JUMPDEST SWAP2 POP PUSH2 0x147B DUP3 PUSH2 0xFBC JUMP JUMPDEST SWAP2 POP PUSH2 0x1487 DUP3 DUP6 PUSH2 0xF45 JUMP JUMPDEST SWAP2 POP PUSH2 0x1492 DUP3 PUSH2 0xF76 JUMP JUMPDEST SWAP2 POP PUSH2 0x149E DUP3 DUP5 PUSH2 0xF45 JUMP JUMPDEST SWAP2 POP PUSH2 0x14A9 DUP3 PUSH2 0x1002 JUMP JUMPDEST SWAP2 POP DUP2 SWAP1 POP SWAP14 SWAP13 POP POP POP POP POP POP POP POP POP POP POP POP POP JUMP JUMPDEST PUSH1 0x0 PUSH1 0x20 DUP3 ADD SWAP1 POP DUP2 DUP2 SUB PUSH1 0x0 DUP4 ADD MSTORE PUSH2 0x14D9 DUP2 DUP5 PUSH2 0xF0C JUMP JUMPDEST SWAP1 POP SWAP3 SWAP2 POP POP JUMP JUMPDEST PUSH1 0x0 PUSH1 0x20 DUP3 ADD SWAP1 POP PUSH2 0x14F6 PUSH1 0x0 DUP4 ADD DUP5 PUSH2 0x10B1 JUMP JUMPDEST SWAP3 SWAP2 POP POP JUMP JUMPDEST PUSH1 0x0 PUSH2 0x1506 PUSH2 0x1517 JUMP JUMPDEST SWAP1 POP PUSH2 0x1512 DUP3 DUP3 PUSH2 0x1722 JUMP JUMPDEST SWAP2 SWAP1 POP JUMP JUMPDEST PUSH1 0x0 PUSH1 0x40 MLOAD SWAP1 POP SWAP1 JUMP JUMPDEST PUSH1 0x0 PUSH8 0xFFFFFFFFFFFFFFFF DUP3 GT ISZERO PUSH2 0x153C JUMPI PUSH2 0x153B PUSH2 0x1889 JUMP JUMPDEST JUMPDEST PUSH2 0x1545 DUP3 PUSH2 0x18CC JUMP JUMPDEST SWAP1 POP PUSH1 0x20 DUP2 ADD SWAP1 POP SWAP2 SWAP1 POP JUMP JUMPDEST PUSH1 0x0 DUP2 MLOAD SWAP1 POP SWAP2 SWAP1 POP JUMP JUMPDEST PUSH1 0x0 DUP2 MLOAD SWAP1 POP SWAP2 SWAP1 POP JUMP JUMPDEST PUSH1 0x0 DUP2 SWAP1 POP SWAP3 SWAP2 POP POP JUMP JUMPDEST PUSH1 0x0 DUP3 DUP3 MSTORE PUSH1 0x20 DUP3 ADD SWAP1 POP SWAP3 SWAP2 POP POP JUMP JUMPDEST PUSH1 0x0 DUP2 SWAP1 POP SWAP3 SWAP2 POP POP JUMP JUMPDEST PUSH1 0x0 PUSH2 0x159A DUP3 PUSH2 0x16A4 JUMP JUMPDEST SWAP2 POP PUSH2 0x15A5 DUP4 PUSH2 0x16A4 JUMP JUMPDEST SWAP3 POP DUP3 PUSH32 0xFFFFFFFFFFFFFFFFFFFFFFFFFFFFFFFFFFFFFFFFFFFFFFFFFFFFFFFFFFFFFFFF SUB DUP3 GT ISZERO PUSH2 0x15DA JUMPI PUSH2 0x15D9 PUSH2 0x17CD JUMP JUMPDEST JUMPDEST DUP3 DUP3 ADD SWAP1 POP SWAP3 SWAP2 POP POP JUMP JUMPDEST PUSH1 0x0 PUSH2 0x15F0 DUP3 PUSH2 0x16A4 JUMP JUMPDEST SWAP2 POP PUSH2 0x15FB DUP4 PUSH2 0x16A4 JUMP JUMPDEST SWAP3 POP DUP3 PUSH2 0x160B JUMPI PUSH2 0x160A PUSH2 0x17FC JUMP JUMPDEST JUMPDEST DUP3 DUP3 DIV SWAP1 POP SWAP3 SWAP2 POP POP JUMP JUMPDEST PUSH1 0x0 PUSH2 0x1621 DUP3 PUSH2 0x16A4 JUMP JUMPDEST SWAP2 POP PUSH2 0x162C DUP4 PUSH2 0x16A4 JUMP JUMPDEST SWAP3 POP DUP2 PUSH32 0xFFFFFFFFFFFFFFFFFFFFFFFFFFFFFFFFFFFFFFFFFFFFFFFFFFFFFFFFFFFFFFFF DIV DUP4 GT DUP3 ISZERO ISZERO AND ISZERO PUSH2 0x1665 JUMPI PUSH2 0x1664 PUSH2 0x17CD JUMP JUMPDEST JUMPDEST DUP3 DUP3 MUL SWAP1 POP SWAP3 SWAP2 POP POP JUMP JUMPDEST PUSH1 0x0 PUSH2 0x167B DUP3 PUSH2 0x16A4 JUMP JUMPDEST SWAP2 POP PUSH2 0x1686 DUP4 PUSH2 0x16A4 JUMP JUMPDEST SWAP3 POP DUP3 DUP3 LT ISZERO PUSH2 0x1699 JUMPI PUSH2 0x1698 PUSH2 0x17CD JUMP JUMPDEST JUMPDEST DUP3 DUP3 SUB SWAP1 POP SWAP3 SWAP2 POP POP JUMP JUMPDEST PUSH1 0x0 DUP2 SWAP1 POP SWAP2 SWAP1 POP JUMP JUMPDEST DUP3 DUP2 DUP4 CALLDATACOPY PUSH1 0x0 DUP4 DUP4 ADD MSTORE POP POP POP JUMP JUMPDEST PUSH1 0x0 JUMPDEST DUP4 DUP2 LT ISZERO PUSH2 0x16DB JUMPI DUP1 DUP3 ADD MLOAD DUP2 DUP5 ADD MSTORE PUSH1 0x20 DUP2 ADD SWAP1 POP PUSH2 0x16C0 JUMP JUMPDEST DUP4 DUP2 GT ISZERO PUSH2 0x16EA JUMPI PUSH1 0x0 DUP5 DUP5 ADD MSTORE JUMPDEST POP POP POP POP JUMP JUMPDEST PUSH1 0x0 PUSH1 0x2 DUP3 DIV SWAP1 POP PUSH1 0x1 DUP3 AND DUP1 PUSH2 0x1708 JUMPI PUSH1 0x7F DUP3 AND SWAP2 POP JUMPDEST PUSH1 0x20 DUP3 LT DUP2 EQ ISZERO PUSH2 0x171C JUMPI PUSH2 0x171B PUSH2 0x182B JUMP JUMPDEST JUMPDEST POP SWAP2 SWAP1 POP JUMP JUMPDEST PUSH2 0x172B DUP3 PUSH2 0x18CC JUMP JUMPDEST DUP2 ADD DUP2 DUP2 LT PUSH8 0xFFFFFFFFFFFFFFFF DUP3 GT OR ISZERO PUSH2 0x174A JUMPI PUSH2 0x1749 PUSH2 0x1889 JUMP JUMPDEST JUMPDEST DUP1 PUSH1 0x40 MSTORE POP POP POP JUMP JUMPDEST PUSH1 0x0 PUSH2 0x175E DUP3 PUSH2 0x16A4 JUMP JUMPDEST SWAP2 POP PUSH32 0xFFFFFFFFFFFFFFFFFFFFFFFFFFFFFFFFFFFFFFFFFFFFFFFFFFFFFFFFFFFFFFFF DUP3 EQ ISZERO PUSH2 0x1791 JUMPI PUSH2 0x1790 PUSH2 0x17CD JUMP JUMPDEST JUMPDEST PUSH1 0x1 DUP3 ADD SWAP1 POP SWAP2 SWAP1 POP JUMP JUMPDEST PUSH1 0x0 PUSH2 0x17A7 DUP3 PUSH2 0x16A4 JUMP JUMPDEST SWAP2 POP PUSH2 0x17B2 DUP4 PUSH2 0x16A4 JUMP JUMPDEST SWAP3 POP DUP3 PUSH2 0x17C2 JUMPI PUSH2 0x17C1 PUSH2 0x17FC JUMP JUMPDEST JUMPDEST DUP3 DUP3 MOD SWAP1 POP SWAP3 SWAP2 POP POP JUMP JUMPDEST PUSH32 0x4E487B7100000000000000000000000000000000000000000000000000000000 PUSH1 0x0 MSTORE PUSH1 0x11 PUSH1 0x4 MSTORE PUSH1 0x24 PUSH1 0x0 REVERT JUMPDEST PUSH32 0x4E487B7100000000000000000000000000000000000000000000000000000000 PUSH1 0x0 MSTORE PUSH1 0x12 PUSH1 0x4 MSTORE PUSH1 0x24 PUSH1 0x0 REVERT JUMPDEST PUSH32 0x4E487B7100000000000000000000000000000000000000000000000000000000 PUSH1 0x0 MSTORE PUSH1 0x22 PUSH1 0x4 MSTORE PUSH1 0x24 PUSH1 0x0 REVERT JUMPDEST PUSH32 0x4E487B7100000000000000000000000000000000000000000000000000000000 PUSH1 0x0 MSTORE PUSH1 0x32 PUSH1 0x4 MSTORE PUSH1 0x24 PUSH1 0x0 REVERT JUMPDEST PUSH32 0x4E487B7100000000000000000000000000000000000000000000000000000000 PUSH1 0x0 MSTORE PUSH1 0x41 PUSH1 0x4 MSTORE PUSH1 0x24 PUSH1 0x0 REVERT JUMPDEST PUSH1 0x0 DUP1 REVERT JUMPDEST PUSH1 0x0 DUP1 REVERT JUMPDEST PUSH1 0x0 DUP1 REVERT JUMPDEST PUSH1 0x0 DUP1 REVERT JUMPDEST PUSH1 0x0 PUSH1 0x1F NOT PUSH1 0x1F DUP4 ADD AND SWAP1 POP SWAP2 SWAP1 POP JUMP JUMPDEST PUSH32 0x2763302C302C302E36332C3231392E312C352E372C3330302E37382720737479 PUSH1 0x0 DUP3 ADD MSTORE PUSH32 0x6C653D277472616E73666F726D3A7363616C6528000000000000000000000000 PUSH1 0x20 DUP3 ADD MSTORE POP JUMP JUMPDEST PUSH32 0x63302C302D382E34332C3230382E37332C31332E36312C3238302E3639272073 PUSH1 0x0 DUP3 ADD MSTORE PUSH32 0x74796C653D277472616E73666F726D3A7363616C652800000000000000000000 PUSH1 0x20 DUP3 ADD MSTORE POP JUMP JUMPDEST PUSH32 0x2C00000000000000000000000000000000000000000000000000000000000000 PUSH1 0x0 DUP3 ADD MSTORE POP JUMP JUMPDEST PUSH32 0x2000000000000000000000000000000000000000000000000000000000000000 PUSH1 0x0 DUP3 ADD MSTORE POP JUMP JUMPDEST PUSH32 0x29272F3E00000000000000000000000000000000000000000000000000000000 PUSH1 0x0 DUP3 ADD MSTORE POP JUMP JUMPDEST PUSH32 0x2763302C302C31322E39362D37382E34342C3335352E38382D3135322E333427 PUSH1 0x0 DUP3 ADD MSTORE PUSH32 0x207374796C653D277472616E73666F726D3A7363616C65280000000000000000 PUSH1 0x20 DUP3 ADD MSTORE POP JUMP JUMPDEST PUSH32 0x63302C302D31302E31312C3139312E32332C382E36382C3236352E3133272073 PUSH1 0x0 DUP3 ADD MSTORE PUSH32 0x74796C653D277472616E73666F726D3A7363616C652800000000000000000000 PUSH1 0x20 DUP3 ADD MSTORE POP JUMP JUMPDEST PUSH32 0x3C7061746820636C6173733D277374302720643D274D00000000000000000000 PUSH1 0x0 DUP3 ADD MSTORE POP JUMP JUMPDEST PUSH32 0x63302C302D32372E38372C3232312E372D322E35392C3238392E313127207374 PUSH1 0x0 DUP3 ADD MSTORE PUSH32 0x796C653D277472616E73666F726D3A7363616C65280000000000000000000000 PUSH1 0x20 DUP3 ADD MSTORE POP JUMP JUMPDEST PUSH2 0x1B15 DUP2 PUSH2 0x16A4 JUMP JUMPDEST DUP2 EQ PUSH2 0x1B20 JUMPI PUSH1 0x0 DUP1 REVERT JUMPDEST POP JUMP INVALID EXTCODECOPY PUSH20 0x766720786D6C6E733D22687474703A2F2F777777 0x2E PUSH24 0x332E6F72672F323030302F7376672220786D6C6E733A786C PUSH10 0x6E6B3D22687474703A2F 0x2F PUSH24 0x77772E77332E6F72672F313939392F786C696E6B22207665 PUSH19 0x73696F6E3D22312E31222069643D224C617965 PUSH19 0x5F312220783D223070782220793D2230707822 KECCAK256 PUSH23 0x696577426F783D22302030203130323420313032342220 PUSH20 0x74796C653D22656E61626C652D6261636B67726F PUSH22 0x6E643A6E657720302030203130323420313032343B22 KECCAK256 PUSH25 0x6D6C3A73706163653D227072657365727665223E3C7374796C PUSH6 0x20747970653D 0x22 PUSH21 0x6578742F637373223E2E7374307B66696C6C3A6E6F PUSH15 0x653B7374726F6B653A234544323232 CALLVALUE EXTCODESIZE PUSH20 0x74726F6B652D77696474683A32303B7374726F6B PUSH6 0x2D6C696E6563 PUSH2 0x703A PUSH19 0x6F756E643B7374726F6B652D6C696E656A6F69 PUSH15 0x3A726F756E643B7374726F6B652D6D PUSH10 0x7465726C696D69743A31 ADDRESS EXTCODESIZE PUSH30 0x3C2F7374796C653EA2646970667358221220372E01F978C51FF3106508B2 0xEE LOG3 0xEA PUSH3 0xE77B98 0xBF PUSH18 0xB829D3CA7978597B8A461864736F6C634300 ADDMOD SMOD STOP CALLER "
		},
		"gasEstimates": {
			"creation": {
				"codeDepositCost": "1471800",
				"executionCost": "infinite",
				"totalCost": "infinite"
			},
			"external": {
				"concat(string,string)": "infinite",
				"display_svg1(uint256,uint256)": "infinite",
				"display_svg2(uint256,uint256)": "infinite",
				"display_svg3(uint256,uint256)": "infinite",
				"display_svg4(uint256,uint256)": "infinite",
				"display_svg5(uint256,uint256)": "infinite",
				"get()": "infinite",
				"set(uint256)": "infinite",
				"sqrt(uint256)": "infinite"
			}
		},
		"methodIdentifiers": {
			"concat(string,string)": "89c19ddb",
			"display_svg1(uint256,uint256)": "41c8987c",
			"display_svg2(uint256,uint256)": "10bae567",
			"display_svg3(uint256,uint256)": "2fdb8e25",
			"display_svg4(uint256,uint256)": "d2820241",
			"display_svg5(uint256,uint256)": "eae8ef64",
			"get()": "6d4ce63c",
			"set(uint256)": "60fe47b1",
			"sqrt(uint256)": "677342ce"
		}
	},
	"abi": [
		{
			"inputs": [
				{
					"internalType": "string",
					"name": "a",
					"type": "string"
				},
				{
					"internalType": "string",
					"name": "b",
					"type": "string"
				}
			],
			"name": "concat",
			"outputs": [
				{
					"internalType": "string",
					"name": "",
					"type": "string"
				}
			],
			"stateMutability": "pure",
			"type": "function"
		},
		{
			"inputs": [
				{
					"internalType": "uint256",
					"name": "del_x",
					"type": "uint256"
				},
				{
					"internalType": "uint256",
					"name": "del_y",
					"type": "uint256"
				}
			],
			"name": "display_svg1",
			"outputs": [
				{
					"internalType": "string",
					"name": "",
					"type": "string"
				}
			],
			"stateMutability": "view",
			"type": "function"
		},
		{
			"inputs": [
				{
					"internalType": "uint256",
					"name": "del_x",
					"type": "uint256"
				},
				{
					"internalType": "uint256",
					"name": "del_y",
					"type": "uint256"
				}
			],
			"name": "display_svg2",
			"outputs": [
				{
					"internalType": "string",
					"name": "",
					"type": "string"
				}
			],
			"stateMutability": "view",
			"type": "function"
		},
		{
			"inputs": [
				{
					"internalType": "uint256",
					"name": "del_x",
					"type": "uint256"
				},
				{
					"internalType": "uint256",
					"name": "del_y",
					"type": "uint256"
				}
			],
			"name": "display_svg3",
			"outputs": [
				{
					"internalType": "string",
					"name": "",
					"type": "string"
				}
			],
			"stateMutability": "view",
			"type": "function"
		},
		{
			"inputs": [
				{
					"internalType": "uint256",
					"name": "del_x",
					"type": "uint256"
				},
				{
					"internalType": "uint256",
					"name": "del_y",
					"type": "uint256"
				}
			],
			"name": "display_svg4",
			"outputs": [
				{
					"internalType": "string",
					"name": "",
					"type": "string"
				}
			],
			"stateMutability": "view",
			"type": "function"
		},
		{
			"inputs": [
				{
					"internalType": "uint256",
					"name": "del_x",
					"type": "uint256"
				},
				{
					"internalType": "uint256",
					"name": "del_y",
					"type": "uint256"
				}
			],
			"name": "display_svg5",
			"outputs": [
				{
					"internalType": "string",
					"name": "",
					"type": "string"
				}
			],
			"stateMutability": "view",
			"type": "function"
		},
		{
			"inputs": [],
			"name": "get",
			"outputs": [
				{
					"internalType": "string",
					"name": "",
					"type": "string"
				}
			],
			"stateMutability": "view",
			"type": "function"
		},
		{
			"inputs": [
				{
					"internalType": "uint256",
					"name": "n",
					"type": "uint256"
				}
			],
			"name": "set",
			"outputs": [],
			"stateMutability": "nonpayable",
			"type": "function"
		},
		{
			"inputs": [
				{
					"internalType": "uint256",
					"name": "x",
					"type": "uint256"
				}
			],
			"name": "sqrt",
			"outputs": [
				{
					"internalType": "uint256",
					"name": "",
					"type": "uint256"
				}
			],
			"stateMutability": "pure",
			"type": "function"
		}
	]
}