{
	"svg.sol": {
		"SimpleStorage": {
			"abi": [
				{
					"inputs": [
						{
							"internalType": "string",
							"name": "a",
							"type": "string"
						},
						{
							"internalType": "string",
							"name": "b",
							"type": "string"
						}
					],
					"name": "concat",
					"outputs": [
						{
							"internalType": "string",
							"name": "",
							"type": "string"
						}
					],
					"stateMutability": "pure",
					"type": "function"
				},
				{
					"inputs": [
						{
							"internalType": "uint256",
							"name": "del_x",
							"type": "uint256"
						},
						{
							"internalType": "uint256",
							"name": "del_y",
							"type": "uint256"
						}
					],
					"name": "display_svg1",
					"outputs": [
						{
							"internalType": "string",
							"name": "",
							"type": "string"
						}
					],
					"stateMutability": "view",
					"type": "function"
				},
				{
					"inputs": [
						{
							"internalType": "uint256",
							"name": "del_x",
							"type": "uint256"
						},
						{
							"internalType": "uint256",
							"name": "del_y",
							"type": "uint256"
						}
					],
					"name": "display_svg2",
					"outputs": [
						{
							"internalType": "string",
							"name": "",
							"type": "string"
						}
					],
					"stateMutability": "view",
					"type": "function"
				},
				{
					"inputs": [
						{
							"internalType": "uint256",
							"name": "del_x",
							"type": "uint256"
						},
						{
							"internalType": "uint256",
							"name": "del_y",
							"type": "uint256"
						}
					],
					"name": "display_svg3",
					"outputs": [
						{
							"internalType": "string",
							"name": "",
							"type": "string"
						}
					],
					"stateMutability": "view",
					"type": "function"
				},
				{
					"inputs": [
						{
							"internalType": "uint256",
							"name": "del_x",
							"type": "uint256"
						},
						{
							"internalType": "uint256",
							"name": "del_y",
							"type": "uint256"
						}
					],
					"name": "display_svg4",
					"outputs": [
						{
							"internalType": "string",
							"name": "",
							"type": "string"
						}
					],
					"stateMutability": "view",
					"type": "function"
				},
				{
					"inputs": [
						{
							"internalType": "uint256",
							"name": "del_x",
							"type": "uint256"
						},
						{
							"internalType": "uint256",
							"name": "del_y",
							"type": "uint256"
						}
					],
					"name": "display_svg5",
					"outputs": [
						{
							"internalType": "string",
							"name": "",
							"type": "string"
						}
					],
					"stateMutability": "view",
					"type": "function"
				},
				{
					"inputs": [],
					"name": "get",
					"outputs": [
						{
							"internalType": "string",
							"name": "",
							"type": "string"
						}
					],
					"stateMutability": "view",
					"type": "function"
				},
				{
					"inputs": [
						{
							"internalType": "uint256",
							"name": "n",
							"type": "uint256"
						}
					],
					"name": "set",
					"outputs": [],
					"stateMutability": "nonpayable",
					"type": "function"
				},
				{
					"inputs": [
						{
							"internalType": "uint256",
							"name": "x",
							"type": "uint256"
						}
					],
					"name": "sqrt",
					"outputs": [
						{
							"internalType": "uint256",
							"name": "",
							"type": "uint256"
						}
					],
					"stateMutability": "pure",
					"type": "function"
				}
			],
			"devdoc": {
				"kind": "dev",
				"methods": {},
				"version": 1
			},
			"evm": {
				"assembly": "    /* \"svg.sol\":237:6563  contract SimpleStorage {\r... */\n  mstore(0x40, 0x80)\n    /* \"svg.sol\":287:306  string component=\"\" */\n  mload(0x40)\n  dup1\n  0x20\n  add\n  0x40\n  mstore\n  dup1\n  0x00\n  dup2\n  mstore\n  pop\n  0x01\n  swap1\n  dup1\n  mload\n  swap1\n  0x20\n  add\n  swap1\n  tag_1\n  swap3\n  swap2\n  swap1\n  tag_2\n  jump\t// in\ntag_1:\n  pop\n    /* \"svg.sol\":327:328  0 */\n  0x00\n    /* \"svg.sol\":313:328  uint svgScale=0 */\n  0x02\n  sstore\n    /* \"svg.sol\":237:6563  contract SimpleStorage {\r... */\n  callvalue\n  dup1\n  iszero\n  tag_3\n  jumpi\n  0x00\n  dup1\n  revert\ntag_3:\n  pop\n  jump(tag_4)\ntag_2:\n  dup3\n  dup1\n  sload\n  tag_5\n  swap1\n  tag_6\n  jump\t// in\ntag_5:\n  swap1\n  0x00\n  mstore\n  keccak256(0x00, 0x20)\n  swap1\n  0x1f\n  add\n  0x20\n  swap1\n  div\n  dup2\n  add\n  swap3\n  dup3\n  tag_8\n  jumpi\n  0x00\n  dup6\n  sstore\n  jump(tag_7)\ntag_8:\n  dup3\n  0x1f\n  lt\n  tag_9\n  jumpi\n  dup1\n  mload\n  not(0xff)\n  and\n  dup4\n  dup1\n  add\n  or\n  dup6\n  sstore\n  jump(tag_7)\ntag_9:\n  dup3\n  dup1\n  add\n  0x01\n  add\n  dup6\n  sstore\n  dup3\n  iszero\n  tag_7\n  jumpi\n  swap2\n  dup3\n  add\ntag_10:\n  dup3\n  dup2\n  gt\n  iszero\n  tag_11\n  jumpi\n  dup3\n  mload\n  dup3\n  sstore\n  swap2\n  0x20\n  add\n  swap2\n  swap1\n  0x01\n  add\n  swap1\n  jump(tag_10)\ntag_11:\ntag_7:\n  pop\n  swap1\n  pop\n  tag_12\n  swap2\n  swap1\n  tag_13\n  jump\t// in\ntag_12:\n  pop\n  swap1\n  jump\t// out\ntag_13:\ntag_14:\n  dup1\n  dup3\n  gt\n  iszero\n  tag_15\n  jumpi\n  0x00\n  dup2\n  0x00\n  swap1\n  sstore\n  pop\n  0x01\n  add\n  jump(tag_14)\ntag_15:\n  pop\n  swap1\n  jump\t// out\n    /* \"#utility.yul\":7:327   */\ntag_6:\n    /* \"#utility.yul\":51:57   */\n  0x00\n    /* \"#utility.yul\":88:89   */\n  0x02\n    /* \"#utility.yul\":82:86   */\n  dup3\n    /* \"#utility.yul\":78:90   */\n  div\n    /* \"#utility.yul\":68:90   */\n  swap1\n  pop\n    /* \"#utility.yul\":135:136   */\n  0x01\n    /* \"#utility.yul\":129:133   */\n  dup3\n    /* \"#utility.yul\":125:137   */\n  and\n    /* \"#utility.yul\":156:174   */\n  dup1\n    /* \"#utility.yul\":146:227   */\n  tag_18\n  jumpi\n    /* \"#utility.yul\":212:216   */\n  0x7f\n    /* \"#utility.yul\":204:210   */\n  dup3\n    /* \"#utility.yul\":200:217   */\n  and\n    /* \"#utility.yul\":190:217   */\n  swap2\n  pop\n    /* \"#utility.yul\":146:227   */\ntag_18:\n    /* \"#utility.yul\":274:276   */\n  0x20\n    /* \"#utility.yul\":266:272   */\n  dup3\n    /* \"#utility.yul\":263:277   */\n  lt\n    /* \"#utility.yul\":243:261   */\n  dup2\n    /* \"#utility.yul\":240:278   */\n  eq\n    /* \"#utility.yul\":237:321   */\n  iszero\n  tag_19\n  jumpi\n    /* \"#utility.yul\":293:311   */\n  tag_20\n  tag_21\n  jump\t// in\ntag_20:\n    /* \"#utility.yul\":237:321   */\ntag_19:\n    /* \"#utility.yul\":58:327   */\n  pop\n    /* \"#utility.yul\":7:327   */\n  swap2\n  swap1\n  pop\n  jump\t// out\n    /* \"#utility.yul\":333:513   */\ntag_21:\n    /* \"#utility.yul\":381:458   */\n  0x4e487b7100000000000000000000000000000000000000000000000000000000\n    /* \"#utility.yul\":378:379   */\n  0x00\n    /* \"#utility.yul\":371:459   */\n  mstore\n    /* \"#utility.yul\":478:482   */\n  0x22\n    /* \"#utility.yul\":475:476   */\n  0x04\n    /* \"#utility.yul\":468:483   */\n  mstore\n    /* \"#utility.yul\":502:506   */\n  0x24\n    /* \"#utility.yul\":499:500   */\n  0x00\n    /* \"#utility.yul\":492:507   */\n  revert\n    /* \"svg.sol\":237:6563  contract SimpleStorage {\r... */\ntag_4:\n  dataSize(sub_0)\n  dup1\n  dataOffset(sub_0)\n  0x00\n  codecopy\n  0x00\n  return\nstop\n\nsub_0: assembly {\n        /* \"svg.sol\":237:6563  contract SimpleStorage {\r... */\n      mstore(0x40, 0x80)\n      callvalue\n      dup1\n      iszero\n      tag_1\n      jumpi\n      0x00\n      dup1\n      revert\n    tag_1:\n      pop\n      jumpi(tag_2, lt(calldatasize, 0x04))\n      shr(0xe0, calldataload(0x00))\n      dup1\n      0x677342ce\n      gt\n      tag_12\n      jumpi\n      dup1\n      0x677342ce\n      eq\n      tag_7\n      jumpi\n      dup1\n      0x6d4ce63c\n      eq\n      tag_8\n      jumpi\n      dup1\n      0x89c19ddb\n      eq\n      tag_9\n      jumpi\n      dup1\n      0xd2820241\n      eq\n      tag_10\n      jumpi\n      dup1\n      0xeae8ef64\n      eq\n      tag_11\n      jumpi\n      jump(tag_2)\n    tag_12:\n      dup1\n      0x10bae567\n      eq\n      tag_3\n      jumpi\n      dup1\n      0x2fdb8e25\n      eq\n      tag_4\n      jumpi\n      dup1\n      0x41c8987c\n      eq\n      tag_5\n      jumpi\n      dup1\n      0x60fe47b1\n      eq\n      tag_6\n      jumpi\n    tag_2:\n      0x00\n      dup1\n      revert\n        /* \"svg.sol\":2627:3175  function display_svg2(uint del_x,uint  del_y)  public view returns (string memory) {\r... */\n    tag_3:\n      tag_13\n      0x04\n      dup1\n      calldatasize\n      sub\n      dup2\n      add\n      swap1\n      tag_14\n      swap2\n      swap1\n      tag_15\n      jump\t// in\n    tag_14:\n      tag_16\n      jump\t// in\n    tag_13:\n      mload(0x40)\n      tag_17\n      swap2\n      swap1\n      tag_18\n      jump\t// in\n    tag_17:\n      mload(0x40)\n      dup1\n      swap2\n      sub\n      swap1\n      return\n        /* \"svg.sol\":3181:3937  function display_svg3(uint del_x,uint  del_y)  public view returns (string memory) {\r... */\n    tag_4:\n      tag_19\n      0x04\n      dup1\n      calldatasize\n      sub\n      dup2\n      add\n      swap1\n      tag_20\n      swap2\n      swap1\n      tag_15\n      jump\t// in\n    tag_20:\n      tag_21\n      jump\t// in\n    tag_19:\n      mload(0x40)\n      tag_22\n      swap2\n      swap1\n      tag_18\n      jump\t// in\n    tag_22:\n      mload(0x40)\n      dup1\n      swap2\n      sub\n      swap1\n      return\n        /* \"svg.sol\":2283:2621  function display_svg1(uint del_x,uint  del_y)  public view returns (string memory) {\r... */\n    tag_5:\n      tag_23\n      0x04\n      dup1\n      calldatasize\n      sub\n      dup2\n      add\n      swap1\n      tag_24\n      swap2\n      swap1\n      tag_15\n      jump\t// in\n    tag_24:\n      tag_25\n      jump\t// in\n    tag_23:\n      mload(0x40)\n      tag_26\n      swap2\n      swap1\n      tag_18\n      jump\t// in\n    tag_26:\n      mload(0x40)\n      dup1\n      swap2\n      sub\n      swap1\n      return\n        /* \"svg.sol\":337:2156  function set(uint n) public {\r... */\n    tag_6:\n      tag_27\n      0x04\n      dup1\n      calldatasize\n      sub\n      dup2\n      add\n      swap1\n      tag_28\n      swap2\n      swap1\n      tag_29\n      jump\t// in\n    tag_28:\n      tag_30\n      jump\t// in\n    tag_27:\n      stop\n        /* \"svg.sol\":6110:6361  function sqrt(uint x) public pure returns(uint) {\r... */\n    tag_7:\n      tag_31\n      0x04\n      dup1\n      calldatasize\n      sub\n      dup2\n      add\n      swap1\n      tag_32\n      swap2\n      swap1\n      tag_29\n      jump\t// in\n    tag_32:\n      tag_33\n      jump\t// in\n    tag_31:\n      mload(0x40)\n      tag_34\n      swap2\n      swap1\n      tag_35\n      jump\t// in\n    tag_34:\n      mload(0x40)\n      dup1\n      swap2\n      sub\n      swap1\n      return\n        /* \"svg.sol\":2165:2251  function get() public view returns (string memory) {\r... */\n    tag_8:\n      tag_36\n      tag_37\n      jump\t// in\n    tag_36:\n      mload(0x40)\n      tag_38\n      swap2\n      swap1\n      tag_18\n      jump\t// in\n    tag_38:\n      mload(0x40)\n      dup1\n      swap2\n      sub\n      swap1\n      return\n        /* \"svg.sol\":6416:6559  function concat(string memory a,string memory b) public pure returns (string memory){\r... */\n    tag_9:\n      tag_39\n      0x04\n      dup1\n      calldatasize\n      sub\n      dup2\n      add\n      swap1\n      tag_40\n      swap2\n      swap1\n      tag_41\n      jump\t// in\n    tag_40:\n      tag_42\n      jump\t// in\n    tag_39:\n      mload(0x40)\n      tag_43\n      swap2\n      swap1\n      tag_18\n      jump\t// in\n    tag_43:\n      mload(0x40)\n      dup1\n      swap2\n      sub\n      swap1\n      return\n        /* \"svg.sol\":3943:4897  function display_svg4(uint del_x,uint  del_y)  public view returns (string memory) {\r... */\n    tag_10:\n      tag_44\n      0x04\n      dup1\n      calldatasize\n      sub\n      dup2\n      add\n      swap1\n      tag_45\n      swap2\n      swap1\n      tag_15\n      jump\t// in\n    tag_45:\n      tag_46\n      jump\t// in\n    tag_44:\n      mload(0x40)\n      tag_47\n      swap2\n      swap1\n      tag_18\n      jump\t// in\n    tag_47:\n      mload(0x40)\n      dup1\n      swap2\n      sub\n      swap1\n      return\n        /* \"svg.sol\":4903:6082  function display_svg5(uint del_x,uint  del_y)  public view returns (string memory) {\r... */\n    tag_11:\n      tag_48\n      0x04\n      dup1\n      calldatasize\n      sub\n      dup2\n      add\n      swap1\n      tag_49\n      swap2\n      swap1\n      tag_15\n      jump\t// in\n    tag_49:\n      tag_50\n      jump\t// in\n    tag_48:\n      mload(0x40)\n      tag_51\n      swap2\n      swap1\n      tag_18\n      jump\t// in\n    tag_51:\n      mload(0x40)\n      dup1\n      swap2\n      sub\n      swap1\n      return\n        /* \"svg.sol\":2627:3175  function display_svg2(uint del_x,uint  del_y)  public view returns (string memory) {\r... */\n    tag_16:\n        /* \"svg.sol\":2695:2708  string memory */\n      0x60\n        /* \"svg.sol\":2790:2825  Strings.toString(221 + 512 * del_x) */\n      tag_53\n        /* \"svg.sol\":2819:2824  del_x */\n      dup4\n        /* \"svg.sol\":2813:2816  512 */\n      0x0200\n        /* \"svg.sol\":2813:2824  512 * del_x */\n      tag_54\n      swap2\n      swap1\n      tag_55\n      jump\t// in\n    tag_54:\n        /* \"svg.sol\":2807:2810  221 */\n      0xdd\n        /* \"svg.sol\":2807:2824  221 + 512 * del_x */\n      tag_56\n      swap2\n      swap1\n      tag_57\n      jump\t// in\n    tag_56:\n        /* \"svg.sol\":2790:2806  Strings.toString */\n      tag_58\n        /* \"svg.sol\":2790:2825  Strings.toString(221 + 512 * del_x) */\n      jump\t// in\n    tag_53:\n        /* \"svg.sol\":2830:2865  Strings.toString(103 + 512 * del_y) */\n      tag_59\n        /* \"svg.sol\":2859:2864  del_y */\n      dup4\n        /* \"svg.sol\":2853:2856  512 */\n      0x0200\n        /* \"svg.sol\":2853:2864  512 * del_y */\n      tag_60\n      swap2\n      swap1\n      tag_55\n      jump\t// in\n    tag_60:\n        /* \"svg.sol\":2847:2850  103 */\n      0x67\n        /* \"svg.sol\":2847:2864  103 + 512 * del_y */\n      tag_61\n      swap2\n      swap1\n      tag_57\n      jump\t// in\n    tag_61:\n        /* \"svg.sol\":2830:2846  Strings.toString */\n      tag_58\n        /* \"svg.sol\":2830:2865  Strings.toString(103 + 512 * del_y) */\n      jump\t// in\n    tag_59:\n        /* \"svg.sol\":2922:2950  Strings.toString( svgScale ) */\n      tag_62\n        /* \"svg.sol\":2940:2948  svgScale */\n      sload(0x02)\n        /* \"svg.sol\":2922:2938  Strings.toString */\n      tag_58\n        /* \"svg.sol\":2922:2950  Strings.toString( svgScale ) */\n      jump\t// in\n    tag_62:\n        /* \"svg.sol\":2997:3032  Strings.toString(290 + 512 * del_x) */\n      tag_63\n        /* \"svg.sol\":3026:3031  del_x */\n      dup7\n        /* \"svg.sol\":3020:3023  512 */\n      0x0200\n        /* \"svg.sol\":3020:3031  512 * del_x */\n      tag_64\n      swap2\n      swap1\n      tag_55\n      jump\t// in\n    tag_64:\n        /* \"svg.sol\":3014:3017  290 */\n      0x0122\n        /* \"svg.sol\":3014:3031  290 + 512 * del_x */\n      tag_65\n      swap2\n      swap1\n      tag_57\n      jump\t// in\n    tag_65:\n        /* \"svg.sol\":2997:3013  Strings.toString */\n      tag_58\n        /* \"svg.sol\":2997:3032  Strings.toString(290 + 512 * del_x) */\n      jump\t// in\n    tag_63:\n        /* \"svg.sol\":3037:3072  Strings.toString(103 + 512 * del_y) */\n      tag_66\n        /* \"svg.sol\":3066:3071  del_y */\n      dup7\n        /* \"svg.sol\":3060:3063  512 */\n      0x0200\n        /* \"svg.sol\":3060:3071  512 * del_y */\n      tag_67\n      swap2\n      swap1\n      tag_55\n      jump\t// in\n    tag_67:\n        /* \"svg.sol\":3054:3057  103 */\n      0x67\n        /* \"svg.sol\":3054:3071  103 + 512 * del_y */\n      tag_68\n      swap2\n      swap1\n      tag_57\n      jump\t// in\n    tag_68:\n        /* \"svg.sol\":3037:3053  Strings.toString */\n      tag_58\n        /* \"svg.sol\":3037:3072  Strings.toString(103 + 512 * del_y) */\n      jump\t// in\n    tag_66:\n        /* \"svg.sol\":3130:3158  Strings.toString( svgScale ) */\n      tag_69\n        /* \"svg.sol\":3148:3156  svgScale */\n      sload(0x02)\n        /* \"svg.sol\":3130:3146  Strings.toString */\n      tag_58\n        /* \"svg.sol\":3130:3158  Strings.toString( svgScale ) */\n      jump\t// in\n    tag_69:\n        /* \"svg.sol\":2734:3166  abi.encodePacked(\r... */\n      add(0x20, mload(0x40))\n      tag_70\n      swap7\n      swap6\n      swap5\n      swap4\n      swap3\n      swap2\n      swap1\n      tag_71\n      jump\t// in\n    tag_70:\n      mload(0x40)\n      0x20\n      dup2\n      dup4\n      sub\n      sub\n      dup2\n      mstore\n      swap1\n      0x40\n      mstore\n        /* \"svg.sol\":2719:3167  return  string(abi.encodePacked(\r... */\n      swap1\n      pop\n        /* \"svg.sol\":2627:3175  function display_svg2(uint del_x,uint  del_y)  public view returns (string memory) {\r... */\n      swap3\n      swap2\n      pop\n      pop\n      jump\t// out\n        /* \"svg.sol\":3181:3937  function display_svg3(uint del_x,uint  del_y)  public view returns (string memory) {\r... */\n    tag_21:\n        /* \"svg.sol\":3249:3262  string memory */\n      0x60\n        /* \"svg.sol\":3344:3379  Strings.toString(189 + 512 * del_x) */\n      tag_73\n        /* \"svg.sol\":3373:3378  del_x */\n      dup4\n        /* \"svg.sol\":3367:3370  512 */\n      0x0200\n        /* \"svg.sol\":3367:3378  512 * del_x */\n      tag_74\n      swap2\n      swap1\n      tag_55\n      jump\t// in\n    tag_74:\n        /* \"svg.sol\":3361:3364  189 */\n      0xbd\n        /* \"svg.sol\":3361:3378  189 + 512 * del_x */\n      tag_75\n      swap2\n      swap1\n      tag_57\n      jump\t// in\n    tag_75:\n        /* \"svg.sol\":3344:3360  Strings.toString */\n      tag_58\n        /* \"svg.sol\":3344:3379  Strings.toString(189 + 512 * del_x) */\n      jump\t// in\n    tag_73:\n        /* \"svg.sol\":3384:3419  Strings.toString(103 + 512 * del_y) */\n      tag_76\n        /* \"svg.sol\":3413:3418  del_y */\n      dup4\n        /* \"svg.sol\":3407:3410  512 */\n      0x0200\n        /* \"svg.sol\":3407:3418  512 * del_y */\n      tag_77\n      swap2\n      swap1\n      tag_55\n      jump\t// in\n    tag_77:\n        /* \"svg.sol\":3401:3404  103 */\n      0x67\n        /* \"svg.sol\":3401:3418  103 + 512 * del_y */\n      tag_78\n      swap2\n      swap1\n      tag_57\n      jump\t// in\n    tag_78:\n        /* \"svg.sol\":3384:3400  Strings.toString */\n      tag_58\n        /* \"svg.sol\":3384:3419  Strings.toString(103 + 512 * del_y) */\n      jump\t// in\n    tag_76:\n        /* \"svg.sol\":3476:3504  Strings.toString( svgScale ) */\n      tag_79\n        /* \"svg.sol\":3494:3502  svgScale */\n      sload(0x02)\n        /* \"svg.sol\":3476:3492  Strings.toString */\n      tag_58\n        /* \"svg.sol\":3476:3504  Strings.toString( svgScale ) */\n      jump\t// in\n    tag_79:\n        /* \"svg.sol\":3551:3586  Strings.toString(258 + 512 * del_x) */\n      tag_80\n        /* \"svg.sol\":3580:3585  del_x */\n      dup7\n        /* \"svg.sol\":3574:3577  512 */\n      0x0200\n        /* \"svg.sol\":3574:3585  512 * del_x */\n      tag_81\n      swap2\n      swap1\n      tag_55\n      jump\t// in\n    tag_81:\n        /* \"svg.sol\":3568:3571  258 */\n      0x0102\n        /* \"svg.sol\":3568:3585  258 + 512 * del_x */\n      tag_82\n      swap2\n      swap1\n      tag_57\n      jump\t// in\n    tag_82:\n        /* \"svg.sol\":3551:3567  Strings.toString */\n      tag_58\n        /* \"svg.sol\":3551:3586  Strings.toString(258 + 512 * del_x) */\n      jump\t// in\n    tag_80:\n        /* \"svg.sol\":3591:3626  Strings.toString(103 + 512 * del_y) */\n      tag_83\n        /* \"svg.sol\":3620:3625  del_y */\n      dup7\n        /* \"svg.sol\":3614:3617  512 */\n      0x0200\n        /* \"svg.sol\":3614:3625  512 * del_y */\n      tag_84\n      swap2\n      swap1\n      tag_55\n      jump\t// in\n    tag_84:\n        /* \"svg.sol\":3608:3611  103 */\n      0x67\n        /* \"svg.sol\":3608:3625  103 + 512 * del_y */\n      tag_85\n      swap2\n      swap1\n      tag_57\n      jump\t// in\n    tag_85:\n        /* \"svg.sol\":3591:3607  Strings.toString */\n      tag_58\n        /* \"svg.sol\":3591:3626  Strings.toString(103 + 512 * del_y) */\n      jump\t// in\n    tag_83:\n        /* \"svg.sol\":3684:3712  Strings.toString( svgScale ) */\n      tag_86\n        /* \"svg.sol\":3702:3710  svgScale */\n      sload(0x02)\n        /* \"svg.sol\":3684:3700  Strings.toString */\n      tag_58\n        /* \"svg.sol\":3684:3712  Strings.toString( svgScale ) */\n      jump\t// in\n    tag_86:\n        /* \"svg.sol\":3759:3794  Strings.toString(326 + 512 * del_x) */\n      tag_87\n        /* \"svg.sol\":3788:3793  del_x */\n      dup10\n        /* \"svg.sol\":3782:3785  512 */\n      0x0200\n        /* \"svg.sol\":3782:3793  512 * del_x */\n      tag_88\n      swap2\n      swap1\n      tag_55\n      jump\t// in\n    tag_88:\n        /* \"svg.sol\":3776:3779  326 */\n      0x0146\n        /* \"svg.sol\":3776:3793  326 + 512 * del_x */\n      tag_89\n      swap2\n      swap1\n      tag_57\n      jump\t// in\n    tag_89:\n        /* \"svg.sol\":3759:3775  Strings.toString */\n      tag_58\n        /* \"svg.sol\":3759:3794  Strings.toString(326 + 512 * del_x) */\n      jump\t// in\n    tag_87:\n        /* \"svg.sol\":3799:3834  Strings.toString(103 + 512 * del_y) */\n      tag_90\n        /* \"svg.sol\":3828:3833  del_y */\n      dup10\n        /* \"svg.sol\":3822:3825  512 */\n      0x0200\n        /* \"svg.sol\":3822:3833  512 * del_y */\n      tag_91\n      swap2\n      swap1\n      tag_55\n      jump\t// in\n    tag_91:\n        /* \"svg.sol\":3816:3819  103 */\n      0x67\n        /* \"svg.sol\":3816:3833  103 + 512 * del_y */\n      tag_92\n      swap2\n      swap1\n      tag_57\n      jump\t// in\n    tag_92:\n        /* \"svg.sol\":3799:3815  Strings.toString */\n      tag_58\n        /* \"svg.sol\":3799:3834  Strings.toString(103 + 512 * del_y) */\n      jump\t// in\n    tag_90:\n        /* \"svg.sol\":3892:3920  Strings.toString( svgScale ) */\n      tag_93\n        /* \"svg.sol\":3910:3918  svgScale */\n      sload(0x02)\n        /* \"svg.sol\":3892:3908  Strings.toString */\n      tag_58\n        /* \"svg.sol\":3892:3920  Strings.toString( svgScale ) */\n      jump\t// in\n    tag_93:\n        /* \"svg.sol\":3288:3928  abi.encodePacked(\r... */\n      add(0x20, mload(0x40))\n      tag_94\n      swap10\n      swap9\n      swap8\n      swap7\n      swap6\n      swap5\n      swap4\n      swap3\n      swap2\n      swap1\n      tag_95\n      jump\t// in\n    tag_94:\n      mload(0x40)\n      0x20\n      dup2\n      dup4\n      sub\n      sub\n      dup2\n      mstore\n      swap1\n      0x40\n      mstore\n        /* \"svg.sol\":3273:3929  return  string(abi.encodePacked(\r... */\n      swap1\n      pop\n        /* \"svg.sol\":3181:3937  function display_svg3(uint del_x,uint  del_y)  public view returns (string memory) {\r... */\n      swap3\n      swap2\n      pop\n      pop\n      jump\t// out\n        /* \"svg.sol\":2283:2621  function display_svg1(uint del_x,uint  del_y)  public view returns (string memory) {\r... */\n    tag_25:\n        /* \"svg.sol\":2351:2364  string memory */\n      0x60\n        /* \"svg.sol\":2446:2479  Strings.toString(262 + 512*del_x) */\n      tag_97\n        /* \"svg.sol\":2473:2478  del_x */\n      dup4\n        /* \"svg.sol\":2469:2472  512 */\n      0x0200\n        /* \"svg.sol\":2469:2478  512*del_x */\n      tag_98\n      swap2\n      swap1\n      tag_55\n      jump\t// in\n    tag_98:\n        /* \"svg.sol\":2463:2466  262 */\n      0x0106\n        /* \"svg.sol\":2463:2478  262 + 512*del_x */\n      tag_99\n      swap2\n      swap1\n      tag_57\n      jump\t// in\n    tag_99:\n        /* \"svg.sol\":2446:2462  Strings.toString */\n      tag_58\n        /* \"svg.sol\":2446:2479  Strings.toString(262 + 512*del_x) */\n      jump\t// in\n    tag_97:\n        /* \"svg.sol\":2484:2519  Strings.toString(103 + 512 * del_y) */\n      tag_100\n        /* \"svg.sol\":2513:2518  del_y */\n      dup4\n        /* \"svg.sol\":2507:2510  512 */\n      0x0200\n        /* \"svg.sol\":2507:2518  512 * del_y */\n      tag_101\n      swap2\n      swap1\n      tag_55\n      jump\t// in\n    tag_101:\n        /* \"svg.sol\":2501:2504  103 */\n      0x67\n        /* \"svg.sol\":2501:2518  103 + 512 * del_y */\n      tag_102\n      swap2\n      swap1\n      tag_57\n      jump\t// in\n    tag_102:\n        /* \"svg.sol\":2484:2500  Strings.toString */\n      tag_58\n        /* \"svg.sol\":2484:2519  Strings.toString(103 + 512 * del_y) */\n      jump\t// in\n    tag_100:\n        /* \"svg.sol\":2576:2604  Strings.toString( svgScale ) */\n      tag_103\n        /* \"svg.sol\":2594:2602  svgScale */\n      sload(0x02)\n        /* \"svg.sol\":2576:2592  Strings.toString */\n      tag_58\n        /* \"svg.sol\":2576:2604  Strings.toString( svgScale ) */\n      jump\t// in\n    tag_103:\n        /* \"svg.sol\":2390:2612  abi.encodePacked(\r... */\n      add(0x20, mload(0x40))\n      tag_104\n      swap4\n      swap3\n      swap2\n      swap1\n      tag_105\n      jump\t// in\n    tag_104:\n      mload(0x40)\n      0x20\n      dup2\n      dup4\n      sub\n      sub\n      dup2\n      mstore\n      swap1\n      0x40\n      mstore\n        /* \"svg.sol\":2375:2613  return  string(abi.encodePacked(\r... */\n      swap1\n      pop\n        /* \"svg.sol\":2283:2621  function display_svg1(uint del_x,uint  del_y)  public view returns (string memory) {\r... */\n      swap3\n      swap2\n      pop\n      pop\n      jump\t// out\n        /* \"svg.sol\":337:2156  function set(uint n) public {\r... */\n    tag_30:\n        /* \"svg.sol\":383:384  n */\n      dup1\n        /* \"svg.sol\":376:382  number */\n      0x00\n        /* \"svg.sol\":376:384  number=n */\n      dup2\n      swap1\n      sstore\n      pop\n        /* \"svg.sol\":395:418  string memory svgHeader */\n      0x00\n        /* \"svg.sol\":395:781  string memory svgHeader = '<svg xmlns=\"http://www.w3.org/2000/svg\" xmlns:xlink=\"http://www.w3.org/1999/xlink\" version=\"1.1\" id=\"Layer_1\" x=\"0px\" y=\"0px\" viewBox=\"0 0 1024 1024\" style=\"enable-background:new 0 0 1024 1024;\" xml:space=\"preserve\"><style type=\"text/css\">.st0{fill:none;stroke:#ED2224;stroke-width:20;stroke-linecap:round;stroke-linejoin:round;stroke-miterlimit:10;}</style>' */\n      mload(0x40)\n      dup1\n      0x01a0\n      add\n      0x40\n      mstore\n      dup1\n      0x0166\n      dup2\n      mstore\n      0x20\n      add\n      data_dd8ae144242df38fa884f57f851049fe2fa2a00e466d495e68861ab6e23aafea\n      0x0166\n      swap2\n      codecopy\n      swap1\n      pop\n        /* \"svg.sol\":792:815  string memory svgFooter */\n      0x00\n        /* \"svg.sol\":792:826  string memory svgFooter = '</svg>' */\n      mload(0x40)\n      dup1\n      0x40\n      add\n      0x40\n      mstore\n      dup1\n      0x06\n      dup2\n      mstore\n      0x20\n      add\n      0x3c2f7376673e0000000000000000000000000000000000000000000000000000\n      dup2\n      mstore\n      pop\n      swap1\n      pop\n        /* \"svg.sol\":837:850  uint orderDel */\n      0x00\n        /* \"svg.sol\":860:892  Math.ceilDiv(sqrt(number / 5),1) */\n      tag_107\n        /* \"svg.sol\":873:889  sqrt(number / 5) */\n      tag_108\n        /* \"svg.sol\":887:888  5 */\n      0x05\n        /* \"svg.sol\":878:884  number */\n      sload(0x00)\n        /* \"svg.sol\":878:888  number / 5 */\n      tag_109\n      swap2\n      swap1\n      tag_110\n      jump\t// in\n    tag_109:\n        /* \"svg.sol\":873:877  sqrt */\n      tag_33\n        /* \"svg.sol\":873:889  sqrt(number / 5) */\n      jump\t// in\n    tag_108:\n        /* \"svg.sol\":890:891  1 */\n      0x01\n        /* \"svg.sol\":860:872  Math.ceilDiv */\n      tag_111\n        /* \"svg.sol\":860:892  Math.ceilDiv(sqrt(number / 5),1) */\n      jump\t// in\n    tag_107:\n        /* \"svg.sol\":853:857  1000 */\n      0x03e8\n        /* \"svg.sol\":853:892  1000 / Math.ceilDiv(sqrt(number / 5),1) */\n      tag_112\n      swap2\n      swap1\n      tag_110\n      jump\t// in\n    tag_112:\n        /* \"svg.sol\":837:892  uint orderDel = 1000 / Math.ceilDiv(sqrt(number / 5),1) */\n      swap1\n      pop\n        /* \"svg.sol\":920:966  Math.ceilDiv(sqrt(Math.ceilDiv(number , 5)),1) */\n      tag_113\n        /* \"svg.sol\":933:963  sqrt(Math.ceilDiv(number , 5)) */\n      tag_114\n        /* \"svg.sol\":938:962  Math.ceilDiv(number , 5) */\n      tag_115\n        /* \"svg.sol\":951:957  number */\n      sload(0x00)\n        /* \"svg.sol\":960:961  5 */\n      0x05\n        /* \"svg.sol\":938:950  Math.ceilDiv */\n      tag_111\n        /* \"svg.sol\":938:962  Math.ceilDiv(number , 5) */\n      jump\t// in\n    tag_115:\n        /* \"svg.sol\":933:937  sqrt */\n      tag_33\n        /* \"svg.sol\":933:963  sqrt(Math.ceilDiv(number , 5)) */\n      jump\t// in\n    tag_114:\n        /* \"svg.sol\":964:965  1 */\n      0x01\n        /* \"svg.sol\":920:932  Math.ceilDiv */\n      tag_111\n        /* \"svg.sol\":920:966  Math.ceilDiv(sqrt(Math.ceilDiv(number , 5)),1) */\n      jump\t// in\n    tag_113:\n        /* \"svg.sol\":914:917  2.0 */\n      0x02\n        /* \"svg.sol\":914:966  2.0 / Math.ceilDiv(sqrt(Math.ceilDiv(number , 5)),1) */\n      tag_116\n      swap2\n      swap1\n      tag_110\n      jump\t// in\n    tag_116:\n        /* \"svg.sol\":903:911  svgScale */\n      0x02\n        /* \"svg.sol\":903:966  svgScale = 2.0 / Math.ceilDiv(sqrt(Math.ceilDiv(number , 5)),1) */\n      dup2\n      swap1\n      sstore\n      pop\n        /* \"svg.sol\":979:1006  string memory totalcompnent */\n      0x00\n        /* \"svg.sol\":1009:1018  svgHeader */\n      dup4\n        /* \"svg.sol\":979:1018  string memory totalcompnent = svgHeader */\n      swap1\n      pop\n        /* \"svg.sol\":1071:1087  uint numbervalue */\n      0x00\n        /* \"svg.sol\":1099:1100  5 */\n      0x05\n        /* \"svg.sol\":1090:1096  number */\n      sload(0x00)\n        /* \"svg.sol\":1090:1100  number % 5 */\n      tag_117\n      swap2\n      swap1\n      tag_118\n      jump\t// in\n    tag_117:\n        /* \"svg.sol\":1071:1100  uint numbervalue = number % 5 */\n      swap1\n      pop\n        /* \"svg.sol\":1113:1125  uint originX */\n      0x00\n        /* \"svg.sol\":1140:1152  uint originY */\n      dup1\n        /* \"svg.sol\":1167:1181  uint onlineCnt */\n      0x00\n        /* \"svg.sol\":1191:1199  orderDel */\n      dup6\n        /* \"svg.sol\":1184:1188  1000 */\n      0x03e8\n        /* \"svg.sol\":1184:1199  1000 / orderDel */\n      tag_119\n      swap2\n      swap1\n      tag_110\n      jump\t// in\n    tag_119:\n        /* \"svg.sol\":1167:1199  uint onlineCnt = 1000 / orderDel */\n      swap1\n      pop\n        /* \"svg.sol\":1210:1216  uint i */\n      0x00\n        /* \"svg.sol\":1227:1433  for(i = 0; i < (number / 5); i++) {\r... */\n    tag_120:\n        /* \"svg.sol\":1252:1253  5 */\n      0x05\n        /* \"svg.sol\":1243:1249  number */\n      sload(0x00)\n        /* \"svg.sol\":1243:1253  number / 5 */\n      tag_123\n      swap2\n      swap1\n      tag_110\n      jump\t// in\n    tag_123:\n        /* \"svg.sol\":1238:1239  i */\n      dup2\n        /* \"svg.sol\":1238:1254  i < (number / 5) */\n      lt\n        /* \"svg.sol\":1227:1433  for(i = 0; i < (number / 5); i++) {\r... */\n      iszero\n      tag_121\n      jumpi\n        /* \"svg.sol\":1290:1299  onlineCnt */\n      dup2\n        /* \"svg.sol\":1286:1287  i */\n      dup2\n        /* \"svg.sol\":1286:1299  i % onlineCnt */\n      tag_124\n      swap2\n      swap1\n      tag_118\n      jump\t// in\n    tag_124:\n        /* \"svg.sol\":1276:1299  originX = i % onlineCnt */\n      swap4\n      pop\n        /* \"svg.sol\":1328:1337  onlineCnt */\n      dup2\n        /* \"svg.sol\":1324:1325  i */\n      dup2\n        /* \"svg.sol\":1324:1337  i / onlineCnt */\n      tag_125\n      swap2\n      swap1\n      tag_110\n      jump\t// in\n    tag_125:\n        /* \"svg.sol\":1314:1337  originY = i / onlineCnt */\n      swap3\n      pop\n        /* \"svg.sol\":1368:1420  concat(totalcompnent,display_svg5(originX, originY)) */\n      tag_126\n        /* \"svg.sol\":1375:1388  totalcompnent */\n      dup7\n        /* \"svg.sol\":1389:1419  display_svg5(originX, originY) */\n      tag_127\n        /* \"svg.sol\":1402:1409  originX */\n      dup7\n        /* \"svg.sol\":1411:1418  originY */\n      dup7\n        /* \"svg.sol\":1389:1401  display_svg5 */\n      tag_50\n        /* \"svg.sol\":1389:1419  display_svg5(originX, originY) */\n      jump\t// in\n    tag_127:\n        /* \"svg.sol\":1368:1374  concat */\n      tag_42\n        /* \"svg.sol\":1368:1420  concat(totalcompnent,display_svg5(originX, originY)) */\n      jump\t// in\n    tag_126:\n        /* \"svg.sol\":1352:1420  totalcompnent = concat(totalcompnent,display_svg5(originX, originY)) */\n      swap6\n      pop\n        /* \"svg.sol\":1256:1259  i++ */\n      dup1\n      dup1\n      tag_128\n      swap1\n      tag_129\n      jump\t// in\n    tag_128:\n      swap2\n      pop\n      pop\n        /* \"svg.sol\":1227:1433  for(i = 0; i < (number / 5); i++) {\r... */\n      jump(tag_120)\n    tag_121:\n        /* \"svg.sol\":1459:1468  onlineCnt */\n      dup2\n        /* \"svg.sol\":1455:1456  i */\n      dup2\n        /* \"svg.sol\":1455:1468  i % onlineCnt */\n      tag_130\n      swap2\n      swap1\n      tag_118\n      jump\t// in\n    tag_130:\n        /* \"svg.sol\":1445:1468  originX = i % onlineCnt */\n      swap4\n      pop\n        /* \"svg.sol\":1493:1502  onlineCnt */\n      dup2\n        /* \"svg.sol\":1489:1490  i */\n      dup2\n        /* \"svg.sol\":1489:1502  i / onlineCnt */\n      tag_131\n      swap2\n      swap1\n      tag_110\n      jump\t// in\n    tag_131:\n        /* \"svg.sol\":1479:1502  originY = i / onlineCnt */\n      swap3\n      pop\n        /* \"svg.sol\":1531:1532  0 */\n      0x00\n        /* \"svg.sol\":1516:1527  numbervalue */\n      dup6\n        /* \"svg.sol\":1516:1532  numbervalue != 0 */\n      eq\n        /* \"svg.sol\":1513:2055  if(numbervalue != 0) {\r... */\n      tag_132\n      jumpi\n        /* \"svg.sol\":1565:1566  1 */\n      0x01\n        /* \"svg.sol\":1552:1563  numbervalue */\n      dup6\n        /* \"svg.sol\":1552:1566  numbervalue==1 */\n      eq\n        /* \"svg.sol\":1549:2044  if(numbervalue==1){\r... */\n      iszero\n      tag_133\n      jumpi\n        /* \"svg.sol\":1601:1653  concat(totalcompnent,display_svg1(originX, originY)) */\n      tag_134\n        /* \"svg.sol\":1608:1621  totalcompnent */\n      dup7\n        /* \"svg.sol\":1622:1652  display_svg1(originX, originY) */\n      tag_135\n        /* \"svg.sol\":1635:1642  originX */\n      dup7\n        /* \"svg.sol\":1644:1651  originY */\n      dup7\n        /* \"svg.sol\":1622:1634  display_svg1 */\n      tag_25\n        /* \"svg.sol\":1622:1652  display_svg1(originX, originY) */\n      jump\t// in\n    tag_135:\n        /* \"svg.sol\":1601:1607  concat */\n      tag_42\n        /* \"svg.sol\":1601:1653  concat(totalcompnent,display_svg1(originX, originY)) */\n      jump\t// in\n    tag_134:\n        /* \"svg.sol\":1586:1653  totalcompnent =concat(totalcompnent,display_svg1(originX, originY)) */\n      swap6\n      pop\n        /* \"svg.sol\":1549:2044  if(numbervalue==1){\r... */\n      jump(tag_136)\n    tag_133:\n        /* \"svg.sol\":1690:1691  2 */\n      0x02\n        /* \"svg.sol\":1677:1688  numbervalue */\n      dup6\n        /* \"svg.sol\":1677:1691  numbervalue==2 */\n      eq\n        /* \"svg.sol\":1674:2044  if(numbervalue==2){\r... */\n      iszero\n      tag_137\n      jumpi\n        /* \"svg.sol\":1726:1778  concat(totalcompnent,display_svg2(originX, originY)) */\n      tag_138\n        /* \"svg.sol\":1733:1746  totalcompnent */\n      dup7\n        /* \"svg.sol\":1747:1777  display_svg2(originX, originY) */\n      tag_139\n        /* \"svg.sol\":1760:1767  originX */\n      dup7\n        /* \"svg.sol\":1769:1776  originY */\n      dup7\n        /* \"svg.sol\":1747:1759  display_svg2 */\n      tag_16\n        /* \"svg.sol\":1747:1777  display_svg2(originX, originY) */\n      jump\t// in\n    tag_139:\n        /* \"svg.sol\":1726:1732  concat */\n      tag_42\n        /* \"svg.sol\":1726:1778  concat(totalcompnent,display_svg2(originX, originY)) */\n      jump\t// in\n    tag_138:\n        /* \"svg.sol\":1711:1778  totalcompnent =concat(totalcompnent,display_svg2(originX, originY)) */\n      swap6\n      pop\n        /* \"svg.sol\":1674:2044  if(numbervalue==2){\r... */\n      jump(tag_140)\n    tag_137:\n        /* \"svg.sol\":1815:1816  3 */\n      0x03\n        /* \"svg.sol\":1802:1813  numbervalue */\n      dup6\n        /* \"svg.sol\":1802:1816  numbervalue==3 */\n      eq\n        /* \"svg.sol\":1799:2044  if(numbervalue==3){\r... */\n      iszero\n      tag_141\n      jumpi\n        /* \"svg.sol\":1851:1903  concat(totalcompnent,display_svg3(originX, originY)) */\n      tag_142\n        /* \"svg.sol\":1858:1871  totalcompnent */\n      dup7\n        /* \"svg.sol\":1872:1902  display_svg3(originX, originY) */\n      tag_143\n        /* \"svg.sol\":1885:1892  originX */\n      dup7\n        /* \"svg.sol\":1894:1901  originY */\n      dup7\n        /* \"svg.sol\":1872:1884  display_svg3 */\n      tag_21\n        /* \"svg.sol\":1872:1902  display_svg3(originX, originY) */\n      jump\t// in\n    tag_143:\n        /* \"svg.sol\":1851:1857  concat */\n      tag_42\n        /* \"svg.sol\":1851:1903  concat(totalcompnent,display_svg3(originX, originY)) */\n      jump\t// in\n    tag_142:\n        /* \"svg.sol\":1836:1903  totalcompnent =concat(totalcompnent,display_svg3(originX, originY)) */\n      swap6\n      pop\n        /* \"svg.sol\":1799:2044  if(numbervalue==3){\r... */\n      jump(tag_144)\n    tag_141:\n        /* \"svg.sol\":1940:1941  4 */\n      0x04\n        /* \"svg.sol\":1927:1938  numbervalue */\n      dup6\n        /* \"svg.sol\":1927:1941  numbervalue==4 */\n      eq\n        /* \"svg.sol\":1924:2044  if(numbervalue==4){\r... */\n      iszero\n      tag_145\n      jumpi\n        /* \"svg.sol\":1976:2028  concat(totalcompnent,display_svg4(originX, originY)) */\n      tag_146\n        /* \"svg.sol\":1983:1996  totalcompnent */\n      dup7\n        /* \"svg.sol\":1997:2027  display_svg4(originX, originY) */\n      tag_147\n        /* \"svg.sol\":2010:2017  originX */\n      dup7\n        /* \"svg.sol\":2019:2026  originY */\n      dup7\n        /* \"svg.sol\":1997:2009  display_svg4 */\n      tag_46\n        /* \"svg.sol\":1997:2027  display_svg4(originX, originY) */\n      jump\t// in\n    tag_147:\n        /* \"svg.sol\":1976:1982  concat */\n      tag_42\n        /* \"svg.sol\":1976:2028  concat(totalcompnent,display_svg4(originX, originY)) */\n      jump\t// in\n    tag_146:\n        /* \"svg.sol\":1961:2028  totalcompnent =concat(totalcompnent,display_svg4(originX, originY)) */\n      swap6\n      pop\n        /* \"svg.sol\":1924:2044  if(numbervalue==4){\r... */\n    tag_145:\n        /* \"svg.sol\":1799:2044  if(numbervalue==3){\r... */\n    tag_144:\n        /* \"svg.sol\":1674:2044  if(numbervalue==2){\r... */\n    tag_140:\n        /* \"svg.sol\":1549:2044  if(numbervalue==1){\r... */\n    tag_136:\n        /* \"svg.sol\":1513:2055  if(numbervalue != 0) {\r... */\n    tag_132:\n        /* \"svg.sol\":2083:2114  concat(totalcompnent,svgFooter) */\n      tag_148\n        /* \"svg.sol\":2090:2103  totalcompnent */\n      dup7\n        /* \"svg.sol\":2104:2113  svgFooter */\n      dup10\n        /* \"svg.sol\":2083:2089  concat */\n      tag_42\n        /* \"svg.sol\":2083:2114  concat(totalcompnent,svgFooter) */\n      jump\t// in\n    tag_148:\n        /* \"svg.sol\":2067:2114  totalcompnent = concat(totalcompnent,svgFooter) */\n      swap6\n      pop\n        /* \"svg.sol\":2135:2148  totalcompnent */\n      dup6\n        /* \"svg.sol\":2125:2134  component */\n      0x01\n        /* \"svg.sol\":2125:2148  component=totalcompnent */\n      swap1\n      dup1\n      mload\n      swap1\n      0x20\n      add\n      swap1\n      tag_149\n      swap3\n      swap2\n      swap1\n      tag_150\n      jump\t// in\n    tag_149:\n      pop\n        /* \"svg.sol\":365:2156  {\r... */\n      pop\n      pop\n      pop\n      pop\n      pop\n      pop\n      pop\n      pop\n      pop\n        /* \"svg.sol\":337:2156  function set(uint n) public {\r... */\n      pop\n      jump\t// out\n        /* \"svg.sol\":6110:6361  function sqrt(uint x) public pure returns(uint) {\r... */\n    tag_33:\n        /* \"svg.sol\":6152:6156  uint */\n      0x00\n        /* \"svg.sol\":6169:6175  uint z */\n      dup1\n        /* \"svg.sol\":6189:6190  2 */\n      0x02\n        /* \"svg.sol\":6183:6184  1 */\n      0x01\n        /* \"svg.sol\":6179:6180  x */\n      dup5\n        /* \"svg.sol\":6179:6184  x + 1 */\n      tag_152\n      swap2\n      swap1\n      tag_57\n      jump\t// in\n    tag_152:\n        /* \"svg.sol\":6178:6190  (x + 1 ) / 2 */\n      tag_153\n      swap2\n      swap1\n      tag_110\n      jump\t// in\n    tag_153:\n        /* \"svg.sol\":6169:6190  uint z = (x + 1 ) / 2 */\n      swap1\n      pop\n        /* \"svg.sol\":6202:6208  uint y */\n      0x00\n        /* \"svg.sol\":6211:6212  x */\n      dup4\n        /* \"svg.sol\":6202:6212  uint y = x */\n      swap1\n      pop\n        /* \"svg.sol\":6224:6333  while(z < y)\r... */\n    tag_154:\n        /* \"svg.sol\":6234:6235  y */\n      dup1\n        /* \"svg.sol\":6230:6231  z */\n      dup3\n        /* \"svg.sol\":6230:6235  z < y */\n      lt\n        /* \"svg.sol\":6224:6333  while(z < y)\r... */\n      iszero\n      tag_155\n      jumpi\n        /* \"svg.sol\":6274:6275  z */\n      dup2\n        /* \"svg.sol\":6270:6275  y = z */\n      swap1\n      pop\n        /* \"svg.sol\":6315:6316  2 */\n      0x02\n        /* \"svg.sol\":6309:6310  z */\n      dup3\n        /* \"svg.sol\":6305:6306  z */\n      dup4\n        /* \"svg.sol\":6301:6302  x */\n      dup7\n        /* \"svg.sol\":6301:6306  x / z */\n      tag_156\n      swap2\n      swap1\n      tag_110\n      jump\t// in\n    tag_156:\n        /* \"svg.sol\":6301:6310  x / z + z */\n      tag_157\n      swap2\n      swap1\n      tag_57\n      jump\t// in\n    tag_157:\n        /* \"svg.sol\":6299:6316  ( x / z + z ) / 2 */\n      tag_158\n      swap2\n      swap1\n      tag_110\n      jump\t// in\n    tag_158:\n        /* \"svg.sol\":6295:6316  z = ( x / z + z ) / 2 */\n      swap2\n      pop\n        /* \"svg.sol\":6224:6333  while(z < y)\r... */\n      jump(tag_154)\n    tag_155:\n        /* \"svg.sol\":6351:6352  y */\n      dup1\n        /* \"svg.sol\":6344:6352  return y */\n      swap3\n      pop\n      pop\n      pop\n        /* \"svg.sol\":6110:6361  function sqrt(uint x) public pure returns(uint) {\r... */\n      swap2\n      swap1\n      pop\n      jump\t// out\n        /* \"svg.sol\":2165:2251  function get() public view returns (string memory) {\r... */\n    tag_37:\n        /* \"svg.sol\":2201:2214  string memory */\n      0x60\n        /* \"svg.sol\":2234:2243  component */\n      0x01\n        /* \"svg.sol\":2227:2243  return component */\n      dup1\n      sload\n      tag_160\n      swap1\n      tag_161\n      jump\t// in\n    tag_160:\n      dup1\n      0x1f\n      add\n      0x20\n      dup1\n      swap2\n      div\n      mul\n      0x20\n      add\n      mload(0x40)\n      swap1\n      dup2\n      add\n      0x40\n      mstore\n      dup1\n      swap3\n      swap2\n      swap1\n      dup2\n      dup2\n      mstore\n      0x20\n      add\n      dup3\n      dup1\n      sload\n      tag_162\n      swap1\n      tag_161\n      jump\t// in\n    tag_162:\n      dup1\n      iszero\n      tag_163\n      jumpi\n      dup1\n      0x1f\n      lt\n      tag_164\n      jumpi\n      0x0100\n      dup1\n      dup4\n      sload\n      div\n      mul\n      dup4\n      mstore\n      swap2\n      0x20\n      add\n      swap2\n      jump(tag_163)\n    tag_164:\n      dup3\n      add\n      swap2\n      swap1\n      0x00\n      mstore\n      keccak256(0x00, 0x20)\n      swap1\n    tag_165:\n      dup2\n      sload\n      dup2\n      mstore\n      swap1\n      0x01\n      add\n      swap1\n      0x20\n      add\n      dup1\n      dup4\n      gt\n      tag_165\n      jumpi\n      dup3\n      swap1\n      sub\n      0x1f\n      and\n      dup3\n      add\n      swap2\n    tag_163:\n      pop\n      pop\n      pop\n      pop\n      pop\n      swap1\n      pop\n        /* \"svg.sol\":2165:2251  function get() public view returns (string memory) {\r... */\n      swap1\n      jump\t// out\n        /* \"svg.sol\":6416:6559  function concat(string memory a,string memory b) public pure returns (string memory){\r... */\n    tag_42:\n        /* \"svg.sol\":6486:6499  string memory */\n      0x60\n        /* \"svg.sol\":6542:6543  a */\n      dup3\n        /* \"svg.sol\":6548:6549  b */\n      dup3\n        /* \"svg.sol\":6525:6550  abi.encodePacked(a,' ',b) */\n      add(0x20, mload(0x40))\n      tag_167\n      swap3\n      swap2\n      swap1\n      tag_168\n      jump\t// in\n    tag_167:\n      mload(0x40)\n      0x20\n      dup2\n      dup4\n      sub\n      sub\n      dup2\n      mstore\n      swap1\n      0x40\n      mstore\n        /* \"svg.sol\":6511:6551  return string(abi.encodePacked(a,' ',b)) */\n      swap1\n      pop\n        /* \"svg.sol\":6416:6559  function concat(string memory a,string memory b) public pure returns (string memory){\r... */\n      swap3\n      swap2\n      pop\n      pop\n      jump\t// out\n        /* \"svg.sol\":3943:4897  function display_svg4(uint del_x,uint  del_y)  public view returns (string memory) {\r... */\n    tag_46:\n        /* \"svg.sol\":4011:4024  string memory */\n      0x60\n        /* \"svg.sol\":4106:4139  Strings.toString(145 + 512*del_x) */\n      tag_170\n        /* \"svg.sol\":4133:4138  del_x */\n      dup4\n        /* \"svg.sol\":4129:4132  512 */\n      0x0200\n        /* \"svg.sol\":4129:4138  512*del_x */\n      tag_171\n      swap2\n      swap1\n      tag_55\n      jump\t// in\n    tag_171:\n        /* \"svg.sol\":4123:4126  145 */\n      0x91\n        /* \"svg.sol\":4123:4138  145 + 512*del_x */\n      tag_172\n      swap2\n      swap1\n      tag_57\n      jump\t// in\n    tag_172:\n        /* \"svg.sol\":4106:4122  Strings.toString */\n      tag_58\n        /* \"svg.sol\":4106:4139  Strings.toString(145 + 512*del_x) */\n      jump\t// in\n    tag_170:\n        /* \"svg.sol\":4144:4179  Strings.toString(103 + 512 * del_y) */\n      tag_173\n        /* \"svg.sol\":4173:4178  del_y */\n      dup4\n        /* \"svg.sol\":4167:4170  512 */\n      0x0200\n        /* \"svg.sol\":4167:4178  512 * del_y */\n      tag_174\n      swap2\n      swap1\n      tag_55\n      jump\t// in\n    tag_174:\n        /* \"svg.sol\":4161:4164  103 */\n      0x67\n        /* \"svg.sol\":4161:4178  103 + 512 * del_y */\n      tag_175\n      swap2\n      swap1\n      tag_57\n      jump\t// in\n    tag_175:\n        /* \"svg.sol\":4144:4160  Strings.toString */\n      tag_58\n        /* \"svg.sol\":4144:4179  Strings.toString(103 + 512 * del_y) */\n      jump\t// in\n    tag_173:\n        /* \"svg.sol\":4236:4264  Strings.toString( svgScale ) */\n      tag_176\n        /* \"svg.sol\":4254:4262  svgScale */\n      sload(0x02)\n        /* \"svg.sol\":4236:4252  Strings.toString */\n      tag_58\n        /* \"svg.sol\":4236:4264  Strings.toString( svgScale ) */\n      jump\t// in\n    tag_176:\n        /* \"svg.sol\":4311:4344  Strings.toString(214 + 512*del_x) */\n      tag_177\n        /* \"svg.sol\":4338:4343  del_x */\n      dup7\n        /* \"svg.sol\":4334:4337  512 */\n      0x0200\n        /* \"svg.sol\":4334:4343  512*del_x */\n      tag_178\n      swap2\n      swap1\n      tag_55\n      jump\t// in\n    tag_178:\n        /* \"svg.sol\":4328:4331  214 */\n      0xd6\n        /* \"svg.sol\":4328:4343  214 + 512*del_x */\n      tag_179\n      swap2\n      swap1\n      tag_57\n      jump\t// in\n    tag_179:\n        /* \"svg.sol\":4311:4327  Strings.toString */\n      tag_58\n        /* \"svg.sol\":4311:4344  Strings.toString(214 + 512*del_x) */\n      jump\t// in\n    tag_177:\n        /* \"svg.sol\":4349:4384  Strings.toString(103 + 512 * del_y) */\n      tag_180\n        /* \"svg.sol\":4378:4383  del_y */\n      dup7\n        /* \"svg.sol\":4372:4375  512 */\n      0x0200\n        /* \"svg.sol\":4372:4383  512 * del_y */\n      tag_181\n      swap2\n      swap1\n      tag_55\n      jump\t// in\n    tag_181:\n        /* \"svg.sol\":4366:4369  103 */\n      0x67\n        /* \"svg.sol\":4366:4383  103 + 512 * del_y */\n      tag_182\n      swap2\n      swap1\n      tag_57\n      jump\t// in\n    tag_182:\n        /* \"svg.sol\":4349:4365  Strings.toString */\n      tag_58\n        /* \"svg.sol\":4349:4384  Strings.toString(103 + 512 * del_y) */\n      jump\t// in\n    tag_180:\n        /* \"svg.sol\":4442:4470  Strings.toString( svgScale ) */\n      tag_183\n        /* \"svg.sol\":4460:4468  svgScale */\n      sload(0x02)\n        /* \"svg.sol\":4442:4458  Strings.toString */\n      tag_58\n        /* \"svg.sol\":4442:4470  Strings.toString( svgScale ) */\n      jump\t// in\n    tag_183:\n        /* \"svg.sol\":4517:4550  Strings.toString(283 + 512*del_x) */\n      tag_184\n        /* \"svg.sol\":4544:4549  del_x */\n      dup10\n        /* \"svg.sol\":4540:4543  512 */\n      0x0200\n        /* \"svg.sol\":4540:4549  512*del_x */\n      tag_185\n      swap2\n      swap1\n      tag_55\n      jump\t// in\n    tag_185:\n        /* \"svg.sol\":4534:4537  283 */\n      0x011b\n        /* \"svg.sol\":4534:4549  283 + 512*del_x */\n      tag_186\n      swap2\n      swap1\n      tag_57\n      jump\t// in\n    tag_186:\n        /* \"svg.sol\":4517:4533  Strings.toString */\n      tag_58\n        /* \"svg.sol\":4517:4550  Strings.toString(283 + 512*del_x) */\n      jump\t// in\n    tag_184:\n        /* \"svg.sol\":4555:4590  Strings.toString(103 + 512 * del_y) */\n      tag_187\n        /* \"svg.sol\":4584:4589  del_y */\n      dup10\n        /* \"svg.sol\":4578:4581  512 */\n      0x0200\n        /* \"svg.sol\":4578:4589  512 * del_y */\n      tag_188\n      swap2\n      swap1\n      tag_55\n      jump\t// in\n    tag_188:\n        /* \"svg.sol\":4572:4575  103 */\n      0x67\n        /* \"svg.sol\":4572:4589  103 + 512 * del_y */\n      tag_189\n      swap2\n      swap1\n      tag_57\n      jump\t// in\n    tag_189:\n        /* \"svg.sol\":4555:4571  Strings.toString */\n      tag_58\n        /* \"svg.sol\":4555:4590  Strings.toString(103 + 512 * del_y) */\n      jump\t// in\n    tag_187:\n        /* \"svg.sol\":4648:4676  Strings.toString( svgScale ) */\n      tag_190\n        /* \"svg.sol\":4666:4674  svgScale */\n      sload(0x02)\n        /* \"svg.sol\":4648:4664  Strings.toString */\n      tag_58\n        /* \"svg.sol\":4648:4676  Strings.toString( svgScale ) */\n      jump\t// in\n    tag_190:\n        /* \"svg.sol\":4723:4756  Strings.toString(356 + 512*del_x) */\n      tag_191\n        /* \"svg.sol\":4750:4755  del_x */\n      dup13\n        /* \"svg.sol\":4746:4749  512 */\n      0x0200\n        /* \"svg.sol\":4746:4755  512*del_x */\n      tag_192\n      swap2\n      swap1\n      tag_55\n      jump\t// in\n    tag_192:\n        /* \"svg.sol\":4740:4743  356 */\n      0x0164\n        /* \"svg.sol\":4740:4755  356 + 512*del_x */\n      tag_193\n      swap2\n      swap1\n      tag_57\n      jump\t// in\n    tag_193:\n        /* \"svg.sol\":4723:4739  Strings.toString */\n      tag_58\n        /* \"svg.sol\":4723:4756  Strings.toString(356 + 512*del_x) */\n      jump\t// in\n    tag_191:\n        /* \"svg.sol\":4761:4796  Strings.toString(107 + 512 * del_y) */\n      tag_194\n        /* \"svg.sol\":4790:4795  del_y */\n      dup13\n        /* \"svg.sol\":4784:4787  512 */\n      0x0200\n        /* \"svg.sol\":4784:4795  512 * del_y */\n      tag_195\n      swap2\n      swap1\n      tag_55\n      jump\t// in\n    tag_195:\n        /* \"svg.sol\":4778:4781  107 */\n      0x6b\n        /* \"svg.sol\":4778:4795  107 + 512 * del_y */\n      tag_196\n      swap2\n      swap1\n      tag_57\n      jump\t// in\n    tag_196:\n        /* \"svg.sol\":4761:4777  Strings.toString */\n      tag_58\n        /* \"svg.sol\":4761:4796  Strings.toString(107 + 512 * del_y) */\n      jump\t// in\n    tag_194:\n        /* \"svg.sol\":4852:4880  Strings.toString( svgScale ) */\n      tag_197\n        /* \"svg.sol\":4870:4878  svgScale */\n      sload(0x02)\n        /* \"svg.sol\":4852:4868  Strings.toString */\n      tag_58\n        /* \"svg.sol\":4852:4880  Strings.toString( svgScale ) */\n      jump\t// in\n    tag_197:\n        /* \"svg.sol\":4050:4888  abi.encodePacked(\r... */\n      add(0x20, mload(0x40))\n      tag_198\n      swap13\n      swap12\n      swap11\n      swap10\n      swap9\n      swap8\n      swap7\n      swap6\n      swap5\n      swap4\n      swap3\n      swap2\n      swap1\n      tag_199\n      jump\t// in\n    tag_198:\n      mload(0x40)\n      0x20\n      dup2\n      dup4\n      sub\n      sub\n      dup2\n      mstore\n      swap1\n      0x40\n      mstore\n        /* \"svg.sol\":4035:4889  return  string(abi.encodePacked(\r... */\n      swap1\n      pop\n        /* \"svg.sol\":3943:4897  function display_svg4(uint del_x,uint  del_y)  public view returns (string memory) {\r... */\n      swap3\n      swap2\n      pop\n      pop\n      jump\t// out\n        /* \"svg.sol\":4903:6082  function display_svg5(uint del_x,uint  del_y)  public view returns (string memory) {\r... */\n    tag_50:\n        /* \"svg.sol\":4971:4984  string memory */\n      0x60\n        /* \"svg.sol\":5083:5116  Strings.toString(145 + 512*del_x) */\n      tag_201\n        /* \"svg.sol\":5110:5115  del_x */\n      dup4\n        /* \"svg.sol\":5106:5109  512 */\n      0x0200\n        /* \"svg.sol\":5106:5115  512*del_x */\n      tag_202\n      swap2\n      swap1\n      tag_55\n      jump\t// in\n    tag_202:\n        /* \"svg.sol\":5100:5103  145 */\n      0x91\n        /* \"svg.sol\":5100:5115  145 + 512*del_x */\n      tag_203\n      swap2\n      swap1\n      tag_57\n      jump\t// in\n    tag_203:\n        /* \"svg.sol\":5083:5099  Strings.toString */\n      tag_58\n        /* \"svg.sol\":5083:5116  Strings.toString(145 + 512*del_x) */\n      jump\t// in\n    tag_201:\n        /* \"svg.sol\":5121:5156  Strings.toString(103 + 512 * del_y) */\n      tag_204\n        /* \"svg.sol\":5150:5155  del_y */\n      dup4\n        /* \"svg.sol\":5144:5147  512 */\n      0x0200\n        /* \"svg.sol\":5144:5155  512 * del_y */\n      tag_205\n      swap2\n      swap1\n      tag_55\n      jump\t// in\n    tag_205:\n        /* \"svg.sol\":5138:5141  103 */\n      0x67\n        /* \"svg.sol\":5138:5155  103 + 512 * del_y */\n      tag_206\n      swap2\n      swap1\n      tag_57\n      jump\t// in\n    tag_206:\n        /* \"svg.sol\":5121:5137  Strings.toString */\n      tag_58\n        /* \"svg.sol\":5121:5156  Strings.toString(103 + 512 * del_y) */\n      jump\t// in\n    tag_204:\n        /* \"svg.sol\":5213:5241  Strings.toString( svgScale ) */\n      tag_207\n        /* \"svg.sol\":5231:5239  svgScale */\n      sload(0x02)\n        /* \"svg.sol\":5213:5229  Strings.toString */\n      tag_58\n        /* \"svg.sol\":5213:5241  Strings.toString( svgScale ) */\n      jump\t// in\n    tag_207:\n        /* \"svg.sol\":5288:5321  Strings.toString(214 + 512*del_x) */\n      tag_208\n        /* \"svg.sol\":5315:5320  del_x */\n      dup7\n        /* \"svg.sol\":5311:5314  512 */\n      0x0200\n        /* \"svg.sol\":5311:5320  512*del_x */\n      tag_209\n      swap2\n      swap1\n      tag_55\n      jump\t// in\n    tag_209:\n        /* \"svg.sol\":5305:5308  214 */\n      0xd6\n        /* \"svg.sol\":5305:5320  214 + 512*del_x */\n      tag_210\n      swap2\n      swap1\n      tag_57\n      jump\t// in\n    tag_210:\n        /* \"svg.sol\":5288:5304  Strings.toString */\n      tag_58\n        /* \"svg.sol\":5288:5321  Strings.toString(214 + 512*del_x) */\n      jump\t// in\n    tag_208:\n        /* \"svg.sol\":5326:5361  Strings.toString(103 + 512 * del_y) */\n      tag_211\n        /* \"svg.sol\":5355:5360  del_y */\n      dup7\n        /* \"svg.sol\":5349:5352  512 */\n      0x0200\n        /* \"svg.sol\":5349:5360  512 * del_y */\n      tag_212\n      swap2\n      swap1\n      tag_55\n      jump\t// in\n    tag_212:\n        /* \"svg.sol\":5343:5346  103 */\n      0x67\n        /* \"svg.sol\":5343:5360  103 + 512 * del_y */\n      tag_213\n      swap2\n      swap1\n      tag_57\n      jump\t// in\n    tag_213:\n        /* \"svg.sol\":5326:5342  Strings.toString */\n      tag_58\n        /* \"svg.sol\":5326:5361  Strings.toString(103 + 512 * del_y) */\n      jump\t// in\n    tag_211:\n        /* \"svg.sol\":5419:5447  Strings.toString( svgScale ) */\n      tag_214\n        /* \"svg.sol\":5437:5445  svgScale */\n      sload(0x02)\n        /* \"svg.sol\":5419:5435  Strings.toString */\n      tag_58\n        /* \"svg.sol\":5419:5447  Strings.toString( svgScale ) */\n      jump\t// in\n    tag_214:\n        /* \"svg.sol\":5494:5527  Strings.toString(282 + 512*del_x) */\n      tag_215\n        /* \"svg.sol\":5521:5526  del_x */\n      dup10\n        /* \"svg.sol\":5517:5520  512 */\n      0x0200\n        /* \"svg.sol\":5517:5526  512*del_x */\n      tag_216\n      swap2\n      swap1\n      tag_55\n      jump\t// in\n    tag_216:\n        /* \"svg.sol\":5511:5514  282 */\n      0x011a\n        /* \"svg.sol\":5511:5526  282 + 512*del_x */\n      tag_217\n      swap2\n      swap1\n      tag_57\n      jump\t// in\n    tag_217:\n        /* \"svg.sol\":5494:5510  Strings.toString */\n      tag_58\n        /* \"svg.sol\":5494:5527  Strings.toString(282 + 512*del_x) */\n      jump\t// in\n    tag_215:\n        /* \"svg.sol\":5532:5567  Strings.toString(103 + 512 * del_y) */\n      tag_218\n        /* \"svg.sol\":5561:5566  del_y */\n      dup10\n        /* \"svg.sol\":5555:5558  512 */\n      0x0200\n        /* \"svg.sol\":5555:5566  512 * del_y */\n      tag_219\n      swap2\n      swap1\n      tag_55\n      jump\t// in\n    tag_219:\n        /* \"svg.sol\":5549:5552  103 */\n      0x67\n        /* \"svg.sol\":5549:5566  103 + 512 * del_y */\n      tag_220\n      swap2\n      swap1\n      tag_57\n      jump\t// in\n    tag_220:\n        /* \"svg.sol\":5532:5548  Strings.toString */\n      tag_58\n        /* \"svg.sol\":5532:5567  Strings.toString(103 + 512 * del_y) */\n      jump\t// in\n    tag_218:\n        /* \"svg.sol\":5625:5653  Strings.toString( svgScale ) */\n      tag_221\n        /* \"svg.sol\":5643:5651  svgScale */\n      sload(0x02)\n        /* \"svg.sol\":5625:5641  Strings.toString */\n      tag_58\n        /* \"svg.sol\":5625:5653  Strings.toString( svgScale ) */\n      jump\t// in\n    tag_221:\n        /* \"svg.sol\":5700:5733  Strings.toString(356 + 512*del_x) */\n      tag_222\n        /* \"svg.sol\":5727:5732  del_x */\n      dup13\n        /* \"svg.sol\":5723:5726  512 */\n      0x0200\n        /* \"svg.sol\":5723:5732  512*del_x */\n      tag_223\n      swap2\n      swap1\n      tag_55\n      jump\t// in\n    tag_223:\n        /* \"svg.sol\":5717:5720  356 */\n      0x0164\n        /* \"svg.sol\":5717:5732  356 + 512*del_x */\n      tag_224\n      swap2\n      swap1\n      tag_57\n      jump\t// in\n    tag_224:\n        /* \"svg.sol\":5700:5716  Strings.toString */\n      tag_58\n        /* \"svg.sol\":5700:5733  Strings.toString(356 + 512*del_x) */\n      jump\t// in\n    tag_222:\n        /* \"svg.sol\":5738:5773  Strings.toString(107 + 512 * del_y) */\n      tag_225\n        /* \"svg.sol\":5767:5772  del_y */\n      dup13\n        /* \"svg.sol\":5761:5764  512 */\n      0x0200\n        /* \"svg.sol\":5761:5772  512 * del_y */\n      tag_226\n      swap2\n      swap1\n      tag_55\n      jump\t// in\n    tag_226:\n        /* \"svg.sol\":5755:5758  107 */\n      0x6b\n        /* \"svg.sol\":5755:5772  107 + 512 * del_y */\n      tag_227\n      swap2\n      swap1\n      tag_57\n      jump\t// in\n    tag_227:\n        /* \"svg.sol\":5738:5754  Strings.toString */\n      tag_58\n        /* \"svg.sol\":5738:5773  Strings.toString(107 + 512 * del_y) */\n      jump\t// in\n    tag_225:\n        /* \"svg.sol\":5829:5857  Strings.toString( svgScale ) */\n      tag_228\n        /* \"svg.sol\":5847:5855  svgScale */\n      sload(0x02)\n        /* \"svg.sol\":5829:5845  Strings.toString */\n      tag_58\n        /* \"svg.sol\":5829:5857  Strings.toString( svgScale ) */\n      jump\t// in\n    tag_228:\n        /* \"svg.sol\":5027:5865  abi.encodePacked(\r... */\n      add(0x20, mload(0x40))\n      tag_229\n      swap13\n      swap12\n      swap11\n      swap10\n      swap9\n      swap8\n      swap7\n      swap6\n      swap5\n      swap4\n      swap3\n      swap2\n      swap1\n      tag_199\n      jump\t// in\n    tag_229:\n      mload(0x40)\n      0x20\n      dup2\n      dup4\n      sub\n      sub\n      dup2\n      mstore\n      swap1\n      0x40\n      mstore\n        /* \"svg.sol\":5905:5937  Strings.toString(78 + 512*del_x) */\n      tag_230\n        /* \"svg.sol\":5931:5936  del_x */\n      dup5\n        /* \"svg.sol\":5927:5930  512 */\n      0x0200\n        /* \"svg.sol\":5927:5936  512*del_x */\n      tag_231\n      swap2\n      swap1\n      tag_55\n      jump\t// in\n    tag_231:\n        /* \"svg.sol\":5922:5924  78 */\n      0x4e\n        /* \"svg.sol\":5922:5936  78 + 512*del_x */\n      tag_232\n      swap2\n      swap1\n      tag_57\n      jump\t// in\n    tag_232:\n        /* \"svg.sol\":5905:5921  Strings.toString */\n      tag_58\n        /* \"svg.sol\":5905:5937  Strings.toString(78 + 512*del_x) */\n      jump\t// in\n    tag_230:\n        /* \"svg.sol\":5942:5977  Strings.toString(315 + 512 * del_y) */\n      tag_233\n        /* \"svg.sol\":5971:5976  del_y */\n      dup5\n        /* \"svg.sol\":5965:5968  512 */\n      0x0200\n        /* \"svg.sol\":5965:5976  512 * del_y */\n      tag_234\n      swap2\n      swap1\n      tag_55\n      jump\t// in\n    tag_234:\n        /* \"svg.sol\":5959:5962  315 */\n      0x013b\n        /* \"svg.sol\":5959:5976  315 + 512 * del_y */\n      tag_235\n      swap2\n      swap1\n      tag_57\n      jump\t// in\n    tag_235:\n        /* \"svg.sol\":5942:5958  Strings.toString */\n      tag_58\n        /* \"svg.sol\":5942:5977  Strings.toString(315 + 512 * del_y) */\n      jump\t// in\n    tag_233:\n        /* \"svg.sol\":6037:6065  Strings.toString( svgScale ) */\n      tag_236\n        /* \"svg.sol\":6055:6063  svgScale */\n      sload(0x02)\n        /* \"svg.sol\":6037:6053  Strings.toString */\n      tag_58\n        /* \"svg.sol\":6037:6065  Strings.toString( svgScale ) */\n      jump\t// in\n    tag_236:\n        /* \"svg.sol\":5010:6073  abi.encodePacked(abi.encodePacked(\r... */\n      add(0x20, mload(0x40))\n      tag_237\n      swap5\n      swap4\n      swap3\n      swap2\n      swap1\n      tag_238\n      jump\t// in\n    tag_237:\n      mload(0x40)\n      0x20\n      dup2\n      dup4\n      sub\n      sub\n      dup2\n      mstore\n      swap1\n      0x40\n      mstore\n        /* \"svg.sol\":4995:6074  return  string(abi.encodePacked(abi.encodePacked(\r... */\n      swap1\n      pop\n        /* \"svg.sol\":4903:6082  function display_svg5(uint del_x,uint  del_y)  public view returns (string memory) {\r... */\n      swap3\n      swap2\n      pop\n      pop\n      jump\t// out\n        /* \"@openzeppelin/contracts/utils/Strings.sol\":328:1031  function toString(uint256 value) internal pure returns (string memory) {... */\n    tag_58:\n        /* \"@openzeppelin/contracts/utils/Strings.sol\":384:397  string memory */\n      0x60\n        /* \"@openzeppelin/contracts/utils/Strings.sol\":610:611  0 */\n      0x00\n        /* \"@openzeppelin/contracts/utils/Strings.sol\":601:606  value */\n      dup3\n        /* \"@openzeppelin/contracts/utils/Strings.sol\":601:611  value == 0 */\n      eq\n        /* \"@openzeppelin/contracts/utils/Strings.sol\":597:648  if (value == 0) {... */\n      iszero\n      tag_240\n      jumpi\n        /* \"@openzeppelin/contracts/utils/Strings.sol\":627:637  return \"0\" */\n      mload(0x40)\n      dup1\n      0x40\n      add\n      0x40\n      mstore\n      dup1\n      0x01\n      dup2\n      mstore\n      0x20\n      add\n      0x3000000000000000000000000000000000000000000000000000000000000000\n      dup2\n      mstore\n      pop\n      swap1\n      pop\n      jump(tag_239)\n        /* \"@openzeppelin/contracts/utils/Strings.sol\":597:648  if (value == 0) {... */\n    tag_240:\n        /* \"@openzeppelin/contracts/utils/Strings.sol\":657:669  uint256 temp */\n      0x00\n        /* \"@openzeppelin/contracts/utils/Strings.sol\":672:677  value */\n      dup3\n        /* \"@openzeppelin/contracts/utils/Strings.sol\":657:677  uint256 temp = value */\n      swap1\n      pop\n        /* \"@openzeppelin/contracts/utils/Strings.sol\":687:701  uint256 digits */\n      0x00\n        /* \"@openzeppelin/contracts/utils/Strings.sol\":711:786  while (temp != 0) {... */\n    tag_241:\n        /* \"@openzeppelin/contracts/utils/Strings.sol\":726:727  0 */\n      0x00\n        /* \"@openzeppelin/contracts/utils/Strings.sol\":718:722  temp */\n      dup3\n        /* \"@openzeppelin/contracts/utils/Strings.sol\":718:727  temp != 0 */\n      eq\n        /* \"@openzeppelin/contracts/utils/Strings.sol\":711:786  while (temp != 0) {... */\n      tag_242\n      jumpi\n        /* \"@openzeppelin/contracts/utils/Strings.sol\":743:751  digits++ */\n      dup1\n      dup1\n      tag_243\n      swap1\n      tag_129\n      jump\t// in\n    tag_243:\n      swap2\n      pop\n      pop\n        /* \"@openzeppelin/contracts/utils/Strings.sol\":773:775  10 */\n      0x0a\n        /* \"@openzeppelin/contracts/utils/Strings.sol\":765:775  temp /= 10 */\n      dup3\n      tag_244\n      swap2\n      swap1\n      tag_110\n      jump\t// in\n    tag_244:\n      swap2\n      pop\n        /* \"@openzeppelin/contracts/utils/Strings.sol\":711:786  while (temp != 0) {... */\n      jump(tag_241)\n    tag_242:\n        /* \"@openzeppelin/contracts/utils/Strings.sol\":795:814  bytes memory buffer */\n      0x00\n        /* \"@openzeppelin/contracts/utils/Strings.sol\":827:833  digits */\n      dup2\n        /* \"@openzeppelin/contracts/utils/Strings.sol\":817:834  new bytes(digits) */\n      0xffffffffffffffff\n      dup2\n      gt\n      iszero\n      tag_245\n      jumpi\n      tag_246\n      tag_247\n      jump\t// in\n    tag_246:\n    tag_245:\n      mload(0x40)\n      swap1\n      dup1\n      dup3\n      mstore\n      dup1\n      0x1f\n      add\n      not(0x1f)\n      and\n      0x20\n      add\n      dup3\n      add\n      0x40\n      mstore\n      dup1\n      iszero\n      tag_248\n      jumpi\n      dup2\n      0x20\n      add\n      0x01\n      dup3\n      mul\n      dup1\n      calldatasize\n      dup4\n      calldatacopy\n      dup1\n      dup3\n      add\n      swap2\n      pop\n      pop\n      swap1\n      pop\n    tag_248:\n      pop\n        /* \"@openzeppelin/contracts/utils/Strings.sol\":795:834  bytes memory buffer = new bytes(digits) */\n      swap1\n      pop\n        /* \"@openzeppelin/contracts/utils/Strings.sol\":844:994  while (value != 0) {... */\n    tag_249:\n        /* \"@openzeppelin/contracts/utils/Strings.sol\":860:861  0 */\n      0x00\n        /* \"@openzeppelin/contracts/utils/Strings.sol\":851:856  value */\n      dup6\n        /* \"@openzeppelin/contracts/utils/Strings.sol\":851:861  value != 0 */\n      eq\n        /* \"@openzeppelin/contracts/utils/Strings.sol\":844:994  while (value != 0) {... */\n      tag_250\n      jumpi\n        /* \"@openzeppelin/contracts/utils/Strings.sol\":887:888  1 */\n      0x01\n        /* \"@openzeppelin/contracts/utils/Strings.sol\":877:888  digits -= 1 */\n      dup3\n      tag_251\n      swap2\n      swap1\n      tag_252\n      jump\t// in\n    tag_251:\n      swap2\n      pop\n        /* \"@openzeppelin/contracts/utils/Strings.sol\":953:955  10 */\n      0x0a\n        /* \"@openzeppelin/contracts/utils/Strings.sol\":945:950  value */\n      dup6\n        /* \"@openzeppelin/contracts/utils/Strings.sol\":945:955  value % 10 */\n      tag_253\n      swap2\n      swap1\n      tag_118\n      jump\t// in\n    tag_253:\n        /* \"@openzeppelin/contracts/utils/Strings.sol\":932:934  48 */\n      0x30\n        /* \"@openzeppelin/contracts/utils/Strings.sol\":932:956  48 + uint256(value % 10) */\n      tag_254\n      swap2\n      swap1\n      tag_57\n      jump\t// in\n    tag_254:\n        /* \"@openzeppelin/contracts/utils/Strings.sol\":919:958  bytes1(uint8(48 + uint256(value % 10))) */\n      0xf8\n      shl\n        /* \"@openzeppelin/contracts/utils/Strings.sol\":902:908  buffer */\n      dup2\n        /* \"@openzeppelin/contracts/utils/Strings.sol\":909:915  digits */\n      dup4\n        /* \"@openzeppelin/contracts/utils/Strings.sol\":902:916  buffer[digits] */\n      dup2\n      mload\n      dup2\n      lt\n      tag_255\n      jumpi\n      tag_256\n      tag_257\n      jump\t// in\n    tag_256:\n    tag_255:\n      0x20\n      add\n      add\n        /* \"@openzeppelin/contracts/utils/Strings.sol\":902:958  buffer[digits] = bytes1(uint8(48 + uint256(value % 10))) */\n      swap1\n      not(0xffffffffffffffffffffffffffffffffffffffffffffffffffffffffffffff)\n      and\n      swap1\n      dup2\n      0x00\n      byte\n      swap1\n      mstore8\n      pop\n        /* \"@openzeppelin/contracts/utils/Strings.sol\":981:983  10 */\n      0x0a\n        /* \"@openzeppelin/contracts/utils/Strings.sol\":972:983  value /= 10 */\n      dup6\n      tag_258\n      swap2\n      swap1\n      tag_110\n      jump\t// in\n    tag_258:\n      swap5\n      pop\n        /* \"@openzeppelin/contracts/utils/Strings.sol\":844:994  while (value != 0) {... */\n      jump(tag_249)\n    tag_250:\n        /* \"@openzeppelin/contracts/utils/Strings.sol\":1017:1023  buffer */\n      dup1\n        /* \"@openzeppelin/contracts/utils/Strings.sol\":1003:1024  return string(buffer) */\n      swap4\n      pop\n      pop\n      pop\n      pop\n        /* \"@openzeppelin/contracts/utils/Strings.sol\":328:1031  function toString(uint256 value) internal pure returns (string memory) {... */\n    tag_239:\n      swap2\n      swap1\n      pop\n      jump\t// out\n        /* \"@openzeppelin/contracts/utils/math/Math.sol\":1030:1224  function ceilDiv(uint256 a, uint256 b) internal pure returns (uint256) {... */\n    tag_111:\n        /* \"@openzeppelin/contracts/utils/math/Math.sol\":1092:1099  uint256 */\n      0x00\n        /* \"@openzeppelin/contracts/utils/math/Math.sol\":1207:1208  0 */\n      dup1\n        /* \"@openzeppelin/contracts/utils/math/Math.sol\":1202:1203  b */\n      dup3\n        /* \"@openzeppelin/contracts/utils/math/Math.sol\":1198:1199  a */\n      dup5\n        /* \"@openzeppelin/contracts/utils/math/Math.sol\":1198:1203  a % b */\n      tag_260\n      swap2\n      swap1\n      tag_118\n      jump\t// in\n    tag_260:\n        /* \"@openzeppelin/contracts/utils/math/Math.sol\":1198:1208  a % b == 0 */\n      eq\n        /* \"@openzeppelin/contracts/utils/math/Math.sol\":1198:1216  a % b == 0 ? 0 : 1 */\n      tag_261\n      jumpi\n        /* \"@openzeppelin/contracts/utils/math/Math.sol\":1215:1216  1 */\n      0x01\n        /* \"@openzeppelin/contracts/utils/math/Math.sol\":1198:1216  a % b == 0 ? 0 : 1 */\n      jump(tag_262)\n    tag_261:\n        /* \"@openzeppelin/contracts/utils/math/Math.sol\":1211:1212  0 */\n      0x00\n        /* \"@openzeppelin/contracts/utils/math/Math.sol\":1198:1216  a % b == 0 ? 0 : 1 */\n    tag_262:\n        /* \"@openzeppelin/contracts/utils/math/Math.sol\":1189:1217  a / b + (a % b == 0 ? 0 : 1) */\n      0xff\n      and\n        /* \"@openzeppelin/contracts/utils/math/Math.sol\":1193:1194  b */\n      dup3\n        /* \"@openzeppelin/contracts/utils/math/Math.sol\":1189:1190  a */\n      dup5\n        /* \"@openzeppelin/contracts/utils/math/Math.sol\":1189:1194  a / b */\n      tag_263\n      swap2\n      swap1\n      tag_110\n      jump\t// in\n    tag_263:\n        /* \"@openzeppelin/contracts/utils/math/Math.sol\":1189:1217  a / b + (a % b == 0 ? 0 : 1) */\n      tag_264\n      swap2\n      swap1\n      tag_57\n      jump\t// in\n    tag_264:\n        /* \"@openzeppelin/contracts/utils/math/Math.sol\":1182:1217  return a / b + (a % b == 0 ? 0 : 1) */\n      swap1\n      pop\n        /* \"@openzeppelin/contracts/utils/math/Math.sol\":1030:1224  function ceilDiv(uint256 a, uint256 b) internal pure returns (uint256) {... */\n      swap3\n      swap2\n      pop\n      pop\n      jump\t// out\n    tag_150:\n      dup3\n      dup1\n      sload\n      tag_265\n      swap1\n      tag_161\n      jump\t// in\n    tag_265:\n      swap1\n      0x00\n      mstore\n      keccak256(0x00, 0x20)\n      swap1\n      0x1f\n      add\n      0x20\n      swap1\n      div\n      dup2\n      add\n      swap3\n      dup3\n      tag_267\n      jumpi\n      0x00\n      dup6\n      sstore\n      jump(tag_266)\n    tag_267:\n      dup3\n      0x1f\n      lt\n      tag_268\n      jumpi\n      dup1\n      mload\n      not(0xff)\n      and\n      dup4\n      dup1\n      add\n      or\n      dup6\n      sstore\n      jump(tag_266)\n    tag_268:\n      dup3\n      dup1\n      add\n      0x01\n      add\n      dup6\n      sstore\n      dup3\n      iszero\n      tag_266\n      jumpi\n      swap2\n      dup3\n      add\n    tag_269:\n      dup3\n      dup2\n      gt\n      iszero\n      tag_270\n      jumpi\n      dup3\n      mload\n      dup3\n      sstore\n      swap2\n      0x20\n      add\n      swap2\n      swap1\n      0x01\n      add\n      swap1\n      jump(tag_269)\n    tag_270:\n    tag_266:\n      pop\n      swap1\n      pop\n      tag_271\n      swap2\n      swap1\n      tag_272\n      jump\t// in\n    tag_271:\n      pop\n      swap1\n      jump\t// out\n    tag_272:\n    tag_273:\n      dup1\n      dup3\n      gt\n      iszero\n      tag_274\n      jumpi\n      0x00\n      dup2\n      0x00\n      swap1\n      sstore\n      pop\n      0x01\n      add\n      jump(tag_273)\n    tag_274:\n      pop\n      swap1\n      jump\t// out\n        /* \"#utility.yul\":7:419   */\n    tag_276:\n        /* \"#utility.yul\":85:90   */\n      0x00\n        /* \"#utility.yul\":110:176   */\n      tag_278\n        /* \"#utility.yul\":126:175   */\n      tag_279\n        /* \"#utility.yul\":168:174   */\n      dup5\n        /* \"#utility.yul\":126:175   */\n      tag_280\n      jump\t// in\n    tag_279:\n        /* \"#utility.yul\":110:176   */\n      tag_281\n      jump\t// in\n    tag_278:\n        /* \"#utility.yul\":101:176   */\n      swap1\n      pop\n        /* \"#utility.yul\":199:205   */\n      dup3\n        /* \"#utility.yul\":192:197   */\n      dup2\n        /* \"#utility.yul\":185:206   */\n      mstore\n        /* \"#utility.yul\":237:241   */\n      0x20\n        /* \"#utility.yul\":230:235   */\n      dup2\n        /* \"#utility.yul\":226:242   */\n      add\n        /* \"#utility.yul\":275:278   */\n      dup5\n        /* \"#utility.yul\":266:272   */\n      dup5\n        /* \"#utility.yul\":261:264   */\n      dup5\n        /* \"#utility.yul\":257:273   */\n      add\n        /* \"#utility.yul\":254:279   */\n      gt\n        /* \"#utility.yul\":251:363   */\n      iszero\n      tag_282\n      jumpi\n        /* \"#utility.yul\":282:361   */\n      tag_283\n      tag_284\n      jump\t// in\n    tag_283:\n        /* \"#utility.yul\":251:363   */\n    tag_282:\n        /* \"#utility.yul\":372:413   */\n      tag_285\n        /* \"#utility.yul\":406:412   */\n      dup5\n        /* \"#utility.yul\":401:404   */\n      dup3\n        /* \"#utility.yul\":396:399   */\n      dup6\n        /* \"#utility.yul\":372:413   */\n      tag_286\n      jump\t// in\n    tag_285:\n        /* \"#utility.yul\":91:419   */\n      pop\n        /* \"#utility.yul\":7:419   */\n      swap4\n      swap3\n      pop\n      pop\n      pop\n      jump\t// out\n        /* \"#utility.yul\":439:779   */\n    tag_287:\n        /* \"#utility.yul\":495:500   */\n      0x00\n        /* \"#utility.yul\":544:547   */\n      dup3\n        /* \"#utility.yul\":537:541   */\n      0x1f\n        /* \"#utility.yul\":529:535   */\n      dup4\n        /* \"#utility.yul\":525:542   */\n      add\n        /* \"#utility.yul\":521:548   */\n      slt\n        /* \"#utility.yul\":511:633   */\n      tag_289\n      jumpi\n        /* \"#utility.yul\":552:631   */\n      tag_290\n      tag_291\n      jump\t// in\n    tag_290:\n        /* \"#utility.yul\":511:633   */\n    tag_289:\n        /* \"#utility.yul\":669:675   */\n      dup2\n        /* \"#utility.yul\":656:676   */\n      calldataload\n        /* \"#utility.yul\":694:773   */\n      tag_292\n        /* \"#utility.yul\":769:772   */\n      dup5\n        /* \"#utility.yul\":761:767   */\n      dup3\n        /* \"#utility.yul\":754:758   */\n      0x20\n        /* \"#utility.yul\":746:752   */\n      dup7\n        /* \"#utility.yul\":742:759   */\n      add\n        /* \"#utility.yul\":694:773   */\n      tag_276\n      jump\t// in\n    tag_292:\n        /* \"#utility.yul\":685:773   */\n      swap2\n      pop\n        /* \"#utility.yul\":501:779   */\n      pop\n        /* \"#utility.yul\":439:779   */\n      swap3\n      swap2\n      pop\n      pop\n      jump\t// out\n        /* \"#utility.yul\":785:924   */\n    tag_293:\n        /* \"#utility.yul\":831:836   */\n      0x00\n        /* \"#utility.yul\":869:875   */\n      dup2\n        /* \"#utility.yul\":856:876   */\n      calldataload\n        /* \"#utility.yul\":847:876   */\n      swap1\n      pop\n        /* \"#utility.yul\":885:918   */\n      tag_295\n        /* \"#utility.yul\":912:917   */\n      dup2\n        /* \"#utility.yul\":885:918   */\n      tag_296\n      jump\t// in\n    tag_295:\n        /* \"#utility.yul\":785:924   */\n      swap3\n      swap2\n      pop\n      pop\n      jump\t// out\n        /* \"#utility.yul\":930:1764   */\n    tag_41:\n        /* \"#utility.yul\":1018:1024   */\n      0x00\n        /* \"#utility.yul\":1026:1032   */\n      dup1\n        /* \"#utility.yul\":1075:1077   */\n      0x40\n        /* \"#utility.yul\":1063:1072   */\n      dup4\n        /* \"#utility.yul\":1054:1061   */\n      dup6\n        /* \"#utility.yul\":1050:1073   */\n      sub\n        /* \"#utility.yul\":1046:1078   */\n      slt\n        /* \"#utility.yul\":1043:1162   */\n      iszero\n      tag_298\n      jumpi\n        /* \"#utility.yul\":1081:1160   */\n      tag_299\n      tag_300\n      jump\t// in\n    tag_299:\n        /* \"#utility.yul\":1043:1162   */\n    tag_298:\n        /* \"#utility.yul\":1229:1230   */\n      0x00\n        /* \"#utility.yul\":1218:1227   */\n      dup4\n        /* \"#utility.yul\":1214:1231   */\n      add\n        /* \"#utility.yul\":1201:1232   */\n      calldataload\n        /* \"#utility.yul\":1259:1277   */\n      0xffffffffffffffff\n        /* \"#utility.yul\":1251:1257   */\n      dup2\n        /* \"#utility.yul\":1248:1278   */\n      gt\n        /* \"#utility.yul\":1245:1362   */\n      iszero\n      tag_301\n      jumpi\n        /* \"#utility.yul\":1281:1360   */\n      tag_302\n      tag_303\n      jump\t// in\n    tag_302:\n        /* \"#utility.yul\":1245:1362   */\n    tag_301:\n        /* \"#utility.yul\":1386:1449   */\n      tag_304\n        /* \"#utility.yul\":1441:1448   */\n      dup6\n        /* \"#utility.yul\":1432:1438   */\n      dup3\n        /* \"#utility.yul\":1421:1430   */\n      dup7\n        /* \"#utility.yul\":1417:1439   */\n      add\n        /* \"#utility.yul\":1386:1449   */\n      tag_287\n      jump\t// in\n    tag_304:\n        /* \"#utility.yul\":1376:1449   */\n      swap3\n      pop\n        /* \"#utility.yul\":1172:1459   */\n      pop\n        /* \"#utility.yul\":1526:1528   */\n      0x20\n        /* \"#utility.yul\":1515:1524   */\n      dup4\n        /* \"#utility.yul\":1511:1529   */\n      add\n        /* \"#utility.yul\":1498:1530   */\n      calldataload\n        /* \"#utility.yul\":1557:1575   */\n      0xffffffffffffffff\n        /* \"#utility.yul\":1549:1555   */\n      dup2\n        /* \"#utility.yul\":1546:1576   */\n      gt\n        /* \"#utility.yul\":1543:1660   */\n      iszero\n      tag_305\n      jumpi\n        /* \"#utility.yul\":1579:1658   */\n      tag_306\n      tag_303\n      jump\t// in\n    tag_306:\n        /* \"#utility.yul\":1543:1660   */\n    tag_305:\n        /* \"#utility.yul\":1684:1747   */\n      tag_307\n        /* \"#utility.yul\":1739:1746   */\n      dup6\n        /* \"#utility.yul\":1730:1736   */\n      dup3\n        /* \"#utility.yul\":1719:1728   */\n      dup7\n        /* \"#utility.yul\":1715:1737   */\n      add\n        /* \"#utility.yul\":1684:1747   */\n      tag_287\n      jump\t// in\n    tag_307:\n        /* \"#utility.yul\":1674:1747   */\n      swap2\n      pop\n        /* \"#utility.yul\":1469:1757   */\n      pop\n        /* \"#utility.yul\":930:1764   */\n      swap3\n      pop\n      swap3\n      swap1\n      pop\n      jump\t// out\n        /* \"#utility.yul\":1770:2099   */\n    tag_29:\n        /* \"#utility.yul\":1829:1835   */\n      0x00\n        /* \"#utility.yul\":1878:1880   */\n      0x20\n        /* \"#utility.yul\":1866:1875   */\n      dup3\n        /* \"#utility.yul\":1857:1864   */\n      dup5\n        /* \"#utility.yul\":1853:1876   */\n      sub\n        /* \"#utility.yul\":1849:1881   */\n      slt\n        /* \"#utility.yul\":1846:1965   */\n      iszero\n      tag_309\n      jumpi\n        /* \"#utility.yul\":1884:1963   */\n      tag_310\n      tag_300\n      jump\t// in\n    tag_310:\n        /* \"#utility.yul\":1846:1965   */\n    tag_309:\n        /* \"#utility.yul\":2004:2005   */\n      0x00\n        /* \"#utility.yul\":2029:2082   */\n      tag_311\n        /* \"#utility.yul\":2074:2081   */\n      dup5\n        /* \"#utility.yul\":2065:2071   */\n      dup3\n        /* \"#utility.yul\":2054:2063   */\n      dup6\n        /* \"#utility.yul\":2050:2072   */\n      add\n        /* \"#utility.yul\":2029:2082   */\n      tag_293\n      jump\t// in\n    tag_311:\n        /* \"#utility.yul\":2019:2082   */\n      swap2\n      pop\n        /* \"#utility.yul\":1975:2092   */\n      pop\n        /* \"#utility.yul\":1770:2099   */\n      swap3\n      swap2\n      pop\n      pop\n      jump\t// out\n        /* \"#utility.yul\":2105:2579   */\n    tag_15:\n        /* \"#utility.yul\":2173:2179   */\n      0x00\n        /* \"#utility.yul\":2181:2187   */\n      dup1\n        /* \"#utility.yul\":2230:2232   */\n      0x40\n        /* \"#utility.yul\":2218:2227   */\n      dup4\n        /* \"#utility.yul\":2209:2216   */\n      dup6\n        /* \"#utility.yul\":2205:2228   */\n      sub\n        /* \"#utility.yul\":2201:2233   */\n      slt\n        /* \"#utility.yul\":2198:2317   */\n      iszero\n      tag_313\n      jumpi\n        /* \"#utility.yul\":2236:2315   */\n      tag_314\n      tag_300\n      jump\t// in\n    tag_314:\n        /* \"#utility.yul\":2198:2317   */\n    tag_313:\n        /* \"#utility.yul\":2356:2357   */\n      0x00\n        /* \"#utility.yul\":2381:2434   */\n      tag_315\n        /* \"#utility.yul\":2426:2433   */\n      dup6\n        /* \"#utility.yul\":2417:2423   */\n      dup3\n        /* \"#utility.yul\":2406:2415   */\n      dup7\n        /* \"#utility.yul\":2402:2424   */\n      add\n        /* \"#utility.yul\":2381:2434   */\n      tag_293\n      jump\t// in\n    tag_315:\n        /* \"#utility.yul\":2371:2434   */\n      swap3\n      pop\n        /* \"#utility.yul\":2327:2444   */\n      pop\n        /* \"#utility.yul\":2483:2485   */\n      0x20\n        /* \"#utility.yul\":2509:2562   */\n      tag_316\n        /* \"#utility.yul\":2554:2561   */\n      dup6\n        /* \"#utility.yul\":2545:2551   */\n      dup3\n        /* \"#utility.yul\":2534:2543   */\n      dup7\n        /* \"#utility.yul\":2530:2552   */\n      add\n        /* \"#utility.yul\":2509:2562   */\n      tag_293\n      jump\t// in\n    tag_316:\n        /* \"#utility.yul\":2499:2562   */\n      swap2\n      pop\n        /* \"#utility.yul\":2454:2572   */\n      pop\n        /* \"#utility.yul\":2105:2579   */\n      swap3\n      pop\n      swap3\n      swap1\n      pop\n      jump\t// out\n        /* \"#utility.yul\":2585:2958   */\n    tag_317:\n        /* \"#utility.yul\":2689:2692   */\n      0x00\n        /* \"#utility.yul\":2717:2755   */\n      tag_319\n        /* \"#utility.yul\":2749:2754   */\n      dup3\n        /* \"#utility.yul\":2717:2755   */\n      tag_320\n      jump\t// in\n    tag_319:\n        /* \"#utility.yul\":2771:2859   */\n      tag_321\n        /* \"#utility.yul\":2852:2858   */\n      dup2\n        /* \"#utility.yul\":2847:2850   */\n      dup6\n        /* \"#utility.yul\":2771:2859   */\n      tag_322\n      jump\t// in\n    tag_321:\n        /* \"#utility.yul\":2764:2859   */\n      swap4\n      pop\n        /* \"#utility.yul\":2868:2920   */\n      tag_323\n        /* \"#utility.yul\":2913:2919   */\n      dup2\n        /* \"#utility.yul\":2908:2911   */\n      dup6\n        /* \"#utility.yul\":2901:2905   */\n      0x20\n        /* \"#utility.yul\":2894:2899   */\n      dup7\n        /* \"#utility.yul\":2890:2906   */\n      add\n        /* \"#utility.yul\":2868:2920   */\n      tag_324\n      jump\t// in\n    tag_323:\n        /* \"#utility.yul\":2945:2951   */\n      dup1\n        /* \"#utility.yul\":2940:2943   */\n      dup5\n        /* \"#utility.yul\":2936:2952   */\n      add\n        /* \"#utility.yul\":2929:2952   */\n      swap2\n      pop\n        /* \"#utility.yul\":2693:2958   */\n      pop\n        /* \"#utility.yul\":2585:2958   */\n      swap3\n      swap2\n      pop\n      pop\n      jump\t// out\n        /* \"#utility.yul\":2964:3328   */\n    tag_325:\n        /* \"#utility.yul\":3052:3055   */\n      0x00\n        /* \"#utility.yul\":3080:3119   */\n      tag_327\n        /* \"#utility.yul\":3113:3118   */\n      dup3\n        /* \"#utility.yul\":3080:3119   */\n      tag_328\n      jump\t// in\n    tag_327:\n        /* \"#utility.yul\":3135:3206   */\n      tag_329\n        /* \"#utility.yul\":3199:3205   */\n      dup2\n        /* \"#utility.yul\":3194:3197   */\n      dup6\n        /* \"#utility.yul\":3135:3206   */\n      tag_330\n      jump\t// in\n    tag_329:\n        /* \"#utility.yul\":3128:3206   */\n      swap4\n      pop\n        /* \"#utility.yul\":3215:3267   */\n      tag_331\n        /* \"#utility.yul\":3260:3266   */\n      dup2\n        /* \"#utility.yul\":3255:3258   */\n      dup6\n        /* \"#utility.yul\":3248:3252   */\n      0x20\n        /* \"#utility.yul\":3241:3246   */\n      dup7\n        /* \"#utility.yul\":3237:3253   */\n      add\n        /* \"#utility.yul\":3215:3267   */\n      tag_324\n      jump\t// in\n    tag_331:\n        /* \"#utility.yul\":3292:3321   */\n      tag_332\n        /* \"#utility.yul\":3314:3320   */\n      dup2\n        /* \"#utility.yul\":3292:3321   */\n      tag_333\n      jump\t// in\n    tag_332:\n        /* \"#utility.yul\":3287:3290   */\n      dup5\n        /* \"#utility.yul\":3283:3322   */\n      add\n        /* \"#utility.yul\":3276:3322   */\n      swap2\n      pop\n        /* \"#utility.yul\":3056:3328   */\n      pop\n        /* \"#utility.yul\":2964:3328   */\n      swap3\n      swap2\n      pop\n      pop\n      jump\t// out\n        /* \"#utility.yul\":3334:3711   */\n    tag_334:\n        /* \"#utility.yul\":3440:3443   */\n      0x00\n        /* \"#utility.yul\":3468:3507   */\n      tag_336\n        /* \"#utility.yul\":3501:3506   */\n      dup3\n        /* \"#utility.yul\":3468:3507   */\n      tag_328\n      jump\t// in\n    tag_336:\n        /* \"#utility.yul\":3523:3612   */\n      tag_337\n        /* \"#utility.yul\":3605:3611   */\n      dup2\n        /* \"#utility.yul\":3600:3603   */\n      dup6\n        /* \"#utility.yul\":3523:3612   */\n      tag_338\n      jump\t// in\n    tag_337:\n        /* \"#utility.yul\":3516:3612   */\n      swap4\n      pop\n        /* \"#utility.yul\":3621:3673   */\n      tag_339\n        /* \"#utility.yul\":3666:3672   */\n      dup2\n        /* \"#utility.yul\":3661:3664   */\n      dup6\n        /* \"#utility.yul\":3654:3658   */\n      0x20\n        /* \"#utility.yul\":3647:3652   */\n      dup7\n        /* \"#utility.yul\":3643:3659   */\n      add\n        /* \"#utility.yul\":3621:3673   */\n      tag_324\n      jump\t// in\n    tag_339:\n        /* \"#utility.yul\":3698:3704   */\n      dup1\n        /* \"#utility.yul\":3693:3696   */\n      dup5\n        /* \"#utility.yul\":3689:3705   */\n      add\n        /* \"#utility.yul\":3682:3705   */\n      swap2\n      pop\n        /* \"#utility.yul\":3444:3711   */\n      pop\n        /* \"#utility.yul\":3334:3711   */\n      swap3\n      swap2\n      pop\n      pop\n      jump\t// out\n        /* \"#utility.yul\":3717:4119   */\n    tag_340:\n        /* \"#utility.yul\":3877:3880   */\n      0x00\n        /* \"#utility.yul\":3898:3983   */\n      tag_342\n        /* \"#utility.yul\":3980:3982   */\n      0x34\n        /* \"#utility.yul\":3975:3978   */\n      dup4\n        /* \"#utility.yul\":3898:3983   */\n      tag_338\n      jump\t// in\n    tag_342:\n        /* \"#utility.yul\":3891:3983   */\n      swap2\n      pop\n        /* \"#utility.yul\":3992:4085   */\n      tag_343\n        /* \"#utility.yul\":4081:4084   */\n      dup3\n        /* \"#utility.yul\":3992:4085   */\n      tag_344\n      jump\t// in\n    tag_343:\n        /* \"#utility.yul\":4110:4112   */\n      0x34\n        /* \"#utility.yul\":4105:4108   */\n      dup3\n        /* \"#utility.yul\":4101:4113   */\n      add\n        /* \"#utility.yul\":4094:4113   */\n      swap1\n      pop\n        /* \"#utility.yul\":3717:4119   */\n      swap2\n      swap1\n      pop\n      jump\t// out\n        /* \"#utility.yul\":4125:4527   */\n    tag_345:\n        /* \"#utility.yul\":4285:4288   */\n      0x00\n        /* \"#utility.yul\":4306:4391   */\n      tag_347\n        /* \"#utility.yul\":4388:4390   */\n      0x36\n        /* \"#utility.yul\":4383:4386   */\n      dup4\n        /* \"#utility.yul\":4306:4391   */\n      tag_338\n      jump\t// in\n    tag_347:\n        /* \"#utility.yul\":4299:4391   */\n      swap2\n      pop\n        /* \"#utility.yul\":4400:4493   */\n      tag_348\n        /* \"#utility.yul\":4489:4492   */\n      dup3\n        /* \"#utility.yul\":4400:4493   */\n      tag_349\n      jump\t// in\n    tag_348:\n        /* \"#utility.yul\":4518:4520   */\n      0x36\n        /* \"#utility.yul\":4513:4516   */\n      dup3\n        /* \"#utility.yul\":4509:4521   */\n      add\n        /* \"#utility.yul\":4502:4521   */\n      swap1\n      pop\n        /* \"#utility.yul\":4125:4527   */\n      swap2\n      swap1\n      pop\n      jump\t// out\n        /* \"#utility.yul\":4533:4933   */\n    tag_350:\n        /* \"#utility.yul\":4693:4696   */\n      0x00\n        /* \"#utility.yul\":4714:4798   */\n      tag_352\n        /* \"#utility.yul\":4796:4797   */\n      0x01\n        /* \"#utility.yul\":4791:4794   */\n      dup4\n        /* \"#utility.yul\":4714:4798   */\n      tag_338\n      jump\t// in\n    tag_352:\n        /* \"#utility.yul\":4707:4798   */\n      swap2\n      pop\n        /* \"#utility.yul\":4807:4900   */\n      tag_353\n        /* \"#utility.yul\":4896:4899   */\n      dup3\n        /* \"#utility.yul\":4807:4900   */\n      tag_354\n      jump\t// in\n    tag_353:\n        /* \"#utility.yul\":4925:4926   */\n      0x01\n        /* \"#utility.yul\":4920:4923   */\n      dup3\n        /* \"#utility.yul\":4916:4927   */\n      add\n        /* \"#utility.yul\":4909:4927   */\n      swap1\n      pop\n        /* \"#utility.yul\":4533:4933   */\n      swap2\n      swap1\n      pop\n      jump\t// out\n        /* \"#utility.yul\":4939:5339   */\n    tag_355:\n        /* \"#utility.yul\":5099:5102   */\n      0x00\n        /* \"#utility.yul\":5120:5204   */\n      tag_357\n        /* \"#utility.yul\":5202:5203   */\n      0x01\n        /* \"#utility.yul\":5197:5200   */\n      dup4\n        /* \"#utility.yul\":5120:5204   */\n      tag_338\n      jump\t// in\n    tag_357:\n        /* \"#utility.yul\":5113:5204   */\n      swap2\n      pop\n        /* \"#utility.yul\":5213:5306   */\n      tag_358\n        /* \"#utility.yul\":5302:5305   */\n      dup3\n        /* \"#utility.yul\":5213:5306   */\n      tag_359\n      jump\t// in\n    tag_358:\n        /* \"#utility.yul\":5331:5332   */\n      0x01\n        /* \"#utility.yul\":5326:5329   */\n      dup3\n        /* \"#utility.yul\":5322:5333   */\n      add\n        /* \"#utility.yul\":5315:5333   */\n      swap1\n      pop\n        /* \"#utility.yul\":4939:5339   */\n      swap2\n      swap1\n      pop\n      jump\t// out\n        /* \"#utility.yul\":5345:5745   */\n    tag_360:\n        /* \"#utility.yul\":5505:5508   */\n      0x00\n        /* \"#utility.yul\":5526:5610   */\n      tag_362\n        /* \"#utility.yul\":5608:5609   */\n      0x04\n        /* \"#utility.yul\":5603:5606   */\n      dup4\n        /* \"#utility.yul\":5526:5610   */\n      tag_338\n      jump\t// in\n    tag_362:\n        /* \"#utility.yul\":5519:5610   */\n      swap2\n      pop\n        /* \"#utility.yul\":5619:5712   */\n      tag_363\n        /* \"#utility.yul\":5708:5711   */\n      dup3\n        /* \"#utility.yul\":5619:5712   */\n      tag_364\n      jump\t// in\n    tag_363:\n        /* \"#utility.yul\":5737:5738   */\n      0x04\n        /* \"#utility.yul\":5732:5735   */\n      dup3\n        /* \"#utility.yul\":5728:5739   */\n      add\n        /* \"#utility.yul\":5721:5739   */\n      swap1\n      pop\n        /* \"#utility.yul\":5345:5745   */\n      swap2\n      swap1\n      pop\n      jump\t// out\n        /* \"#utility.yul\":5751:6153   */\n    tag_365:\n        /* \"#utility.yul\":5911:5914   */\n      0x00\n        /* \"#utility.yul\":5932:6017   */\n      tag_367\n        /* \"#utility.yul\":6014:6016   */\n      0x38\n        /* \"#utility.yul\":6009:6012   */\n      dup4\n        /* \"#utility.yul\":5932:6017   */\n      tag_338\n      jump\t// in\n    tag_367:\n        /* \"#utility.yul\":5925:6017   */\n      swap2\n      pop\n        /* \"#utility.yul\":6026:6119   */\n      tag_368\n        /* \"#utility.yul\":6115:6118   */\n      dup3\n        /* \"#utility.yul\":6026:6119   */\n      tag_369\n      jump\t// in\n    tag_368:\n        /* \"#utility.yul\":6144:6146   */\n      0x38\n        /* \"#utility.yul\":6139:6142   */\n      dup3\n        /* \"#utility.yul\":6135:6147   */\n      add\n        /* \"#utility.yul\":6128:6147   */\n      swap1\n      pop\n        /* \"#utility.yul\":5751:6153   */\n      swap2\n      swap1\n      pop\n      jump\t// out\n        /* \"#utility.yul\":6159:6561   */\n    tag_370:\n        /* \"#utility.yul\":6319:6322   */\n      0x00\n        /* \"#utility.yul\":6340:6425   */\n      tag_372\n        /* \"#utility.yul\":6422:6424   */\n      0x36\n        /* \"#utility.yul\":6417:6420   */\n      dup4\n        /* \"#utility.yul\":6340:6425   */\n      tag_338\n      jump\t// in\n    tag_372:\n        /* \"#utility.yul\":6333:6425   */\n      swap2\n      pop\n        /* \"#utility.yul\":6434:6527   */\n      tag_373\n        /* \"#utility.yul\":6523:6526   */\n      dup3\n        /* \"#utility.yul\":6434:6527   */\n      tag_374\n      jump\t// in\n    tag_373:\n        /* \"#utility.yul\":6552:6554   */\n      0x36\n        /* \"#utility.yul\":6547:6550   */\n      dup3\n        /* \"#utility.yul\":6543:6555   */\n      add\n        /* \"#utility.yul\":6536:6555   */\n      swap1\n      pop\n        /* \"#utility.yul\":6159:6561   */\n      swap2\n      swap1\n      pop\n      jump\t// out\n        /* \"#utility.yul\":6567:6969   */\n    tag_375:\n        /* \"#utility.yul\":6727:6730   */\n      0x00\n        /* \"#utility.yul\":6748:6833   */\n      tag_377\n        /* \"#utility.yul\":6830:6832   */\n      0x16\n        /* \"#utility.yul\":6825:6828   */\n      dup4\n        /* \"#utility.yul\":6748:6833   */\n      tag_338\n      jump\t// in\n    tag_377:\n        /* \"#utility.yul\":6741:6833   */\n      swap2\n      pop\n        /* \"#utility.yul\":6842:6935   */\n      tag_378\n        /* \"#utility.yul\":6931:6934   */\n      dup3\n        /* \"#utility.yul\":6842:6935   */\n      tag_379\n      jump\t// in\n    tag_378:\n        /* \"#utility.yul\":6960:6962   */\n      0x16\n        /* \"#utility.yul\":6955:6958   */\n      dup3\n        /* \"#utility.yul\":6951:6963   */\n      add\n        /* \"#utility.yul\":6944:6963   */\n      swap1\n      pop\n        /* \"#utility.yul\":6567:6969   */\n      swap2\n      swap1\n      pop\n      jump\t// out\n        /* \"#utility.yul\":6975:7377   */\n    tag_380:\n        /* \"#utility.yul\":7135:7138   */\n      0x00\n        /* \"#utility.yul\":7156:7241   */\n      tag_382\n        /* \"#utility.yul\":7238:7240   */\n      0x35\n        /* \"#utility.yul\":7233:7236   */\n      dup4\n        /* \"#utility.yul\":7156:7241   */\n      tag_338\n      jump\t// in\n    tag_382:\n        /* \"#utility.yul\":7149:7241   */\n      swap2\n      pop\n        /* \"#utility.yul\":7250:7343   */\n      tag_383\n        /* \"#utility.yul\":7339:7342   */\n      dup3\n        /* \"#utility.yul\":7250:7343   */\n      tag_384\n      jump\t// in\n    tag_383:\n        /* \"#utility.yul\":7368:7370   */\n      0x35\n        /* \"#utility.yul\":7363:7366   */\n      dup3\n        /* \"#utility.yul\":7359:7371   */\n      add\n        /* \"#utility.yul\":7352:7371   */\n      swap1\n      pop\n        /* \"#utility.yul\":6975:7377   */\n      swap2\n      swap1\n      pop\n      jump\t// out\n        /* \"#utility.yul\":7383:7501   */\n    tag_385:\n        /* \"#utility.yul\":7470:7494   */\n      tag_387\n        /* \"#utility.yul\":7488:7493   */\n      dup2\n        /* \"#utility.yul\":7470:7494   */\n      tag_388\n      jump\t// in\n    tag_387:\n        /* \"#utility.yul\":7465:7468   */\n      dup3\n        /* \"#utility.yul\":7458:7495   */\n      mstore\n        /* \"#utility.yul\":7383:7501   */\n      pop\n      pop\n      jump\t// out\n        /* \"#utility.yul\":7507:9322   */\n    tag_238:\n        /* \"#utility.yul\":8185:8188   */\n      0x00\n        /* \"#utility.yul\":8207:8300   */\n      tag_390\n        /* \"#utility.yul\":8296:8299   */\n      dup3\n        /* \"#utility.yul\":8287:8293   */\n      dup8\n        /* \"#utility.yul\":8207:8300   */\n      tag_317\n      jump\t// in\n    tag_390:\n        /* \"#utility.yul\":8200:8300   */\n      swap2\n      pop\n        /* \"#utility.yul\":8317:8465   */\n      tag_391\n        /* \"#utility.yul\":8461:8464   */\n      dup3\n        /* \"#utility.yul\":8317:8465   */\n      tag_375\n      jump\t// in\n    tag_391:\n        /* \"#utility.yul\":8310:8465   */\n      swap2\n      pop\n        /* \"#utility.yul\":8482:8577   */\n      tag_392\n        /* \"#utility.yul\":8573:8576   */\n      dup3\n        /* \"#utility.yul\":8564:8570   */\n      dup7\n        /* \"#utility.yul\":8482:8577   */\n      tag_334\n      jump\t// in\n    tag_392:\n        /* \"#utility.yul\":8475:8577   */\n      swap2\n      pop\n        /* \"#utility.yul\":8594:8742   */\n      tag_393\n        /* \"#utility.yul\":8738:8741   */\n      dup3\n        /* \"#utility.yul\":8594:8742   */\n      tag_350\n      jump\t// in\n    tag_393:\n        /* \"#utility.yul\":8587:8742   */\n      swap2\n      pop\n        /* \"#utility.yul\":8759:8854   */\n      tag_394\n        /* \"#utility.yul\":8850:8853   */\n      dup3\n        /* \"#utility.yul\":8841:8847   */\n      dup6\n        /* \"#utility.yul\":8759:8854   */\n      tag_334\n      jump\t// in\n    tag_394:\n        /* \"#utility.yul\":8752:8854   */\n      swap2\n      pop\n        /* \"#utility.yul\":8871:9019   */\n      tag_395\n        /* \"#utility.yul\":9015:9018   */\n      dup3\n        /* \"#utility.yul\":8871:9019   */\n      tag_365\n      jump\t// in\n    tag_395:\n        /* \"#utility.yul\":8864:9019   */\n      swap2\n      pop\n        /* \"#utility.yul\":9036:9131   */\n      tag_396\n        /* \"#utility.yul\":9127:9130   */\n      dup3\n        /* \"#utility.yul\":9118:9124   */\n      dup5\n        /* \"#utility.yul\":9036:9131   */\n      tag_334\n      jump\t// in\n    tag_396:\n        /* \"#utility.yul\":9029:9131   */\n      swap2\n      pop\n        /* \"#utility.yul\":9148:9296   */\n      tag_397\n        /* \"#utility.yul\":9292:9295   */\n      dup3\n        /* \"#utility.yul\":9148:9296   */\n      tag_360\n      jump\t// in\n    tag_397:\n        /* \"#utility.yul\":9141:9296   */\n      swap2\n      pop\n        /* \"#utility.yul\":9313:9316   */\n      dup2\n        /* \"#utility.yul\":9306:9316   */\n      swap1\n      pop\n        /* \"#utility.yul\":7507:9322   */\n      swap6\n      swap5\n      pop\n      pop\n      pop\n      pop\n      pop\n      jump\t// out\n        /* \"#utility.yul\":9328:10029   */\n    tag_168:\n        /* \"#utility.yul\":9609:9612   */\n      0x00\n        /* \"#utility.yul\":9631:9726   */\n      tag_399\n        /* \"#utility.yul\":9722:9725   */\n      dup3\n        /* \"#utility.yul\":9713:9719   */\n      dup6\n        /* \"#utility.yul\":9631:9726   */\n      tag_334\n      jump\t// in\n    tag_399:\n        /* \"#utility.yul\":9624:9726   */\n      swap2\n      pop\n        /* \"#utility.yul\":9743:9891   */\n      tag_400\n        /* \"#utility.yul\":9887:9890   */\n      dup3\n        /* \"#utility.yul\":9743:9891   */\n      tag_355\n      jump\t// in\n    tag_400:\n        /* \"#utility.yul\":9736:9891   */\n      swap2\n      pop\n        /* \"#utility.yul\":9908:10003   */\n      tag_401\n        /* \"#utility.yul\":9999:10002   */\n      dup3\n        /* \"#utility.yul\":9990:9996   */\n      dup5\n        /* \"#utility.yul\":9908:10003   */\n      tag_334\n      jump\t// in\n    tag_401:\n        /* \"#utility.yul\":9901:10003   */\n      swap2\n      pop\n        /* \"#utility.yul\":10020:10023   */\n      dup2\n        /* \"#utility.yul\":10013:10023   */\n      swap1\n      pop\n        /* \"#utility.yul\":9328:10029   */\n      swap4\n      swap3\n      pop\n      pop\n      pop\n      jump\t// out\n        /* \"#utility.yul\":10035:11694   */\n    tag_105:\n        /* \"#utility.yul\":10667:10670   */\n      0x00\n        /* \"#utility.yul\":10689:10837   */\n      tag_403\n        /* \"#utility.yul\":10833:10836   */\n      dup3\n        /* \"#utility.yul\":10689:10837   */\n      tag_375\n      jump\t// in\n    tag_403:\n        /* \"#utility.yul\":10682:10837   */\n      swap2\n      pop\n        /* \"#utility.yul\":10854:10949   */\n      tag_404\n        /* \"#utility.yul\":10945:10948   */\n      dup3\n        /* \"#utility.yul\":10936:10942   */\n      dup7\n        /* \"#utility.yul\":10854:10949   */\n      tag_334\n      jump\t// in\n    tag_404:\n        /* \"#utility.yul\":10847:10949   */\n      swap2\n      pop\n        /* \"#utility.yul\":10966:11114   */\n      tag_405\n        /* \"#utility.yul\":11110:11113   */\n      dup3\n        /* \"#utility.yul\":10966:11114   */\n      tag_350\n      jump\t// in\n    tag_405:\n        /* \"#utility.yul\":10959:11114   */\n      swap2\n      pop\n        /* \"#utility.yul\":11131:11226   */\n      tag_406\n        /* \"#utility.yul\":11222:11225   */\n      dup3\n        /* \"#utility.yul\":11213:11219   */\n      dup6\n        /* \"#utility.yul\":11131:11226   */\n      tag_334\n      jump\t// in\n    tag_406:\n        /* \"#utility.yul\":11124:11226   */\n      swap2\n      pop\n        /* \"#utility.yul\":11243:11391   */\n      tag_407\n        /* \"#utility.yul\":11387:11390   */\n      dup3\n        /* \"#utility.yul\":11243:11391   */\n      tag_380\n      jump\t// in\n    tag_407:\n        /* \"#utility.yul\":11236:11391   */\n      swap2\n      pop\n        /* \"#utility.yul\":11408:11503   */\n      tag_408\n        /* \"#utility.yul\":11499:11502   */\n      dup3\n        /* \"#utility.yul\":11490:11496   */\n      dup5\n        /* \"#utility.yul\":11408:11503   */\n      tag_334\n      jump\t// in\n    tag_408:\n        /* \"#utility.yul\":11401:11503   */\n      swap2\n      pop\n        /* \"#utility.yul\":11520:11668   */\n      tag_409\n        /* \"#utility.yul\":11664:11667   */\n      dup3\n        /* \"#utility.yul\":11520:11668   */\n      tag_360\n      jump\t// in\n    tag_409:\n        /* \"#utility.yul\":11513:11668   */\n      swap2\n      pop\n        /* \"#utility.yul\":11685:11688   */\n      dup2\n        /* \"#utility.yul\":11678:11688   */\n      swap1\n      pop\n        /* \"#utility.yul\":10035:11694   */\n      swap5\n      swap4\n      pop\n      pop\n      pop\n      pop\n      jump\t// out\n        /* \"#utility.yul\":11700:14903   */\n    tag_71:\n        /* \"#utility.yul\":12880:12883   */\n      0x00\n        /* \"#utility.yul\":12902:13050   */\n      tag_411\n        /* \"#utility.yul\":13046:13049   */\n      dup3\n        /* \"#utility.yul\":12902:13050   */\n      tag_375\n      jump\t// in\n    tag_411:\n        /* \"#utility.yul\":12895:13050   */\n      swap2\n      pop\n        /* \"#utility.yul\":13067:13162   */\n      tag_412\n        /* \"#utility.yul\":13158:13161   */\n      dup3\n        /* \"#utility.yul\":13149:13155   */\n      dup10\n        /* \"#utility.yul\":13067:13162   */\n      tag_334\n      jump\t// in\n    tag_412:\n        /* \"#utility.yul\":13060:13162   */\n      swap2\n      pop\n        /* \"#utility.yul\":13179:13327   */\n      tag_413\n        /* \"#utility.yul\":13323:13326   */\n      dup3\n        /* \"#utility.yul\":13179:13327   */\n      tag_350\n      jump\t// in\n    tag_413:\n        /* \"#utility.yul\":13172:13327   */\n      swap2\n      pop\n        /* \"#utility.yul\":13344:13439   */\n      tag_414\n        /* \"#utility.yul\":13435:13438   */\n      dup3\n        /* \"#utility.yul\":13426:13432   */\n      dup9\n        /* \"#utility.yul\":13344:13439   */\n      tag_334\n      jump\t// in\n    tag_414:\n        /* \"#utility.yul\":13337:13439   */\n      swap2\n      pop\n        /* \"#utility.yul\":13456:13604   */\n      tag_415\n        /* \"#utility.yul\":13600:13603   */\n      dup3\n        /* \"#utility.yul\":13456:13604   */\n      tag_380\n      jump\t// in\n    tag_415:\n        /* \"#utility.yul\":13449:13604   */\n      swap2\n      pop\n        /* \"#utility.yul\":13621:13716   */\n      tag_416\n        /* \"#utility.yul\":13712:13715   */\n      dup3\n        /* \"#utility.yul\":13703:13709   */\n      dup8\n        /* \"#utility.yul\":13621:13716   */\n      tag_334\n      jump\t// in\n    tag_416:\n        /* \"#utility.yul\":13614:13716   */\n      swap2\n      pop\n        /* \"#utility.yul\":13733:13881   */\n      tag_417\n        /* \"#utility.yul\":13877:13880   */\n      dup3\n        /* \"#utility.yul\":13733:13881   */\n      tag_360\n      jump\t// in\n    tag_417:\n        /* \"#utility.yul\":13726:13881   */\n      swap2\n      pop\n        /* \"#utility.yul\":13898:14046   */\n      tag_418\n        /* \"#utility.yul\":14042:14045   */\n      dup3\n        /* \"#utility.yul\":13898:14046   */\n      tag_375\n      jump\t// in\n    tag_418:\n        /* \"#utility.yul\":13891:14046   */\n      swap2\n      pop\n        /* \"#utility.yul\":14063:14158   */\n      tag_419\n        /* \"#utility.yul\":14154:14157   */\n      dup3\n        /* \"#utility.yul\":14145:14151   */\n      dup7\n        /* \"#utility.yul\":14063:14158   */\n      tag_334\n      jump\t// in\n    tag_419:\n        /* \"#utility.yul\":14056:14158   */\n      swap2\n      pop\n        /* \"#utility.yul\":14175:14323   */\n      tag_420\n        /* \"#utility.yul\":14319:14322   */\n      dup3\n        /* \"#utility.yul\":14175:14323   */\n      tag_350\n      jump\t// in\n    tag_420:\n        /* \"#utility.yul\":14168:14323   */\n      swap2\n      pop\n        /* \"#utility.yul\":14340:14435   */\n      tag_421\n        /* \"#utility.yul\":14431:14434   */\n      dup3\n        /* \"#utility.yul\":14422:14428   */\n      dup6\n        /* \"#utility.yul\":14340:14435   */\n      tag_334\n      jump\t// in\n    tag_421:\n        /* \"#utility.yul\":14333:14435   */\n      swap2\n      pop\n        /* \"#utility.yul\":14452:14600   */\n      tag_422\n        /* \"#utility.yul\":14596:14599   */\n      dup3\n        /* \"#utility.yul\":14452:14600   */\n      tag_345\n      jump\t// in\n    tag_422:\n        /* \"#utility.yul\":14445:14600   */\n      swap2\n      pop\n        /* \"#utility.yul\":14617:14712   */\n      tag_423\n        /* \"#utility.yul\":14708:14711   */\n      dup3\n        /* \"#utility.yul\":14699:14705   */\n      dup5\n        /* \"#utility.yul\":14617:14712   */\n      tag_334\n      jump\t// in\n    tag_423:\n        /* \"#utility.yul\":14610:14712   */\n      swap2\n      pop\n        /* \"#utility.yul\":14729:14877   */\n      tag_424\n        /* \"#utility.yul\":14873:14876   */\n      dup3\n        /* \"#utility.yul\":14729:14877   */\n      tag_360\n      jump\t// in\n    tag_424:\n        /* \"#utility.yul\":14722:14877   */\n      swap2\n      pop\n        /* \"#utility.yul\":14894:14897   */\n      dup2\n        /* \"#utility.yul\":14887:14897   */\n      swap1\n      pop\n        /* \"#utility.yul\":11700:14903   */\n      swap8\n      swap7\n      pop\n      pop\n      pop\n      pop\n      pop\n      pop\n      pop\n      jump\t// out\n        /* \"#utility.yul\":14909:19656   */\n    tag_95:\n        /* \"#utility.yul\":16637:16640   */\n      0x00\n        /* \"#utility.yul\":16659:16807   */\n      tag_426\n        /* \"#utility.yul\":16803:16806   */\n      dup3\n        /* \"#utility.yul\":16659:16807   */\n      tag_375\n      jump\t// in\n    tag_426:\n        /* \"#utility.yul\":16652:16807   */\n      swap2\n      pop\n        /* \"#utility.yul\":16824:16919   */\n      tag_427\n        /* \"#utility.yul\":16915:16918   */\n      dup3\n        /* \"#utility.yul\":16906:16912   */\n      dup13\n        /* \"#utility.yul\":16824:16919   */\n      tag_334\n      jump\t// in\n    tag_427:\n        /* \"#utility.yul\":16817:16919   */\n      swap2\n      pop\n        /* \"#utility.yul\":16936:17084   */\n      tag_428\n        /* \"#utility.yul\":17080:17083   */\n      dup3\n        /* \"#utility.yul\":16936:17084   */\n      tag_350\n      jump\t// in\n    tag_428:\n        /* \"#utility.yul\":16929:17084   */\n      swap2\n      pop\n        /* \"#utility.yul\":17101:17196   */\n      tag_429\n        /* \"#utility.yul\":17192:17195   */\n      dup3\n        /* \"#utility.yul\":17183:17189   */\n      dup12\n        /* \"#utility.yul\":17101:17196   */\n      tag_334\n      jump\t// in\n    tag_429:\n        /* \"#utility.yul\":17094:17196   */\n      swap2\n      pop\n        /* \"#utility.yul\":17213:17361   */\n      tag_430\n        /* \"#utility.yul\":17357:17360   */\n      dup3\n        /* \"#utility.yul\":17213:17361   */\n      tag_380\n      jump\t// in\n    tag_430:\n        /* \"#utility.yul\":17206:17361   */\n      swap2\n      pop\n        /* \"#utility.yul\":17378:17473   */\n      tag_431\n        /* \"#utility.yul\":17469:17472   */\n      dup3\n        /* \"#utility.yul\":17460:17466   */\n      dup11\n        /* \"#utility.yul\":17378:17473   */\n      tag_334\n      jump\t// in\n    tag_431:\n        /* \"#utility.yul\":17371:17473   */\n      swap2\n      pop\n        /* \"#utility.yul\":17490:17638   */\n      tag_432\n        /* \"#utility.yul\":17634:17637   */\n      dup3\n        /* \"#utility.yul\":17490:17638   */\n      tag_360\n      jump\t// in\n    tag_432:\n        /* \"#utility.yul\":17483:17638   */\n      swap2\n      pop\n        /* \"#utility.yul\":17655:17803   */\n      tag_433\n        /* \"#utility.yul\":17799:17802   */\n      dup3\n        /* \"#utility.yul\":17655:17803   */\n      tag_375\n      jump\t// in\n    tag_433:\n        /* \"#utility.yul\":17648:17803   */\n      swap2\n      pop\n        /* \"#utility.yul\":17820:17915   */\n      tag_434\n        /* \"#utility.yul\":17911:17914   */\n      dup3\n        /* \"#utility.yul\":17902:17908   */\n      dup10\n        /* \"#utility.yul\":17820:17915   */\n      tag_334\n      jump\t// in\n    tag_434:\n        /* \"#utility.yul\":17813:17915   */\n      swap2\n      pop\n        /* \"#utility.yul\":17932:18080   */\n      tag_435\n        /* \"#utility.yul\":18076:18079   */\n      dup3\n        /* \"#utility.yul\":17932:18080   */\n      tag_350\n      jump\t// in\n    tag_435:\n        /* \"#utility.yul\":17925:18080   */\n      swap2\n      pop\n        /* \"#utility.yul\":18097:18192   */\n      tag_436\n        /* \"#utility.yul\":18188:18191   */\n      dup3\n        /* \"#utility.yul\":18179:18185   */\n      dup9\n        /* \"#utility.yul\":18097:18192   */\n      tag_334\n      jump\t// in\n    tag_436:\n        /* \"#utility.yul\":18090:18192   */\n      swap2\n      pop\n        /* \"#utility.yul\":18209:18357   */\n      tag_437\n        /* \"#utility.yul\":18353:18356   */\n      dup3\n        /* \"#utility.yul\":18209:18357   */\n      tag_345\n      jump\t// in\n    tag_437:\n        /* \"#utility.yul\":18202:18357   */\n      swap2\n      pop\n        /* \"#utility.yul\":18374:18469   */\n      tag_438\n        /* \"#utility.yul\":18465:18468   */\n      dup3\n        /* \"#utility.yul\":18456:18462   */\n      dup8\n        /* \"#utility.yul\":18374:18469   */\n      tag_334\n      jump\t// in\n    tag_438:\n        /* \"#utility.yul\":18367:18469   */\n      swap2\n      pop\n        /* \"#utility.yul\":18486:18634   */\n      tag_439\n        /* \"#utility.yul\":18630:18633   */\n      dup3\n        /* \"#utility.yul\":18486:18634   */\n      tag_360\n      jump\t// in\n    tag_439:\n        /* \"#utility.yul\":18479:18634   */\n      swap2\n      pop\n        /* \"#utility.yul\":18651:18799   */\n      tag_440\n        /* \"#utility.yul\":18795:18798   */\n      dup3\n        /* \"#utility.yul\":18651:18799   */\n      tag_375\n      jump\t// in\n    tag_440:\n        /* \"#utility.yul\":18644:18799   */\n      swap2\n      pop\n        /* \"#utility.yul\":18816:18911   */\n      tag_441\n        /* \"#utility.yul\":18907:18910   */\n      dup3\n        /* \"#utility.yul\":18898:18904   */\n      dup7\n        /* \"#utility.yul\":18816:18911   */\n      tag_334\n      jump\t// in\n    tag_441:\n        /* \"#utility.yul\":18809:18911   */\n      swap2\n      pop\n        /* \"#utility.yul\":18928:19076   */\n      tag_442\n        /* \"#utility.yul\":19072:19075   */\n      dup3\n        /* \"#utility.yul\":18928:19076   */\n      tag_350\n      jump\t// in\n    tag_442:\n        /* \"#utility.yul\":18921:19076   */\n      swap2\n      pop\n        /* \"#utility.yul\":19093:19188   */\n      tag_443\n        /* \"#utility.yul\":19184:19187   */\n      dup3\n        /* \"#utility.yul\":19175:19181   */\n      dup6\n        /* \"#utility.yul\":19093:19188   */\n      tag_334\n      jump\t// in\n    tag_443:\n        /* \"#utility.yul\":19086:19188   */\n      swap2\n      pop\n        /* \"#utility.yul\":19205:19353   */\n      tag_444\n        /* \"#utility.yul\":19349:19352   */\n      dup3\n        /* \"#utility.yul\":19205:19353   */\n      tag_370\n      jump\t// in\n    tag_444:\n        /* \"#utility.yul\":19198:19353   */\n      swap2\n      pop\n        /* \"#utility.yul\":19370:19465   */\n      tag_445\n        /* \"#utility.yul\":19461:19464   */\n      dup3\n        /* \"#utility.yul\":19452:19458   */\n      dup5\n        /* \"#utility.yul\":19370:19465   */\n      tag_334\n      jump\t// in\n    tag_445:\n        /* \"#utility.yul\":19363:19465   */\n      swap2\n      pop\n        /* \"#utility.yul\":19482:19630   */\n      tag_446\n        /* \"#utility.yul\":19626:19629   */\n      dup3\n        /* \"#utility.yul\":19482:19630   */\n      tag_360\n      jump\t// in\n    tag_446:\n        /* \"#utility.yul\":19475:19630   */\n      swap2\n      pop\n        /* \"#utility.yul\":19647:19650   */\n      dup2\n        /* \"#utility.yul\":19640:19650   */\n      swap1\n      pop\n        /* \"#utility.yul\":14909:19656   */\n      swap11\n      swap10\n      pop\n      pop\n      pop\n      pop\n      pop\n      pop\n      pop\n      pop\n      pop\n      pop\n      jump\t// out\n        /* \"#utility.yul\":19662:25957   */\n    tag_199:\n        /* \"#utility.yul\":21940:21943   */\n      0x00\n        /* \"#utility.yul\":21962:22110   */\n      tag_448\n        /* \"#utility.yul\":22106:22109   */\n      dup3\n        /* \"#utility.yul\":21962:22110   */\n      tag_375\n      jump\t// in\n    tag_448:\n        /* \"#utility.yul\":21955:22110   */\n      swap2\n      pop\n        /* \"#utility.yul\":22127:22222   */\n      tag_449\n        /* \"#utility.yul\":22218:22221   */\n      dup3\n        /* \"#utility.yul\":22209:22215   */\n      dup16\n        /* \"#utility.yul\":22127:22222   */\n      tag_334\n      jump\t// in\n    tag_449:\n        /* \"#utility.yul\":22120:22222   */\n      swap2\n      pop\n        /* \"#utility.yul\":22239:22387   */\n      tag_450\n        /* \"#utility.yul\":22383:22386   */\n      dup3\n        /* \"#utility.yul\":22239:22387   */\n      tag_350\n      jump\t// in\n    tag_450:\n        /* \"#utility.yul\":22232:22387   */\n      swap2\n      pop\n        /* \"#utility.yul\":22404:22499   */\n      tag_451\n        /* \"#utility.yul\":22495:22498   */\n      dup3\n        /* \"#utility.yul\":22486:22492   */\n      dup15\n        /* \"#utility.yul\":22404:22499   */\n      tag_334\n      jump\t// in\n    tag_451:\n        /* \"#utility.yul\":22397:22499   */\n      swap2\n      pop\n        /* \"#utility.yul\":22516:22664   */\n      tag_452\n        /* \"#utility.yul\":22660:22663   */\n      dup3\n        /* \"#utility.yul\":22516:22664   */\n      tag_380\n      jump\t// in\n    tag_452:\n        /* \"#utility.yul\":22509:22664   */\n      swap2\n      pop\n        /* \"#utility.yul\":22681:22776   */\n      tag_453\n        /* \"#utility.yul\":22772:22775   */\n      dup3\n        /* \"#utility.yul\":22763:22769   */\n      dup14\n        /* \"#utility.yul\":22681:22776   */\n      tag_334\n      jump\t// in\n    tag_453:\n        /* \"#utility.yul\":22674:22776   */\n      swap2\n      pop\n        /* \"#utility.yul\":22793:22941   */\n      tag_454\n        /* \"#utility.yul\":22937:22940   */\n      dup3\n        /* \"#utility.yul\":22793:22941   */\n      tag_360\n      jump\t// in\n    tag_454:\n        /* \"#utility.yul\":22786:22941   */\n      swap2\n      pop\n        /* \"#utility.yul\":22958:23106   */\n      tag_455\n        /* \"#utility.yul\":23102:23105   */\n      dup3\n        /* \"#utility.yul\":22958:23106   */\n      tag_375\n      jump\t// in\n    tag_455:\n        /* \"#utility.yul\":22951:23106   */\n      swap2\n      pop\n        /* \"#utility.yul\":23123:23218   */\n      tag_456\n        /* \"#utility.yul\":23214:23217   */\n      dup3\n        /* \"#utility.yul\":23205:23211   */\n      dup13\n        /* \"#utility.yul\":23123:23218   */\n      tag_334\n      jump\t// in\n    tag_456:\n        /* \"#utility.yul\":23116:23218   */\n      swap2\n      pop\n        /* \"#utility.yul\":23235:23383   */\n      tag_457\n        /* \"#utility.yul\":23379:23382   */\n      dup3\n        /* \"#utility.yul\":23235:23383   */\n      tag_350\n      jump\t// in\n    tag_457:\n        /* \"#utility.yul\":23228:23383   */\n      swap2\n      pop\n        /* \"#utility.yul\":23400:23495   */\n      tag_458\n        /* \"#utility.yul\":23491:23494   */\n      dup3\n        /* \"#utility.yul\":23482:23488   */\n      dup12\n        /* \"#utility.yul\":23400:23495   */\n      tag_334\n      jump\t// in\n    tag_458:\n        /* \"#utility.yul\":23393:23495   */\n      swap2\n      pop\n        /* \"#utility.yul\":23512:23660   */\n      tag_459\n        /* \"#utility.yul\":23656:23659   */\n      dup3\n        /* \"#utility.yul\":23512:23660   */\n      tag_345\n      jump\t// in\n    tag_459:\n        /* \"#utility.yul\":23505:23660   */\n      swap2\n      pop\n        /* \"#utility.yul\":23677:23772   */\n      tag_460\n        /* \"#utility.yul\":23768:23771   */\n      dup3\n        /* \"#utility.yul\":23759:23765   */\n      dup11\n        /* \"#utility.yul\":23677:23772   */\n      tag_334\n      jump\t// in\n    tag_460:\n        /* \"#utility.yul\":23670:23772   */\n      swap2\n      pop\n        /* \"#utility.yul\":23789:23937   */\n      tag_461\n        /* \"#utility.yul\":23933:23936   */\n      dup3\n        /* \"#utility.yul\":23789:23937   */\n      tag_360\n      jump\t// in\n    tag_461:\n        /* \"#utility.yul\":23782:23937   */\n      swap2\n      pop\n        /* \"#utility.yul\":23954:24102   */\n      tag_462\n        /* \"#utility.yul\":24098:24101   */\n      dup3\n        /* \"#utility.yul\":23954:24102   */\n      tag_375\n      jump\t// in\n    tag_462:\n        /* \"#utility.yul\":23947:24102   */\n      swap2\n      pop\n        /* \"#utility.yul\":24119:24214   */\n      tag_463\n        /* \"#utility.yul\":24210:24213   */\n      dup3\n        /* \"#utility.yul\":24201:24207   */\n      dup10\n        /* \"#utility.yul\":24119:24214   */\n      tag_334\n      jump\t// in\n    tag_463:\n        /* \"#utility.yul\":24112:24214   */\n      swap2\n      pop\n        /* \"#utility.yul\":24231:24379   */\n      tag_464\n        /* \"#utility.yul\":24375:24378   */\n      dup3\n        /* \"#utility.yul\":24231:24379   */\n      tag_350\n      jump\t// in\n    tag_464:\n        /* \"#utility.yul\":24224:24379   */\n      swap2\n      pop\n        /* \"#utility.yul\":24396:24491   */\n      tag_465\n        /* \"#utility.yul\":24487:24490   */\n      dup3\n        /* \"#utility.yul\":24478:24484   */\n      dup9\n        /* \"#utility.yul\":24396:24491   */\n      tag_334\n      jump\t// in\n    tag_465:\n        /* \"#utility.yul\":24389:24491   */\n      swap2\n      pop\n        /* \"#utility.yul\":24508:24656   */\n      tag_466\n        /* \"#utility.yul\":24652:24655   */\n      dup3\n        /* \"#utility.yul\":24508:24656   */\n      tag_370\n      jump\t// in\n    tag_466:\n        /* \"#utility.yul\":24501:24656   */\n      swap2\n      pop\n        /* \"#utility.yul\":24673:24768   */\n      tag_467\n        /* \"#utility.yul\":24764:24767   */\n      dup3\n        /* \"#utility.yul\":24755:24761   */\n      dup8\n        /* \"#utility.yul\":24673:24768   */\n      tag_334\n      jump\t// in\n    tag_467:\n        /* \"#utility.yul\":24666:24768   */\n      swap2\n      pop\n        /* \"#utility.yul\":24785:24933   */\n      tag_468\n        /* \"#utility.yul\":24929:24932   */\n      dup3\n        /* \"#utility.yul\":24785:24933   */\n      tag_360\n      jump\t// in\n    tag_468:\n        /* \"#utility.yul\":24778:24933   */\n      swap2\n      pop\n        /* \"#utility.yul\":24950:25098   */\n      tag_469\n        /* \"#utility.yul\":25094:25097   */\n      dup3\n        /* \"#utility.yul\":24950:25098   */\n      tag_375\n      jump\t// in\n    tag_469:\n        /* \"#utility.yul\":24943:25098   */\n      swap2\n      pop\n        /* \"#utility.yul\":25115:25210   */\n      tag_470\n        /* \"#utility.yul\":25206:25209   */\n      dup3\n        /* \"#utility.yul\":25197:25203   */\n      dup7\n        /* \"#utility.yul\":25115:25210   */\n      tag_334\n      jump\t// in\n    tag_470:\n        /* \"#utility.yul\":25108:25210   */\n      swap2\n      pop\n        /* \"#utility.yul\":25227:25375   */\n      tag_471\n        /* \"#utility.yul\":25371:25374   */\n      dup3\n        /* \"#utility.yul\":25227:25375   */\n      tag_350\n      jump\t// in\n    tag_471:\n        /* \"#utility.yul\":25220:25375   */\n      swap2\n      pop\n        /* \"#utility.yul\":25392:25488   */\n      tag_472\n        /* \"#utility.yul\":25484:25487   */\n      dup3\n        /* \"#utility.yul\":25474:25481   */\n      dup6\n        /* \"#utility.yul\":25392:25488   */\n      tag_334\n      jump\t// in\n    tag_472:\n        /* \"#utility.yul\":25385:25488   */\n      swap2\n      pop\n        /* \"#utility.yul\":25505:25653   */\n      tag_473\n        /* \"#utility.yul\":25649:25652   */\n      dup3\n        /* \"#utility.yul\":25505:25653   */\n      tag_340\n      jump\t// in\n    tag_473:\n        /* \"#utility.yul\":25498:25653   */\n      swap2\n      pop\n        /* \"#utility.yul\":25670:25766   */\n      tag_474\n        /* \"#utility.yul\":25762:25765   */\n      dup3\n        /* \"#utility.yul\":25752:25759   */\n      dup5\n        /* \"#utility.yul\":25670:25766   */\n      tag_334\n      jump\t// in\n    tag_474:\n        /* \"#utility.yul\":25663:25766   */\n      swap2\n      pop\n        /* \"#utility.yul\":25783:25931   */\n      tag_475\n        /* \"#utility.yul\":25927:25930   */\n      dup3\n        /* \"#utility.yul\":25783:25931   */\n      tag_360\n      jump\t// in\n    tag_475:\n        /* \"#utility.yul\":25776:25931   */\n      swap2\n      pop\n        /* \"#utility.yul\":25948:25951   */\n      dup2\n        /* \"#utility.yul\":25941:25951   */\n      swap1\n      pop\n        /* \"#utility.yul\":19662:25957   */\n      swap14\n      swap13\n      pop\n      pop\n      pop\n      pop\n      pop\n      pop\n      pop\n      pop\n      pop\n      pop\n      pop\n      pop\n      pop\n      jump\t// out\n        /* \"#utility.yul\":25963:26276   */\n    tag_18:\n        /* \"#utility.yul\":26076:26080   */\n      0x00\n        /* \"#utility.yul\":26114:26116   */\n      0x20\n        /* \"#utility.yul\":26103:26112   */\n      dup3\n        /* \"#utility.yul\":26099:26117   */\n      add\n        /* \"#utility.yul\":26091:26117   */\n      swap1\n      pop\n        /* \"#utility.yul\":26163:26172   */\n      dup2\n        /* \"#utility.yul\":26157:26161   */\n      dup2\n        /* \"#utility.yul\":26153:26173   */\n      sub\n        /* \"#utility.yul\":26149:26150   */\n      0x00\n        /* \"#utility.yul\":26138:26147   */\n      dup4\n        /* \"#utility.yul\":26134:26151   */\n      add\n        /* \"#utility.yul\":26127:26174   */\n      mstore\n        /* \"#utility.yul\":26191:26269   */\n      tag_477\n        /* \"#utility.yul\":26264:26268   */\n      dup2\n        /* \"#utility.yul\":26255:26261   */\n      dup5\n        /* \"#utility.yul\":26191:26269   */\n      tag_325\n      jump\t// in\n    tag_477:\n        /* \"#utility.yul\":26183:26269   */\n      swap1\n      pop\n        /* \"#utility.yul\":25963:26276   */\n      swap3\n      swap2\n      pop\n      pop\n      jump\t// out\n        /* \"#utility.yul\":26282:26504   */\n    tag_35:\n        /* \"#utility.yul\":26375:26379   */\n      0x00\n        /* \"#utility.yul\":26413:26415   */\n      0x20\n        /* \"#utility.yul\":26402:26411   */\n      dup3\n        /* \"#utility.yul\":26398:26416   */\n      add\n        /* \"#utility.yul\":26390:26416   */\n      swap1\n      pop\n        /* \"#utility.yul\":26426:26497   */\n      tag_479\n        /* \"#utility.yul\":26494:26495   */\n      0x00\n        /* \"#utility.yul\":26483:26492   */\n      dup4\n        /* \"#utility.yul\":26479:26496   */\n      add\n        /* \"#utility.yul\":26470:26476   */\n      dup5\n        /* \"#utility.yul\":26426:26497   */\n      tag_385\n      jump\t// in\n    tag_479:\n        /* \"#utility.yul\":26282:26504   */\n      swap3\n      swap2\n      pop\n      pop\n      jump\t// out\n        /* \"#utility.yul\":26510:26639   */\n    tag_281:\n        /* \"#utility.yul\":26544:26550   */\n      0x00\n        /* \"#utility.yul\":26571:26591   */\n      tag_481\n      tag_482\n      jump\t// in\n    tag_481:\n        /* \"#utility.yul\":26561:26591   */\n      swap1\n      pop\n        /* \"#utility.yul\":26600:26633   */\n      tag_483\n        /* \"#utility.yul\":26628:26632   */\n      dup3\n        /* \"#utility.yul\":26620:26626   */\n      dup3\n        /* \"#utility.yul\":26600:26633   */\n      tag_484\n      jump\t// in\n    tag_483:\n        /* \"#utility.yul\":26510:26639   */\n      swap2\n      swap1\n      pop\n      jump\t// out\n        /* \"#utility.yul\":26645:26720   */\n    tag_482:\n        /* \"#utility.yul\":26678:26684   */\n      0x00\n        /* \"#utility.yul\":26711:26713   */\n      0x40\n        /* \"#utility.yul\":26705:26714   */\n      mload\n        /* \"#utility.yul\":26695:26714   */\n      swap1\n      pop\n        /* \"#utility.yul\":26645:26720   */\n      swap1\n      jump\t// out\n        /* \"#utility.yul\":26726:27034   */\n    tag_280:\n        /* \"#utility.yul\":26788:26792   */\n      0x00\n        /* \"#utility.yul\":26878:26896   */\n      0xffffffffffffffff\n        /* \"#utility.yul\":26870:26876   */\n      dup3\n        /* \"#utility.yul\":26867:26897   */\n      gt\n        /* \"#utility.yul\":26864:26920   */\n      iszero\n      tag_487\n      jumpi\n        /* \"#utility.yul\":26900:26918   */\n      tag_488\n      tag_247\n      jump\t// in\n    tag_488:\n        /* \"#utility.yul\":26864:26920   */\n    tag_487:\n        /* \"#utility.yul\":26938:26967   */\n      tag_489\n        /* \"#utility.yul\":26960:26966   */\n      dup3\n        /* \"#utility.yul\":26938:26967   */\n      tag_333\n      jump\t// in\n    tag_489:\n        /* \"#utility.yul\":26930:26967   */\n      swap1\n      pop\n        /* \"#utility.yul\":27022:27026   */\n      0x20\n        /* \"#utility.yul\":27016:27020   */\n      dup2\n        /* \"#utility.yul\":27012:27027   */\n      add\n        /* \"#utility.yul\":27004:27027   */\n      swap1\n      pop\n        /* \"#utility.yul\":26726:27034   */\n      swap2\n      swap1\n      pop\n      jump\t// out\n        /* \"#utility.yul\":27040:27138   */\n    tag_320:\n        /* \"#utility.yul\":27091:27097   */\n      0x00\n        /* \"#utility.yul\":27125:27130   */\n      dup2\n        /* \"#utility.yul\":27119:27131   */\n      mload\n        /* \"#utility.yul\":27109:27131   */\n      swap1\n      pop\n        /* \"#utility.yul\":27040:27138   */\n      swap2\n      swap1\n      pop\n      jump\t// out\n        /* \"#utility.yul\":27144:27243   */\n    tag_328:\n        /* \"#utility.yul\":27196:27202   */\n      0x00\n        /* \"#utility.yul\":27230:27235   */\n      dup2\n        /* \"#utility.yul\":27224:27236   */\n      mload\n        /* \"#utility.yul\":27214:27236   */\n      swap1\n      pop\n        /* \"#utility.yul\":27144:27243   */\n      swap2\n      swap1\n      pop\n      jump\t// out\n        /* \"#utility.yul\":27249:27396   */\n    tag_322:\n        /* \"#utility.yul\":27350:27361   */\n      0x00\n        /* \"#utility.yul\":27387:27390   */\n      dup2\n        /* \"#utility.yul\":27372:27390   */\n      swap1\n      pop\n        /* \"#utility.yul\":27249:27396   */\n      swap3\n      swap2\n      pop\n      pop\n      jump\t// out\n        /* \"#utility.yul\":27402:27571   */\n    tag_330:\n        /* \"#utility.yul\":27486:27497   */\n      0x00\n        /* \"#utility.yul\":27520:27526   */\n      dup3\n        /* \"#utility.yul\":27515:27518   */\n      dup3\n        /* \"#utility.yul\":27508:27527   */\n      mstore\n        /* \"#utility.yul\":27560:27564   */\n      0x20\n        /* \"#utility.yul\":27555:27558   */\n      dup3\n        /* \"#utility.yul\":27551:27565   */\n      add\n        /* \"#utility.yul\":27536:27565   */\n      swap1\n      pop\n        /* \"#utility.yul\":27402:27571   */\n      swap3\n      swap2\n      pop\n      pop\n      jump\t// out\n        /* \"#utility.yul\":27577:27725   */\n    tag_338:\n        /* \"#utility.yul\":27679:27690   */\n      0x00\n        /* \"#utility.yul\":27716:27719   */\n      dup2\n        /* \"#utility.yul\":27701:27719   */\n      swap1\n      pop\n        /* \"#utility.yul\":27577:27725   */\n      swap3\n      swap2\n      pop\n      pop\n      jump\t// out\n        /* \"#utility.yul\":27731:28036   */\n    tag_57:\n        /* \"#utility.yul\":27771:27774   */\n      0x00\n        /* \"#utility.yul\":27790:27810   */\n      tag_496\n        /* \"#utility.yul\":27808:27809   */\n      dup3\n        /* \"#utility.yul\":27790:27810   */\n      tag_388\n      jump\t// in\n    tag_496:\n        /* \"#utility.yul\":27785:27810   */\n      swap2\n      pop\n        /* \"#utility.yul\":27824:27844   */\n      tag_497\n        /* \"#utility.yul\":27842:27843   */\n      dup4\n        /* \"#utility.yul\":27824:27844   */\n      tag_388\n      jump\t// in\n    tag_497:\n        /* \"#utility.yul\":27819:27844   */\n      swap3\n      pop\n        /* \"#utility.yul\":27978:27979   */\n      dup3\n        /* \"#utility.yul\":27910:27976   */\n      0xffffffffffffffffffffffffffffffffffffffffffffffffffffffffffffffff\n        /* \"#utility.yul\":27906:27980   */\n      sub\n        /* \"#utility.yul\":27903:27904   */\n      dup3\n        /* \"#utility.yul\":27900:27981   */\n      gt\n        /* \"#utility.yul\":27897:28004   */\n      iszero\n      tag_498\n      jumpi\n        /* \"#utility.yul\":27984:28002   */\n      tag_499\n      tag_500\n      jump\t// in\n    tag_499:\n        /* \"#utility.yul\":27897:28004   */\n    tag_498:\n        /* \"#utility.yul\":28028:28029   */\n      dup3\n        /* \"#utility.yul\":28025:28026   */\n      dup3\n        /* \"#utility.yul\":28021:28030   */\n      add\n        /* \"#utility.yul\":28014:28030   */\n      swap1\n      pop\n        /* \"#utility.yul\":27731:28036   */\n      swap3\n      swap2\n      pop\n      pop\n      jump\t// out\n        /* \"#utility.yul\":28042:28227   */\n    tag_110:\n        /* \"#utility.yul\":28082:28083   */\n      0x00\n        /* \"#utility.yul\":28099:28119   */\n      tag_502\n        /* \"#utility.yul\":28117:28118   */\n      dup3\n        /* \"#utility.yul\":28099:28119   */\n      tag_388\n      jump\t// in\n    tag_502:\n        /* \"#utility.yul\":28094:28119   */\n      swap2\n      pop\n        /* \"#utility.yul\":28133:28153   */\n      tag_503\n        /* \"#utility.yul\":28151:28152   */\n      dup4\n        /* \"#utility.yul\":28133:28153   */\n      tag_388\n      jump\t// in\n    tag_503:\n        /* \"#utility.yul\":28128:28153   */\n      swap3\n      pop\n        /* \"#utility.yul\":28172:28173   */\n      dup3\n        /* \"#utility.yul\":28162:28197   */\n      tag_504\n      jumpi\n        /* \"#utility.yul\":28177:28195   */\n      tag_505\n      tag_506\n      jump\t// in\n    tag_505:\n        /* \"#utility.yul\":28162:28197   */\n    tag_504:\n        /* \"#utility.yul\":28219:28220   */\n      dup3\n        /* \"#utility.yul\":28216:28217   */\n      dup3\n        /* \"#utility.yul\":28212:28221   */\n      div\n        /* \"#utility.yul\":28207:28221   */\n      swap1\n      pop\n        /* \"#utility.yul\":28042:28227   */\n      swap3\n      swap2\n      pop\n      pop\n      jump\t// out\n        /* \"#utility.yul\":28233:28581   */\n    tag_55:\n        /* \"#utility.yul\":28273:28280   */\n      0x00\n        /* \"#utility.yul\":28296:28316   */\n      tag_508\n        /* \"#utility.yul\":28314:28315   */\n      dup3\n        /* \"#utility.yul\":28296:28316   */\n      tag_388\n      jump\t// in\n    tag_508:\n        /* \"#utility.yul\":28291:28316   */\n      swap2\n      pop\n        /* \"#utility.yul\":28330:28350   */\n      tag_509\n        /* \"#utility.yul\":28348:28349   */\n      dup4\n        /* \"#utility.yul\":28330:28350   */\n      tag_388\n      jump\t// in\n    tag_509:\n        /* \"#utility.yul\":28325:28350   */\n      swap3\n      pop\n        /* \"#utility.yul\":28518:28519   */\n      dup2\n        /* \"#utility.yul\":28450:28516   */\n      0xffffffffffffffffffffffffffffffffffffffffffffffffffffffffffffffff\n        /* \"#utility.yul\":28446:28520   */\n      div\n        /* \"#utility.yul\":28443:28444   */\n      dup4\n        /* \"#utility.yul\":28440:28521   */\n      gt\n        /* \"#utility.yul\":28435:28436   */\n      dup3\n        /* \"#utility.yul\":28428:28437   */\n      iszero\n        /* \"#utility.yul\":28421:28438   */\n      iszero\n        /* \"#utility.yul\":28417:28522   */\n      and\n        /* \"#utility.yul\":28414:28545   */\n      iszero\n      tag_510\n      jumpi\n        /* \"#utility.yul\":28525:28543   */\n      tag_511\n      tag_500\n      jump\t// in\n    tag_511:\n        /* \"#utility.yul\":28414:28545   */\n    tag_510:\n        /* \"#utility.yul\":28573:28574   */\n      dup3\n        /* \"#utility.yul\":28570:28571   */\n      dup3\n        /* \"#utility.yul\":28566:28575   */\n      mul\n        /* \"#utility.yul\":28555:28575   */\n      swap1\n      pop\n        /* \"#utility.yul\":28233:28581   */\n      swap3\n      swap2\n      pop\n      pop\n      jump\t// out\n        /* \"#utility.yul\":28587:28778   */\n    tag_252:\n        /* \"#utility.yul\":28627:28631   */\n      0x00\n        /* \"#utility.yul\":28647:28667   */\n      tag_513\n        /* \"#utility.yul\":28665:28666   */\n      dup3\n        /* \"#utility.yul\":28647:28667   */\n      tag_388\n      jump\t// in\n    tag_513:\n        /* \"#utility.yul\":28642:28667   */\n      swap2\n      pop\n        /* \"#utility.yul\":28681:28701   */\n      tag_514\n        /* \"#utility.yul\":28699:28700   */\n      dup4\n        /* \"#utility.yul\":28681:28701   */\n      tag_388\n      jump\t// in\n    tag_514:\n        /* \"#utility.yul\":28676:28701   */\n      swap3\n      pop\n        /* \"#utility.yul\":28720:28721   */\n      dup3\n        /* \"#utility.yul\":28717:28718   */\n      dup3\n        /* \"#utility.yul\":28714:28722   */\n      lt\n        /* \"#utility.yul\":28711:28745   */\n      iszero\n      tag_515\n      jumpi\n        /* \"#utility.yul\":28725:28743   */\n      tag_516\n      tag_500\n      jump\t// in\n    tag_516:\n        /* \"#utility.yul\":28711:28745   */\n    tag_515:\n        /* \"#utility.yul\":28770:28771   */\n      dup3\n        /* \"#utility.yul\":28767:28768   */\n      dup3\n        /* \"#utility.yul\":28763:28772   */\n      sub\n        /* \"#utility.yul\":28755:28772   */\n      swap1\n      pop\n        /* \"#utility.yul\":28587:28778   */\n      swap3\n      swap2\n      pop\n      pop\n      jump\t// out\n        /* \"#utility.yul\":28784:28861   */\n    tag_388:\n        /* \"#utility.yul\":28821:28828   */\n      0x00\n        /* \"#utility.yul\":28850:28855   */\n      dup2\n        /* \"#utility.yul\":28839:28855   */\n      swap1\n      pop\n        /* \"#utility.yul\":28784:28861   */\n      swap2\n      swap1\n      pop\n      jump\t// out\n        /* \"#utility.yul\":28867:29021   */\n    tag_286:\n        /* \"#utility.yul\":28951:28957   */\n      dup3\n        /* \"#utility.yul\":28946:28949   */\n      dup2\n        /* \"#utility.yul\":28941:28944   */\n      dup4\n        /* \"#utility.yul\":28928:28958   */\n      calldatacopy\n        /* \"#utility.yul\":29013:29014   */\n      0x00\n        /* \"#utility.yul\":29004:29010   */\n      dup4\n        /* \"#utility.yul\":28999:29002   */\n      dup4\n        /* \"#utility.yul\":28995:29011   */\n      add\n        /* \"#utility.yul\":28988:29015   */\n      mstore\n        /* \"#utility.yul\":28867:29021   */\n      pop\n      pop\n      pop\n      jump\t// out\n        /* \"#utility.yul\":29027:29334   */\n    tag_324:\n        /* \"#utility.yul\":29095:29096   */\n      0x00\n        /* \"#utility.yul\":29105:29218   */\n    tag_520:\n        /* \"#utility.yul\":29119:29125   */\n      dup4\n        /* \"#utility.yul\":29116:29117   */\n      dup2\n        /* \"#utility.yul\":29113:29126   */\n      lt\n        /* \"#utility.yul\":29105:29218   */\n      iszero\n      tag_522\n      jumpi\n        /* \"#utility.yul\":29204:29205   */\n      dup1\n        /* \"#utility.yul\":29199:29202   */\n      dup3\n        /* \"#utility.yul\":29195:29206   */\n      add\n        /* \"#utility.yul\":29189:29207   */\n      mload\n        /* \"#utility.yul\":29185:29186   */\n      dup2\n        /* \"#utility.yul\":29180:29183   */\n      dup5\n        /* \"#utility.yul\":29176:29187   */\n      add\n        /* \"#utility.yul\":29169:29208   */\n      mstore\n        /* \"#utility.yul\":29141:29143   */\n      0x20\n        /* \"#utility.yul\":29138:29139   */\n      dup2\n        /* \"#utility.yul\":29134:29144   */\n      add\n        /* \"#utility.yul\":29129:29144   */\n      swap1\n      pop\n        /* \"#utility.yul\":29105:29218   */\n      jump(tag_520)\n    tag_522:\n        /* \"#utility.yul\":29236:29242   */\n      dup4\n        /* \"#utility.yul\":29233:29234   */\n      dup2\n        /* \"#utility.yul\":29230:29243   */\n      gt\n        /* \"#utility.yul\":29227:29328   */\n      iszero\n      tag_523\n      jumpi\n        /* \"#utility.yul\":29316:29317   */\n      0x00\n        /* \"#utility.yul\":29307:29313   */\n      dup5\n        /* \"#utility.yul\":29302:29305   */\n      dup5\n        /* \"#utility.yul\":29298:29314   */\n      add\n        /* \"#utility.yul\":29291:29318   */\n      mstore\n        /* \"#utility.yul\":29227:29328   */\n    tag_523:\n        /* \"#utility.yul\":29076:29334   */\n      pop\n        /* \"#utility.yul\":29027:29334   */\n      pop\n      pop\n      pop\n      jump\t// out\n        /* \"#utility.yul\":29340:29660   */\n    tag_161:\n        /* \"#utility.yul\":29384:29390   */\n      0x00\n        /* \"#utility.yul\":29421:29422   */\n      0x02\n        /* \"#utility.yul\":29415:29419   */\n      dup3\n        /* \"#utility.yul\":29411:29423   */\n      div\n        /* \"#utility.yul\":29401:29423   */\n      swap1\n      pop\n        /* \"#utility.yul\":29468:29469   */\n      0x01\n        /* \"#utility.yul\":29462:29466   */\n      dup3\n        /* \"#utility.yul\":29458:29470   */\n      and\n        /* \"#utility.yul\":29489:29507   */\n      dup1\n        /* \"#utility.yul\":29479:29560   */\n      tag_525\n      jumpi\n        /* \"#utility.yul\":29545:29549   */\n      0x7f\n        /* \"#utility.yul\":29537:29543   */\n      dup3\n        /* \"#utility.yul\":29533:29550   */\n      and\n        /* \"#utility.yul\":29523:29550   */\n      swap2\n      pop\n        /* \"#utility.yul\":29479:29560   */\n    tag_525:\n        /* \"#utility.yul\":29607:29609   */\n      0x20\n        /* \"#utility.yul\":29599:29605   */\n      dup3\n        /* \"#utility.yul\":29596:29610   */\n      lt\n        /* \"#utility.yul\":29576:29594   */\n      dup2\n        /* \"#utility.yul\":29573:29611   */\n      eq\n        /* \"#utility.yul\":29570:29654   */\n      iszero\n      tag_526\n      jumpi\n        /* \"#utility.yul\":29626:29644   */\n      tag_527\n      tag_528\n      jump\t// in\n    tag_527:\n        /* \"#utility.yul\":29570:29654   */\n    tag_526:\n        /* \"#utility.yul\":29391:29660   */\n      pop\n        /* \"#utility.yul\":29340:29660   */\n      swap2\n      swap1\n      pop\n      jump\t// out\n        /* \"#utility.yul\":29666:29947   */\n    tag_484:\n        /* \"#utility.yul\":29749:29776   */\n      tag_530\n        /* \"#utility.yul\":29771:29775   */\n      dup3\n        /* \"#utility.yul\":29749:29776   */\n      tag_333\n      jump\t// in\n    tag_530:\n        /* \"#utility.yul\":29741:29747   */\n      dup2\n        /* \"#utility.yul\":29737:29777   */\n      add\n        /* \"#utility.yul\":29879:29885   */\n      dup2\n        /* \"#utility.yul\":29867:29877   */\n      dup2\n        /* \"#utility.yul\":29864:29886   */\n      lt\n        /* \"#utility.yul\":29843:29861   */\n      0xffffffffffffffff\n        /* \"#utility.yul\":29831:29841   */\n      dup3\n        /* \"#utility.yul\":29828:29862   */\n      gt\n        /* \"#utility.yul\":29825:29887   */\n      or\n        /* \"#utility.yul\":29822:29910   */\n      iszero\n      tag_531\n      jumpi\n        /* \"#utility.yul\":29890:29908   */\n      tag_532\n      tag_247\n      jump\t// in\n    tag_532:\n        /* \"#utility.yul\":29822:29910   */\n    tag_531:\n        /* \"#utility.yul\":29930:29940   */\n      dup1\n        /* \"#utility.yul\":29926:29928   */\n      0x40\n        /* \"#utility.yul\":29919:29941   */\n      mstore\n        /* \"#utility.yul\":29709:29947   */\n      pop\n        /* \"#utility.yul\":29666:29947   */\n      pop\n      pop\n      jump\t// out\n        /* \"#utility.yul\":29953:30186   */\n    tag_129:\n        /* \"#utility.yul\":29992:29995   */\n      0x00\n        /* \"#utility.yul\":30015:30039   */\n      tag_534\n        /* \"#utility.yul\":30033:30038   */\n      dup3\n        /* \"#utility.yul\":30015:30039   */\n      tag_388\n      jump\t// in\n    tag_534:\n        /* \"#utility.yul\":30006:30039   */\n      swap2\n      pop\n        /* \"#utility.yul\":30061:30127   */\n      0xffffffffffffffffffffffffffffffffffffffffffffffffffffffffffffffff\n        /* \"#utility.yul\":30054:30059   */\n      dup3\n        /* \"#utility.yul\":30051:30128   */\n      eq\n        /* \"#utility.yul\":30048:30151   */\n      iszero\n      tag_535\n      jumpi\n        /* \"#utility.yul\":30131:30149   */\n      tag_536\n      tag_500\n      jump\t// in\n    tag_536:\n        /* \"#utility.yul\":30048:30151   */\n    tag_535:\n        /* \"#utility.yul\":30178:30179   */\n      0x01\n        /* \"#utility.yul\":30171:30176   */\n      dup3\n        /* \"#utility.yul\":30167:30180   */\n      add\n        /* \"#utility.yul\":30160:30180   */\n      swap1\n      pop\n        /* \"#utility.yul\":29953:30186   */\n      swap2\n      swap1\n      pop\n      jump\t// out\n        /* \"#utility.yul\":30192:30368   */\n    tag_118:\n        /* \"#utility.yul\":30224:30225   */\n      0x00\n        /* \"#utility.yul\":30241:30261   */\n      tag_538\n        /* \"#utility.yul\":30259:30260   */\n      dup3\n        /* \"#utility.yul\":30241:30261   */\n      tag_388\n      jump\t// in\n    tag_538:\n        /* \"#utility.yul\":30236:30261   */\n      swap2\n      pop\n        /* \"#utility.yul\":30275:30295   */\n      tag_539\n        /* \"#utility.yul\":30293:30294   */\n      dup4\n        /* \"#utility.yul\":30275:30295   */\n      tag_388\n      jump\t// in\n    tag_539:\n        /* \"#utility.yul\":30270:30295   */\n      swap3\n      pop\n        /* \"#utility.yul\":30314:30315   */\n      dup3\n        /* \"#utility.yul\":30304:30339   */\n      tag_540\n      jumpi\n        /* \"#utility.yul\":30319:30337   */\n      tag_541\n      tag_506\n      jump\t// in\n    tag_541:\n        /* \"#utility.yul\":30304:30339   */\n    tag_540:\n        /* \"#utility.yul\":30360:30361   */\n      dup3\n        /* \"#utility.yul\":30357:30358   */\n      dup3\n        /* \"#utility.yul\":30353:30362   */\n      mod\n        /* \"#utility.yul\":30348:30362   */\n      swap1\n      pop\n        /* \"#utility.yul\":30192:30368   */\n      swap3\n      swap2\n      pop\n      pop\n      jump\t// out\n        /* \"#utility.yul\":30374:30554   */\n    tag_500:\n        /* \"#utility.yul\":30422:30499   */\n      0x4e487b7100000000000000000000000000000000000000000000000000000000\n        /* \"#utility.yul\":30419:30420   */\n      0x00\n        /* \"#utility.yul\":30412:30500   */\n      mstore\n        /* \"#utility.yul\":30519:30523   */\n      0x11\n        /* \"#utility.yul\":30516:30517   */\n      0x04\n        /* \"#utility.yul\":30509:30524   */\n      mstore\n        /* \"#utility.yul\":30543:30547   */\n      0x24\n        /* \"#utility.yul\":30540:30541   */\n      0x00\n        /* \"#utility.yul\":30533:30548   */\n      revert\n        /* \"#utility.yul\":30560:30740   */\n    tag_506:\n        /* \"#utility.yul\":30608:30685   */\n      0x4e487b7100000000000000000000000000000000000000000000000000000000\n        /* \"#utility.yul\":30605:30606   */\n      0x00\n        /* \"#utility.yul\":30598:30686   */\n      mstore\n        /* \"#utility.yul\":30705:30709   */\n      0x12\n        /* \"#utility.yul\":30702:30703   */\n      0x04\n        /* \"#utility.yul\":30695:30710   */\n      mstore\n        /* \"#utility.yul\":30729:30733   */\n      0x24\n        /* \"#utility.yul\":30726:30727   */\n      0x00\n        /* \"#utility.yul\":30719:30734   */\n      revert\n        /* \"#utility.yul\":30746:30926   */\n    tag_528:\n        /* \"#utility.yul\":30794:30871   */\n      0x4e487b7100000000000000000000000000000000000000000000000000000000\n        /* \"#utility.yul\":30791:30792   */\n      0x00\n        /* \"#utility.yul\":30784:30872   */\n      mstore\n        /* \"#utility.yul\":30891:30895   */\n      0x22\n        /* \"#utility.yul\":30888:30889   */\n      0x04\n        /* \"#utility.yul\":30881:30896   */\n      mstore\n        /* \"#utility.yul\":30915:30919   */\n      0x24\n        /* \"#utility.yul\":30912:30913   */\n      0x00\n        /* \"#utility.yul\":30905:30920   */\n      revert\n        /* \"#utility.yul\":30932:31112   */\n    tag_257:\n        /* \"#utility.yul\":30980:31057   */\n      0x4e487b7100000000000000000000000000000000000000000000000000000000\n        /* \"#utility.yul\":30977:30978   */\n      0x00\n        /* \"#utility.yul\":30970:31058   */\n      mstore\n        /* \"#utility.yul\":31077:31081   */\n      0x32\n        /* \"#utility.yul\":31074:31075   */\n      0x04\n        /* \"#utility.yul\":31067:31082   */\n      mstore\n        /* \"#utility.yul\":31101:31105   */\n      0x24\n        /* \"#utility.yul\":31098:31099   */\n      0x00\n        /* \"#utility.yul\":31091:31106   */\n      revert\n        /* \"#utility.yul\":31118:31298   */\n    tag_247:\n        /* \"#utility.yul\":31166:31243   */\n      0x4e487b7100000000000000000000000000000000000000000000000000000000\n        /* \"#utility.yul\":31163:31164   */\n      0x00\n        /* \"#utility.yul\":31156:31244   */\n      mstore\n        /* \"#utility.yul\":31263:31267   */\n      0x41\n        /* \"#utility.yul\":31260:31261   */\n      0x04\n        /* \"#utility.yul\":31253:31268   */\n      mstore\n        /* \"#utility.yul\":31287:31291   */\n      0x24\n        /* \"#utility.yul\":31284:31285   */\n      0x00\n        /* \"#utility.yul\":31277:31292   */\n      revert\n        /* \"#utility.yul\":31304:31421   */\n    tag_291:\n        /* \"#utility.yul\":31413:31414   */\n      0x00\n        /* \"#utility.yul\":31410:31411   */\n      dup1\n        /* \"#utility.yul\":31403:31415   */\n      revert\n        /* \"#utility.yul\":31427:31544   */\n    tag_284:\n        /* \"#utility.yul\":31536:31537   */\n      0x00\n        /* \"#utility.yul\":31533:31534   */\n      dup1\n        /* \"#utility.yul\":31526:31538   */\n      revert\n        /* \"#utility.yul\":31550:31667   */\n    tag_303:\n        /* \"#utility.yul\":31659:31660   */\n      0x00\n        /* \"#utility.yul\":31656:31657   */\n      dup1\n        /* \"#utility.yul\":31649:31661   */\n      revert\n        /* \"#utility.yul\":31673:31790   */\n    tag_300:\n        /* \"#utility.yul\":31782:31783   */\n      0x00\n        /* \"#utility.yul\":31779:31780   */\n      dup1\n        /* \"#utility.yul\":31772:31784   */\n      revert\n        /* \"#utility.yul\":31796:31898   */\n    tag_333:\n        /* \"#utility.yul\":31837:31843   */\n      0x00\n        /* \"#utility.yul\":31888:31890   */\n      0x1f\n        /* \"#utility.yul\":31884:31891   */\n      not\n        /* \"#utility.yul\":31879:31881   */\n      0x1f\n        /* \"#utility.yul\":31872:31877   */\n      dup4\n        /* \"#utility.yul\":31868:31882   */\n      add\n        /* \"#utility.yul\":31864:31892   */\n      and\n        /* \"#utility.yul\":31854:31892   */\n      swap1\n      pop\n        /* \"#utility.yul\":31796:31898   */\n      swap2\n      swap1\n      pop\n      jump\t// out\n        /* \"#utility.yul\":31904:32147   */\n    tag_344:\n        /* \"#utility.yul\":32044:32078   */\n      0x2763302c302c302e36332c3231392e312c352e372c3330302e37382720737479\n        /* \"#utility.yul\":32040:32041   */\n      0x00\n        /* \"#utility.yul\":32032:32038   */\n      dup3\n        /* \"#utility.yul\":32028:32042   */\n      add\n        /* \"#utility.yul\":32021:32079   */\n      mstore\n        /* \"#utility.yul\":32113:32135   */\n      0x6c653d277472616e73666f726d3a7363616c6528000000000000000000000000\n        /* \"#utility.yul\":32108:32110   */\n      0x20\n        /* \"#utility.yul\":32100:32106   */\n      dup3\n        /* \"#utility.yul\":32096:32111   */\n      add\n        /* \"#utility.yul\":32089:32136   */\n      mstore\n        /* \"#utility.yul\":31904:32147   */\n      pop\n      jump\t// out\n        /* \"#utility.yul\":32157:32414   */\n    tag_349:\n        /* \"#utility.yul\":32301:32335   */\n      0x63302c302d382e34332c3230382e37332c31332e36312c3238302e3639272073\n        /* \"#utility.yul\":32297:32298   */\n      0x00\n        /* \"#utility.yul\":32289:32295   */\n      dup3\n        /* \"#utility.yul\":32285:32299   */\n      add\n        /* \"#utility.yul\":32278:32336   */\n      mstore\n        /* \"#utility.yul\":32374:32398   */\n      0x74796c653d277472616e73666f726d3a7363616c652800000000000000000000\n        /* \"#utility.yul\":32369:32371   */\n      0x20\n        /* \"#utility.yul\":32361:32367   */\n      dup3\n        /* \"#utility.yul\":32357:32372   */\n      add\n        /* \"#utility.yul\":32350:32399   */\n      mstore\n        /* \"#utility.yul\":32157:32414   */\n      pop\n      jump\t// out\n        /* \"#utility.yul\":32428:32595   */\n    tag_354:\n        /* \"#utility.yul\":32576:32579   */\n      0x2c00000000000000000000000000000000000000000000000000000000000000\n        /* \"#utility.yul\":32572:32573   */\n      0x00\n        /* \"#utility.yul\":32564:32570   */\n      dup3\n        /* \"#utility.yul\":32560:32574   */\n      add\n        /* \"#utility.yul\":32553:32580   */\n      mstore\n        /* \"#utility.yul\":32428:32595   */\n      pop\n      jump\t// out\n        /* \"#utility.yul\":32609:32776   */\n    tag_359:\n        /* \"#utility.yul\":32757:32760   */\n      0x2000000000000000000000000000000000000000000000000000000000000000\n        /* \"#utility.yul\":32753:32754   */\n      0x00\n        /* \"#utility.yul\":32745:32751   */\n      dup3\n        /* \"#utility.yul\":32741:32755   */\n      add\n        /* \"#utility.yul\":32734:32761   */\n      mstore\n        /* \"#utility.yul\":32609:32776   */\n      pop\n      jump\t// out\n        /* \"#utility.yul\":32790:32952   */\n    tag_364:\n        /* \"#utility.yul\":32934:32940   */\n      0x29272f3e00000000000000000000000000000000000000000000000000000000\n        /* \"#utility.yul\":32930:32931   */\n      0x00\n        /* \"#utility.yul\":32922:32928   */\n      dup3\n        /* \"#utility.yul\":32918:32932   */\n      add\n        /* \"#utility.yul\":32911:32941   */\n      mstore\n        /* \"#utility.yul\":32790:32952   */\n      pop\n      jump\t// out\n        /* \"#utility.yul\":32962:33221   */\n    tag_369:\n        /* \"#utility.yul\":33106:33140   */\n      0x2763302c302c31322e39362d37382e34342c3335352e38382d3135322e333427\n        /* \"#utility.yul\":33102:33103   */\n      0x00\n        /* \"#utility.yul\":33094:33100   */\n      dup3\n        /* \"#utility.yul\":33090:33104   */\n      add\n        /* \"#utility.yul\":33083:33141   */\n      mstore\n        /* \"#utility.yul\":33179:33205   */\n      0x207374796c653d277472616e73666f726d3a7363616c65280000000000000000\n        /* \"#utility.yul\":33174:33176   */\n      0x20\n        /* \"#utility.yul\":33166:33172   */\n      dup3\n        /* \"#utility.yul\":33162:33177   */\n      add\n        /* \"#utility.yul\":33155:33206   */\n      mstore\n        /* \"#utility.yul\":32962:33221   */\n      pop\n      jump\t// out\n        /* \"#utility.yul\":33235:33504   */\n    tag_374:\n        /* \"#utility.yul\":33383:33417   */\n      0x63302c302d31302e31312c3139312e32332c382e36382c3236352e3133272073\n        /* \"#utility.yul\":33379:33380   */\n      0x00\n        /* \"#utility.yul\":33371:33377   */\n      dup3\n        /* \"#utility.yul\":33367:33381   */\n      add\n        /* \"#utility.yul\":33360:33418   */\n      mstore\n        /* \"#utility.yul\":33460:33484   */\n      0x74796c653d277472616e73666f726d3a7363616c652800000000000000000000\n        /* \"#utility.yul\":33455:33457   */\n      0x20\n        /* \"#utility.yul\":33447:33453   */\n      dup3\n        /* \"#utility.yul\":33443:33458   */\n      add\n        /* \"#utility.yul\":33436:33485   */\n      mstore\n        /* \"#utility.yul\":33235:33504   */\n      pop\n      jump\t// out\n        /* \"#utility.yul\":33522:33718   */\n    tag_379:\n        /* \"#utility.yul\":33674:33698   */\n      0x3c7061746820636c6173733d277374302720643d274d00000000000000000000\n        /* \"#utility.yul\":33670:33671   */\n      0x00\n        /* \"#utility.yul\":33662:33668   */\n      dup3\n        /* \"#utility.yul\":33658:33672   */\n      add\n        /* \"#utility.yul\":33651:33699   */\n      mstore\n        /* \"#utility.yul\":33522:33718   */\n      pop\n      jump\t// out\n        /* \"#utility.yul\":33736:34016   */\n    tag_384:\n        /* \"#utility.yul\":33888:33922   */\n      0x63302c302d32372e38372c3232312e372d322e35392c3238392e313127207374\n        /* \"#utility.yul\":33884:33885   */\n      0x00\n        /* \"#utility.yul\":33876:33882   */\n      dup3\n        /* \"#utility.yul\":33872:33886   */\n      add\n        /* \"#utility.yul\":33865:33923   */\n      mstore\n        /* \"#utility.yul\":33969:33992   */\n      0x796c653d277472616e73666f726d3a7363616c65280000000000000000000000\n        /* \"#utility.yul\":33964:33966   */\n      0x20\n        /* \"#utility.yul\":33956:33962   */\n      dup3\n        /* \"#utility.yul\":33952:33967   */\n      add\n        /* \"#utility.yul\":33945:33993   */\n      mstore\n        /* \"#utility.yul\":33736:34016   */\n      pop\n      jump\t// out\n        /* \"#utility.yul\":34038:34192   */\n    tag_296:\n        /* \"#utility.yul\":34127:34151   */\n      tag_562\n        /* \"#utility.yul\":34145:34150   */\n      dup2\n        /* \"#utility.yul\":34127:34151   */\n      tag_388\n      jump\t// in\n    tag_562:\n        /* \"#utility.yul\":34120:34125   */\n      dup2\n        /* \"#utility.yul\":34117:34152   */\n      eq\n        /* \"#utility.yul\":34107:34170   */\n      tag_563\n      jumpi\n        /* \"#utility.yul\":34166:34167   */\n      0x00\n        /* \"#utility.yul\":34163:34164   */\n      dup1\n        /* \"#utility.yul\":34156:34168   */\n      revert\n        /* \"#utility.yul\":34107:34170   */\n    tag_563:\n        /* \"#utility.yul\":34038:34192   */\n      pop\n      jump\t// out\n    stop\n    data_dd8ae144242df38fa884f57f851049fe2fa2a00e466d495e68861ab6e23aafea 3c73766720786d6c6e733d22687474703a2f2f7777772e77332e6f72672f323030302f7376672220786d6c6e733a786c696e6b3d22687474703a2f2f7777772e77332e6f72672f313939392f786c696e6b222076657273696f6e3d22312e31222069643d224c617965725f312220783d223070782220793d22307078222076696577426f783d223020302031303234203130323422207374796c653d22656e61626c652d6261636b67726f756e643a6e657720302030203130323420313032343b2220786d6c3a73706163653d227072657365727665223e3c7374796c6520747970653d22746578742f637373223e2e7374307b66696c6c3a6e6f6e653b7374726f6b653a234544323232343b7374726f6b652d77696474683a32303b7374726f6b652d6c696e656361703a726f756e643b7374726f6b652d6c696e656a6f696e3a726f756e643b7374726f6b652d6d697465726c696d69743a31303b7d3c2f7374796c653e\n\n    auxdata: 0xa2646970667358221220586299d8a91e7fb0866286f53123def886f99dd7e47af52674ce5533d3ff447b64736f6c63430008070033\n}\n",
				"bytecode": {
					"linkReferences": {},
					"object": "608060405260405180602001604052806000815250600190805190602001906200002b92919062000045565b5060006002553480156200003e57600080fd5b506200015a565b8280546200005390620000f5565b90600052602060002090601f016020900481019282620000775760008555620000c3565b82601f106200009257805160ff1916838001178555620000c3565b82800160010185558215620000c3579182015b82811115620000c2578251825591602001919060010190620000a5565b5b509050620000d29190620000d6565b5090565b5b80821115620000f1576000816000905550600101620000d7565b5090565b600060028204905060018216806200010e57607f821691505b602082108114156200012557620001246200012b565b5b50919050565b7f4e487b7100000000000000000000000000000000000000000000000000000000600052602260045260246000fd5b611cbf806200016a6000396000f3fe608060405234801561001057600080fd5b50600436106100935760003560e01c8063677342ce11610066578063677342ce146101445780636d4ce63c1461017457806389c19ddb14610192578063d2820241146101c2578063eae8ef64146101f257610093565b806310bae567146100985780632fdb8e25146100c857806341c8987c146100f857806360fe47b114610128575b600080fd5b6100b260048036038101906100ad9190610e9b565b610222565b6040516100bf91906114bf565b60405180910390f35b6100e260048036038101906100dd9190610e9b565b6102ef565b6040516100ef91906114bf565b60405180910390f35b610112600480360381019061010d9190610e9b565b61040f565b60405161011f91906114bf565b60405180910390f35b610142600480360381019061013d9190610e6e565b61048a565b005b61015e60048036038101906101599190610e6e565b6106b7565b60405161016b91906114e1565b60405180910390f35b61017c61071a565b60405161018991906114bf565b60405180910390f35b6101ac60048036038101906101a79190610df6565b6107ac565b6040516101b991906114bf565b60405180910390f35b6101dc60048036038101906101d79190610e9b565b6107d8565b6040516101e991906114bf565b60405180910390f35b61020c60048036038101906102079190610e9b565b61094a565b60405161021991906114bf565b60405180910390f35b6060610246836102006102359190611616565b60dd610241919061158f565b610b2e565b610268836102006102579190611616565b6067610263919061158f565b610b2e565b610273600254610b2e565b610296866102006102849190611616565b610122610291919061158f565b610b2e565b6102b8866102006102a79190611616565b60676102b3919061158f565b610b2e565b6102c3600254610b2e565b6040516020016102d8969594939291906111b6565b604051602081830303815290604052905092915050565b6060610313836102006103029190611616565b60bd61030e919061158f565b610b2e565b610335836102006103249190611616565b6067610330919061158f565b610b2e565b610340600254610b2e565b610363866102006103519190611616565b61010261035e919061158f565b610b2e565b610385866102006103749190611616565b6067610380919061158f565b610b2e565b610390600254610b2e565b6103b3896102006103a19190611616565b6101466103ae919061158f565b610b2e565b6103d5896102006103c49190611616565b60676103d0919061158f565b610b2e565b6103e0600254610b2e565b6040516020016103f899989796959493929190611266565b604051602081830303815290604052905092915050565b6060610434836102006104229190611616565b61010661042f919061158f565b610b2e565b610456836102006104459190611616565b6067610451919061158f565b610b2e565b610461600254610b2e565b60405160200161047393929190611159565b604051602081830303815290604052905092915050565b806000819055506000604051806101a001604052806101668152602001611b246101669139905060006040518060400160405280600681526020017f3c2f7376673e00000000000000000000000000000000000000000000000000008152509050600061050e610507600560005461050291906115e5565b6106b7565b6001610c8f565b6103e861051b91906115e5565b905061053c6105356105306000546005610c8f565b6106b7565b6001610c8f565b600261054891906115e5565b600281905550600083905060006005600054610564919061179c565b90506000806000856103e861057991906115e5565b905060005b600560005461058d91906115e5565b8110156105d85781816105a0919061179c565b935081816105ae91906115e5565b92506105c3866105be868661094a565b6107ac565b955080806105d090611753565b91505061057e565b81816105e4919061179c565b935081816105f291906115e5565b92506000851461068857600185141561061f5761061886610613868661040f565b6107ac565b9550610687565b60028514156106425761063b866106368686610222565b6107ac565b9550610686565b60038514156106655761065e8661065986866102ef565b6107ac565b9550610685565b6004851415610684576106818661067c86866107d8565b6107ac565b95505b5b5b5b5b61069286896107ac565b955085600190805190602001906106aa929190610cce565b5050505050505050505050565b60008060026001846106c9919061158f565b6106d391906115e5565b905060008390505b808210156107105781905060028283866106f591906115e5565b6106ff919061158f565b61070991906115e5565b91506106db565b8092505050919050565b606060018054610729906116f0565b80601f0160208091040260200160405190810160405280929190818152602001828054610755906116f0565b80156107a25780601f10610777576101008083540402835291602001916107a2565b820191906000526020600020905b81548152906001019060200180831161078557829003601f168201915b5050505050905090565b606082826040516020016107c192919061112a565b604051602081830303815290604052905092915050565b60606107fc836102006107eb9190611616565b60916107f7919061158f565b610b2e565b61081e8361020061080d9190611616565b6067610819919061158f565b610b2e565b610829600254610b2e565b61084b8661020061083a9190611616565b60d6610846919061158f565b610b2e565b61086d8661020061085c9190611616565b6067610868919061158f565b610b2e565b610878600254610b2e565b61089b896102006108899190611616565b61011b610896919061158f565b610b2e565b6108bd896102006108ac9190611616565b60676108b8919061158f565b610b2e565b6108c8600254610b2e565b6108eb8c6102006108d99190611616565b6101646108e6919061158f565b610b2e565b61090d8c6102006108fc9190611616565b606b610908919061158f565b610b2e565b610918600254610b2e565b6040516020016109339c9b9a99989796959493929190611369565b604051602081830303815290604052905092915050565b606061096e8361020061095d9190611616565b6091610969919061158f565b610b2e565b6109908361020061097f9190611616565b606761098b919061158f565b610b2e565b61099b600254610b2e565b6109bd866102006109ac9190611616565b60d66109b8919061158f565b610b2e565b6109df866102006109ce9190611616565b60676109da919061158f565b610b2e565b6109ea600254610b2e565b610a0d896102006109fb9190611616565b61011a610a08919061158f565b610b2e565b610a2f89610200610a1e9190611616565b6067610a2a919061158f565b610b2e565b610a3a600254610b2e565b610a5d8c610200610a4b9190611616565b610164610a58919061158f565b610b2e565b610a7f8c610200610a6e9190611616565b606b610a7a919061158f565b610b2e565b610a8a600254610b2e565b604051602001610aa59c9b9a99989796959493929190611369565b604051602081830303815290604052610ad684610200610ac59190611616565b604e610ad1919061158f565b610b2e565b610af984610200610ae79190611616565b61013b610af4919061158f565b610b2e565b610b04600254610b2e565b604051602001610b1794939291906110c0565b604051602081830303815290604052905092915050565b60606000821415610b76576040518060400160405280600181526020017f30000000000000000000000000000000000000000000000000000000000000008152509050610c8a565b600082905060005b60008214610ba8578080610b9190611753565b915050600a82610ba191906115e5565b9150610b7e565b60008167ffffffffffffffff811115610bc457610bc3611889565b5b6040519080825280601f01601f191660200182016040528015610bf65781602001600182028036833780820191505090505b5090505b60008514610c8357600182610c0f9190611670565b9150600a85610c1e919061179c565b6030610c2a919061158f565b60f81b818381518110610c4057610c3f61185a565b5b60200101907effffffffffffffffffffffffffffffffffffffffffffffffffffffffffffff1916908160001a905350600a85610c7c91906115e5565b9450610bfa565b8093505050505b919050565b6000808284610c9e919061179c565b14610caa576001610cad565b60005b60ff168284610cbc91906115e5565b610cc6919061158f565b905092915050565b828054610cda906116f0565b90600052602060002090601f016020900481019282610cfc5760008555610d43565b82601f10610d1557805160ff1916838001178555610d43565b82800160010185558215610d43579182015b82811115610d42578251825591602001919060010190610d27565b5b509050610d509190610d54565b5090565b5b80821115610d6d576000816000905550600101610d55565b5090565b6000610d84610d7f84611521565b6114fc565b905082815260208101848484011115610da057610d9f6118bd565b5b610dab8482856116ae565b509392505050565b600082601f830112610dc857610dc76118b8565b5b8135610dd8848260208601610d71565b91505092915050565b600081359050610df081611b0c565b92915050565b60008060408385031215610e0d57610e0c6118c7565b5b600083013567ffffffffffffffff811115610e2b57610e2a6118c2565b5b610e3785828601610db3565b925050602083013567ffffffffffffffff811115610e5857610e576118c2565b5b610e6485828601610db3565b9150509250929050565b600060208284031215610e8457610e836118c7565b5b6000610e9284828501610de1565b91505092915050565b60008060408385031215610eb257610eb16118c7565b5b6000610ec085828601610de1565b9250506020610ed185828601610de1565b9150509250929050565b6000610ee682611552565b610ef08185611568565b9350610f008185602086016116bd565b80840191505092915050565b6000610f178261155d565b610f218185611573565b9350610f318185602086016116bd565b610f3a816118cc565b840191505092915050565b6000610f508261155d565b610f5a8185611584565b9350610f6a8185602086016116bd565b80840191505092915050565b6000610f83603483611584565b9150610f8e826118dd565b603482019050919050565b6000610fa6603683611584565b9150610fb18261192c565b603682019050919050565b6000610fc9600183611584565b9150610fd48261197b565b600182019050919050565b6000610fec600183611584565b9150610ff7826119a4565b600182019050919050565b600061100f600483611584565b915061101a826119cd565b600482019050919050565b6000611032603883611584565b915061103d826119f6565b603882019050919050565b6000611055603683611584565b915061106082611a45565b603682019050919050565b6000611078601683611584565b915061108382611a94565b601682019050919050565b600061109b603583611584565b91506110a682611abd565b603582019050919050565b6110ba816116a4565b82525050565b60006110cc8287610edb565b91506110d78261106b565b91506110e38286610f45565b91506110ee82610fbc565b91506110fa8285610f45565b915061110582611025565b91506111118284610f45565b915061111c82611002565b915081905095945050505050565b60006111368285610f45565b915061114182610fdf565b915061114d8284610f45565b91508190509392505050565b60006111648261106b565b91506111708286610f45565b915061117b82610fbc565b91506111878285610f45565b91506111928261108e565b915061119e8284610f45565b91506111a982611002565b9150819050949350505050565b60006111c18261106b565b91506111cd8289610f45565b91506111d882610fbc565b91506111e48288610f45565b91506111ef8261108e565b91506111fb8287610f45565b915061120682611002565b91506112118261106b565b915061121d8286610f45565b915061122882610fbc565b91506112348285610f45565b915061123f82610f99565b915061124b8284610f45565b915061125682611002565b9150819050979650505050505050565b60006112718261106b565b915061127d828c610f45565b915061128882610fbc565b9150611294828b610f45565b915061129f8261108e565b91506112ab828a610f45565b91506112b682611002565b91506112c18261106b565b91506112cd8289610f45565b91506112d882610fbc565b91506112e48288610f45565b91506112ef82610f99565b91506112fb8287610f45565b915061130682611002565b91506113118261106b565b915061131d8286610f45565b915061132882610fbc565b91506113348285610f45565b915061133f82611048565b915061134b8284610f45565b915061135682611002565b91508190509a9950505050505050505050565b60006113748261106b565b9150611380828f610f45565b915061138b82610fbc565b9150611397828e610f45565b91506113a28261108e565b91506113ae828d610f45565b91506113b982611002565b91506113c48261106b565b91506113d0828c610f45565b91506113db82610fbc565b91506113e7828b610f45565b91506113f282610f99565b91506113fe828a610f45565b915061140982611002565b91506114148261106b565b91506114208289610f45565b915061142b82610fbc565b91506114378288610f45565b915061144282611048565b915061144e8287610f45565b915061145982611002565b91506114648261106b565b91506114708286610f45565b915061147b82610fbc565b91506114878285610f45565b915061149282610f76565b915061149e8284610f45565b91506114a982611002565b91508190509d9c50505050505050505050505050565b600060208201905081810360008301526114d98184610f0c565b905092915050565b60006020820190506114f660008301846110b1565b92915050565b6000611506611517565b90506115128282611722565b919050565b6000604051905090565b600067ffffffffffffffff82111561153c5761153b611889565b5b611545826118cc565b9050602081019050919050565b600081519050919050565b600081519050919050565b600081905092915050565b600082825260208201905092915050565b600081905092915050565b600061159a826116a4565b91506115a5836116a4565b9250827fffffffffffffffffffffffffffffffffffffffffffffffffffffffffffffffff038211156115da576115d96117cd565b5b828201905092915050565b60006115f0826116a4565b91506115fb836116a4565b92508261160b5761160a6117fc565b5b828204905092915050565b6000611621826116a4565b915061162c836116a4565b9250817fffffffffffffffffffffffffffffffffffffffffffffffffffffffffffffffff0483118215151615611665576116646117cd565b5b828202905092915050565b600061167b826116a4565b9150611686836116a4565b925082821015611699576116986117cd565b5b828203905092915050565b6000819050919050565b82818337600083830152505050565b60005b838110156116db5780820151818401526020810190506116c0565b838111156116ea576000848401525b50505050565b6000600282049050600182168061170857607f821691505b6020821081141561171c5761171b61182b565b5b50919050565b61172b826118cc565b810181811067ffffffffffffffff8211171561174a57611749611889565b5b80604052505050565b600061175e826116a4565b91507fffffffffffffffffffffffffffffffffffffffffffffffffffffffffffffffff821415611791576117906117cd565b5b600182019050919050565b60006117a7826116a4565b91506117b2836116a4565b9250826117c2576117c16117fc565b5b828206905092915050565b7f4e487b7100000000000000000000000000000000000000000000000000000000600052601160045260246000fd5b7f4e487b7100000000000000000000000000000000000000000000000000000000600052601260045260246000fd5b7f4e487b7100000000000000000000000000000000000000000000000000000000600052602260045260246000fd5b7f4e487b7100000000000000000000000000000000000000000000000000000000600052603260045260246000fd5b7f4e487b7100000000000000000000000000000000000000000000000000000000600052604160045260246000fd5b600080fd5b600080fd5b600080fd5b600080fd5b6000601f19601f8301169050919050565b7f2763302c302c302e36332c3231392e312c352e372c3330302e3738272073747960008201527f6c653d277472616e73666f726d3a7363616c6528000000000000000000000000602082015250565b7f63302c302d382e34332c3230382e37332c31332e36312c3238302e363927207360008201527f74796c653d277472616e73666f726d3a7363616c652800000000000000000000602082015250565b7f2c00000000000000000000000000000000000000000000000000000000000000600082015250565b7f2000000000000000000000000000000000000000000000000000000000000000600082015250565b7f29272f3e00000000000000000000000000000000000000000000000000000000600082015250565b7f2763302c302c31322e39362d37382e34342c3335352e38382d3135322e33342760008201527f207374796c653d277472616e73666f726d3a7363616c65280000000000000000602082015250565b7f63302c302d31302e31312c3139312e32332c382e36382c3236352e313327207360008201527f74796c653d277472616e73666f726d3a7363616c652800000000000000000000602082015250565b7f3c7061746820636c6173733d277374302720643d274d00000000000000000000600082015250565b7f63302c302d32372e38372c3232312e372d322e35392c3238392e31312720737460008201527f796c653d277472616e73666f726d3a7363616c65280000000000000000000000602082015250565b611b15816116a4565b8114611b2057600080fd5b5056fe3c73766720786d6c6e733d22687474703a2f2f7777772e77332e6f72672f323030302f7376672220786d6c6e733a786c696e6b3d22687474703a2f2f7777772e77332e6f72672f313939392f786c696e6b222076657273696f6e3d22312e31222069643d224c617965725f312220783d223070782220793d22307078222076696577426f783d223020302031303234203130323422207374796c653d22656e61626c652d6261636b67726f756e643a6e657720302030203130323420313032343b2220786d6c3a73706163653d227072657365727665223e3c7374796c6520747970653d22746578742f637373223e2e7374307b66696c6c3a6e6f6e653b7374726f6b653a234544323232343b7374726f6b652d77696474683a32303b7374726f6b652d6c696e656361703a726f756e643b7374726f6b652d6c696e656a6f696e3a726f756e643b7374726f6b652d6d697465726c696d69743a31303b7d3c2f7374796c653ea2646970667358221220586299d8a91e7fb0866286f53123def886f99dd7e47af52674ce5533d3ff447b64736f6c63430008070033",
					"opcodes": "PUSH1 0x80 PUSH1 0x40 MSTORE PUSH1 0x40 MLOAD DUP1 PUSH1 0x20 ADD PUSH1 0x40 MSTORE DUP1 PUSH1 0x0 DUP2 MSTORE POP PUSH1 0x1 SWAP1 DUP1 MLOAD SWAP1 PUSH1 0x20 ADD SWAP1 PUSH3 0x2B SWAP3 SWAP2 SWAP1 PUSH3 0x45 JUMP JUMPDEST POP PUSH1 0x0 PUSH1 0x2 SSTORE CALLVALUE DUP1 ISZERO PUSH3 0x3E JUMPI PUSH1 0x0 DUP1 REVERT JUMPDEST POP PUSH3 0x15A JUMP JUMPDEST DUP3 DUP1 SLOAD PUSH3 0x53 SWAP1 PUSH3 0xF5 JUMP JUMPDEST SWAP1 PUSH1 0x0 MSTORE PUSH1 0x20 PUSH1 0x0 KECCAK256 SWAP1 PUSH1 0x1F ADD PUSH1 0x20 SWAP1 DIV DUP2 ADD SWAP3 DUP3 PUSH3 0x77 JUMPI PUSH1 0x0 DUP6 SSTORE PUSH3 0xC3 JUMP JUMPDEST DUP3 PUSH1 0x1F LT PUSH3 0x92 JUMPI DUP1 MLOAD PUSH1 0xFF NOT AND DUP4 DUP1 ADD OR DUP6 SSTORE PUSH3 0xC3 JUMP JUMPDEST DUP3 DUP1 ADD PUSH1 0x1 ADD DUP6 SSTORE DUP3 ISZERO PUSH3 0xC3 JUMPI SWAP2 DUP3 ADD JUMPDEST DUP3 DUP2 GT ISZERO PUSH3 0xC2 JUMPI DUP3 MLOAD DUP3 SSTORE SWAP2 PUSH1 0x20 ADD SWAP2 SWAP1 PUSH1 0x1 ADD SWAP1 PUSH3 0xA5 JUMP JUMPDEST JUMPDEST POP SWAP1 POP PUSH3 0xD2 SWAP2 SWAP1 PUSH3 0xD6 JUMP JUMPDEST POP SWAP1 JUMP JUMPDEST JUMPDEST DUP1 DUP3 GT ISZERO PUSH3 0xF1 JUMPI PUSH1 0x0 DUP2 PUSH1 0x0 SWAP1 SSTORE POP PUSH1 0x1 ADD PUSH3 0xD7 JUMP JUMPDEST POP SWAP1 JUMP JUMPDEST PUSH1 0x0 PUSH1 0x2 DUP3 DIV SWAP1 POP PUSH1 0x1 DUP3 AND DUP1 PUSH3 0x10E JUMPI PUSH1 0x7F DUP3 AND SWAP2 POP JUMPDEST PUSH1 0x20 DUP3 LT DUP2 EQ ISZERO PUSH3 0x125 JUMPI PUSH3 0x124 PUSH3 0x12B JUMP JUMPDEST JUMPDEST POP SWAP2 SWAP1 POP JUMP JUMPDEST PUSH32 0x4E487B7100000000000000000000000000000000000000000000000000000000 PUSH1 0x0 MSTORE PUSH1 0x22 PUSH1 0x4 MSTORE PUSH1 0x24 PUSH1 0x0 REVERT JUMPDEST PUSH2 0x1CBF DUP1 PUSH3 0x16A PUSH1 0x0 CODECOPY PUSH1 0x0 RETURN INVALID PUSH1 0x80 PUSH1 0x40 MSTORE CALLVALUE DUP1 ISZERO PUSH2 0x10 JUMPI PUSH1 0x0 DUP1 REVERT JUMPDEST POP PUSH1 0x4 CALLDATASIZE LT PUSH2 0x93 JUMPI PUSH1 0x0 CALLDATALOAD PUSH1 0xE0 SHR DUP1 PUSH4 0x677342CE GT PUSH2 0x66 JUMPI DUP1 PUSH4 0x677342CE EQ PUSH2 0x144 JUMPI DUP1 PUSH4 0x6D4CE63C EQ PUSH2 0x174 JUMPI DUP1 PUSH4 0x89C19DDB EQ PUSH2 0x192 JUMPI DUP1 PUSH4 0xD2820241 EQ PUSH2 0x1C2 JUMPI DUP1 PUSH4 0xEAE8EF64 EQ PUSH2 0x1F2 JUMPI PUSH2 0x93 JUMP JUMPDEST DUP1 PUSH4 0x10BAE567 EQ PUSH2 0x98 JUMPI DUP1 PUSH4 0x2FDB8E25 EQ PUSH2 0xC8 JUMPI DUP1 PUSH4 0x41C8987C EQ PUSH2 0xF8 JUMPI DUP1 PUSH4 0x60FE47B1 EQ PUSH2 0x128 JUMPI JUMPDEST PUSH1 0x0 DUP1 REVERT JUMPDEST PUSH2 0xB2 PUSH1 0x4 DUP1 CALLDATASIZE SUB DUP2 ADD SWAP1 PUSH2 0xAD SWAP2 SWAP1 PUSH2 0xE9B JUMP JUMPDEST PUSH2 0x222 JUMP JUMPDEST PUSH1 0x40 MLOAD PUSH2 0xBF SWAP2 SWAP1 PUSH2 0x14BF JUMP JUMPDEST PUSH1 0x40 MLOAD DUP1 SWAP2 SUB SWAP1 RETURN JUMPDEST PUSH2 0xE2 PUSH1 0x4 DUP1 CALLDATASIZE SUB DUP2 ADD SWAP1 PUSH2 0xDD SWAP2 SWAP1 PUSH2 0xE9B JUMP JUMPDEST PUSH2 0x2EF JUMP JUMPDEST PUSH1 0x40 MLOAD PUSH2 0xEF SWAP2 SWAP1 PUSH2 0x14BF JUMP JUMPDEST PUSH1 0x40 MLOAD DUP1 SWAP2 SUB SWAP1 RETURN JUMPDEST PUSH2 0x112 PUSH1 0x4 DUP1 CALLDATASIZE SUB DUP2 ADD SWAP1 PUSH2 0x10D SWAP2 SWAP1 PUSH2 0xE9B JUMP JUMPDEST PUSH2 0x40F JUMP JUMPDEST PUSH1 0x40 MLOAD PUSH2 0x11F SWAP2 SWAP1 PUSH2 0x14BF JUMP JUMPDEST PUSH1 0x40 MLOAD DUP1 SWAP2 SUB SWAP1 RETURN JUMPDEST PUSH2 0x142 PUSH1 0x4 DUP1 CALLDATASIZE SUB DUP2 ADD SWAP1 PUSH2 0x13D SWAP2 SWAP1 PUSH2 0xE6E JUMP JUMPDEST PUSH2 0x48A JUMP JUMPDEST STOP JUMPDEST PUSH2 0x15E PUSH1 0x4 DUP1 CALLDATASIZE SUB DUP2 ADD SWAP1 PUSH2 0x159 SWAP2 SWAP1 PUSH2 0xE6E JUMP JUMPDEST PUSH2 0x6B7 JUMP JUMPDEST PUSH1 0x40 MLOAD PUSH2 0x16B SWAP2 SWAP1 PUSH2 0x14E1 JUMP JUMPDEST PUSH1 0x40 MLOAD DUP1 SWAP2 SUB SWAP1 RETURN JUMPDEST PUSH2 0x17C PUSH2 0x71A JUMP JUMPDEST PUSH1 0x40 MLOAD PUSH2 0x189 SWAP2 SWAP1 PUSH2 0x14BF JUMP JUMPDEST PUSH1 0x40 MLOAD DUP1 SWAP2 SUB SWAP1 RETURN JUMPDEST PUSH2 0x1AC PUSH1 0x4 DUP1 CALLDATASIZE SUB DUP2 ADD SWAP1 PUSH2 0x1A7 SWAP2 SWAP1 PUSH2 0xDF6 JUMP JUMPDEST PUSH2 0x7AC JUMP JUMPDEST PUSH1 0x40 MLOAD PUSH2 0x1B9 SWAP2 SWAP1 PUSH2 0x14BF JUMP JUMPDEST PUSH1 0x40 MLOAD DUP1 SWAP2 SUB SWAP1 RETURN JUMPDEST PUSH2 0x1DC PUSH1 0x4 DUP1 CALLDATASIZE SUB DUP2 ADD SWAP1 PUSH2 0x1D7 SWAP2 SWAP1 PUSH2 0xE9B JUMP JUMPDEST PUSH2 0x7D8 JUMP JUMPDEST PUSH1 0x40 MLOAD PUSH2 0x1E9 SWAP2 SWAP1 PUSH2 0x14BF JUMP JUMPDEST PUSH1 0x40 MLOAD DUP1 SWAP2 SUB SWAP1 RETURN JUMPDEST PUSH2 0x20C PUSH1 0x4 DUP1 CALLDATASIZE SUB DUP2 ADD SWAP1 PUSH2 0x207 SWAP2 SWAP1 PUSH2 0xE9B JUMP JUMPDEST PUSH2 0x94A JUMP JUMPDEST PUSH1 0x40 MLOAD PUSH2 0x219 SWAP2 SWAP1 PUSH2 0x14BF JUMP JUMPDEST PUSH1 0x40 MLOAD DUP1 SWAP2 SUB SWAP1 RETURN JUMPDEST PUSH1 0x60 PUSH2 0x246 DUP4 PUSH2 0x200 PUSH2 0x235 SWAP2 SWAP1 PUSH2 0x1616 JUMP JUMPDEST PUSH1 0xDD PUSH2 0x241 SWAP2 SWAP1 PUSH2 0x158F JUMP JUMPDEST PUSH2 0xB2E JUMP JUMPDEST PUSH2 0x268 DUP4 PUSH2 0x200 PUSH2 0x257 SWAP2 SWAP1 PUSH2 0x1616 JUMP JUMPDEST PUSH1 0x67 PUSH2 0x263 SWAP2 SWAP1 PUSH2 0x158F JUMP JUMPDEST PUSH2 0xB2E JUMP JUMPDEST PUSH2 0x273 PUSH1 0x2 SLOAD PUSH2 0xB2E JUMP JUMPDEST PUSH2 0x296 DUP7 PUSH2 0x200 PUSH2 0x284 SWAP2 SWAP1 PUSH2 0x1616 JUMP JUMPDEST PUSH2 0x122 PUSH2 0x291 SWAP2 SWAP1 PUSH2 0x158F JUMP JUMPDEST PUSH2 0xB2E JUMP JUMPDEST PUSH2 0x2B8 DUP7 PUSH2 0x200 PUSH2 0x2A7 SWAP2 SWAP1 PUSH2 0x1616 JUMP JUMPDEST PUSH1 0x67 PUSH2 0x2B3 SWAP2 SWAP1 PUSH2 0x158F JUMP JUMPDEST PUSH2 0xB2E JUMP JUMPDEST PUSH2 0x2C3 PUSH1 0x2 SLOAD PUSH2 0xB2E JUMP JUMPDEST PUSH1 0x40 MLOAD PUSH1 0x20 ADD PUSH2 0x2D8 SWAP7 SWAP6 SWAP5 SWAP4 SWAP3 SWAP2 SWAP1 PUSH2 0x11B6 JUMP JUMPDEST PUSH1 0x40 MLOAD PUSH1 0x20 DUP2 DUP4 SUB SUB DUP2 MSTORE SWAP1 PUSH1 0x40 MSTORE SWAP1 POP SWAP3 SWAP2 POP POP JUMP JUMPDEST PUSH1 0x60 PUSH2 0x313 DUP4 PUSH2 0x200 PUSH2 0x302 SWAP2 SWAP1 PUSH2 0x1616 JUMP JUMPDEST PUSH1 0xBD PUSH2 0x30E SWAP2 SWAP1 PUSH2 0x158F JUMP JUMPDEST PUSH2 0xB2E JUMP JUMPDEST PUSH2 0x335 DUP4 PUSH2 0x200 PUSH2 0x324 SWAP2 SWAP1 PUSH2 0x1616 JUMP JUMPDEST PUSH1 0x67 PUSH2 0x330 SWAP2 SWAP1 PUSH2 0x158F JUMP JUMPDEST PUSH2 0xB2E JUMP JUMPDEST PUSH2 0x340 PUSH1 0x2 SLOAD PUSH2 0xB2E JUMP JUMPDEST PUSH2 0x363 DUP7 PUSH2 0x200 PUSH2 0x351 SWAP2 SWAP1 PUSH2 0x1616 JUMP JUMPDEST PUSH2 0x102 PUSH2 0x35E SWAP2 SWAP1 PUSH2 0x158F JUMP JUMPDEST PUSH2 0xB2E JUMP JUMPDEST PUSH2 0x385 DUP7 PUSH2 0x200 PUSH2 0x374 SWAP2 SWAP1 PUSH2 0x1616 JUMP JUMPDEST PUSH1 0x67 PUSH2 0x380 SWAP2 SWAP1 PUSH2 0x158F JUMP JUMPDEST PUSH2 0xB2E JUMP JUMPDEST PUSH2 0x390 PUSH1 0x2 SLOAD PUSH2 0xB2E JUMP JUMPDEST PUSH2 0x3B3 DUP10 PUSH2 0x200 PUSH2 0x3A1 SWAP2 SWAP1 PUSH2 0x1616 JUMP JUMPDEST PUSH2 0x146 PUSH2 0x3AE SWAP2 SWAP1 PUSH2 0x158F JUMP JUMPDEST PUSH2 0xB2E JUMP JUMPDEST PUSH2 0x3D5 DUP10 PUSH2 0x200 PUSH2 0x3C4 SWAP2 SWAP1 PUSH2 0x1616 JUMP JUMPDEST PUSH1 0x67 PUSH2 0x3D0 SWAP2 SWAP1 PUSH2 0x158F JUMP JUMPDEST PUSH2 0xB2E JUMP JUMPDEST PUSH2 0x3E0 PUSH1 0x2 SLOAD PUSH2 0xB2E JUMP JUMPDEST PUSH1 0x40 MLOAD PUSH1 0x20 ADD PUSH2 0x3F8 SWAP10 SWAP9 SWAP8 SWAP7 SWAP6 SWAP5 SWAP4 SWAP3 SWAP2 SWAP1 PUSH2 0x1266 JUMP JUMPDEST PUSH1 0x40 MLOAD PUSH1 0x20 DUP2 DUP4 SUB SUB DUP2 MSTORE SWAP1 PUSH1 0x40 MSTORE SWAP1 POP SWAP3 SWAP2 POP POP JUMP JUMPDEST PUSH1 0x60 PUSH2 0x434 DUP4 PUSH2 0x200 PUSH2 0x422 SWAP2 SWAP1 PUSH2 0x1616 JUMP JUMPDEST PUSH2 0x106 PUSH2 0x42F SWAP2 SWAP1 PUSH2 0x158F JUMP JUMPDEST PUSH2 0xB2E JUMP JUMPDEST PUSH2 0x456 DUP4 PUSH2 0x200 PUSH2 0x445 SWAP2 SWAP1 PUSH2 0x1616 JUMP JUMPDEST PUSH1 0x67 PUSH2 0x451 SWAP2 SWAP1 PUSH2 0x158F JUMP JUMPDEST PUSH2 0xB2E JUMP JUMPDEST PUSH2 0x461 PUSH1 0x2 SLOAD PUSH2 0xB2E JUMP JUMPDEST PUSH1 0x40 MLOAD PUSH1 0x20 ADD PUSH2 0x473 SWAP4 SWAP3 SWAP2 SWAP1 PUSH2 0x1159 JUMP JUMPDEST PUSH1 0x40 MLOAD PUSH1 0x20 DUP2 DUP4 SUB SUB DUP2 MSTORE SWAP1 PUSH1 0x40 MSTORE SWAP1 POP SWAP3 SWAP2 POP POP JUMP JUMPDEST DUP1 PUSH1 0x0 DUP2 SWAP1 SSTORE POP PUSH1 0x0 PUSH1 0x40 MLOAD DUP1 PUSH2 0x1A0 ADD PUSH1 0x40 MSTORE DUP1 PUSH2 0x166 DUP2 MSTORE PUSH1 0x20 ADD PUSH2 0x1B24 PUSH2 0x166 SWAP2 CODECOPY SWAP1 POP PUSH1 0x0 PUSH1 0x40 MLOAD DUP1 PUSH1 0x40 ADD PUSH1 0x40 MSTORE DUP1 PUSH1 0x6 DUP2 MSTORE PUSH1 0x20 ADD PUSH32 0x3C2F7376673E0000000000000000000000000000000000000000000000000000 DUP2 MSTORE POP SWAP1 POP PUSH1 0x0 PUSH2 0x50E PUSH2 0x507 PUSH1 0x5 PUSH1 0x0 SLOAD PUSH2 0x502 SWAP2 SWAP1 PUSH2 0x15E5 JUMP JUMPDEST PUSH2 0x6B7 JUMP JUMPDEST PUSH1 0x1 PUSH2 0xC8F JUMP JUMPDEST PUSH2 0x3E8 PUSH2 0x51B SWAP2 SWAP1 PUSH2 0x15E5 JUMP JUMPDEST SWAP1 POP PUSH2 0x53C PUSH2 0x535 PUSH2 0x530 PUSH1 0x0 SLOAD PUSH1 0x5 PUSH2 0xC8F JUMP JUMPDEST PUSH2 0x6B7 JUMP JUMPDEST PUSH1 0x1 PUSH2 0xC8F JUMP JUMPDEST PUSH1 0x2 PUSH2 0x548 SWAP2 SWAP1 PUSH2 0x15E5 JUMP JUMPDEST PUSH1 0x2 DUP2 SWAP1 SSTORE POP PUSH1 0x0 DUP4 SWAP1 POP PUSH1 0x0 PUSH1 0x5 PUSH1 0x0 SLOAD PUSH2 0x564 SWAP2 SWAP1 PUSH2 0x179C JUMP JUMPDEST SWAP1 POP PUSH1 0x0 DUP1 PUSH1 0x0 DUP6 PUSH2 0x3E8 PUSH2 0x579 SWAP2 SWAP1 PUSH2 0x15E5 JUMP JUMPDEST SWAP1 POP PUSH1 0x0 JUMPDEST PUSH1 0x5 PUSH1 0x0 SLOAD PUSH2 0x58D SWAP2 SWAP1 PUSH2 0x15E5 JUMP JUMPDEST DUP2 LT ISZERO PUSH2 0x5D8 JUMPI DUP2 DUP2 PUSH2 0x5A0 SWAP2 SWAP1 PUSH2 0x179C JUMP JUMPDEST SWAP4 POP DUP2 DUP2 PUSH2 0x5AE SWAP2 SWAP1 PUSH2 0x15E5 JUMP JUMPDEST SWAP3 POP PUSH2 0x5C3 DUP7 PUSH2 0x5BE DUP7 DUP7 PUSH2 0x94A JUMP JUMPDEST PUSH2 0x7AC JUMP JUMPDEST SWAP6 POP DUP1 DUP1 PUSH2 0x5D0 SWAP1 PUSH2 0x1753 JUMP JUMPDEST SWAP2 POP POP PUSH2 0x57E JUMP JUMPDEST DUP2 DUP2 PUSH2 0x5E4 SWAP2 SWAP1 PUSH2 0x179C JUMP JUMPDEST SWAP4 POP DUP2 DUP2 PUSH2 0x5F2 SWAP2 SWAP1 PUSH2 0x15E5 JUMP JUMPDEST SWAP3 POP PUSH1 0x0 DUP6 EQ PUSH2 0x688 JUMPI PUSH1 0x1 DUP6 EQ ISZERO PUSH2 0x61F JUMPI PUSH2 0x618 DUP7 PUSH2 0x613 DUP7 DUP7 PUSH2 0x40F JUMP JUMPDEST PUSH2 0x7AC JUMP JUMPDEST SWAP6 POP PUSH2 0x687 JUMP JUMPDEST PUSH1 0x2 DUP6 EQ ISZERO PUSH2 0x642 JUMPI PUSH2 0x63B DUP7 PUSH2 0x636 DUP7 DUP7 PUSH2 0x222 JUMP JUMPDEST PUSH2 0x7AC JUMP JUMPDEST SWAP6 POP PUSH2 0x686 JUMP JUMPDEST PUSH1 0x3 DUP6 EQ ISZERO PUSH2 0x665 JUMPI PUSH2 0x65E DUP7 PUSH2 0x659 DUP7 DUP7 PUSH2 0x2EF JUMP JUMPDEST PUSH2 0x7AC JUMP JUMPDEST SWAP6 POP PUSH2 0x685 JUMP JUMPDEST PUSH1 0x4 DUP6 EQ ISZERO PUSH2 0x684 JUMPI PUSH2 0x681 DUP7 PUSH2 0x67C DUP7 DUP7 PUSH2 0x7D8 JUMP JUMPDEST PUSH2 0x7AC JUMP JUMPDEST SWAP6 POP JUMPDEST JUMPDEST JUMPDEST JUMPDEST JUMPDEST PUSH2 0x692 DUP7 DUP10 PUSH2 0x7AC JUMP JUMPDEST SWAP6 POP DUP6 PUSH1 0x1 SWAP1 DUP1 MLOAD SWAP1 PUSH1 0x20 ADD SWAP1 PUSH2 0x6AA SWAP3 SWAP2 SWAP1 PUSH2 0xCCE JUMP JUMPDEST POP POP POP POP POP POP POP POP POP POP POP JUMP JUMPDEST PUSH1 0x0 DUP1 PUSH1 0x2 PUSH1 0x1 DUP5 PUSH2 0x6C9 SWAP2 SWAP1 PUSH2 0x158F JUMP JUMPDEST PUSH2 0x6D3 SWAP2 SWAP1 PUSH2 0x15E5 JUMP JUMPDEST SWAP1 POP PUSH1 0x0 DUP4 SWAP1 POP JUMPDEST DUP1 DUP3 LT ISZERO PUSH2 0x710 JUMPI DUP2 SWAP1 POP PUSH1 0x2 DUP3 DUP4 DUP7 PUSH2 0x6F5 SWAP2 SWAP1 PUSH2 0x15E5 JUMP JUMPDEST PUSH2 0x6FF SWAP2 SWAP1 PUSH2 0x158F JUMP JUMPDEST PUSH2 0x709 SWAP2 SWAP1 PUSH2 0x15E5 JUMP JUMPDEST SWAP2 POP PUSH2 0x6DB JUMP JUMPDEST DUP1 SWAP3 POP POP POP SWAP2 SWAP1 POP JUMP JUMPDEST PUSH1 0x60 PUSH1 0x1 DUP1 SLOAD PUSH2 0x729 SWAP1 PUSH2 0x16F0 JUMP JUMPDEST DUP1 PUSH1 0x1F ADD PUSH1 0x20 DUP1 SWAP2 DIV MUL PUSH1 0x20 ADD PUSH1 0x40 MLOAD SWAP1 DUP2 ADD PUSH1 0x40 MSTORE DUP1 SWAP3 SWAP2 SWAP1 DUP2 DUP2 MSTORE PUSH1 0x20 ADD DUP3 DUP1 SLOAD PUSH2 0x755 SWAP1 PUSH2 0x16F0 JUMP JUMPDEST DUP1 ISZERO PUSH2 0x7A2 JUMPI DUP1 PUSH1 0x1F LT PUSH2 0x777 JUMPI PUSH2 0x100 DUP1 DUP4 SLOAD DIV MUL DUP4 MSTORE SWAP2 PUSH1 0x20 ADD SWAP2 PUSH2 0x7A2 JUMP JUMPDEST DUP3 ADD SWAP2 SWAP1 PUSH1 0x0 MSTORE PUSH1 0x20 PUSH1 0x0 KECCAK256 SWAP1 JUMPDEST DUP2 SLOAD DUP2 MSTORE SWAP1 PUSH1 0x1 ADD SWAP1 PUSH1 0x20 ADD DUP1 DUP4 GT PUSH2 0x785 JUMPI DUP3 SWAP1 SUB PUSH1 0x1F AND DUP3 ADD SWAP2 JUMPDEST POP POP POP POP POP SWAP1 POP SWAP1 JUMP JUMPDEST PUSH1 0x60 DUP3 DUP3 PUSH1 0x40 MLOAD PUSH1 0x20 ADD PUSH2 0x7C1 SWAP3 SWAP2 SWAP1 PUSH2 0x112A JUMP JUMPDEST PUSH1 0x40 MLOAD PUSH1 0x20 DUP2 DUP4 SUB SUB DUP2 MSTORE SWAP1 PUSH1 0x40 MSTORE SWAP1 POP SWAP3 SWAP2 POP POP JUMP JUMPDEST PUSH1 0x60 PUSH2 0x7FC DUP4 PUSH2 0x200 PUSH2 0x7EB SWAP2 SWAP1 PUSH2 0x1616 JUMP JUMPDEST PUSH1 0x91 PUSH2 0x7F7 SWAP2 SWAP1 PUSH2 0x158F JUMP JUMPDEST PUSH2 0xB2E JUMP JUMPDEST PUSH2 0x81E DUP4 PUSH2 0x200 PUSH2 0x80D SWAP2 SWAP1 PUSH2 0x1616 JUMP JUMPDEST PUSH1 0x67 PUSH2 0x819 SWAP2 SWAP1 PUSH2 0x158F JUMP JUMPDEST PUSH2 0xB2E JUMP JUMPDEST PUSH2 0x829 PUSH1 0x2 SLOAD PUSH2 0xB2E JUMP JUMPDEST PUSH2 0x84B DUP7 PUSH2 0x200 PUSH2 0x83A SWAP2 SWAP1 PUSH2 0x1616 JUMP JUMPDEST PUSH1 0xD6 PUSH2 0x846 SWAP2 SWAP1 PUSH2 0x158F JUMP JUMPDEST PUSH2 0xB2E JUMP JUMPDEST PUSH2 0x86D DUP7 PUSH2 0x200 PUSH2 0x85C SWAP2 SWAP1 PUSH2 0x1616 JUMP JUMPDEST PUSH1 0x67 PUSH2 0x868 SWAP2 SWAP1 PUSH2 0x158F JUMP JUMPDEST PUSH2 0xB2E JUMP JUMPDEST PUSH2 0x878 PUSH1 0x2 SLOAD PUSH2 0xB2E JUMP JUMPDEST PUSH2 0x89B DUP10 PUSH2 0x200 PUSH2 0x889 SWAP2 SWAP1 PUSH2 0x1616 JUMP JUMPDEST PUSH2 0x11B PUSH2 0x896 SWAP2 SWAP1 PUSH2 0x158F JUMP JUMPDEST PUSH2 0xB2E JUMP JUMPDEST PUSH2 0x8BD DUP10 PUSH2 0x200 PUSH2 0x8AC SWAP2 SWAP1 PUSH2 0x1616 JUMP JUMPDEST PUSH1 0x67 PUSH2 0x8B8 SWAP2 SWAP1 PUSH2 0x158F JUMP JUMPDEST PUSH2 0xB2E JUMP JUMPDEST PUSH2 0x8C8 PUSH1 0x2 SLOAD PUSH2 0xB2E JUMP JUMPDEST PUSH2 0x8EB DUP13 PUSH2 0x200 PUSH2 0x8D9 SWAP2 SWAP1 PUSH2 0x1616 JUMP JUMPDEST PUSH2 0x164 PUSH2 0x8E6 SWAP2 SWAP1 PUSH2 0x158F JUMP JUMPDEST PUSH2 0xB2E JUMP JUMPDEST PUSH2 0x90D DUP13 PUSH2 0x200 PUSH2 0x8FC SWAP2 SWAP1 PUSH2 0x1616 JUMP JUMPDEST PUSH1 0x6B PUSH2 0x908 SWAP2 SWAP1 PUSH2 0x158F JUMP JUMPDEST PUSH2 0xB2E JUMP JUMPDEST PUSH2 0x918 PUSH1 0x2 SLOAD PUSH2 0xB2E JUMP JUMPDEST PUSH1 0x40 MLOAD PUSH1 0x20 ADD PUSH2 0x933 SWAP13 SWAP12 SWAP11 SWAP10 SWAP9 SWAP8 SWAP7 SWAP6 SWAP5 SWAP4 SWAP3 SWAP2 SWAP1 PUSH2 0x1369 JUMP JUMPDEST PUSH1 0x40 MLOAD PUSH1 0x20 DUP2 DUP4 SUB SUB DUP2 MSTORE SWAP1 PUSH1 0x40 MSTORE SWAP1 POP SWAP3 SWAP2 POP POP JUMP JUMPDEST PUSH1 0x60 PUSH2 0x96E DUP4 PUSH2 0x200 PUSH2 0x95D SWAP2 SWAP1 PUSH2 0x1616 JUMP JUMPDEST PUSH1 0x91 PUSH2 0x969 SWAP2 SWAP1 PUSH2 0x158F JUMP JUMPDEST PUSH2 0xB2E JUMP JUMPDEST PUSH2 0x990 DUP4 PUSH2 0x200 PUSH2 0x97F SWAP2 SWAP1 PUSH2 0x1616 JUMP JUMPDEST PUSH1 0x67 PUSH2 0x98B SWAP2 SWAP1 PUSH2 0x158F JUMP JUMPDEST PUSH2 0xB2E JUMP JUMPDEST PUSH2 0x99B PUSH1 0x2 SLOAD PUSH2 0xB2E JUMP JUMPDEST PUSH2 0x9BD DUP7 PUSH2 0x200 PUSH2 0x9AC SWAP2 SWAP1 PUSH2 0x1616 JUMP JUMPDEST PUSH1 0xD6 PUSH2 0x9B8 SWAP2 SWAP1 PUSH2 0x158F JUMP JUMPDEST PUSH2 0xB2E JUMP JUMPDEST PUSH2 0x9DF DUP7 PUSH2 0x200 PUSH2 0x9CE SWAP2 SWAP1 PUSH2 0x1616 JUMP JUMPDEST PUSH1 0x67 PUSH2 0x9DA SWAP2 SWAP1 PUSH2 0x158F JUMP JUMPDEST PUSH2 0xB2E JUMP JUMPDEST PUSH2 0x9EA PUSH1 0x2 SLOAD PUSH2 0xB2E JUMP JUMPDEST PUSH2 0xA0D DUP10 PUSH2 0x200 PUSH2 0x9FB SWAP2 SWAP1 PUSH2 0x1616 JUMP JUMPDEST PUSH2 0x11A PUSH2 0xA08 SWAP2 SWAP1 PUSH2 0x158F JUMP JUMPDEST PUSH2 0xB2E JUMP JUMPDEST PUSH2 0xA2F DUP10 PUSH2 0x200 PUSH2 0xA1E SWAP2 SWAP1 PUSH2 0x1616 JUMP JUMPDEST PUSH1 0x67 PUSH2 0xA2A SWAP2 SWAP1 PUSH2 0x158F JUMP JUMPDEST PUSH2 0xB2E JUMP JUMPDEST PUSH2 0xA3A PUSH1 0x2 SLOAD PUSH2 0xB2E JUMP JUMPDEST PUSH2 0xA5D DUP13 PUSH2 0x200 PUSH2 0xA4B SWAP2 SWAP1 PUSH2 0x1616 JUMP JUMPDEST PUSH2 0x164 PUSH2 0xA58 SWAP2 SWAP1 PUSH2 0x158F JUMP JUMPDEST PUSH2 0xB2E JUMP JUMPDEST PUSH2 0xA7F DUP13 PUSH2 0x200 PUSH2 0xA6E SWAP2 SWAP1 PUSH2 0x1616 JUMP JUMPDEST PUSH1 0x6B PUSH2 0xA7A SWAP2 SWAP1 PUSH2 0x158F JUMP JUMPDEST PUSH2 0xB2E JUMP JUMPDEST PUSH2 0xA8A PUSH1 0x2 SLOAD PUSH2 0xB2E JUMP JUMPDEST PUSH1 0x40 MLOAD PUSH1 0x20 ADD PUSH2 0xAA5 SWAP13 SWAP12 SWAP11 SWAP10 SWAP9 SWAP8 SWAP7 SWAP6 SWAP5 SWAP4 SWAP3 SWAP2 SWAP1 PUSH2 0x1369 JUMP JUMPDEST PUSH1 0x40 MLOAD PUSH1 0x20 DUP2 DUP4 SUB SUB DUP2 MSTORE SWAP1 PUSH1 0x40 MSTORE PUSH2 0xAD6 DUP5 PUSH2 0x200 PUSH2 0xAC5 SWAP2 SWAP1 PUSH2 0x1616 JUMP JUMPDEST PUSH1 0x4E PUSH2 0xAD1 SWAP2 SWAP1 PUSH2 0x158F JUMP JUMPDEST PUSH2 0xB2E JUMP JUMPDEST PUSH2 0xAF9 DUP5 PUSH2 0x200 PUSH2 0xAE7 SWAP2 SWAP1 PUSH2 0x1616 JUMP JUMPDEST PUSH2 0x13B PUSH2 0xAF4 SWAP2 SWAP1 PUSH2 0x158F JUMP JUMPDEST PUSH2 0xB2E JUMP JUMPDEST PUSH2 0xB04 PUSH1 0x2 SLOAD PUSH2 0xB2E JUMP JUMPDEST PUSH1 0x40 MLOAD PUSH1 0x20 ADD PUSH2 0xB17 SWAP5 SWAP4 SWAP3 SWAP2 SWAP1 PUSH2 0x10C0 JUMP JUMPDEST PUSH1 0x40 MLOAD PUSH1 0x20 DUP2 DUP4 SUB SUB DUP2 MSTORE SWAP1 PUSH1 0x40 MSTORE SWAP1 POP SWAP3 SWAP2 POP POP JUMP JUMPDEST PUSH1 0x60 PUSH1 0x0 DUP3 EQ ISZERO PUSH2 0xB76 JUMPI PUSH1 0x40 MLOAD DUP1 PUSH1 0x40 ADD PUSH1 0x40 MSTORE DUP1 PUSH1 0x1 DUP2 MSTORE PUSH1 0x20 ADD PUSH32 0x3000000000000000000000000000000000000000000000000000000000000000 DUP2 MSTORE POP SWAP1 POP PUSH2 0xC8A JUMP JUMPDEST PUSH1 0x0 DUP3 SWAP1 POP PUSH1 0x0 JUMPDEST PUSH1 0x0 DUP3 EQ PUSH2 0xBA8 JUMPI DUP1 DUP1 PUSH2 0xB91 SWAP1 PUSH2 0x1753 JUMP JUMPDEST SWAP2 POP POP PUSH1 0xA DUP3 PUSH2 0xBA1 SWAP2 SWAP1 PUSH2 0x15E5 JUMP JUMPDEST SWAP2 POP PUSH2 0xB7E JUMP JUMPDEST PUSH1 0x0 DUP2 PUSH8 0xFFFFFFFFFFFFFFFF DUP2 GT ISZERO PUSH2 0xBC4 JUMPI PUSH2 0xBC3 PUSH2 0x1889 JUMP JUMPDEST JUMPDEST PUSH1 0x40 MLOAD SWAP1 DUP1 DUP3 MSTORE DUP1 PUSH1 0x1F ADD PUSH1 0x1F NOT AND PUSH1 0x20 ADD DUP3 ADD PUSH1 0x40 MSTORE DUP1 ISZERO PUSH2 0xBF6 JUMPI DUP2 PUSH1 0x20 ADD PUSH1 0x1 DUP3 MUL DUP1 CALLDATASIZE DUP4 CALLDATACOPY DUP1 DUP3 ADD SWAP2 POP POP SWAP1 POP JUMPDEST POP SWAP1 POP JUMPDEST PUSH1 0x0 DUP6 EQ PUSH2 0xC83 JUMPI PUSH1 0x1 DUP3 PUSH2 0xC0F SWAP2 SWAP1 PUSH2 0x1670 JUMP JUMPDEST SWAP2 POP PUSH1 0xA DUP6 PUSH2 0xC1E SWAP2 SWAP1 PUSH2 0x179C JUMP JUMPDEST PUSH1 0x30 PUSH2 0xC2A SWAP2 SWAP1 PUSH2 0x158F JUMP JUMPDEST PUSH1 0xF8 SHL DUP2 DUP4 DUP2 MLOAD DUP2 LT PUSH2 0xC40 JUMPI PUSH2 0xC3F PUSH2 0x185A JUMP JUMPDEST JUMPDEST PUSH1 0x20 ADD ADD SWAP1 PUSH31 0xFFFFFFFFFFFFFFFFFFFFFFFFFFFFFFFFFFFFFFFFFFFFFFFFFFFFFFFFFFFFFF NOT AND SWAP1 DUP2 PUSH1 0x0 BYTE SWAP1 MSTORE8 POP PUSH1 0xA DUP6 PUSH2 0xC7C SWAP2 SWAP1 PUSH2 0x15E5 JUMP JUMPDEST SWAP5 POP PUSH2 0xBFA JUMP JUMPDEST DUP1 SWAP4 POP POP POP POP JUMPDEST SWAP2 SWAP1 POP JUMP JUMPDEST PUSH1 0x0 DUP1 DUP3 DUP5 PUSH2 0xC9E SWAP2 SWAP1 PUSH2 0x179C JUMP JUMPDEST EQ PUSH2 0xCAA JUMPI PUSH1 0x1 PUSH2 0xCAD JUMP JUMPDEST PUSH1 0x0 JUMPDEST PUSH1 0xFF AND DUP3 DUP5 PUSH2 0xCBC SWAP2 SWAP1 PUSH2 0x15E5 JUMP JUMPDEST PUSH2 0xCC6 SWAP2 SWAP1 PUSH2 0x158F JUMP JUMPDEST SWAP1 POP SWAP3 SWAP2 POP POP JUMP JUMPDEST DUP3 DUP1 SLOAD PUSH2 0xCDA SWAP1 PUSH2 0x16F0 JUMP JUMPDEST SWAP1 PUSH1 0x0 MSTORE PUSH1 0x20 PUSH1 0x0 KECCAK256 SWAP1 PUSH1 0x1F ADD PUSH1 0x20 SWAP1 DIV DUP2 ADD SWAP3 DUP3 PUSH2 0xCFC JUMPI PUSH1 0x0 DUP6 SSTORE PUSH2 0xD43 JUMP JUMPDEST DUP3 PUSH1 0x1F LT PUSH2 0xD15 JUMPI DUP1 MLOAD PUSH1 0xFF NOT AND DUP4 DUP1 ADD OR DUP6 SSTORE PUSH2 0xD43 JUMP JUMPDEST DUP3 DUP1 ADD PUSH1 0x1 ADD DUP6 SSTORE DUP3 ISZERO PUSH2 0xD43 JUMPI SWAP2 DUP3 ADD JUMPDEST DUP3 DUP2 GT ISZERO PUSH2 0xD42 JUMPI DUP3 MLOAD DUP3 SSTORE SWAP2 PUSH1 0x20 ADD SWAP2 SWAP1 PUSH1 0x1 ADD SWAP1 PUSH2 0xD27 JUMP JUMPDEST JUMPDEST POP SWAP1 POP PUSH2 0xD50 SWAP2 SWAP1 PUSH2 0xD54 JUMP JUMPDEST POP SWAP1 JUMP JUMPDEST JUMPDEST DUP1 DUP3 GT ISZERO PUSH2 0xD6D JUMPI PUSH1 0x0 DUP2 PUSH1 0x0 SWAP1 SSTORE POP PUSH1 0x1 ADD PUSH2 0xD55 JUMP JUMPDEST POP SWAP1 JUMP JUMPDEST PUSH1 0x0 PUSH2 0xD84 PUSH2 0xD7F DUP5 PUSH2 0x1521 JUMP JUMPDEST PUSH2 0x14FC JUMP JUMPDEST SWAP1 POP DUP3 DUP2 MSTORE PUSH1 0x20 DUP2 ADD DUP5 DUP5 DUP5 ADD GT ISZERO PUSH2 0xDA0 JUMPI PUSH2 0xD9F PUSH2 0x18BD JUMP JUMPDEST JUMPDEST PUSH2 0xDAB DUP5 DUP3 DUP6 PUSH2 0x16AE JUMP JUMPDEST POP SWAP4 SWAP3 POP POP POP JUMP JUMPDEST PUSH1 0x0 DUP3 PUSH1 0x1F DUP4 ADD SLT PUSH2 0xDC8 JUMPI PUSH2 0xDC7 PUSH2 0x18B8 JUMP JUMPDEST JUMPDEST DUP2 CALLDATALOAD PUSH2 0xDD8 DUP5 DUP3 PUSH1 0x20 DUP7 ADD PUSH2 0xD71 JUMP JUMPDEST SWAP2 POP POP SWAP3 SWAP2 POP POP JUMP JUMPDEST PUSH1 0x0 DUP2 CALLDATALOAD SWAP1 POP PUSH2 0xDF0 DUP2 PUSH2 0x1B0C JUMP JUMPDEST SWAP3 SWAP2 POP POP JUMP JUMPDEST PUSH1 0x0 DUP1 PUSH1 0x40 DUP4 DUP6 SUB SLT ISZERO PUSH2 0xE0D JUMPI PUSH2 0xE0C PUSH2 0x18C7 JUMP JUMPDEST JUMPDEST PUSH1 0x0 DUP4 ADD CALLDATALOAD PUSH8 0xFFFFFFFFFFFFFFFF DUP2 GT ISZERO PUSH2 0xE2B JUMPI PUSH2 0xE2A PUSH2 0x18C2 JUMP JUMPDEST JUMPDEST PUSH2 0xE37 DUP6 DUP3 DUP7 ADD PUSH2 0xDB3 JUMP JUMPDEST SWAP3 POP POP PUSH1 0x20 DUP4 ADD CALLDATALOAD PUSH8 0xFFFFFFFFFFFFFFFF DUP2 GT ISZERO PUSH2 0xE58 JUMPI PUSH2 0xE57 PUSH2 0x18C2 JUMP JUMPDEST JUMPDEST PUSH2 0xE64 DUP6 DUP3 DUP7 ADD PUSH2 0xDB3 JUMP JUMPDEST SWAP2 POP POP SWAP3 POP SWAP3 SWAP1 POP JUMP JUMPDEST PUSH1 0x0 PUSH1 0x20 DUP3 DUP5 SUB SLT ISZERO PUSH2 0xE84 JUMPI PUSH2 0xE83 PUSH2 0x18C7 JUMP JUMPDEST JUMPDEST PUSH1 0x0 PUSH2 0xE92 DUP5 DUP3 DUP6 ADD PUSH2 0xDE1 JUMP JUMPDEST SWAP2 POP POP SWAP3 SWAP2 POP POP JUMP JUMPDEST PUSH1 0x0 DUP1 PUSH1 0x40 DUP4 DUP6 SUB SLT ISZERO PUSH2 0xEB2 JUMPI PUSH2 0xEB1 PUSH2 0x18C7 JUMP JUMPDEST JUMPDEST PUSH1 0x0 PUSH2 0xEC0 DUP6 DUP3 DUP7 ADD PUSH2 0xDE1 JUMP JUMPDEST SWAP3 POP POP PUSH1 0x20 PUSH2 0xED1 DUP6 DUP3 DUP7 ADD PUSH2 0xDE1 JUMP JUMPDEST SWAP2 POP POP SWAP3 POP SWAP3 SWAP1 POP JUMP JUMPDEST PUSH1 0x0 PUSH2 0xEE6 DUP3 PUSH2 0x1552 JUMP JUMPDEST PUSH2 0xEF0 DUP2 DUP6 PUSH2 0x1568 JUMP JUMPDEST SWAP4 POP PUSH2 0xF00 DUP2 DUP6 PUSH1 0x20 DUP7 ADD PUSH2 0x16BD JUMP JUMPDEST DUP1 DUP5 ADD SWAP2 POP POP SWAP3 SWAP2 POP POP JUMP JUMPDEST PUSH1 0x0 PUSH2 0xF17 DUP3 PUSH2 0x155D JUMP JUMPDEST PUSH2 0xF21 DUP2 DUP6 PUSH2 0x1573 JUMP JUMPDEST SWAP4 POP PUSH2 0xF31 DUP2 DUP6 PUSH1 0x20 DUP7 ADD PUSH2 0x16BD JUMP JUMPDEST PUSH2 0xF3A DUP2 PUSH2 0x18CC JUMP JUMPDEST DUP5 ADD SWAP2 POP POP SWAP3 SWAP2 POP POP JUMP JUMPDEST PUSH1 0x0 PUSH2 0xF50 DUP3 PUSH2 0x155D JUMP JUMPDEST PUSH2 0xF5A DUP2 DUP6 PUSH2 0x1584 JUMP JUMPDEST SWAP4 POP PUSH2 0xF6A DUP2 DUP6 PUSH1 0x20 DUP7 ADD PUSH2 0x16BD JUMP JUMPDEST DUP1 DUP5 ADD SWAP2 POP POP SWAP3 SWAP2 POP POP JUMP JUMPDEST PUSH1 0x0 PUSH2 0xF83 PUSH1 0x34 DUP4 PUSH2 0x1584 JUMP JUMPDEST SWAP2 POP PUSH2 0xF8E DUP3 PUSH2 0x18DD JUMP JUMPDEST PUSH1 0x34 DUP3 ADD SWAP1 POP SWAP2 SWAP1 POP JUMP JUMPDEST PUSH1 0x0 PUSH2 0xFA6 PUSH1 0x36 DUP4 PUSH2 0x1584 JUMP JUMPDEST SWAP2 POP PUSH2 0xFB1 DUP3 PUSH2 0x192C JUMP JUMPDEST PUSH1 0x36 DUP3 ADD SWAP1 POP SWAP2 SWAP1 POP JUMP JUMPDEST PUSH1 0x0 PUSH2 0xFC9 PUSH1 0x1 DUP4 PUSH2 0x1584 JUMP JUMPDEST SWAP2 POP PUSH2 0xFD4 DUP3 PUSH2 0x197B JUMP JUMPDEST PUSH1 0x1 DUP3 ADD SWAP1 POP SWAP2 SWAP1 POP JUMP JUMPDEST PUSH1 0x0 PUSH2 0xFEC PUSH1 0x1 DUP4 PUSH2 0x1584 JUMP JUMPDEST SWAP2 POP PUSH2 0xFF7 DUP3 PUSH2 0x19A4 JUMP JUMPDEST PUSH1 0x1 DUP3 ADD SWAP1 POP SWAP2 SWAP1 POP JUMP JUMPDEST PUSH1 0x0 PUSH2 0x100F PUSH1 0x4 DUP4 PUSH2 0x1584 JUMP JUMPDEST SWAP2 POP PUSH2 0x101A DUP3 PUSH2 0x19CD JUMP JUMPDEST PUSH1 0x4 DUP3 ADD SWAP1 POP SWAP2 SWAP1 POP JUMP JUMPDEST PUSH1 0x0 PUSH2 0x1032 PUSH1 0x38 DUP4 PUSH2 0x1584 JUMP JUMPDEST SWAP2 POP PUSH2 0x103D DUP3 PUSH2 0x19F6 JUMP JUMPDEST PUSH1 0x38 DUP3 ADD SWAP1 POP SWAP2 SWAP1 POP JUMP JUMPDEST PUSH1 0x0 PUSH2 0x1055 PUSH1 0x36 DUP4 PUSH2 0x1584 JUMP JUMPDEST SWAP2 POP PUSH2 0x1060 DUP3 PUSH2 0x1A45 JUMP JUMPDEST PUSH1 0x36 DUP3 ADD SWAP1 POP SWAP2 SWAP1 POP JUMP JUMPDEST PUSH1 0x0 PUSH2 0x1078 PUSH1 0x16 DUP4 PUSH2 0x1584 JUMP JUMPDEST SWAP2 POP PUSH2 0x1083 DUP3 PUSH2 0x1A94 JUMP JUMPDEST PUSH1 0x16 DUP3 ADD SWAP1 POP SWAP2 SWAP1 POP JUMP JUMPDEST PUSH1 0x0 PUSH2 0x109B PUSH1 0x35 DUP4 PUSH2 0x1584 JUMP JUMPDEST SWAP2 POP PUSH2 0x10A6 DUP3 PUSH2 0x1ABD JUMP JUMPDEST PUSH1 0x35 DUP3 ADD SWAP1 POP SWAP2 SWAP1 POP JUMP JUMPDEST PUSH2 0x10BA DUP2 PUSH2 0x16A4 JUMP JUMPDEST DUP3 MSTORE POP POP JUMP JUMPDEST PUSH1 0x0 PUSH2 0x10CC DUP3 DUP8 PUSH2 0xEDB JUMP JUMPDEST SWAP2 POP PUSH2 0x10D7 DUP3 PUSH2 0x106B JUMP JUMPDEST SWAP2 POP PUSH2 0x10E3 DUP3 DUP7 PUSH2 0xF45 JUMP JUMPDEST SWAP2 POP PUSH2 0x10EE DUP3 PUSH2 0xFBC JUMP JUMPDEST SWAP2 POP PUSH2 0x10FA DUP3 DUP6 PUSH2 0xF45 JUMP JUMPDEST SWAP2 POP PUSH2 0x1105 DUP3 PUSH2 0x1025 JUMP JUMPDEST SWAP2 POP PUSH2 0x1111 DUP3 DUP5 PUSH2 0xF45 JUMP JUMPDEST SWAP2 POP PUSH2 0x111C DUP3 PUSH2 0x1002 JUMP JUMPDEST SWAP2 POP DUP2 SWAP1 POP SWAP6 SWAP5 POP POP POP POP POP JUMP JUMPDEST PUSH1 0x0 PUSH2 0x1136 DUP3 DUP6 PUSH2 0xF45 JUMP JUMPDEST SWAP2 POP PUSH2 0x1141 DUP3 PUSH2 0xFDF JUMP JUMPDEST SWAP2 POP PUSH2 0x114D DUP3 DUP5 PUSH2 0xF45 JUMP JUMPDEST SWAP2 POP DUP2 SWAP1 POP SWAP4 SWAP3 POP POP POP JUMP JUMPDEST PUSH1 0x0 PUSH2 0x1164 DUP3 PUSH2 0x106B JUMP JUMPDEST SWAP2 POP PUSH2 0x1170 DUP3 DUP7 PUSH2 0xF45 JUMP JUMPDEST SWAP2 POP PUSH2 0x117B DUP3 PUSH2 0xFBC JUMP JUMPDEST SWAP2 POP PUSH2 0x1187 DUP3 DUP6 PUSH2 0xF45 JUMP JUMPDEST SWAP2 POP PUSH2 0x1192 DUP3 PUSH2 0x108E JUMP JUMPDEST SWAP2 POP PUSH2 0x119E DUP3 DUP5 PUSH2 0xF45 JUMP JUMPDEST SWAP2 POP PUSH2 0x11A9 DUP3 PUSH2 0x1002 JUMP JUMPDEST SWAP2 POP DUP2 SWAP1 POP SWAP5 SWAP4 POP POP POP POP JUMP JUMPDEST PUSH1 0x0 PUSH2 0x11C1 DUP3 PUSH2 0x106B JUMP JUMPDEST SWAP2 POP PUSH2 0x11CD DUP3 DUP10 PUSH2 0xF45 JUMP JUMPDEST SWAP2 POP PUSH2 0x11D8 DUP3 PUSH2 0xFBC JUMP JUMPDEST SWAP2 POP PUSH2 0x11E4 DUP3 DUP9 PUSH2 0xF45 JUMP JUMPDEST SWAP2 POP PUSH2 0x11EF DUP3 PUSH2 0x108E JUMP JUMPDEST SWAP2 POP PUSH2 0x11FB DUP3 DUP8 PUSH2 0xF45 JUMP JUMPDEST SWAP2 POP PUSH2 0x1206 DUP3 PUSH2 0x1002 JUMP JUMPDEST SWAP2 POP PUSH2 0x1211 DUP3 PUSH2 0x106B JUMP JUMPDEST SWAP2 POP PUSH2 0x121D DUP3 DUP7 PUSH2 0xF45 JUMP JUMPDEST SWAP2 POP PUSH2 0x1228 DUP3 PUSH2 0xFBC JUMP JUMPDEST SWAP2 POP PUSH2 0x1234 DUP3 DUP6 PUSH2 0xF45 JUMP JUMPDEST SWAP2 POP PUSH2 0x123F DUP3 PUSH2 0xF99 JUMP JUMPDEST SWAP2 POP PUSH2 0x124B DUP3 DUP5 PUSH2 0xF45 JUMP JUMPDEST SWAP2 POP PUSH2 0x1256 DUP3 PUSH2 0x1002 JUMP JUMPDEST SWAP2 POP DUP2 SWAP1 POP SWAP8 SWAP7 POP POP POP POP POP POP POP JUMP JUMPDEST PUSH1 0x0 PUSH2 0x1271 DUP3 PUSH2 0x106B JUMP JUMPDEST SWAP2 POP PUSH2 0x127D DUP3 DUP13 PUSH2 0xF45 JUMP JUMPDEST SWAP2 POP PUSH2 0x1288 DUP3 PUSH2 0xFBC JUMP JUMPDEST SWAP2 POP PUSH2 0x1294 DUP3 DUP12 PUSH2 0xF45 JUMP JUMPDEST SWAP2 POP PUSH2 0x129F DUP3 PUSH2 0x108E JUMP JUMPDEST SWAP2 POP PUSH2 0x12AB DUP3 DUP11 PUSH2 0xF45 JUMP JUMPDEST SWAP2 POP PUSH2 0x12B6 DUP3 PUSH2 0x1002 JUMP JUMPDEST SWAP2 POP PUSH2 0x12C1 DUP3 PUSH2 0x106B JUMP JUMPDEST SWAP2 POP PUSH2 0x12CD DUP3 DUP10 PUSH2 0xF45 JUMP JUMPDEST SWAP2 POP PUSH2 0x12D8 DUP3 PUSH2 0xFBC JUMP JUMPDEST SWAP2 POP PUSH2 0x12E4 DUP3 DUP9 PUSH2 0xF45 JUMP JUMPDEST SWAP2 POP PUSH2 0x12EF DUP3 PUSH2 0xF99 JUMP JUMPDEST SWAP2 POP PUSH2 0x12FB DUP3 DUP8 PUSH2 0xF45 JUMP JUMPDEST SWAP2 POP PUSH2 0x1306 DUP3 PUSH2 0x1002 JUMP JUMPDEST SWAP2 POP PUSH2 0x1311 DUP3 PUSH2 0x106B JUMP JUMPDEST SWAP2 POP PUSH2 0x131D DUP3 DUP7 PUSH2 0xF45 JUMP JUMPDEST SWAP2 POP PUSH2 0x1328 DUP3 PUSH2 0xFBC JUMP JUMPDEST SWAP2 POP PUSH2 0x1334 DUP3 DUP6 PUSH2 0xF45 JUMP JUMPDEST SWAP2 POP PUSH2 0x133F DUP3 PUSH2 0x1048 JUMP JUMPDEST SWAP2 POP PUSH2 0x134B DUP3 DUP5 PUSH2 0xF45 JUMP JUMPDEST SWAP2 POP PUSH2 0x1356 DUP3 PUSH2 0x1002 JUMP JUMPDEST SWAP2 POP DUP2 SWAP1 POP SWAP11 SWAP10 POP POP POP POP POP POP POP POP POP POP JUMP JUMPDEST PUSH1 0x0 PUSH2 0x1374 DUP3 PUSH2 0x106B JUMP JUMPDEST SWAP2 POP PUSH2 0x1380 DUP3 DUP16 PUSH2 0xF45 JUMP JUMPDEST SWAP2 POP PUSH2 0x138B DUP3 PUSH2 0xFBC JUMP JUMPDEST SWAP2 POP PUSH2 0x1397 DUP3 DUP15 PUSH2 0xF45 JUMP JUMPDEST SWAP2 POP PUSH2 0x13A2 DUP3 PUSH2 0x108E JUMP JUMPDEST SWAP2 POP PUSH2 0x13AE DUP3 DUP14 PUSH2 0xF45 JUMP JUMPDEST SWAP2 POP PUSH2 0x13B9 DUP3 PUSH2 0x1002 JUMP JUMPDEST SWAP2 POP PUSH2 0x13C4 DUP3 PUSH2 0x106B JUMP JUMPDEST SWAP2 POP PUSH2 0x13D0 DUP3 DUP13 PUSH2 0xF45 JUMP JUMPDEST SWAP2 POP PUSH2 0x13DB DUP3 PUSH2 0xFBC JUMP JUMPDEST SWAP2 POP PUSH2 0x13E7 DUP3 DUP12 PUSH2 0xF45 JUMP JUMPDEST SWAP2 POP PUSH2 0x13F2 DUP3 PUSH2 0xF99 JUMP JUMPDEST SWAP2 POP PUSH2 0x13FE DUP3 DUP11 PUSH2 0xF45 JUMP JUMPDEST SWAP2 POP PUSH2 0x1409 DUP3 PUSH2 0x1002 JUMP JUMPDEST SWAP2 POP PUSH2 0x1414 DUP3 PUSH2 0x106B JUMP JUMPDEST SWAP2 POP PUSH2 0x1420 DUP3 DUP10 PUSH2 0xF45 JUMP JUMPDEST SWAP2 POP PUSH2 0x142B DUP3 PUSH2 0xFBC JUMP JUMPDEST SWAP2 POP PUSH2 0x1437 DUP3 DUP9 PUSH2 0xF45 JUMP JUMPDEST SWAP2 POP PUSH2 0x1442 DUP3 PUSH2 0x1048 JUMP JUMPDEST SWAP2 POP PUSH2 0x144E DUP3 DUP8 PUSH2 0xF45 JUMP JUMPDEST SWAP2 POP PUSH2 0x1459 DUP3 PUSH2 0x1002 JUMP JUMPDEST SWAP2 POP PUSH2 0x1464 DUP3 PUSH2 0x106B JUMP JUMPDEST SWAP2 POP PUSH2 0x1470 DUP3 DUP7 PUSH2 0xF45 JUMP JUMPDEST SWAP2 POP PUSH2 0x147B DUP3 PUSH2 0xFBC JUMP JUMPDEST SWAP2 POP PUSH2 0x1487 DUP3 DUP6 PUSH2 0xF45 JUMP JUMPDEST SWAP2 POP PUSH2 0x1492 DUP3 PUSH2 0xF76 JUMP JUMPDEST SWAP2 POP PUSH2 0x149E DUP3 DUP5 PUSH2 0xF45 JUMP JUMPDEST SWAP2 POP PUSH2 0x14A9 DUP3 PUSH2 0x1002 JUMP JUMPDEST SWAP2 POP DUP2 SWAP1 POP SWAP14 SWAP13 POP POP POP POP POP POP POP POP POP POP POP POP POP JUMP JUMPDEST PUSH1 0x0 PUSH1 0x20 DUP3 ADD SWAP1 POP DUP2 DUP2 SUB PUSH1 0x0 DUP4 ADD MSTORE PUSH2 0x14D9 DUP2 DUP5 PUSH2 0xF0C JUMP JUMPDEST SWAP1 POP SWAP3 SWAP2 POP POP JUMP JUMPDEST PUSH1 0x0 PUSH1 0x20 DUP3 ADD SWAP1 POP PUSH2 0x14F6 PUSH1 0x0 DUP4 ADD DUP5 PUSH2 0x10B1 JUMP JUMPDEST SWAP3 SWAP2 POP POP JUMP JUMPDEST PUSH1 0x0 PUSH2 0x1506 PUSH2 0x1517 JUMP JUMPDEST SWAP1 POP PUSH2 0x1512 DUP3 DUP3 PUSH2 0x1722 JUMP JUMPDEST SWAP2 SWAP1 POP JUMP JUMPDEST PUSH1 0x0 PUSH1 0x40 MLOAD SWAP1 POP SWAP1 JUMP JUMPDEST PUSH1 0x0 PUSH8 0xFFFFFFFFFFFFFFFF DUP3 GT ISZERO PUSH2 0x153C JUMPI PUSH2 0x153B PUSH2 0x1889 JUMP JUMPDEST JUMPDEST PUSH2 0x1545 DUP3 PUSH2 0x18CC JUMP JUMPDEST SWAP1 POP PUSH1 0x20 DUP2 ADD SWAP1 POP SWAP2 SWAP1 POP JUMP JUMPDEST PUSH1 0x0 DUP2 MLOAD SWAP1 POP SWAP2 SWAP1 POP JUMP JUMPDEST PUSH1 0x0 DUP2 MLOAD SWAP1 POP SWAP2 SWAP1 POP JUMP JUMPDEST PUSH1 0x0 DUP2 SWAP1 POP SWAP3 SWAP2 POP POP JUMP JUMPDEST PUSH1 0x0 DUP3 DUP3 MSTORE PUSH1 0x20 DUP3 ADD SWAP1 POP SWAP3 SWAP2 POP POP JUMP JUMPDEST PUSH1 0x0 DUP2 SWAP1 POP SWAP3 SWAP2 POP POP JUMP JUMPDEST PUSH1 0x0 PUSH2 0x159A DUP3 PUSH2 0x16A4 JUMP JUMPDEST SWAP2 POP PUSH2 0x15A5 DUP4 PUSH2 0x16A4 JUMP JUMPDEST SWAP3 POP DUP3 PUSH32 0xFFFFFFFFFFFFFFFFFFFFFFFFFFFFFFFFFFFFFFFFFFFFFFFFFFFFFFFFFFFFFFFF SUB DUP3 GT ISZERO PUSH2 0x15DA JUMPI PUSH2 0x15D9 PUSH2 0x17CD JUMP JUMPDEST JUMPDEST DUP3 DUP3 ADD SWAP1 POP SWAP3 SWAP2 POP POP JUMP JUMPDEST PUSH1 0x0 PUSH2 0x15F0 DUP3 PUSH2 0x16A4 JUMP JUMPDEST SWAP2 POP PUSH2 0x15FB DUP4 PUSH2 0x16A4 JUMP JUMPDEST SWAP3 POP DUP3 PUSH2 0x160B JUMPI PUSH2 0x160A PUSH2 0x17FC JUMP JUMPDEST JUMPDEST DUP3 DUP3 DIV SWAP1 POP SWAP3 SWAP2 POP POP JUMP JUMPDEST PUSH1 0x0 PUSH2 0x1621 DUP3 PUSH2 0x16A4 JUMP JUMPDEST SWAP2 POP PUSH2 0x162C DUP4 PUSH2 0x16A4 JUMP JUMPDEST SWAP3 POP DUP2 PUSH32 0xFFFFFFFFFFFFFFFFFFFFFFFFFFFFFFFFFFFFFFFFFFFFFFFFFFFFFFFFFFFFFFFF DIV DUP4 GT DUP3 ISZERO ISZERO AND ISZERO PUSH2 0x1665 JUMPI PUSH2 0x1664 PUSH2 0x17CD JUMP JUMPDEST JUMPDEST DUP3 DUP3 MUL SWAP1 POP SWAP3 SWAP2 POP POP JUMP JUMPDEST PUSH1 0x0 PUSH2 0x167B DUP3 PUSH2 0x16A4 JUMP JUMPDEST SWAP2 POP PUSH2 0x1686 DUP4 PUSH2 0x16A4 JUMP JUMPDEST SWAP3 POP DUP3 DUP3 LT ISZERO PUSH2 0x1699 JUMPI PUSH2 0x1698 PUSH2 0x17CD JUMP JUMPDEST JUMPDEST DUP3 DUP3 SUB SWAP1 POP SWAP3 SWAP2 POP POP JUMP JUMPDEST PUSH1 0x0 DUP2 SWAP1 POP SWAP2 SWAP1 POP JUMP JUMPDEST DUP3 DUP2 DUP4 CALLDATACOPY PUSH1 0x0 DUP4 DUP4 ADD MSTORE POP POP POP JUMP JUMPDEST PUSH1 0x0 JUMPDEST DUP4 DUP2 LT ISZERO PUSH2 0x16DB JUMPI DUP1 DUP3 ADD MLOAD DUP2 DUP5 ADD MSTORE PUSH1 0x20 DUP2 ADD SWAP1 POP PUSH2 0x16C0 JUMP JUMPDEST DUP4 DUP2 GT ISZERO PUSH2 0x16EA JUMPI PUSH1 0x0 DUP5 DUP5 ADD MSTORE JUMPDEST POP POP POP POP JUMP JUMPDEST PUSH1 0x0 PUSH1 0x2 DUP3 DIV SWAP1 POP PUSH1 0x1 DUP3 AND DUP1 PUSH2 0x1708 JUMPI PUSH1 0x7F DUP3 AND SWAP2 POP JUMPDEST PUSH1 0x20 DUP3 LT DUP2 EQ ISZERO PUSH2 0x171C JUMPI PUSH2 0x171B PUSH2 0x182B JUMP JUMPDEST JUMPDEST POP SWAP2 SWAP1 POP JUMP JUMPDEST PUSH2 0x172B DUP3 PUSH2 0x18CC JUMP JUMPDEST DUP2 ADD DUP2 DUP2 LT PUSH8 0xFFFFFFFFFFFFFFFF DUP3 GT OR ISZERO PUSH2 0x174A JUMPI PUSH2 0x1749 PUSH2 0x1889 JUMP JUMPDEST JUMPDEST DUP1 PUSH1 0x40 MSTORE POP POP POP JUMP JUMPDEST PUSH1 0x0 PUSH2 0x175E DUP3 PUSH2 0x16A4 JUMP JUMPDEST SWAP2 POP PUSH32 0xFFFFFFFFFFFFFFFFFFFFFFFFFFFFFFFFFFFFFFFFFFFFFFFFFFFFFFFFFFFFFFFF DUP3 EQ ISZERO PUSH2 0x1791 JUMPI PUSH2 0x1790 PUSH2 0x17CD JUMP JUMPDEST JUMPDEST PUSH1 0x1 DUP3 ADD SWAP1 POP SWAP2 SWAP1 POP JUMP JUMPDEST PUSH1 0x0 PUSH2 0x17A7 DUP3 PUSH2 0x16A4 JUMP JUMPDEST SWAP2 POP PUSH2 0x17B2 DUP4 PUSH2 0x16A4 JUMP JUMPDEST SWAP3 POP DUP3 PUSH2 0x17C2 JUMPI PUSH2 0x17C1 PUSH2 0x17FC JUMP JUMPDEST JUMPDEST DUP3 DUP3 MOD SWAP1 POP SWAP3 SWAP2 POP POP JUMP JUMPDEST PUSH32 0x4E487B7100000000000000000000000000000000000000000000000000000000 PUSH1 0x0 MSTORE PUSH1 0x11 PUSH1 0x4 MSTORE PUSH1 0x24 PUSH1 0x0 REVERT JUMPDEST PUSH32 0x4E487B7100000000000000000000000000000000000000000000000000000000 PUSH1 0x0 MSTORE PUSH1 0x12 PUSH1 0x4 MSTORE PUSH1 0x24 PUSH1 0x0 REVERT JUMPDEST PUSH32 0x4E487B7100000000000000000000000000000000000000000000000000000000 PUSH1 0x0 MSTORE PUSH1 0x22 PUSH1 0x4 MSTORE PUSH1 0x24 PUSH1 0x0 REVERT JUMPDEST PUSH32 0x4E487B7100000000000000000000000000000000000000000000000000000000 PUSH1 0x0 MSTORE PUSH1 0x32 PUSH1 0x4 MSTORE PUSH1 0x24 PUSH1 0x0 REVERT JUMPDEST PUSH32 0x4E487B7100000000000000000000000000000000000000000000000000000000 PUSH1 0x0 MSTORE PUSH1 0x41 PUSH1 0x4 MSTORE PUSH1 0x24 PUSH1 0x0 REVERT JUMPDEST PUSH1 0x0 DUP1 REVERT JUMPDEST PUSH1 0x0 DUP1 REVERT JUMPDEST PUSH1 0x0 DUP1 REVERT JUMPDEST PUSH1 0x0 DUP1 REVERT JUMPDEST PUSH1 0x0 PUSH1 0x1F NOT PUSH1 0x1F DUP4 ADD AND SWAP1 POP SWAP2 SWAP1 POP JUMP JUMPDEST PUSH32 0x2763302C302C302E36332C3231392E312C352E372C3330302E37382720737479 PUSH1 0x0 DUP3 ADD MSTORE PUSH32 0x6C653D277472616E73666F726D3A7363616C6528000000000000000000000000 PUSH1 0x20 DUP3 ADD MSTORE POP JUMP JUMPDEST PUSH32 0x63302C302D382E34332C3230382E37332C31332E36312C3238302E3639272073 PUSH1 0x0 DUP3 ADD MSTORE PUSH32 0x74796C653D277472616E73666F726D3A7363616C652800000000000000000000 PUSH1 0x20 DUP3 ADD MSTORE POP JUMP JUMPDEST PUSH32 0x2C00000000000000000000000000000000000000000000000000000000000000 PUSH1 0x0 DUP3 ADD MSTORE POP JUMP JUMPDEST PUSH32 0x2000000000000000000000000000000000000000000000000000000000000000 PUSH1 0x0 DUP3 ADD MSTORE POP JUMP JUMPDEST PUSH32 0x29272F3E00000000000000000000000000000000000000000000000000000000 PUSH1 0x0 DUP3 ADD MSTORE POP JUMP JUMPDEST PUSH32 0x2763302C302C31322E39362D37382E34342C3335352E38382D3135322E333427 PUSH1 0x0 DUP3 ADD MSTORE PUSH32 0x207374796C653D277472616E73666F726D3A7363616C65280000000000000000 PUSH1 0x20 DUP3 ADD MSTORE POP JUMP JUMPDEST PUSH32 0x63302C302D31302E31312C3139312E32332C382E36382C3236352E3133272073 PUSH1 0x0 DUP3 ADD MSTORE PUSH32 0x74796C653D277472616E73666F726D3A7363616C652800000000000000000000 PUSH1 0x20 DUP3 ADD MSTORE POP JUMP JUMPDEST PUSH32 0x3C7061746820636C6173733D277374302720643D274D00000000000000000000 PUSH1 0x0 DUP3 ADD MSTORE POP JUMP JUMPDEST PUSH32 0x63302C302D32372E38372C3232312E372D322E35392C3238392E313127207374 PUSH1 0x0 DUP3 ADD MSTORE PUSH32 0x796C653D277472616E73666F726D3A7363616C65280000000000000000000000 PUSH1 0x20 DUP3 ADD MSTORE POP JUMP JUMPDEST PUSH2 0x1B15 DUP2 PUSH2 0x16A4 JUMP JUMPDEST DUP2 EQ PUSH2 0x1B20 JUMPI PUSH1 0x0 DUP1 REVERT JUMPDEST POP JUMP INVALID EXTCODECOPY PUSH20 0x766720786D6C6E733D22687474703A2F2F777777 0x2E PUSH24 0x332E6F72672F323030302F7376672220786D6C6E733A786C PUSH10 0x6E6B3D22687474703A2F 0x2F PUSH24 0x77772E77332E6F72672F313939392F786C696E6B22207665 PUSH19 0x73696F6E3D22312E31222069643D224C617965 PUSH19 0x5F312220783D223070782220793D2230707822 KECCAK256 PUSH23 0x696577426F783D22302030203130323420313032342220 PUSH20 0x74796C653D22656E61626C652D6261636B67726F PUSH22 0x6E643A6E657720302030203130323420313032343B22 KECCAK256 PUSH25 0x6D6C3A73706163653D227072657365727665223E3C7374796C PUSH6 0x20747970653D 0x22 PUSH21 0x6578742F637373223E2E7374307B66696C6C3A6E6F PUSH15 0x653B7374726F6B653A234544323232 CALLVALUE EXTCODESIZE PUSH20 0x74726F6B652D77696474683A32303B7374726F6B PUSH6 0x2D6C696E6563 PUSH2 0x703A PUSH19 0x6F756E643B7374726F6B652D6C696E656A6F69 PUSH15 0x3A726F756E643B7374726F6B652D6D PUSH10 0x7465726C696D69743A31 ADDRESS EXTCODESIZE PUSH30 0x3C2F7374796C653EA2646970667358221220586299D8A91E7FB0866286F5 BALANCE 0x23 0xDE 0xF8 DUP7 0xF9 SWAP14 0xD7 0xE4 PUSH27 0xF52674CE5533D3FF447B64736F6C63430008070033000000000000 "
				},
				"gasEstimates": {
					"creation": {
						"codeDepositCost": "1471800",
						"executionCost": "infinite",
						"totalCost": "infinite"
					},
					"external": {
						"concat(string,string)": "infinite",
						"display_svg1(uint256,uint256)": "infinite",
						"display_svg2(uint256,uint256)": "infinite",
						"display_svg3(uint256,uint256)": "infinite",
						"display_svg4(uint256,uint256)": "infinite",
						"display_svg5(uint256,uint256)": "infinite",
						"get()": "infinite",
						"set(uint256)": "infinite",
						"sqrt(uint256)": "infinite"
					}
				},
				"methodIdentifiers": {
					"concat(string,string)": "89c19ddb",
					"display_svg1(uint256,uint256)": "41c8987c",
					"display_svg2(uint256,uint256)": "10bae567",
					"display_svg3(uint256,uint256)": "2fdb8e25",
					"display_svg4(uint256,uint256)": "d2820241",
					"display_svg5(uint256,uint256)": "eae8ef64",
					"get()": "6d4ce63c",
					"set(uint256)": "60fe47b1",
					"sqrt(uint256)": "677342ce"
				}
			},
			"storageLayout": {
				"storage": [
					{
						"astId": 609,
						"contract": "svg.sol:SimpleStorage",
						"label": "number",
						"offset": 0,
						"slot": "0",
						"type": "t_uint256"
					},
					{
						"astId": 612,
						"contract": "svg.sol:SimpleStorage",
						"label": "component",
						"offset": 0,
						"slot": "1",
						"type": "t_string_storage"
					},
					{
						"astId": 615,
						"contract": "svg.sol:SimpleStorage",
						"label": "svgScale",
						"offset": 0,
						"slot": "2",
						"type": "t_uint256"
					}
				],
				"types": {
					"t_string_storage": {
						"encoding": "bytes",
						"label": "string",
						"numberOfBytes": "32"
					},
					"t_uint256": {
						"encoding": "inplace",
						"label": "uint256",
						"numberOfBytes": "32"
					}
				}
			},
			"userdoc": {
				"kind": "user",
				"methods": {},
				"version": 1
			}
		}
	}
}