{
	"svg.sol": {
		"SimpleStorage": {
			"abi": [
				{
					"inputs": [
						{
							"internalType": "string",
							"name": "a",
							"type": "string"
						},
						{
							"internalType": "string",
							"name": "b",
							"type": "string"
						}
					],
					"name": "concat",
					"outputs": [
						{
							"internalType": "string",
							"name": "",
							"type": "string"
						}
					],
					"stateMutability": "pure",
					"type": "function"
				},
				{
					"inputs": [],
					"name": "get",
					"outputs": [
						{
							"internalType": "string",
							"name": "",
							"type": "string"
						}
					],
					"stateMutability": "view",
					"type": "function"
				},
				{
					"inputs": [
						{
							"internalType": "uint256",
							"name": "n",
							"type": "uint256"
						}
					],
					"name": "set",
					"outputs": [],
					"stateMutability": "nonpayable",
					"type": "function"
				},
				{
					"inputs": [
						{
							"internalType": "uint256",
							"name": "x",
							"type": "uint256"
						}
					],
					"name": "sqrt",
					"outputs": [
						{
							"internalType": "uint256",
							"name": "",
							"type": "uint256"
						}
					],
					"stateMutability": "pure",
					"type": "function"
				}
			],
			"devdoc": {
				"kind": "dev",
				"methods": {},
				"version": 1
			},
			"evm": {
				"assembly": "    /* \"svg.sol\":152:5987  contract SimpleStorage {\r... */\n  mstore(0x40, 0x80)\n    /* \"svg.sol\":196:197  0 */\n  0x00\n    /* \"svg.sol\":184:197  uint number=0 */\n  dup1\n  sstore\n    /* \"svg.sol\":301:302  1 */\n  0x01\n    /* \"svg.sol\":292:302  uint cnt=1 */\n  0x05\n  sstore\n    /* \"svg.sol\":152:5987  contract SimpleStorage {\r... */\n  callvalue\n  dup1\n  iszero\n  tag_1\n  jumpi\n  0x00\n  dup1\n  revert\ntag_1:\n  pop\n  dataSize(sub_0)\n  dup1\n  dataOffset(sub_0)\n  0x00\n  codecopy\n  0x00\n  return\nstop\n\nsub_0: assembly {\n        /* \"svg.sol\":152:5987  contract SimpleStorage {\r... */\n      mstore(0x40, 0x80)\n      callvalue\n      dup1\n      iszero\n      tag_1\n      jumpi\n      0x00\n      dup1\n      revert\n    tag_1:\n      pop\n      jumpi(tag_2, lt(calldatasize, 0x04))\n      shr(0xe0, calldataload(0x00))\n      dup1\n      0x60fe47b1\n      eq\n      tag_3\n      jumpi\n      dup1\n      0x677342ce\n      eq\n      tag_4\n      jumpi\n      dup1\n      0x6d4ce63c\n      eq\n      tag_5\n      jumpi\n      dup1\n      0x89c19ddb\n      eq\n      tag_6\n      jumpi\n    tag_2:\n      0x00\n      dup1\n      revert\n        /* \"svg.sol\":311:378  function set(uint n) public {\r... */\n    tag_3:\n      tag_7\n      0x04\n      dup1\n      calldatasize\n      sub\n      dup2\n      add\n      swap1\n      tag_8\n      swap2\n      swap1\n      tag_9\n      jump\t// in\n    tag_8:\n      tag_10\n      jump\t// in\n    tag_7:\n      stop\n        /* \"svg.sol\":5544:5785  function sqrt(uint x) public pure returns(uint) {\r... */\n    tag_4:\n      tag_11\n      0x04\n      dup1\n      calldatasize\n      sub\n      dup2\n      add\n      swap1\n      tag_12\n      swap2\n      swap1\n      tag_9\n      jump\t// in\n    tag_12:\n      tag_13\n      jump\t// in\n    tag_11:\n      mload(0x40)\n      tag_14\n      swap2\n      swap1\n      tag_15\n      jump\t// in\n    tag_14:\n      mload(0x40)\n      dup1\n      swap2\n      sub\n      swap1\n      return\n        /* \"svg.sol\":386:2021  function get() public view returns (string memory) {\r... */\n    tag_5:\n      tag_16\n      tag_17\n      jump\t// in\n    tag_16:\n      mload(0x40)\n      tag_18\n      swap2\n      swap1\n      tag_19\n      jump\t// in\n    tag_18:\n      mload(0x40)\n      dup1\n      swap2\n      sub\n      swap1\n      return\n        /* \"svg.sol\":5840:5983  function concat(string memory a,string memory b) public pure returns (string memory){\r... */\n    tag_6:\n      tag_20\n      0x04\n      dup1\n      calldatasize\n      sub\n      dup2\n      add\n      swap1\n      tag_21\n      swap2\n      swap1\n      tag_22\n      jump\t// in\n    tag_21:\n      tag_23\n      jump\t// in\n    tag_20:\n      mload(0x40)\n      tag_24\n      swap2\n      swap1\n      tag_19\n      jump\t// in\n    tag_24:\n      mload(0x40)\n      dup1\n      swap2\n      sub\n      swap1\n      return\n        /* \"svg.sol\":311:378  function set(uint n) public {\r... */\n    tag_10:\n        /* \"svg.sol\":367:368  n */\n      dup1\n        /* \"svg.sol\":360:366  number */\n      0x00\n        /* \"svg.sol\":360:368  number=n */\n      dup2\n      swap1\n      sstore\n      pop\n        /* \"svg.sol\":311:378  function set(uint n) public {\r... */\n      pop\n      jump\t// out\n        /* \"svg.sol\":5544:5785  function sqrt(uint x) public pure returns(uint) {\r... */\n    tag_13:\n        /* \"svg.sol\":5586:5590  uint */\n      0x00\n        /* \"svg.sol\":5603:5609  uint z */\n      dup1\n        /* \"svg.sol\":5623:5624  2 */\n      0x02\n        /* \"svg.sol\":5617:5618  1 */\n      0x01\n        /* \"svg.sol\":5613:5614  x */\n      dup5\n        /* \"svg.sol\":5613:5618  x + 1 */\n      tag_27\n      swap2\n      swap1\n      tag_28\n      jump\t// in\n    tag_27:\n        /* \"svg.sol\":5612:5624  (x + 1 ) / 2 */\n      tag_29\n      swap2\n      swap1\n      tag_30\n      jump\t// in\n    tag_29:\n        /* \"svg.sol\":5603:5624  uint z = (x + 1 ) / 2 */\n      swap1\n      pop\n        /* \"svg.sol\":5626:5632  uint y */\n      0x00\n        /* \"svg.sol\":5635:5636  x */\n      dup4\n        /* \"svg.sol\":5626:5636  uint y = x */\n      swap1\n      pop\n        /* \"svg.sol\":5648:5757  while(z < y)\r... */\n    tag_31:\n        /* \"svg.sol\":5658:5659  y */\n      dup1\n        /* \"svg.sol\":5654:5655  z */\n      dup3\n        /* \"svg.sol\":5654:5659  z < y */\n      lt\n        /* \"svg.sol\":5648:5757  while(z < y)\r... */\n      iszero\n      tag_32\n      jumpi\n        /* \"svg.sol\":5698:5699  z */\n      dup2\n        /* \"svg.sol\":5694:5699  y = z */\n      swap1\n      pop\n        /* \"svg.sol\":5739:5740  2 */\n      0x02\n        /* \"svg.sol\":5733:5734  z */\n      dup3\n        /* \"svg.sol\":5729:5730  z */\n      dup4\n        /* \"svg.sol\":5725:5726  x */\n      dup7\n        /* \"svg.sol\":5725:5730  x / z */\n      tag_33\n      swap2\n      swap1\n      tag_30\n      jump\t// in\n    tag_33:\n        /* \"svg.sol\":5725:5734  x / z + z */\n      tag_34\n      swap2\n      swap1\n      tag_28\n      jump\t// in\n    tag_34:\n        /* \"svg.sol\":5723:5740  ( x / z + z ) / 2 */\n      tag_35\n      swap2\n      swap1\n      tag_30\n      jump\t// in\n    tag_35:\n        /* \"svg.sol\":5719:5740  z = ( x / z + z ) / 2 */\n      swap2\n      pop\n        /* \"svg.sol\":5648:5757  while(z < y)\r... */\n      jump(tag_31)\n    tag_32:\n        /* \"svg.sol\":5775:5776  y */\n      dup1\n        /* \"svg.sol\":5768:5776  return y */\n      swap3\n      pop\n      pop\n      pop\n        /* \"svg.sol\":5544:5785  function sqrt(uint x) public pure returns(uint) {\r... */\n      swap2\n      swap1\n      pop\n      jump\t// out\n        /* \"svg.sol\":386:2021  function get() public view returns (string memory) {\r... */\n    tag_17:\n        /* \"svg.sol\":422:435  string memory */\n      0x60\n        /* \"svg.sol\":1015:1042  string memory totalcompnent */\n      0x00\n        /* \"svg.sol\":1045:1054  svgHeader */\n      0x01\n        /* \"svg.sol\":1015:1054  string memory totalcompnent = svgHeader */\n      dup1\n      sload\n      tag_37\n      swap1\n      tag_38\n      jump\t// in\n    tag_37:\n      dup1\n      0x1f\n      add\n      0x20\n      dup1\n      swap2\n      div\n      mul\n      0x20\n      add\n      mload(0x40)\n      swap1\n      dup2\n      add\n      0x40\n      mstore\n      dup1\n      swap3\n      swap2\n      swap1\n      dup2\n      dup2\n      mstore\n      0x20\n      add\n      dup3\n      dup1\n      sload\n      tag_39\n      swap1\n      tag_38\n      jump\t// in\n    tag_39:\n      dup1\n      iszero\n      tag_40\n      jumpi\n      dup1\n      0x1f\n      lt\n      tag_41\n      jumpi\n      0x0100\n      dup1\n      dup4\n      sload\n      div\n      mul\n      dup4\n      mstore\n      swap2\n      0x20\n      add\n      swap2\n      jump(tag_40)\n    tag_41:\n      dup3\n      add\n      swap2\n      swap1\n      0x00\n      mstore\n      keccak256(0x00, 0x20)\n      swap1\n    tag_42:\n      dup2\n      sload\n      dup2\n      mstore\n      swap1\n      0x01\n      add\n      swap1\n      0x20\n      add\n      dup1\n      dup4\n      gt\n      tag_42\n      jumpi\n      dup3\n      swap1\n      sub\n      0x1f\n      and\n      dup3\n      add\n      swap2\n    tag_40:\n      pop\n      pop\n      pop\n      pop\n      pop\n      swap1\n      pop\n        /* \"svg.sol\":1154:1166  uint originX */\n      0x00\n        /* \"svg.sol\":1181:1193  uint originY */\n      dup1\n        /* \"svg.sol\":1208:1222  uint onlineCnt */\n      0x00\n        /* \"svg.sol\":1232:1240  orderDel */\n      sload(0x03)\n        /* \"svg.sol\":1225:1229  1000 */\n      0x03e8\n        /* \"svg.sol\":1225:1240  1000 / orderDel */\n      tag_43\n      swap2\n      swap1\n      tag_30\n      jump\t// in\n    tag_43:\n        /* \"svg.sol\":1208:1240  uint onlineCnt = 1000 / orderDel */\n      swap1\n      pop\n        /* \"svg.sol\":1251:1257  uint i */\n      0x00\n        /* \"svg.sol\":1270:1461  for(i = 0; i < (number / 5); i++) {\r... */\n    tag_44:\n        /* \"svg.sol\":1295:1296  5 */\n      0x05\n        /* \"svg.sol\":1286:1292  number */\n      sload(0x00)\n        /* \"svg.sol\":1286:1296  number / 5 */\n      tag_47\n      swap2\n      swap1\n      tag_30\n      jump\t// in\n    tag_47:\n        /* \"svg.sol\":1281:1282  i */\n      dup2\n        /* \"svg.sol\":1281:1297  i < (number / 5) */\n      lt\n        /* \"svg.sol\":1270:1461  for(i = 0; i < (number / 5); i++) {\r... */\n      iszero\n      tag_45\n      jumpi\n        /* \"svg.sol\":1333:1342  onlineCnt */\n      dup2\n        /* \"svg.sol\":1329:1330  i */\n      dup2\n        /* \"svg.sol\":1329:1342  i % onlineCnt */\n      tag_48\n      swap2\n      swap1\n      tag_49\n      jump\t// in\n    tag_48:\n        /* \"svg.sol\":1319:1342  originX = i % onlineCnt */\n      swap4\n      pop\n        /* \"svg.sol\":1372:1381  onlineCnt */\n      dup2\n        /* \"svg.sol\":1368:1369  i */\n      dup2\n        /* \"svg.sol\":1368:1381  i / onlineCnt */\n      tag_50\n      swap2\n      swap1\n      tag_30\n      jump\t// in\n    tag_50:\n        /* \"svg.sol\":1357:1382  originY = (i / onlineCnt) */\n      swap3\n      pop\n        /* \"svg.sol\":1414:1449  concat(totalcompnent,totalcompnent) */\n      tag_51\n        /* \"svg.sol\":1421:1434  totalcompnent */\n      dup6\n        /* \"svg.sol\":1435:1448  totalcompnent */\n      dup7\n        /* \"svg.sol\":1414:1420  concat */\n      tag_23\n        /* \"svg.sol\":1414:1449  concat(totalcompnent,totalcompnent) */\n      jump\t// in\n    tag_51:\n        /* \"svg.sol\":1399:1449  totalcompnent =concat(totalcompnent,totalcompnent) */\n      swap5\n      pop\n        /* \"svg.sol\":1299:1302  i++ */\n      dup1\n      dup1\n      tag_52\n      swap1\n      tag_53\n      jump\t// in\n    tag_52:\n      swap2\n      pop\n      pop\n        /* \"svg.sol\":1270:1461  for(i = 0; i < (number / 5); i++) {\r... */\n      jump(tag_44)\n    tag_45:\n        /* \"svg.sol\":1487:1496  onlineCnt */\n      dup2\n        /* \"svg.sol\":1483:1484  i */\n      dup2\n        /* \"svg.sol\":1483:1496  i % onlineCnt */\n      tag_54\n      swap2\n      swap1\n      tag_49\n      jump\t// in\n    tag_54:\n        /* \"svg.sol\":1473:1496  originX = i % onlineCnt */\n      swap4\n      pop\n        /* \"svg.sol\":1522:1531  onlineCnt */\n      dup2\n        /* \"svg.sol\":1518:1519  i */\n      dup2\n        /* \"svg.sol\":1518:1531  i / onlineCnt */\n      tag_55\n      swap2\n      swap1\n      tag_30\n      jump\t// in\n    tag_55:\n        /* \"svg.sol\":1507:1532  originY = (i / onlineCnt) */\n      swap3\n      pop\n        /* \"svg.sol\":2000:2013  totalcompnent */\n      dup5\n        /* \"svg.sol\":1993:2013  return totalcompnent */\n      swap6\n      pop\n      pop\n      pop\n      pop\n      pop\n      pop\n        /* \"svg.sol\":386:2021  function get() public view returns (string memory) {\r... */\n      swap1\n      jump\t// out\n        /* \"svg.sol\":5840:5983  function concat(string memory a,string memory b) public pure returns (string memory){\r... */\n    tag_23:\n        /* \"svg.sol\":5910:5923  string memory */\n      0x60\n        /* \"svg.sol\":5966:5967  a */\n      dup3\n        /* \"svg.sol\":5972:5973  b */\n      dup3\n        /* \"svg.sol\":5949:5974  abi.encodePacked(a,' ',b) */\n      add(0x20, mload(0x40))\n      tag_57\n      swap3\n      swap2\n      swap1\n      tag_58\n      jump\t// in\n    tag_57:\n      mload(0x40)\n      0x20\n      dup2\n      dup4\n      sub\n      sub\n      dup2\n      mstore\n      swap1\n      0x40\n      mstore\n        /* \"svg.sol\":5935:5975  return string(abi.encodePacked(a,' ',b)) */\n      swap1\n      pop\n        /* \"svg.sol\":5840:5983  function concat(string memory a,string memory b) public pure returns (string memory){\r... */\n      swap3\n      swap2\n      pop\n      pop\n      jump\t// out\n        /* \"#utility.yul\":7:419   */\n    tag_60:\n        /* \"#utility.yul\":85:90   */\n      0x00\n        /* \"#utility.yul\":110:176   */\n      tag_62\n        /* \"#utility.yul\":126:175   */\n      tag_63\n        /* \"#utility.yul\":168:174   */\n      dup5\n        /* \"#utility.yul\":126:175   */\n      tag_64\n      jump\t// in\n    tag_63:\n        /* \"#utility.yul\":110:176   */\n      tag_65\n      jump\t// in\n    tag_62:\n        /* \"#utility.yul\":101:176   */\n      swap1\n      pop\n        /* \"#utility.yul\":199:205   */\n      dup3\n        /* \"#utility.yul\":192:197   */\n      dup2\n        /* \"#utility.yul\":185:206   */\n      mstore\n        /* \"#utility.yul\":237:241   */\n      0x20\n        /* \"#utility.yul\":230:235   */\n      dup2\n        /* \"#utility.yul\":226:242   */\n      add\n        /* \"#utility.yul\":275:278   */\n      dup5\n        /* \"#utility.yul\":266:272   */\n      dup5\n        /* \"#utility.yul\":261:264   */\n      dup5\n        /* \"#utility.yul\":257:273   */\n      add\n        /* \"#utility.yul\":254:279   */\n      gt\n        /* \"#utility.yul\":251:363   */\n      iszero\n      tag_66\n      jumpi\n        /* \"#utility.yul\":282:361   */\n      tag_67\n      tag_68\n      jump\t// in\n    tag_67:\n        /* \"#utility.yul\":251:363   */\n    tag_66:\n        /* \"#utility.yul\":372:413   */\n      tag_69\n        /* \"#utility.yul\":406:412   */\n      dup5\n        /* \"#utility.yul\":401:404   */\n      dup3\n        /* \"#utility.yul\":396:399   */\n      dup6\n        /* \"#utility.yul\":372:413   */\n      tag_70\n      jump\t// in\n    tag_69:\n        /* \"#utility.yul\":91:419   */\n      pop\n        /* \"#utility.yul\":7:419   */\n      swap4\n      swap3\n      pop\n      pop\n      pop\n      jump\t// out\n        /* \"#utility.yul\":439:779   */\n    tag_71:\n        /* \"#utility.yul\":495:500   */\n      0x00\n        /* \"#utility.yul\":544:547   */\n      dup3\n        /* \"#utility.yul\":537:541   */\n      0x1f\n        /* \"#utility.yul\":529:535   */\n      dup4\n        /* \"#utility.yul\":525:542   */\n      add\n        /* \"#utility.yul\":521:548   */\n      slt\n        /* \"#utility.yul\":511:633   */\n      tag_73\n      jumpi\n        /* \"#utility.yul\":552:631   */\n      tag_74\n      tag_75\n      jump\t// in\n    tag_74:\n        /* \"#utility.yul\":511:633   */\n    tag_73:\n        /* \"#utility.yul\":669:675   */\n      dup2\n        /* \"#utility.yul\":656:676   */\n      calldataload\n        /* \"#utility.yul\":694:773   */\n      tag_76\n        /* \"#utility.yul\":769:772   */\n      dup5\n        /* \"#utility.yul\":761:767   */\n      dup3\n        /* \"#utility.yul\":754:758   */\n      0x20\n        /* \"#utility.yul\":746:752   */\n      dup7\n        /* \"#utility.yul\":742:759   */\n      add\n        /* \"#utility.yul\":694:773   */\n      tag_60\n      jump\t// in\n    tag_76:\n        /* \"#utility.yul\":685:773   */\n      swap2\n      pop\n        /* \"#utility.yul\":501:779   */\n      pop\n        /* \"#utility.yul\":439:779   */\n      swap3\n      swap2\n      pop\n      pop\n      jump\t// out\n        /* \"#utility.yul\":785:924   */\n    tag_77:\n        /* \"#utility.yul\":831:836   */\n      0x00\n        /* \"#utility.yul\":869:875   */\n      dup2\n        /* \"#utility.yul\":856:876   */\n      calldataload\n        /* \"#utility.yul\":847:876   */\n      swap1\n      pop\n        /* \"#utility.yul\":885:918   */\n      tag_79\n        /* \"#utility.yul\":912:917   */\n      dup2\n        /* \"#utility.yul\":885:918   */\n      tag_80\n      jump\t// in\n    tag_79:\n        /* \"#utility.yul\":785:924   */\n      swap3\n      swap2\n      pop\n      pop\n      jump\t// out\n        /* \"#utility.yul\":930:1764   */\n    tag_22:\n        /* \"#utility.yul\":1018:1024   */\n      0x00\n        /* \"#utility.yul\":1026:1032   */\n      dup1\n        /* \"#utility.yul\":1075:1077   */\n      0x40\n        /* \"#utility.yul\":1063:1072   */\n      dup4\n        /* \"#utility.yul\":1054:1061   */\n      dup6\n        /* \"#utility.yul\":1050:1073   */\n      sub\n        /* \"#utility.yul\":1046:1078   */\n      slt\n        /* \"#utility.yul\":1043:1162   */\n      iszero\n      tag_82\n      jumpi\n        /* \"#utility.yul\":1081:1160   */\n      tag_83\n      tag_84\n      jump\t// in\n    tag_83:\n        /* \"#utility.yul\":1043:1162   */\n    tag_82:\n        /* \"#utility.yul\":1229:1230   */\n      0x00\n        /* \"#utility.yul\":1218:1227   */\n      dup4\n        /* \"#utility.yul\":1214:1231   */\n      add\n        /* \"#utility.yul\":1201:1232   */\n      calldataload\n        /* \"#utility.yul\":1259:1277   */\n      0xffffffffffffffff\n        /* \"#utility.yul\":1251:1257   */\n      dup2\n        /* \"#utility.yul\":1248:1278   */\n      gt\n        /* \"#utility.yul\":1245:1362   */\n      iszero\n      tag_85\n      jumpi\n        /* \"#utility.yul\":1281:1360   */\n      tag_86\n      tag_87\n      jump\t// in\n    tag_86:\n        /* \"#utility.yul\":1245:1362   */\n    tag_85:\n        /* \"#utility.yul\":1386:1449   */\n      tag_88\n        /* \"#utility.yul\":1441:1448   */\n      dup6\n        /* \"#utility.yul\":1432:1438   */\n      dup3\n        /* \"#utility.yul\":1421:1430   */\n      dup7\n        /* \"#utility.yul\":1417:1439   */\n      add\n        /* \"#utility.yul\":1386:1449   */\n      tag_71\n      jump\t// in\n    tag_88:\n        /* \"#utility.yul\":1376:1449   */\n      swap3\n      pop\n        /* \"#utility.yul\":1172:1459   */\n      pop\n        /* \"#utility.yul\":1526:1528   */\n      0x20\n        /* \"#utility.yul\":1515:1524   */\n      dup4\n        /* \"#utility.yul\":1511:1529   */\n      add\n        /* \"#utility.yul\":1498:1530   */\n      calldataload\n        /* \"#utility.yul\":1557:1575   */\n      0xffffffffffffffff\n        /* \"#utility.yul\":1549:1555   */\n      dup2\n        /* \"#utility.yul\":1546:1576   */\n      gt\n        /* \"#utility.yul\":1543:1660   */\n      iszero\n      tag_89\n      jumpi\n        /* \"#utility.yul\":1579:1658   */\n      tag_90\n      tag_87\n      jump\t// in\n    tag_90:\n        /* \"#utility.yul\":1543:1660   */\n    tag_89:\n        /* \"#utility.yul\":1684:1747   */\n      tag_91\n        /* \"#utility.yul\":1739:1746   */\n      dup6\n        /* \"#utility.yul\":1730:1736   */\n      dup3\n        /* \"#utility.yul\":1719:1728   */\n      dup7\n        /* \"#utility.yul\":1715:1737   */\n      add\n        /* \"#utility.yul\":1684:1747   */\n      tag_71\n      jump\t// in\n    tag_91:\n        /* \"#utility.yul\":1674:1747   */\n      swap2\n      pop\n        /* \"#utility.yul\":1469:1757   */\n      pop\n        /* \"#utility.yul\":930:1764   */\n      swap3\n      pop\n      swap3\n      swap1\n      pop\n      jump\t// out\n        /* \"#utility.yul\":1770:2099   */\n    tag_9:\n        /* \"#utility.yul\":1829:1835   */\n      0x00\n        /* \"#utility.yul\":1878:1880   */\n      0x20\n        /* \"#utility.yul\":1866:1875   */\n      dup3\n        /* \"#utility.yul\":1857:1864   */\n      dup5\n        /* \"#utility.yul\":1853:1876   */\n      sub\n        /* \"#utility.yul\":1849:1881   */\n      slt\n        /* \"#utility.yul\":1846:1965   */\n      iszero\n      tag_93\n      jumpi\n        /* \"#utility.yul\":1884:1963   */\n      tag_94\n      tag_84\n      jump\t// in\n    tag_94:\n        /* \"#utility.yul\":1846:1965   */\n    tag_93:\n        /* \"#utility.yul\":2004:2005   */\n      0x00\n        /* \"#utility.yul\":2029:2082   */\n      tag_95\n        /* \"#utility.yul\":2074:2081   */\n      dup5\n        /* \"#utility.yul\":2065:2071   */\n      dup3\n        /* \"#utility.yul\":2054:2063   */\n      dup6\n        /* \"#utility.yul\":2050:2072   */\n      add\n        /* \"#utility.yul\":2029:2082   */\n      tag_77\n      jump\t// in\n    tag_95:\n        /* \"#utility.yul\":2019:2082   */\n      swap2\n      pop\n        /* \"#utility.yul\":1975:2092   */\n      pop\n        /* \"#utility.yul\":1770:2099   */\n      swap3\n      swap2\n      pop\n      pop\n      jump\t// out\n        /* \"#utility.yul\":2105:2469   */\n    tag_96:\n        /* \"#utility.yul\":2193:2196   */\n      0x00\n        /* \"#utility.yul\":2221:2260   */\n      tag_98\n        /* \"#utility.yul\":2254:2259   */\n      dup3\n        /* \"#utility.yul\":2221:2260   */\n      tag_99\n      jump\t// in\n    tag_98:\n        /* \"#utility.yul\":2276:2347   */\n      tag_100\n        /* \"#utility.yul\":2340:2346   */\n      dup2\n        /* \"#utility.yul\":2335:2338   */\n      dup6\n        /* \"#utility.yul\":2276:2347   */\n      tag_101\n      jump\t// in\n    tag_100:\n        /* \"#utility.yul\":2269:2347   */\n      swap4\n      pop\n        /* \"#utility.yul\":2356:2408   */\n      tag_102\n        /* \"#utility.yul\":2401:2407   */\n      dup2\n        /* \"#utility.yul\":2396:2399   */\n      dup6\n        /* \"#utility.yul\":2389:2393   */\n      0x20\n        /* \"#utility.yul\":2382:2387   */\n      dup7\n        /* \"#utility.yul\":2378:2394   */\n      add\n        /* \"#utility.yul\":2356:2408   */\n      tag_103\n      jump\t// in\n    tag_102:\n        /* \"#utility.yul\":2433:2462   */\n      tag_104\n        /* \"#utility.yul\":2455:2461   */\n      dup2\n        /* \"#utility.yul\":2433:2462   */\n      tag_105\n      jump\t// in\n    tag_104:\n        /* \"#utility.yul\":2428:2431   */\n      dup5\n        /* \"#utility.yul\":2424:2463   */\n      add\n        /* \"#utility.yul\":2417:2463   */\n      swap2\n      pop\n        /* \"#utility.yul\":2197:2469   */\n      pop\n        /* \"#utility.yul\":2105:2469   */\n      swap3\n      swap2\n      pop\n      pop\n      jump\t// out\n        /* \"#utility.yul\":2475:2852   */\n    tag_106:\n        /* \"#utility.yul\":2581:2584   */\n      0x00\n        /* \"#utility.yul\":2609:2648   */\n      tag_108\n        /* \"#utility.yul\":2642:2647   */\n      dup3\n        /* \"#utility.yul\":2609:2648   */\n      tag_99\n      jump\t// in\n    tag_108:\n        /* \"#utility.yul\":2664:2753   */\n      tag_109\n        /* \"#utility.yul\":2746:2752   */\n      dup2\n        /* \"#utility.yul\":2741:2744   */\n      dup6\n        /* \"#utility.yul\":2664:2753   */\n      tag_110\n      jump\t// in\n    tag_109:\n        /* \"#utility.yul\":2657:2753   */\n      swap4\n      pop\n        /* \"#utility.yul\":2762:2814   */\n      tag_111\n        /* \"#utility.yul\":2807:2813   */\n      dup2\n        /* \"#utility.yul\":2802:2805   */\n      dup6\n        /* \"#utility.yul\":2795:2799   */\n      0x20\n        /* \"#utility.yul\":2788:2793   */\n      dup7\n        /* \"#utility.yul\":2784:2800   */\n      add\n        /* \"#utility.yul\":2762:2814   */\n      tag_103\n      jump\t// in\n    tag_111:\n        /* \"#utility.yul\":2839:2845   */\n      dup1\n        /* \"#utility.yul\":2834:2837   */\n      dup5\n        /* \"#utility.yul\":2830:2846   */\n      add\n        /* \"#utility.yul\":2823:2846   */\n      swap2\n      pop\n        /* \"#utility.yul\":2585:2852   */\n      pop\n        /* \"#utility.yul\":2475:2852   */\n      swap3\n      swap2\n      pop\n      pop\n      jump\t// out\n        /* \"#utility.yul\":2858:3258   */\n    tag_112:\n        /* \"#utility.yul\":3018:3021   */\n      0x00\n        /* \"#utility.yul\":3039:3123   */\n      tag_114\n        /* \"#utility.yul\":3121:3122   */\n      0x01\n        /* \"#utility.yul\":3116:3119   */\n      dup4\n        /* \"#utility.yul\":3039:3123   */\n      tag_110\n      jump\t// in\n    tag_114:\n        /* \"#utility.yul\":3032:3123   */\n      swap2\n      pop\n        /* \"#utility.yul\":3132:3225   */\n      tag_115\n        /* \"#utility.yul\":3221:3224   */\n      dup3\n        /* \"#utility.yul\":3132:3225   */\n      tag_116\n      jump\t// in\n    tag_115:\n        /* \"#utility.yul\":3250:3251   */\n      0x01\n        /* \"#utility.yul\":3245:3248   */\n      dup3\n        /* \"#utility.yul\":3241:3252   */\n      add\n        /* \"#utility.yul\":3234:3252   */\n      swap1\n      pop\n        /* \"#utility.yul\":2858:3258   */\n      swap2\n      swap1\n      pop\n      jump\t// out\n        /* \"#utility.yul\":3264:3382   */\n    tag_117:\n        /* \"#utility.yul\":3351:3375   */\n      tag_119\n        /* \"#utility.yul\":3369:3374   */\n      dup2\n        /* \"#utility.yul\":3351:3375   */\n      tag_120\n      jump\t// in\n    tag_119:\n        /* \"#utility.yul\":3346:3349   */\n      dup3\n        /* \"#utility.yul\":3339:3376   */\n      mstore\n        /* \"#utility.yul\":3264:3382   */\n      pop\n      pop\n      jump\t// out\n        /* \"#utility.yul\":3388:4089   */\n    tag_58:\n        /* \"#utility.yul\":3669:3672   */\n      0x00\n        /* \"#utility.yul\":3691:3786   */\n      tag_122\n        /* \"#utility.yul\":3782:3785   */\n      dup3\n        /* \"#utility.yul\":3773:3779   */\n      dup6\n        /* \"#utility.yul\":3691:3786   */\n      tag_106\n      jump\t// in\n    tag_122:\n        /* \"#utility.yul\":3684:3786   */\n      swap2\n      pop\n        /* \"#utility.yul\":3803:3951   */\n      tag_123\n        /* \"#utility.yul\":3947:3950   */\n      dup3\n        /* \"#utility.yul\":3803:3951   */\n      tag_112\n      jump\t// in\n    tag_123:\n        /* \"#utility.yul\":3796:3951   */\n      swap2\n      pop\n        /* \"#utility.yul\":3968:4063   */\n      tag_124\n        /* \"#utility.yul\":4059:4062   */\n      dup3\n        /* \"#utility.yul\":4050:4056   */\n      dup5\n        /* \"#utility.yul\":3968:4063   */\n      tag_106\n      jump\t// in\n    tag_124:\n        /* \"#utility.yul\":3961:4063   */\n      swap2\n      pop\n        /* \"#utility.yul\":4080:4083   */\n      dup2\n        /* \"#utility.yul\":4073:4083   */\n      swap1\n      pop\n        /* \"#utility.yul\":3388:4089   */\n      swap4\n      swap3\n      pop\n      pop\n      pop\n      jump\t// out\n        /* \"#utility.yul\":4095:4408   */\n    tag_19:\n        /* \"#utility.yul\":4208:4212   */\n      0x00\n        /* \"#utility.yul\":4246:4248   */\n      0x20\n        /* \"#utility.yul\":4235:4244   */\n      dup3\n        /* \"#utility.yul\":4231:4249   */\n      add\n        /* \"#utility.yul\":4223:4249   */\n      swap1\n      pop\n        /* \"#utility.yul\":4295:4304   */\n      dup2\n        /* \"#utility.yul\":4289:4293   */\n      dup2\n        /* \"#utility.yul\":4285:4305   */\n      sub\n        /* \"#utility.yul\":4281:4282   */\n      0x00\n        /* \"#utility.yul\":4270:4279   */\n      dup4\n        /* \"#utility.yul\":4266:4283   */\n      add\n        /* \"#utility.yul\":4259:4306   */\n      mstore\n        /* \"#utility.yul\":4323:4401   */\n      tag_126\n        /* \"#utility.yul\":4396:4400   */\n      dup2\n        /* \"#utility.yul\":4387:4393   */\n      dup5\n        /* \"#utility.yul\":4323:4401   */\n      tag_96\n      jump\t// in\n    tag_126:\n        /* \"#utility.yul\":4315:4401   */\n      swap1\n      pop\n        /* \"#utility.yul\":4095:4408   */\n      swap3\n      swap2\n      pop\n      pop\n      jump\t// out\n        /* \"#utility.yul\":4414:4636   */\n    tag_15:\n        /* \"#utility.yul\":4507:4511   */\n      0x00\n        /* \"#utility.yul\":4545:4547   */\n      0x20\n        /* \"#utility.yul\":4534:4543   */\n      dup3\n        /* \"#utility.yul\":4530:4548   */\n      add\n        /* \"#utility.yul\":4522:4548   */\n      swap1\n      pop\n        /* \"#utility.yul\":4558:4629   */\n      tag_128\n        /* \"#utility.yul\":4626:4627   */\n      0x00\n        /* \"#utility.yul\":4615:4624   */\n      dup4\n        /* \"#utility.yul\":4611:4628   */\n      add\n        /* \"#utility.yul\":4602:4608   */\n      dup5\n        /* \"#utility.yul\":4558:4629   */\n      tag_117\n      jump\t// in\n    tag_128:\n        /* \"#utility.yul\":4414:4636   */\n      swap3\n      swap2\n      pop\n      pop\n      jump\t// out\n        /* \"#utility.yul\":4642:4771   */\n    tag_65:\n        /* \"#utility.yul\":4676:4682   */\n      0x00\n        /* \"#utility.yul\":4703:4723   */\n      tag_130\n      tag_131\n      jump\t// in\n    tag_130:\n        /* \"#utility.yul\":4693:4723   */\n      swap1\n      pop\n        /* \"#utility.yul\":4732:4765   */\n      tag_132\n        /* \"#utility.yul\":4760:4764   */\n      dup3\n        /* \"#utility.yul\":4752:4758   */\n      dup3\n        /* \"#utility.yul\":4732:4765   */\n      tag_133\n      jump\t// in\n    tag_132:\n        /* \"#utility.yul\":4642:4771   */\n      swap2\n      swap1\n      pop\n      jump\t// out\n        /* \"#utility.yul\":4777:4852   */\n    tag_131:\n        /* \"#utility.yul\":4810:4816   */\n      0x00\n        /* \"#utility.yul\":4843:4845   */\n      0x40\n        /* \"#utility.yul\":4837:4846   */\n      mload\n        /* \"#utility.yul\":4827:4846   */\n      swap1\n      pop\n        /* \"#utility.yul\":4777:4852   */\n      swap1\n      jump\t// out\n        /* \"#utility.yul\":4858:5166   */\n    tag_64:\n        /* \"#utility.yul\":4920:4924   */\n      0x00\n        /* \"#utility.yul\":5010:5028   */\n      0xffffffffffffffff\n        /* \"#utility.yul\":5002:5008   */\n      dup3\n        /* \"#utility.yul\":4999:5029   */\n      gt\n        /* \"#utility.yul\":4996:5052   */\n      iszero\n      tag_136\n      jumpi\n        /* \"#utility.yul\":5032:5050   */\n      tag_137\n      tag_138\n      jump\t// in\n    tag_137:\n        /* \"#utility.yul\":4996:5052   */\n    tag_136:\n        /* \"#utility.yul\":5070:5099   */\n      tag_139\n        /* \"#utility.yul\":5092:5098   */\n      dup3\n        /* \"#utility.yul\":5070:5099   */\n      tag_105\n      jump\t// in\n    tag_139:\n        /* \"#utility.yul\":5062:5099   */\n      swap1\n      pop\n        /* \"#utility.yul\":5154:5158   */\n      0x20\n        /* \"#utility.yul\":5148:5152   */\n      dup2\n        /* \"#utility.yul\":5144:5159   */\n      add\n        /* \"#utility.yul\":5136:5159   */\n      swap1\n      pop\n        /* \"#utility.yul\":4858:5166   */\n      swap2\n      swap1\n      pop\n      jump\t// out\n        /* \"#utility.yul\":5172:5271   */\n    tag_99:\n        /* \"#utility.yul\":5224:5230   */\n      0x00\n        /* \"#utility.yul\":5258:5263   */\n      dup2\n        /* \"#utility.yul\":5252:5264   */\n      mload\n        /* \"#utility.yul\":5242:5264   */\n      swap1\n      pop\n        /* \"#utility.yul\":5172:5271   */\n      swap2\n      swap1\n      pop\n      jump\t// out\n        /* \"#utility.yul\":5277:5446   */\n    tag_101:\n        /* \"#utility.yul\":5361:5372   */\n      0x00\n        /* \"#utility.yul\":5395:5401   */\n      dup3\n        /* \"#utility.yul\":5390:5393   */\n      dup3\n        /* \"#utility.yul\":5383:5402   */\n      mstore\n        /* \"#utility.yul\":5435:5439   */\n      0x20\n        /* \"#utility.yul\":5430:5433   */\n      dup3\n        /* \"#utility.yul\":5426:5440   */\n      add\n        /* \"#utility.yul\":5411:5440   */\n      swap1\n      pop\n        /* \"#utility.yul\":5277:5446   */\n      swap3\n      swap2\n      pop\n      pop\n      jump\t// out\n        /* \"#utility.yul\":5452:5600   */\n    tag_110:\n        /* \"#utility.yul\":5554:5565   */\n      0x00\n        /* \"#utility.yul\":5591:5594   */\n      dup2\n        /* \"#utility.yul\":5576:5594   */\n      swap1\n      pop\n        /* \"#utility.yul\":5452:5600   */\n      swap3\n      swap2\n      pop\n      pop\n      jump\t// out\n        /* \"#utility.yul\":5606:5911   */\n    tag_28:\n        /* \"#utility.yul\":5646:5649   */\n      0x00\n        /* \"#utility.yul\":5665:5685   */\n      tag_144\n        /* \"#utility.yul\":5683:5684   */\n      dup3\n        /* \"#utility.yul\":5665:5685   */\n      tag_120\n      jump\t// in\n    tag_144:\n        /* \"#utility.yul\":5660:5685   */\n      swap2\n      pop\n        /* \"#utility.yul\":5699:5719   */\n      tag_145\n        /* \"#utility.yul\":5717:5718   */\n      dup4\n        /* \"#utility.yul\":5699:5719   */\n      tag_120\n      jump\t// in\n    tag_145:\n        /* \"#utility.yul\":5694:5719   */\n      swap3\n      pop\n        /* \"#utility.yul\":5853:5854   */\n      dup3\n        /* \"#utility.yul\":5785:5851   */\n      0xffffffffffffffffffffffffffffffffffffffffffffffffffffffffffffffff\n        /* \"#utility.yul\":5781:5855   */\n      sub\n        /* \"#utility.yul\":5778:5779   */\n      dup3\n        /* \"#utility.yul\":5775:5856   */\n      gt\n        /* \"#utility.yul\":5772:5879   */\n      iszero\n      tag_146\n      jumpi\n        /* \"#utility.yul\":5859:5877   */\n      tag_147\n      tag_148\n      jump\t// in\n    tag_147:\n        /* \"#utility.yul\":5772:5879   */\n    tag_146:\n        /* \"#utility.yul\":5903:5904   */\n      dup3\n        /* \"#utility.yul\":5900:5901   */\n      dup3\n        /* \"#utility.yul\":5896:5905   */\n      add\n        /* \"#utility.yul\":5889:5905   */\n      swap1\n      pop\n        /* \"#utility.yul\":5606:5911   */\n      swap3\n      swap2\n      pop\n      pop\n      jump\t// out\n        /* \"#utility.yul\":5917:6102   */\n    tag_30:\n        /* \"#utility.yul\":5957:5958   */\n      0x00\n        /* \"#utility.yul\":5974:5994   */\n      tag_150\n        /* \"#utility.yul\":5992:5993   */\n      dup3\n        /* \"#utility.yul\":5974:5994   */\n      tag_120\n      jump\t// in\n    tag_150:\n        /* \"#utility.yul\":5969:5994   */\n      swap2\n      pop\n        /* \"#utility.yul\":6008:6028   */\n      tag_151\n        /* \"#utility.yul\":6026:6027   */\n      dup4\n        /* \"#utility.yul\":6008:6028   */\n      tag_120\n      jump\t// in\n    tag_151:\n        /* \"#utility.yul\":6003:6028   */\n      swap3\n      pop\n        /* \"#utility.yul\":6047:6048   */\n      dup3\n        /* \"#utility.yul\":6037:6072   */\n      tag_152\n      jumpi\n        /* \"#utility.yul\":6052:6070   */\n      tag_153\n      tag_154\n      jump\t// in\n    tag_153:\n        /* \"#utility.yul\":6037:6072   */\n    tag_152:\n        /* \"#utility.yul\":6094:6095   */\n      dup3\n        /* \"#utility.yul\":6091:6092   */\n      dup3\n        /* \"#utility.yul\":6087:6096   */\n      div\n        /* \"#utility.yul\":6082:6096   */\n      swap1\n      pop\n        /* \"#utility.yul\":5917:6102   */\n      swap3\n      swap2\n      pop\n      pop\n      jump\t// out\n        /* \"#utility.yul\":6108:6185   */\n    tag_120:\n        /* \"#utility.yul\":6145:6152   */\n      0x00\n        /* \"#utility.yul\":6174:6179   */\n      dup2\n        /* \"#utility.yul\":6163:6179   */\n      swap1\n      pop\n        /* \"#utility.yul\":6108:6185   */\n      swap2\n      swap1\n      pop\n      jump\t// out\n        /* \"#utility.yul\":6191:6345   */\n    tag_70:\n        /* \"#utility.yul\":6275:6281   */\n      dup3\n        /* \"#utility.yul\":6270:6273   */\n      dup2\n        /* \"#utility.yul\":6265:6268   */\n      dup4\n        /* \"#utility.yul\":6252:6282   */\n      calldatacopy\n        /* \"#utility.yul\":6337:6338   */\n      0x00\n        /* \"#utility.yul\":6328:6334   */\n      dup4\n        /* \"#utility.yul\":6323:6326   */\n      dup4\n        /* \"#utility.yul\":6319:6335   */\n      add\n        /* \"#utility.yul\":6312:6339   */\n      mstore\n        /* \"#utility.yul\":6191:6345   */\n      pop\n      pop\n      pop\n      jump\t// out\n        /* \"#utility.yul\":6351:6658   */\n    tag_103:\n        /* \"#utility.yul\":6419:6420   */\n      0x00\n        /* \"#utility.yul\":6429:6542   */\n    tag_158:\n        /* \"#utility.yul\":6443:6449   */\n      dup4\n        /* \"#utility.yul\":6440:6441   */\n      dup2\n        /* \"#utility.yul\":6437:6450   */\n      lt\n        /* \"#utility.yul\":6429:6542   */\n      iszero\n      tag_160\n      jumpi\n        /* \"#utility.yul\":6528:6529   */\n      dup1\n        /* \"#utility.yul\":6523:6526   */\n      dup3\n        /* \"#utility.yul\":6519:6530   */\n      add\n        /* \"#utility.yul\":6513:6531   */\n      mload\n        /* \"#utility.yul\":6509:6510   */\n      dup2\n        /* \"#utility.yul\":6504:6507   */\n      dup5\n        /* \"#utility.yul\":6500:6511   */\n      add\n        /* \"#utility.yul\":6493:6532   */\n      mstore\n        /* \"#utility.yul\":6465:6467   */\n      0x20\n        /* \"#utility.yul\":6462:6463   */\n      dup2\n        /* \"#utility.yul\":6458:6468   */\n      add\n        /* \"#utility.yul\":6453:6468   */\n      swap1\n      pop\n        /* \"#utility.yul\":6429:6542   */\n      jump(tag_158)\n    tag_160:\n        /* \"#utility.yul\":6560:6566   */\n      dup4\n        /* \"#utility.yul\":6557:6558   */\n      dup2\n        /* \"#utility.yul\":6554:6567   */\n      gt\n        /* \"#utility.yul\":6551:6652   */\n      iszero\n      tag_161\n      jumpi\n        /* \"#utility.yul\":6640:6641   */\n      0x00\n        /* \"#utility.yul\":6631:6637   */\n      dup5\n        /* \"#utility.yul\":6626:6629   */\n      dup5\n        /* \"#utility.yul\":6622:6638   */\n      add\n        /* \"#utility.yul\":6615:6642   */\n      mstore\n        /* \"#utility.yul\":6551:6652   */\n    tag_161:\n        /* \"#utility.yul\":6400:6658   */\n      pop\n        /* \"#utility.yul\":6351:6658   */\n      pop\n      pop\n      pop\n      jump\t// out\n        /* \"#utility.yul\":6664:6984   */\n    tag_38:\n        /* \"#utility.yul\":6708:6714   */\n      0x00\n        /* \"#utility.yul\":6745:6746   */\n      0x02\n        /* \"#utility.yul\":6739:6743   */\n      dup3\n        /* \"#utility.yul\":6735:6747   */\n      div\n        /* \"#utility.yul\":6725:6747   */\n      swap1\n      pop\n        /* \"#utility.yul\":6792:6793   */\n      0x01\n        /* \"#utility.yul\":6786:6790   */\n      dup3\n        /* \"#utility.yul\":6782:6794   */\n      and\n        /* \"#utility.yul\":6813:6831   */\n      dup1\n        /* \"#utility.yul\":6803:6884   */\n      tag_163\n      jumpi\n        /* \"#utility.yul\":6869:6873   */\n      0x7f\n        /* \"#utility.yul\":6861:6867   */\n      dup3\n        /* \"#utility.yul\":6857:6874   */\n      and\n        /* \"#utility.yul\":6847:6874   */\n      swap2\n      pop\n        /* \"#utility.yul\":6803:6884   */\n    tag_163:\n        /* \"#utility.yul\":6931:6933   */\n      0x20\n        /* \"#utility.yul\":6923:6929   */\n      dup3\n        /* \"#utility.yul\":6920:6934   */\n      lt\n        /* \"#utility.yul\":6900:6918   */\n      dup2\n        /* \"#utility.yul\":6897:6935   */\n      eq\n        /* \"#utility.yul\":6894:6978   */\n      iszero\n      tag_164\n      jumpi\n        /* \"#utility.yul\":6950:6968   */\n      tag_165\n      tag_166\n      jump\t// in\n    tag_165:\n        /* \"#utility.yul\":6894:6978   */\n    tag_164:\n        /* \"#utility.yul\":6715:6984   */\n      pop\n        /* \"#utility.yul\":6664:6984   */\n      swap2\n      swap1\n      pop\n      jump\t// out\n        /* \"#utility.yul\":6990:7271   */\n    tag_133:\n        /* \"#utility.yul\":7073:7100   */\n      tag_168\n        /* \"#utility.yul\":7095:7099   */\n      dup3\n        /* \"#utility.yul\":7073:7100   */\n      tag_105\n      jump\t// in\n    tag_168:\n        /* \"#utility.yul\":7065:7071   */\n      dup2\n        /* \"#utility.yul\":7061:7101   */\n      add\n        /* \"#utility.yul\":7203:7209   */\n      dup2\n        /* \"#utility.yul\":7191:7201   */\n      dup2\n        /* \"#utility.yul\":7188:7210   */\n      lt\n        /* \"#utility.yul\":7167:7185   */\n      0xffffffffffffffff\n        /* \"#utility.yul\":7155:7165   */\n      dup3\n        /* \"#utility.yul\":7152:7186   */\n      gt\n        /* \"#utility.yul\":7149:7211   */\n      or\n        /* \"#utility.yul\":7146:7234   */\n      iszero\n      tag_169\n      jumpi\n        /* \"#utility.yul\":7214:7232   */\n      tag_170\n      tag_138\n      jump\t// in\n    tag_170:\n        /* \"#utility.yul\":7146:7234   */\n    tag_169:\n        /* \"#utility.yul\":7254:7264   */\n      dup1\n        /* \"#utility.yul\":7250:7252   */\n      0x40\n        /* \"#utility.yul\":7243:7265   */\n      mstore\n        /* \"#utility.yul\":7033:7271   */\n      pop\n        /* \"#utility.yul\":6990:7271   */\n      pop\n      pop\n      jump\t// out\n        /* \"#utility.yul\":7277:7510   */\n    tag_53:\n        /* \"#utility.yul\":7316:7319   */\n      0x00\n        /* \"#utility.yul\":7339:7363   */\n      tag_172\n        /* \"#utility.yul\":7357:7362   */\n      dup3\n        /* \"#utility.yul\":7339:7363   */\n      tag_120\n      jump\t// in\n    tag_172:\n        /* \"#utility.yul\":7330:7363   */\n      swap2\n      pop\n        /* \"#utility.yul\":7385:7451   */\n      0xffffffffffffffffffffffffffffffffffffffffffffffffffffffffffffffff\n        /* \"#utility.yul\":7378:7383   */\n      dup3\n        /* \"#utility.yul\":7375:7452   */\n      eq\n        /* \"#utility.yul\":7372:7475   */\n      iszero\n      tag_173\n      jumpi\n        /* \"#utility.yul\":7455:7473   */\n      tag_174\n      tag_148\n      jump\t// in\n    tag_174:\n        /* \"#utility.yul\":7372:7475   */\n    tag_173:\n        /* \"#utility.yul\":7502:7503   */\n      0x01\n        /* \"#utility.yul\":7495:7500   */\n      dup3\n        /* \"#utility.yul\":7491:7504   */\n      add\n        /* \"#utility.yul\":7484:7504   */\n      swap1\n      pop\n        /* \"#utility.yul\":7277:7510   */\n      swap2\n      swap1\n      pop\n      jump\t// out\n        /* \"#utility.yul\":7516:7692   */\n    tag_49:\n        /* \"#utility.yul\":7548:7549   */\n      0x00\n        /* \"#utility.yul\":7565:7585   */\n      tag_176\n        /* \"#utility.yul\":7583:7584   */\n      dup3\n        /* \"#utility.yul\":7565:7585   */\n      tag_120\n      jump\t// in\n    tag_176:\n        /* \"#utility.yul\":7560:7585   */\n      swap2\n      pop\n        /* \"#utility.yul\":7599:7619   */\n      tag_177\n        /* \"#utility.yul\":7617:7618   */\n      dup4\n        /* \"#utility.yul\":7599:7619   */\n      tag_120\n      jump\t// in\n    tag_177:\n        /* \"#utility.yul\":7594:7619   */\n      swap3\n      pop\n        /* \"#utility.yul\":7638:7639   */\n      dup3\n        /* \"#utility.yul\":7628:7663   */\n      tag_178\n      jumpi\n        /* \"#utility.yul\":7643:7661   */\n      tag_179\n      tag_154\n      jump\t// in\n    tag_179:\n        /* \"#utility.yul\":7628:7663   */\n    tag_178:\n        /* \"#utility.yul\":7684:7685   */\n      dup3\n        /* \"#utility.yul\":7681:7682   */\n      dup3\n        /* \"#utility.yul\":7677:7686   */\n      mod\n        /* \"#utility.yul\":7672:7686   */\n      swap1\n      pop\n        /* \"#utility.yul\":7516:7692   */\n      swap3\n      swap2\n      pop\n      pop\n      jump\t// out\n        /* \"#utility.yul\":7698:7878   */\n    tag_148:\n        /* \"#utility.yul\":7746:7823   */\n      0x4e487b7100000000000000000000000000000000000000000000000000000000\n        /* \"#utility.yul\":7743:7744   */\n      0x00\n        /* \"#utility.yul\":7736:7824   */\n      mstore\n        /* \"#utility.yul\":7843:7847   */\n      0x11\n        /* \"#utility.yul\":7840:7841   */\n      0x04\n        /* \"#utility.yul\":7833:7848   */\n      mstore\n        /* \"#utility.yul\":7867:7871   */\n      0x24\n        /* \"#utility.yul\":7864:7865   */\n      0x00\n        /* \"#utility.yul\":7857:7872   */\n      revert\n        /* \"#utility.yul\":7884:8064   */\n    tag_154:\n        /* \"#utility.yul\":7932:8009   */\n      0x4e487b7100000000000000000000000000000000000000000000000000000000\n        /* \"#utility.yul\":7929:7930   */\n      0x00\n        /* \"#utility.yul\":7922:8010   */\n      mstore\n        /* \"#utility.yul\":8029:8033   */\n      0x12\n        /* \"#utility.yul\":8026:8027   */\n      0x04\n        /* \"#utility.yul\":8019:8034   */\n      mstore\n        /* \"#utility.yul\":8053:8057   */\n      0x24\n        /* \"#utility.yul\":8050:8051   */\n      0x00\n        /* \"#utility.yul\":8043:8058   */\n      revert\n        /* \"#utility.yul\":8070:8250   */\n    tag_166:\n        /* \"#utility.yul\":8118:8195   */\n      0x4e487b7100000000000000000000000000000000000000000000000000000000\n        /* \"#utility.yul\":8115:8116   */\n      0x00\n        /* \"#utility.yul\":8108:8196   */\n      mstore\n        /* \"#utility.yul\":8215:8219   */\n      0x22\n        /* \"#utility.yul\":8212:8213   */\n      0x04\n        /* \"#utility.yul\":8205:8220   */\n      mstore\n        /* \"#utility.yul\":8239:8243   */\n      0x24\n        /* \"#utility.yul\":8236:8237   */\n      0x00\n        /* \"#utility.yul\":8229:8244   */\n      revert\n        /* \"#utility.yul\":8256:8436   */\n    tag_138:\n        /* \"#utility.yul\":8304:8381   */\n      0x4e487b7100000000000000000000000000000000000000000000000000000000\n        /* \"#utility.yul\":8301:8302   */\n      0x00\n        /* \"#utility.yul\":8294:8382   */\n      mstore\n        /* \"#utility.yul\":8401:8405   */\n      0x41\n        /* \"#utility.yul\":8398:8399   */\n      0x04\n        /* \"#utility.yul\":8391:8406   */\n      mstore\n        /* \"#utility.yul\":8425:8429   */\n      0x24\n        /* \"#utility.yul\":8422:8423   */\n      0x00\n        /* \"#utility.yul\":8415:8430   */\n      revert\n        /* \"#utility.yul\":8442:8559   */\n    tag_75:\n        /* \"#utility.yul\":8551:8552   */\n      0x00\n        /* \"#utility.yul\":8548:8549   */\n      dup1\n        /* \"#utility.yul\":8541:8553   */\n      revert\n        /* \"#utility.yul\":8565:8682   */\n    tag_68:\n        /* \"#utility.yul\":8674:8675   */\n      0x00\n        /* \"#utility.yul\":8671:8672   */\n      dup1\n        /* \"#utility.yul\":8664:8676   */\n      revert\n        /* \"#utility.yul\":8688:8805   */\n    tag_87:\n        /* \"#utility.yul\":8797:8798   */\n      0x00\n        /* \"#utility.yul\":8794:8795   */\n      dup1\n        /* \"#utility.yul\":8787:8799   */\n      revert\n        /* \"#utility.yul\":8811:8928   */\n    tag_84:\n        /* \"#utility.yul\":8920:8921   */\n      0x00\n        /* \"#utility.yul\":8917:8918   */\n      dup1\n        /* \"#utility.yul\":8910:8922   */\n      revert\n        /* \"#utility.yul\":8934:9036   */\n    tag_105:\n        /* \"#utility.yul\":8975:8981   */\n      0x00\n        /* \"#utility.yul\":9026:9028   */\n      0x1f\n        /* \"#utility.yul\":9022:9029   */\n      not\n        /* \"#utility.yul\":9017:9019   */\n      0x1f\n        /* \"#utility.yul\":9010:9015   */\n      dup4\n        /* \"#utility.yul\":9006:9020   */\n      add\n        /* \"#utility.yul\":9002:9030   */\n      and\n        /* \"#utility.yul\":8992:9030   */\n      swap1\n      pop\n        /* \"#utility.yul\":8934:9036   */\n      swap2\n      swap1\n      pop\n      jump\t// out\n        /* \"#utility.yul\":9042:9193   */\n    tag_116:\n        /* \"#utility.yul\":9182:9185   */\n      0x2000000000000000000000000000000000000000000000000000000000000000\n        /* \"#utility.yul\":9178:9179   */\n      0x00\n        /* \"#utility.yul\":9170:9176   */\n      dup3\n        /* \"#utility.yul\":9166:9180   */\n      add\n        /* \"#utility.yul\":9159:9186   */\n      mstore\n        /* \"#utility.yul\":9042:9193   */\n      pop\n      jump\t// out\n        /* \"#utility.yul\":9199:9321   */\n    tag_80:\n        /* \"#utility.yul\":9272:9296   */\n      tag_191\n        /* \"#utility.yul\":9290:9295   */\n      dup2\n        /* \"#utility.yul\":9272:9296   */\n      tag_120\n      jump\t// in\n    tag_191:\n        /* \"#utility.yul\":9265:9270   */\n      dup2\n        /* \"#utility.yul\":9262:9297   */\n      eq\n        /* \"#utility.yul\":9252:9315   */\n      tag_192\n      jumpi\n        /* \"#utility.yul\":9311:9312   */\n      0x00\n        /* \"#utility.yul\":9308:9309   */\n      dup1\n        /* \"#utility.yul\":9301:9313   */\n      revert\n        /* \"#utility.yul\":9252:9315   */\n    tag_192:\n        /* \"#utility.yul\":9199:9321   */\n      pop\n      jump\t// out\n\n    auxdata: 0xa26469706673582212205584a26d345b6671ae180f219aa1502e124bb5afbdac6ba74b57ef52006189a264736f6c63430008070033\n}\n",
				"bytecode": {
					"linkReferences": {},
					"object": "608060405260008055600160055534801561001957600080fd5b5061085d806100296000396000f3fe608060405234801561001057600080fd5b506004361061004c5760003560e01c806360fe47b114610051578063677342ce1461006d5780636d4ce63c1461009d57806389c19ddb146100bb575b600080fd5b61006b600480360381019061006691906103a4565b6100eb565b005b610087600480360381019061008291906103a4565b6100f5565b60405161009491906104be565b60405180910390f35b6100a5610158565b6040516100b2919061049c565b60405180910390f35b6100d560048036038101906100d0919061032c565b61027b565b6040516100e2919061049c565b60405180910390f35b8060008190555050565b60008060026001846101079190610556565b61011191906105ac565b905060008390505b8082101561014e57819050600282838661013391906105ac565b61013d9190610556565b61014791906105ac565b9150610119565b8092505050919050565b606060006001805461016990610629565b80601f016020809104026020016040519081016040528092919081815260200182805461019590610629565b80156101e25780601f106101b7576101008083540402835291602001916101e2565b820191906000526020600020905b8154815290600101906020018083116101c557829003601f168201915b5050505050905060008060006003546103e86101fe91906105ac565b905060005b600560005461021291906105ac565b81101561025457818161022591906106d5565b9350818161023391906105ac565b925061023f858661027b565b9450808061024c9061068c565b915050610203565b818161026091906106d5565b9350818161026e91906105ac565b9250849550505050505090565b6060828260405160200161029092919061046d565b604051602081830303815290604052905092915050565b60006102ba6102b5846104fe565b6104d9565b9050828152602081018484840111156102d6576102d56107c7565b5b6102e18482856105e7565b509392505050565b600082601f8301126102fe576102fd6107c2565b5b813561030e8482602086016102a7565b91505092915050565b60008135905061032681610810565b92915050565b60008060408385031215610343576103426107d1565b5b600083013567ffffffffffffffff811115610361576103606107cc565b5b61036d858286016102e9565b925050602083013567ffffffffffffffff81111561038e5761038d6107cc565b5b61039a858286016102e9565b9150509250929050565b6000602082840312156103ba576103b96107d1565b5b60006103c884828501610317565b91505092915050565b60006103dc8261052f565b6103e6818561053a565b93506103f68185602086016105f6565b6103ff816107d6565b840191505092915050565b60006104158261052f565b61041f818561054b565b935061042f8185602086016105f6565b80840191505092915050565b600061044860018361054b565b9150610453826107e7565b600182019050919050565b610467816105dd565b82525050565b6000610479828561040a565b91506104848261043b565b9150610490828461040a565b91508190509392505050565b600060208201905081810360008301526104b681846103d1565b905092915050565b60006020820190506104d3600083018461045e565b92915050565b60006104e36104f4565b90506104ef828261065b565b919050565b6000604051905090565b600067ffffffffffffffff82111561051957610518610793565b5b610522826107d6565b9050602081019050919050565b600081519050919050565b600082825260208201905092915050565b600081905092915050565b6000610561826105dd565b915061056c836105dd565b9250827fffffffffffffffffffffffffffffffffffffffffffffffffffffffffffffffff038211156105a1576105a0610706565b5b828201905092915050565b60006105b7826105dd565b91506105c2836105dd565b9250826105d2576105d1610735565b5b828204905092915050565b6000819050919050565b82818337600083830152505050565b60005b838110156106145780820151818401526020810190506105f9565b83811115610623576000848401525b50505050565b6000600282049050600182168061064157607f821691505b6020821081141561065557610654610764565b5b50919050565b610664826107d6565b810181811067ffffffffffffffff8211171561068357610682610793565b5b80604052505050565b6000610697826105dd565b91507fffffffffffffffffffffffffffffffffffffffffffffffffffffffffffffffff8214156106ca576106c9610706565b5b600182019050919050565b60006106e0826105dd565b91506106eb836105dd565b9250826106fb576106fa610735565b5b828206905092915050565b7f4e487b7100000000000000000000000000000000000000000000000000000000600052601160045260246000fd5b7f4e487b7100000000000000000000000000000000000000000000000000000000600052601260045260246000fd5b7f4e487b7100000000000000000000000000000000000000000000000000000000600052602260045260246000fd5b7f4e487b7100000000000000000000000000000000000000000000000000000000600052604160045260246000fd5b600080fd5b600080fd5b600080fd5b600080fd5b6000601f19601f8301169050919050565b7f2000000000000000000000000000000000000000000000000000000000000000600082015250565b610819816105dd565b811461082457600080fd5b5056fea26469706673582212205584a26d345b6671ae180f219aa1502e124bb5afbdac6ba74b57ef52006189a264736f6c63430008070033",
					"opcodes": "PUSH1 0x80 PUSH1 0x40 MSTORE PUSH1 0x0 DUP1 SSTORE PUSH1 0x1 PUSH1 0x5 SSTORE CALLVALUE DUP1 ISZERO PUSH2 0x19 JUMPI PUSH1 0x0 DUP1 REVERT JUMPDEST POP PUSH2 0x85D DUP1 PUSH2 0x29 PUSH1 0x0 CODECOPY PUSH1 0x0 RETURN INVALID PUSH1 0x80 PUSH1 0x40 MSTORE CALLVALUE DUP1 ISZERO PUSH2 0x10 JUMPI PUSH1 0x0 DUP1 REVERT JUMPDEST POP PUSH1 0x4 CALLDATASIZE LT PUSH2 0x4C JUMPI PUSH1 0x0 CALLDATALOAD PUSH1 0xE0 SHR DUP1 PUSH4 0x60FE47B1 EQ PUSH2 0x51 JUMPI DUP1 PUSH4 0x677342CE EQ PUSH2 0x6D JUMPI DUP1 PUSH4 0x6D4CE63C EQ PUSH2 0x9D JUMPI DUP1 PUSH4 0x89C19DDB EQ PUSH2 0xBB JUMPI JUMPDEST PUSH1 0x0 DUP1 REVERT JUMPDEST PUSH2 0x6B PUSH1 0x4 DUP1 CALLDATASIZE SUB DUP2 ADD SWAP1 PUSH2 0x66 SWAP2 SWAP1 PUSH2 0x3A4 JUMP JUMPDEST PUSH2 0xEB JUMP JUMPDEST STOP JUMPDEST PUSH2 0x87 PUSH1 0x4 DUP1 CALLDATASIZE SUB DUP2 ADD SWAP1 PUSH2 0x82 SWAP2 SWAP1 PUSH2 0x3A4 JUMP JUMPDEST PUSH2 0xF5 JUMP JUMPDEST PUSH1 0x40 MLOAD PUSH2 0x94 SWAP2 SWAP1 PUSH2 0x4BE JUMP JUMPDEST PUSH1 0x40 MLOAD DUP1 SWAP2 SUB SWAP1 RETURN JUMPDEST PUSH2 0xA5 PUSH2 0x158 JUMP JUMPDEST PUSH1 0x40 MLOAD PUSH2 0xB2 SWAP2 SWAP1 PUSH2 0x49C JUMP JUMPDEST PUSH1 0x40 MLOAD DUP1 SWAP2 SUB SWAP1 RETURN JUMPDEST PUSH2 0xD5 PUSH1 0x4 DUP1 CALLDATASIZE SUB DUP2 ADD SWAP1 PUSH2 0xD0 SWAP2 SWAP1 PUSH2 0x32C JUMP JUMPDEST PUSH2 0x27B JUMP JUMPDEST PUSH1 0x40 MLOAD PUSH2 0xE2 SWAP2 SWAP1 PUSH2 0x49C JUMP JUMPDEST PUSH1 0x40 MLOAD DUP1 SWAP2 SUB SWAP1 RETURN JUMPDEST DUP1 PUSH1 0x0 DUP2 SWAP1 SSTORE POP POP JUMP JUMPDEST PUSH1 0x0 DUP1 PUSH1 0x2 PUSH1 0x1 DUP5 PUSH2 0x107 SWAP2 SWAP1 PUSH2 0x556 JUMP JUMPDEST PUSH2 0x111 SWAP2 SWAP1 PUSH2 0x5AC JUMP JUMPDEST SWAP1 POP PUSH1 0x0 DUP4 SWAP1 POP JUMPDEST DUP1 DUP3 LT ISZERO PUSH2 0x14E JUMPI DUP2 SWAP1 POP PUSH1 0x2 DUP3 DUP4 DUP7 PUSH2 0x133 SWAP2 SWAP1 PUSH2 0x5AC JUMP JUMPDEST PUSH2 0x13D SWAP2 SWAP1 PUSH2 0x556 JUMP JUMPDEST PUSH2 0x147 SWAP2 SWAP1 PUSH2 0x5AC JUMP JUMPDEST SWAP2 POP PUSH2 0x119 JUMP JUMPDEST DUP1 SWAP3 POP POP POP SWAP2 SWAP1 POP JUMP JUMPDEST PUSH1 0x60 PUSH1 0x0 PUSH1 0x1 DUP1 SLOAD PUSH2 0x169 SWAP1 PUSH2 0x629 JUMP JUMPDEST DUP1 PUSH1 0x1F ADD PUSH1 0x20 DUP1 SWAP2 DIV MUL PUSH1 0x20 ADD PUSH1 0x40 MLOAD SWAP1 DUP2 ADD PUSH1 0x40 MSTORE DUP1 SWAP3 SWAP2 SWAP1 DUP2 DUP2 MSTORE PUSH1 0x20 ADD DUP3 DUP1 SLOAD PUSH2 0x195 SWAP1 PUSH2 0x629 JUMP JUMPDEST DUP1 ISZERO PUSH2 0x1E2 JUMPI DUP1 PUSH1 0x1F LT PUSH2 0x1B7 JUMPI PUSH2 0x100 DUP1 DUP4 SLOAD DIV MUL DUP4 MSTORE SWAP2 PUSH1 0x20 ADD SWAP2 PUSH2 0x1E2 JUMP JUMPDEST DUP3 ADD SWAP2 SWAP1 PUSH1 0x0 MSTORE PUSH1 0x20 PUSH1 0x0 KECCAK256 SWAP1 JUMPDEST DUP2 SLOAD DUP2 MSTORE SWAP1 PUSH1 0x1 ADD SWAP1 PUSH1 0x20 ADD DUP1 DUP4 GT PUSH2 0x1C5 JUMPI DUP3 SWAP1 SUB PUSH1 0x1F AND DUP3 ADD SWAP2 JUMPDEST POP POP POP POP POP SWAP1 POP PUSH1 0x0 DUP1 PUSH1 0x0 PUSH1 0x3 SLOAD PUSH2 0x3E8 PUSH2 0x1FE SWAP2 SWAP1 PUSH2 0x5AC JUMP JUMPDEST SWAP1 POP PUSH1 0x0 JUMPDEST PUSH1 0x5 PUSH1 0x0 SLOAD PUSH2 0x212 SWAP2 SWAP1 PUSH2 0x5AC JUMP JUMPDEST DUP2 LT ISZERO PUSH2 0x254 JUMPI DUP2 DUP2 PUSH2 0x225 SWAP2 SWAP1 PUSH2 0x6D5 JUMP JUMPDEST SWAP4 POP DUP2 DUP2 PUSH2 0x233 SWAP2 SWAP1 PUSH2 0x5AC JUMP JUMPDEST SWAP3 POP PUSH2 0x23F DUP6 DUP7 PUSH2 0x27B JUMP JUMPDEST SWAP5 POP DUP1 DUP1 PUSH2 0x24C SWAP1 PUSH2 0x68C JUMP JUMPDEST SWAP2 POP POP PUSH2 0x203 JUMP JUMPDEST DUP2 DUP2 PUSH2 0x260 SWAP2 SWAP1 PUSH2 0x6D5 JUMP JUMPDEST SWAP4 POP DUP2 DUP2 PUSH2 0x26E SWAP2 SWAP1 PUSH2 0x5AC JUMP JUMPDEST SWAP3 POP DUP5 SWAP6 POP POP POP POP POP POP SWAP1 JUMP JUMPDEST PUSH1 0x60 DUP3 DUP3 PUSH1 0x40 MLOAD PUSH1 0x20 ADD PUSH2 0x290 SWAP3 SWAP2 SWAP1 PUSH2 0x46D JUMP JUMPDEST PUSH1 0x40 MLOAD PUSH1 0x20 DUP2 DUP4 SUB SUB DUP2 MSTORE SWAP1 PUSH1 0x40 MSTORE SWAP1 POP SWAP3 SWAP2 POP POP JUMP JUMPDEST PUSH1 0x0 PUSH2 0x2BA PUSH2 0x2B5 DUP5 PUSH2 0x4FE JUMP JUMPDEST PUSH2 0x4D9 JUMP JUMPDEST SWAP1 POP DUP3 DUP2 MSTORE PUSH1 0x20 DUP2 ADD DUP5 DUP5 DUP5 ADD GT ISZERO PUSH2 0x2D6 JUMPI PUSH2 0x2D5 PUSH2 0x7C7 JUMP JUMPDEST JUMPDEST PUSH2 0x2E1 DUP5 DUP3 DUP6 PUSH2 0x5E7 JUMP JUMPDEST POP SWAP4 SWAP3 POP POP POP JUMP JUMPDEST PUSH1 0x0 DUP3 PUSH1 0x1F DUP4 ADD SLT PUSH2 0x2FE JUMPI PUSH2 0x2FD PUSH2 0x7C2 JUMP JUMPDEST JUMPDEST DUP2 CALLDATALOAD PUSH2 0x30E DUP5 DUP3 PUSH1 0x20 DUP7 ADD PUSH2 0x2A7 JUMP JUMPDEST SWAP2 POP POP SWAP3 SWAP2 POP POP JUMP JUMPDEST PUSH1 0x0 DUP2 CALLDATALOAD SWAP1 POP PUSH2 0x326 DUP2 PUSH2 0x810 JUMP JUMPDEST SWAP3 SWAP2 POP POP JUMP JUMPDEST PUSH1 0x0 DUP1 PUSH1 0x40 DUP4 DUP6 SUB SLT ISZERO PUSH2 0x343 JUMPI PUSH2 0x342 PUSH2 0x7D1 JUMP JUMPDEST JUMPDEST PUSH1 0x0 DUP4 ADD CALLDATALOAD PUSH8 0xFFFFFFFFFFFFFFFF DUP2 GT ISZERO PUSH2 0x361 JUMPI PUSH2 0x360 PUSH2 0x7CC JUMP JUMPDEST JUMPDEST PUSH2 0x36D DUP6 DUP3 DUP7 ADD PUSH2 0x2E9 JUMP JUMPDEST SWAP3 POP POP PUSH1 0x20 DUP4 ADD CALLDATALOAD PUSH8 0xFFFFFFFFFFFFFFFF DUP2 GT ISZERO PUSH2 0x38E JUMPI PUSH2 0x38D PUSH2 0x7CC JUMP JUMPDEST JUMPDEST PUSH2 0x39A DUP6 DUP3 DUP7 ADD PUSH2 0x2E9 JUMP JUMPDEST SWAP2 POP POP SWAP3 POP SWAP3 SWAP1 POP JUMP JUMPDEST PUSH1 0x0 PUSH1 0x20 DUP3 DUP5 SUB SLT ISZERO PUSH2 0x3BA JUMPI PUSH2 0x3B9 PUSH2 0x7D1 JUMP JUMPDEST JUMPDEST PUSH1 0x0 PUSH2 0x3C8 DUP5 DUP3 DUP6 ADD PUSH2 0x317 JUMP JUMPDEST SWAP2 POP POP SWAP3 SWAP2 POP POP JUMP JUMPDEST PUSH1 0x0 PUSH2 0x3DC DUP3 PUSH2 0x52F JUMP JUMPDEST PUSH2 0x3E6 DUP2 DUP6 PUSH2 0x53A JUMP JUMPDEST SWAP4 POP PUSH2 0x3F6 DUP2 DUP6 PUSH1 0x20 DUP7 ADD PUSH2 0x5F6 JUMP JUMPDEST PUSH2 0x3FF DUP2 PUSH2 0x7D6 JUMP JUMPDEST DUP5 ADD SWAP2 POP POP SWAP3 SWAP2 POP POP JUMP JUMPDEST PUSH1 0x0 PUSH2 0x415 DUP3 PUSH2 0x52F JUMP JUMPDEST PUSH2 0x41F DUP2 DUP6 PUSH2 0x54B JUMP JUMPDEST SWAP4 POP PUSH2 0x42F DUP2 DUP6 PUSH1 0x20 DUP7 ADD PUSH2 0x5F6 JUMP JUMPDEST DUP1 DUP5 ADD SWAP2 POP POP SWAP3 SWAP2 POP POP JUMP JUMPDEST PUSH1 0x0 PUSH2 0x448 PUSH1 0x1 DUP4 PUSH2 0x54B JUMP JUMPDEST SWAP2 POP PUSH2 0x453 DUP3 PUSH2 0x7E7 JUMP JUMPDEST PUSH1 0x1 DUP3 ADD SWAP1 POP SWAP2 SWAP1 POP JUMP JUMPDEST PUSH2 0x467 DUP2 PUSH2 0x5DD JUMP JUMPDEST DUP3 MSTORE POP POP JUMP JUMPDEST PUSH1 0x0 PUSH2 0x479 DUP3 DUP6 PUSH2 0x40A JUMP JUMPDEST SWAP2 POP PUSH2 0x484 DUP3 PUSH2 0x43B JUMP JUMPDEST SWAP2 POP PUSH2 0x490 DUP3 DUP5 PUSH2 0x40A JUMP JUMPDEST SWAP2 POP DUP2 SWAP1 POP SWAP4 SWAP3 POP POP POP JUMP JUMPDEST PUSH1 0x0 PUSH1 0x20 DUP3 ADD SWAP1 POP DUP2 DUP2 SUB PUSH1 0x0 DUP4 ADD MSTORE PUSH2 0x4B6 DUP2 DUP5 PUSH2 0x3D1 JUMP JUMPDEST SWAP1 POP SWAP3 SWAP2 POP POP JUMP JUMPDEST PUSH1 0x0 PUSH1 0x20 DUP3 ADD SWAP1 POP PUSH2 0x4D3 PUSH1 0x0 DUP4 ADD DUP5 PUSH2 0x45E JUMP JUMPDEST SWAP3 SWAP2 POP POP JUMP JUMPDEST PUSH1 0x0 PUSH2 0x4E3 PUSH2 0x4F4 JUMP JUMPDEST SWAP1 POP PUSH2 0x4EF DUP3 DUP3 PUSH2 0x65B JUMP JUMPDEST SWAP2 SWAP1 POP JUMP JUMPDEST PUSH1 0x0 PUSH1 0x40 MLOAD SWAP1 POP SWAP1 JUMP JUMPDEST PUSH1 0x0 PUSH8 0xFFFFFFFFFFFFFFFF DUP3 GT ISZERO PUSH2 0x519 JUMPI PUSH2 0x518 PUSH2 0x793 JUMP JUMPDEST JUMPDEST PUSH2 0x522 DUP3 PUSH2 0x7D6 JUMP JUMPDEST SWAP1 POP PUSH1 0x20 DUP2 ADD SWAP1 POP SWAP2 SWAP1 POP JUMP JUMPDEST PUSH1 0x0 DUP2 MLOAD SWAP1 POP SWAP2 SWAP1 POP JUMP JUMPDEST PUSH1 0x0 DUP3 DUP3 MSTORE PUSH1 0x20 DUP3 ADD SWAP1 POP SWAP3 SWAP2 POP POP JUMP JUMPDEST PUSH1 0x0 DUP2 SWAP1 POP SWAP3 SWAP2 POP POP JUMP JUMPDEST PUSH1 0x0 PUSH2 0x561 DUP3 PUSH2 0x5DD JUMP JUMPDEST SWAP2 POP PUSH2 0x56C DUP4 PUSH2 0x5DD JUMP JUMPDEST SWAP3 POP DUP3 PUSH32 0xFFFFFFFFFFFFFFFFFFFFFFFFFFFFFFFFFFFFFFFFFFFFFFFFFFFFFFFFFFFFFFFF SUB DUP3 GT ISZERO PUSH2 0x5A1 JUMPI PUSH2 0x5A0 PUSH2 0x706 JUMP JUMPDEST JUMPDEST DUP3 DUP3 ADD SWAP1 POP SWAP3 SWAP2 POP POP JUMP JUMPDEST PUSH1 0x0 PUSH2 0x5B7 DUP3 PUSH2 0x5DD JUMP JUMPDEST SWAP2 POP PUSH2 0x5C2 DUP4 PUSH2 0x5DD JUMP JUMPDEST SWAP3 POP DUP3 PUSH2 0x5D2 JUMPI PUSH2 0x5D1 PUSH2 0x735 JUMP JUMPDEST JUMPDEST DUP3 DUP3 DIV SWAP1 POP SWAP3 SWAP2 POP POP JUMP JUMPDEST PUSH1 0x0 DUP2 SWAP1 POP SWAP2 SWAP1 POP JUMP JUMPDEST DUP3 DUP2 DUP4 CALLDATACOPY PUSH1 0x0 DUP4 DUP4 ADD MSTORE POP POP POP JUMP JUMPDEST PUSH1 0x0 JUMPDEST DUP4 DUP2 LT ISZERO PUSH2 0x614 JUMPI DUP1 DUP3 ADD MLOAD DUP2 DUP5 ADD MSTORE PUSH1 0x20 DUP2 ADD SWAP1 POP PUSH2 0x5F9 JUMP JUMPDEST DUP4 DUP2 GT ISZERO PUSH2 0x623 JUMPI PUSH1 0x0 DUP5 DUP5 ADD MSTORE JUMPDEST POP POP POP POP JUMP JUMPDEST PUSH1 0x0 PUSH1 0x2 DUP3 DIV SWAP1 POP PUSH1 0x1 DUP3 AND DUP1 PUSH2 0x641 JUMPI PUSH1 0x7F DUP3 AND SWAP2 POP JUMPDEST PUSH1 0x20 DUP3 LT DUP2 EQ ISZERO PUSH2 0x655 JUMPI PUSH2 0x654 PUSH2 0x764 JUMP JUMPDEST JUMPDEST POP SWAP2 SWAP1 POP JUMP JUMPDEST PUSH2 0x664 DUP3 PUSH2 0x7D6 JUMP JUMPDEST DUP2 ADD DUP2 DUP2 LT PUSH8 0xFFFFFFFFFFFFFFFF DUP3 GT OR ISZERO PUSH2 0x683 JUMPI PUSH2 0x682 PUSH2 0x793 JUMP JUMPDEST JUMPDEST DUP1 PUSH1 0x40 MSTORE POP POP POP JUMP JUMPDEST PUSH1 0x0 PUSH2 0x697 DUP3 PUSH2 0x5DD JUMP JUMPDEST SWAP2 POP PUSH32 0xFFFFFFFFFFFFFFFFFFFFFFFFFFFFFFFFFFFFFFFFFFFFFFFFFFFFFFFFFFFFFFFF DUP3 EQ ISZERO PUSH2 0x6CA JUMPI PUSH2 0x6C9 PUSH2 0x706 JUMP JUMPDEST JUMPDEST PUSH1 0x1 DUP3 ADD SWAP1 POP SWAP2 SWAP1 POP JUMP JUMPDEST PUSH1 0x0 PUSH2 0x6E0 DUP3 PUSH2 0x5DD JUMP JUMPDEST SWAP2 POP PUSH2 0x6EB DUP4 PUSH2 0x5DD JUMP JUMPDEST SWAP3 POP DUP3 PUSH2 0x6FB JUMPI PUSH2 0x6FA PUSH2 0x735 JUMP JUMPDEST JUMPDEST DUP3 DUP3 MOD SWAP1 POP SWAP3 SWAP2 POP POP JUMP JUMPDEST PUSH32 0x4E487B7100000000000000000000000000000000000000000000000000000000 PUSH1 0x0 MSTORE PUSH1 0x11 PUSH1 0x4 MSTORE PUSH1 0x24 PUSH1 0x0 REVERT JUMPDEST PUSH32 0x4E487B7100000000000000000000000000000000000000000000000000000000 PUSH1 0x0 MSTORE PUSH1 0x12 PUSH1 0x4 MSTORE PUSH1 0x24 PUSH1 0x0 REVERT JUMPDEST PUSH32 0x4E487B7100000000000000000000000000000000000000000000000000000000 PUSH1 0x0 MSTORE PUSH1 0x22 PUSH1 0x4 MSTORE PUSH1 0x24 PUSH1 0x0 REVERT JUMPDEST PUSH32 0x4E487B7100000000000000000000000000000000000000000000000000000000 PUSH1 0x0 MSTORE PUSH1 0x41 PUSH1 0x4 MSTORE PUSH1 0x24 PUSH1 0x0 REVERT JUMPDEST PUSH1 0x0 DUP1 REVERT JUMPDEST PUSH1 0x0 DUP1 REVERT JUMPDEST PUSH1 0x0 DUP1 REVERT JUMPDEST PUSH1 0x0 DUP1 REVERT JUMPDEST PUSH1 0x0 PUSH1 0x1F NOT PUSH1 0x1F DUP4 ADD AND SWAP1 POP SWAP2 SWAP1 POP JUMP JUMPDEST PUSH32 0x2000000000000000000000000000000000000000000000000000000000000000 PUSH1 0x0 DUP3 ADD MSTORE POP JUMP JUMPDEST PUSH2 0x819 DUP2 PUSH2 0x5DD JUMP JUMPDEST DUP2 EQ PUSH2 0x824 JUMPI PUSH1 0x0 DUP1 REVERT JUMPDEST POP JUMP INVALID LOG2 PUSH5 0x6970667358 0x22 SLT KECCAK256 SSTORE DUP5 LOG2 PUSH14 0x345B6671AE180F219AA1502E124B 0xB5 0xAF 0xBD 0xAC PUSH12 0xA74B57EF52006189A264736F PUSH13 0x63430008070033000000000000 "
				},
				"gasEstimates": {
					"creation": {
						"codeDepositCost": "428200",
						"executionCost": "27573",
						"totalCost": "455773"
					},
					"external": {
						"concat(string,string)": "infinite",
						"get()": "infinite",
						"set(uint256)": "22498",
						"sqrt(uint256)": "infinite"
					}
				},
				"methodIdentifiers": {
					"concat(string,string)": "89c19ddb",
					"get()": "6d4ce63c",
					"set(uint256)": "60fe47b1",
					"sqrt(uint256)": "677342ce"
				}
			},
			"storageLayout": {
				"storage": [
					{
						"astId": 406,
						"contract": "svg.sol:SimpleStorage",
						"label": "number",
						"offset": 0,
						"slot": "0",
						"type": "t_uint256"
					},
					{
						"astId": 408,
						"contract": "svg.sol:SimpleStorage",
						"label": "svgHeader",
						"offset": 0,
						"slot": "1",
						"type": "t_string_storage"
					},
					{
						"astId": 410,
						"contract": "svg.sol:SimpleStorage",
						"label": "svgFooter",
						"offset": 0,
						"slot": "2",
						"type": "t_string_storage"
					},
					{
						"astId": 412,
						"contract": "svg.sol:SimpleStorage",
						"label": "orderDel",
						"offset": 0,
						"slot": "3",
						"type": "t_uint256"
					},
					{
						"astId": 414,
						"contract": "svg.sol:SimpleStorage",
						"label": "svgScale",
						"offset": 0,
						"slot": "4",
						"type": "t_uint256"
					},
					{
						"astId": 417,
						"contract": "svg.sol:SimpleStorage",
						"label": "cnt",
						"offset": 0,
						"slot": "5",
						"type": "t_uint256"
					}
				],
				"types": {
					"t_string_storage": {
						"encoding": "bytes",
						"label": "string",
						"numberOfBytes": "32"
					},
					"t_uint256": {
						"encoding": "inplace",
						"label": "uint256",
						"numberOfBytes": "32"
					}
				}
			},
			"userdoc": {
				"kind": "user",
				"methods": {},
				"version": 1
			}
		}
	}
}