{
	"svg.sol": {
		"SimpleStorage": {
			"abi": [
				{
					"inputs": [
						{
							"internalType": "string",
							"name": "a",
							"type": "string"
						},
						{
							"internalType": "string",
							"name": "b",
							"type": "string"
						}
					],
					"name": "concat",
					"outputs": [
						{
							"internalType": "string",
							"name": "",
							"type": "string"
						}
					],
					"stateMutability": "pure",
					"type": "function"
				},
				{
					"inputs": [],
					"name": "get",
					"outputs": [
						{
							"internalType": "string",
							"name": "",
							"type": "string"
						}
					],
					"stateMutability": "view",
					"type": "function"
				},
				{
					"inputs": [
						{
							"internalType": "uint256",
							"name": "n",
							"type": "uint256"
						}
					],
					"name": "set",
					"outputs": [],
					"stateMutability": "nonpayable",
					"type": "function"
				},
				{
					"inputs": [
						{
							"internalType": "uint256",
							"name": "x",
							"type": "uint256"
						}
					],
					"name": "sqrt",
					"outputs": [
						{
							"internalType": "uint256",
							"name": "",
							"type": "uint256"
						}
					],
					"stateMutability": "pure",
					"type": "function"
				}
			],
			"devdoc": {
				"kind": "dev",
				"methods": {},
				"version": 1
			},
			"evm": {
				"assembly": "    /* \"svg.sol\":152:873  contract SimpleStorage {\r... */\n  mstore(0x40, 0x80)\n  callvalue\n  dup1\n  iszero\n  tag_1\n  jumpi\n  0x00\n  dup1\n  revert\ntag_1:\n  pop\n  dataSize(sub_0)\n  dup1\n  dataOffset(sub_0)\n  0x00\n  codecopy\n  0x00\n  return\nstop\n\nsub_0: assembly {\n        /* \"svg.sol\":152:873  contract SimpleStorage {\r... */\n      mstore(0x40, 0x80)\n      callvalue\n      dup1\n      iszero\n      tag_1\n      jumpi\n      0x00\n      dup1\n      revert\n    tag_1:\n      pop\n      jumpi(tag_2, lt(calldatasize, 0x04))\n      shr(0xe0, calldataload(0x00))\n      dup1\n      0x60fe47b1\n      eq\n      tag_3\n      jumpi\n      dup1\n      0x677342ce\n      eq\n      tag_4\n      jumpi\n      dup1\n      0x6d4ce63c\n      eq\n      tag_5\n      jumpi\n      dup1\n      0x89c19ddb\n      eq\n      tag_6\n      jumpi\n    tag_2:\n      0x00\n      dup1\n      revert\n        /* \"svg.sol\":200:255  function set(uint n) public {\r... */\n    tag_3:\n      tag_7\n      0x04\n      dup1\n      calldatasize\n      sub\n      dup2\n      add\n      swap1\n      tag_8\n      swap2\n      swap1\n      tag_9\n      jump\t// in\n    tag_8:\n      tag_10\n      jump\t// in\n    tag_7:\n      stop\n        /* \"svg.sol\":430:671  function sqrt(uint x) public pure returns(uint) {\r... */\n    tag_4:\n      tag_11\n      0x04\n      dup1\n      calldatasize\n      sub\n      dup2\n      add\n      swap1\n      tag_12\n      swap2\n      swap1\n      tag_9\n      jump\t// in\n    tag_12:\n      tag_13\n      jump\t// in\n    tag_11:\n      mload(0x40)\n      tag_14\n      swap2\n      swap1\n      tag_15\n      jump\t// in\n    tag_14:\n      mload(0x40)\n      dup1\n      swap2\n      sub\n      swap1\n      return\n        /* \"svg.sol\":263:402  function get() public view returns (string memory) {\r... */\n    tag_5:\n      tag_16\n      tag_17\n      jump\t// in\n    tag_16:\n      mload(0x40)\n      tag_18\n      swap2\n      swap1\n      tag_19\n      jump\t// in\n    tag_18:\n      mload(0x40)\n      dup1\n      swap2\n      sub\n      swap1\n      return\n        /* \"svg.sol\":726:869  function concat(string memory a,string memory b) public pure returns (string memory){\r... */\n    tag_6:\n      tag_20\n      0x04\n      dup1\n      calldatasize\n      sub\n      dup2\n      add\n      swap1\n      tag_21\n      swap2\n      swap1\n      tag_22\n      jump\t// in\n    tag_21:\n      tag_23\n      jump\t// in\n    tag_20:\n      mload(0x40)\n      tag_24\n      swap2\n      swap1\n      tag_19\n      jump\t// in\n    tag_24:\n      mload(0x40)\n      dup1\n      swap2\n      sub\n      swap1\n      return\n        /* \"svg.sol\":200:255  function set(uint n) public {\r... */\n    tag_10:\n        /* \"svg.sol\":246:247  n */\n      dup1\n        /* \"svg.sol\":239:245  number */\n      0x00\n        /* \"svg.sol\":239:247  number=n */\n      dup2\n      swap1\n      sstore\n      pop\n        /* \"svg.sol\":200:255  function set(uint n) public {\r... */\n      pop\n      jump\t// out\n        /* \"svg.sol\":430:671  function sqrt(uint x) public pure returns(uint) {\r... */\n    tag_13:\n        /* \"svg.sol\":472:476  uint */\n      0x00\n        /* \"svg.sol\":489:495  uint z */\n      dup1\n        /* \"svg.sol\":509:510  2 */\n      0x02\n        /* \"svg.sol\":503:504  1 */\n      0x01\n        /* \"svg.sol\":499:500  x */\n      dup5\n        /* \"svg.sol\":499:504  x + 1 */\n      tag_27\n      swap2\n      swap1\n      tag_28\n      jump\t// in\n    tag_27:\n        /* \"svg.sol\":498:510  (x + 1 ) / 2 */\n      tag_29\n      swap2\n      swap1\n      tag_30\n      jump\t// in\n    tag_29:\n        /* \"svg.sol\":489:510  uint z = (x + 1 ) / 2 */\n      swap1\n      pop\n        /* \"svg.sol\":512:518  uint y */\n      0x00\n        /* \"svg.sol\":521:522  x */\n      dup4\n        /* \"svg.sol\":512:522  uint y = x */\n      swap1\n      pop\n        /* \"svg.sol\":534:643  while(z < y)\r... */\n    tag_31:\n        /* \"svg.sol\":544:545  y */\n      dup1\n        /* \"svg.sol\":540:541  z */\n      dup3\n        /* \"svg.sol\":540:545  z < y */\n      lt\n        /* \"svg.sol\":534:643  while(z < y)\r... */\n      iszero\n      tag_32\n      jumpi\n        /* \"svg.sol\":584:585  z */\n      dup2\n        /* \"svg.sol\":580:585  y = z */\n      swap1\n      pop\n        /* \"svg.sol\":625:626  2 */\n      0x02\n        /* \"svg.sol\":619:620  z */\n      dup3\n        /* \"svg.sol\":615:616  z */\n      dup4\n        /* \"svg.sol\":611:612  x */\n      dup7\n        /* \"svg.sol\":611:616  x / z */\n      tag_33\n      swap2\n      swap1\n      tag_30\n      jump\t// in\n    tag_33:\n        /* \"svg.sol\":611:620  x / z + z */\n      tag_34\n      swap2\n      swap1\n      tag_28\n      jump\t// in\n    tag_34:\n        /* \"svg.sol\":609:626  ( x / z + z ) / 2 */\n      tag_35\n      swap2\n      swap1\n      tag_30\n      jump\t// in\n    tag_35:\n        /* \"svg.sol\":605:626  z = ( x / z + z ) / 2 */\n      swap2\n      pop\n        /* \"svg.sol\":534:643  while(z < y)\r... */\n      jump(tag_31)\n    tag_32:\n        /* \"svg.sol\":661:662  y */\n      dup1\n        /* \"svg.sol\":654:662  return y */\n      swap3\n      pop\n      pop\n      pop\n        /* \"svg.sol\":430:671  function sqrt(uint x) public pure returns(uint) {\r... */\n      swap2\n      swap1\n      pop\n      jump\t// out\n        /* \"svg.sol\":263:402  function get() public view returns (string memory) {\r... */\n    tag_17:\n        /* \"svg.sol\":299:312  string memory */\n      0x60\n        /* \"svg.sol\":326:341  string memory a */\n      0x00\n        /* \"svg.sol\":342:373  concat(\"component\",\"component\") */\n      tag_37\n      mload(0x40)\n      dup1\n      0x40\n      add\n      0x40\n      mstore\n      dup1\n      0x09\n      dup2\n      mstore\n      0x20\n      add\n      0x636f6d706f6e656e740000000000000000000000000000000000000000000000\n      dup2\n      mstore\n      pop\n      mload(0x40)\n      dup1\n      0x40\n      add\n      0x40\n      mstore\n      dup1\n      0x09\n      dup2\n      mstore\n      0x20\n      add\n      0x636f6d706f6e656e740000000000000000000000000000000000000000000000\n      dup2\n      mstore\n      pop\n        /* \"svg.sol\":342:348  concat */\n      tag_23\n        /* \"svg.sol\":342:373  concat(\"component\",\"component\") */\n      jump\t// in\n    tag_37:\n        /* \"svg.sol\":326:373  string memory a=concat(\"component\",\"component\") */\n      swap1\n      pop\n        /* \"svg.sol\":392:393  a */\n      dup1\n        /* \"svg.sol\":385:393  return a */\n      swap2\n      pop\n      pop\n        /* \"svg.sol\":263:402  function get() public view returns (string memory) {\r... */\n      swap1\n      jump\t// out\n        /* \"svg.sol\":726:869  function concat(string memory a,string memory b) public pure returns (string memory){\r... */\n    tag_23:\n        /* \"svg.sol\":796:809  string memory */\n      0x60\n        /* \"svg.sol\":852:853  a */\n      dup3\n        /* \"svg.sol\":858:859  b */\n      dup3\n        /* \"svg.sol\":835:860  abi.encodePacked(a,' ',b) */\n      add(0x20, mload(0x40))\n      tag_39\n      swap3\n      swap2\n      swap1\n      tag_40\n      jump\t// in\n    tag_39:\n      mload(0x40)\n      0x20\n      dup2\n      dup4\n      sub\n      sub\n      dup2\n      mstore\n      swap1\n      0x40\n      mstore\n        /* \"svg.sol\":821:861  return string(abi.encodePacked(a,' ',b)) */\n      swap1\n      pop\n        /* \"svg.sol\":726:869  function concat(string memory a,string memory b) public pure returns (string memory){\r... */\n      swap3\n      swap2\n      pop\n      pop\n      jump\t// out\n        /* \"#utility.yul\":7:419   */\n    tag_42:\n        /* \"#utility.yul\":85:90   */\n      0x00\n        /* \"#utility.yul\":110:176   */\n      tag_44\n        /* \"#utility.yul\":126:175   */\n      tag_45\n        /* \"#utility.yul\":168:174   */\n      dup5\n        /* \"#utility.yul\":126:175   */\n      tag_46\n      jump\t// in\n    tag_45:\n        /* \"#utility.yul\":110:176   */\n      tag_47\n      jump\t// in\n    tag_44:\n        /* \"#utility.yul\":101:176   */\n      swap1\n      pop\n        /* \"#utility.yul\":199:205   */\n      dup3\n        /* \"#utility.yul\":192:197   */\n      dup2\n        /* \"#utility.yul\":185:206   */\n      mstore\n        /* \"#utility.yul\":237:241   */\n      0x20\n        /* \"#utility.yul\":230:235   */\n      dup2\n        /* \"#utility.yul\":226:242   */\n      add\n        /* \"#utility.yul\":275:278   */\n      dup5\n        /* \"#utility.yul\":266:272   */\n      dup5\n        /* \"#utility.yul\":261:264   */\n      dup5\n        /* \"#utility.yul\":257:273   */\n      add\n        /* \"#utility.yul\":254:279   */\n      gt\n        /* \"#utility.yul\":251:363   */\n      iszero\n      tag_48\n      jumpi\n        /* \"#utility.yul\":282:361   */\n      tag_49\n      tag_50\n      jump\t// in\n    tag_49:\n        /* \"#utility.yul\":251:363   */\n    tag_48:\n        /* \"#utility.yul\":372:413   */\n      tag_51\n        /* \"#utility.yul\":406:412   */\n      dup5\n        /* \"#utility.yul\":401:404   */\n      dup3\n        /* \"#utility.yul\":396:399   */\n      dup6\n        /* \"#utility.yul\":372:413   */\n      tag_52\n      jump\t// in\n    tag_51:\n        /* \"#utility.yul\":91:419   */\n      pop\n        /* \"#utility.yul\":7:419   */\n      swap4\n      swap3\n      pop\n      pop\n      pop\n      jump\t// out\n        /* \"#utility.yul\":439:779   */\n    tag_53:\n        /* \"#utility.yul\":495:500   */\n      0x00\n        /* \"#utility.yul\":544:547   */\n      dup3\n        /* \"#utility.yul\":537:541   */\n      0x1f\n        /* \"#utility.yul\":529:535   */\n      dup4\n        /* \"#utility.yul\":525:542   */\n      add\n        /* \"#utility.yul\":521:548   */\n      slt\n        /* \"#utility.yul\":511:633   */\n      tag_55\n      jumpi\n        /* \"#utility.yul\":552:631   */\n      tag_56\n      tag_57\n      jump\t// in\n    tag_56:\n        /* \"#utility.yul\":511:633   */\n    tag_55:\n        /* \"#utility.yul\":669:675   */\n      dup2\n        /* \"#utility.yul\":656:676   */\n      calldataload\n        /* \"#utility.yul\":694:773   */\n      tag_58\n        /* \"#utility.yul\":769:772   */\n      dup5\n        /* \"#utility.yul\":761:767   */\n      dup3\n        /* \"#utility.yul\":754:758   */\n      0x20\n        /* \"#utility.yul\":746:752   */\n      dup7\n        /* \"#utility.yul\":742:759   */\n      add\n        /* \"#utility.yul\":694:773   */\n      tag_42\n      jump\t// in\n    tag_58:\n        /* \"#utility.yul\":685:773   */\n      swap2\n      pop\n        /* \"#utility.yul\":501:779   */\n      pop\n        /* \"#utility.yul\":439:779   */\n      swap3\n      swap2\n      pop\n      pop\n      jump\t// out\n        /* \"#utility.yul\":785:924   */\n    tag_59:\n        /* \"#utility.yul\":831:836   */\n      0x00\n        /* \"#utility.yul\":869:875   */\n      dup2\n        /* \"#utility.yul\":856:876   */\n      calldataload\n        /* \"#utility.yul\":847:876   */\n      swap1\n      pop\n        /* \"#utility.yul\":885:918   */\n      tag_61\n        /* \"#utility.yul\":912:917   */\n      dup2\n        /* \"#utility.yul\":885:918   */\n      tag_62\n      jump\t// in\n    tag_61:\n        /* \"#utility.yul\":785:924   */\n      swap3\n      swap2\n      pop\n      pop\n      jump\t// out\n        /* \"#utility.yul\":930:1764   */\n    tag_22:\n        /* \"#utility.yul\":1018:1024   */\n      0x00\n        /* \"#utility.yul\":1026:1032   */\n      dup1\n        /* \"#utility.yul\":1075:1077   */\n      0x40\n        /* \"#utility.yul\":1063:1072   */\n      dup4\n        /* \"#utility.yul\":1054:1061   */\n      dup6\n        /* \"#utility.yul\":1050:1073   */\n      sub\n        /* \"#utility.yul\":1046:1078   */\n      slt\n        /* \"#utility.yul\":1043:1162   */\n      iszero\n      tag_64\n      jumpi\n        /* \"#utility.yul\":1081:1160   */\n      tag_65\n      tag_66\n      jump\t// in\n    tag_65:\n        /* \"#utility.yul\":1043:1162   */\n    tag_64:\n        /* \"#utility.yul\":1229:1230   */\n      0x00\n        /* \"#utility.yul\":1218:1227   */\n      dup4\n        /* \"#utility.yul\":1214:1231   */\n      add\n        /* \"#utility.yul\":1201:1232   */\n      calldataload\n        /* \"#utility.yul\":1259:1277   */\n      0xffffffffffffffff\n        /* \"#utility.yul\":1251:1257   */\n      dup2\n        /* \"#utility.yul\":1248:1278   */\n      gt\n        /* \"#utility.yul\":1245:1362   */\n      iszero\n      tag_67\n      jumpi\n        /* \"#utility.yul\":1281:1360   */\n      tag_68\n      tag_69\n      jump\t// in\n    tag_68:\n        /* \"#utility.yul\":1245:1362   */\n    tag_67:\n        /* \"#utility.yul\":1386:1449   */\n      tag_70\n        /* \"#utility.yul\":1441:1448   */\n      dup6\n        /* \"#utility.yul\":1432:1438   */\n      dup3\n        /* \"#utility.yul\":1421:1430   */\n      dup7\n        /* \"#utility.yul\":1417:1439   */\n      add\n        /* \"#utility.yul\":1386:1449   */\n      tag_53\n      jump\t// in\n    tag_70:\n        /* \"#utility.yul\":1376:1449   */\n      swap3\n      pop\n        /* \"#utility.yul\":1172:1459   */\n      pop\n        /* \"#utility.yul\":1526:1528   */\n      0x20\n        /* \"#utility.yul\":1515:1524   */\n      dup4\n        /* \"#utility.yul\":1511:1529   */\n      add\n        /* \"#utility.yul\":1498:1530   */\n      calldataload\n        /* \"#utility.yul\":1557:1575   */\n      0xffffffffffffffff\n        /* \"#utility.yul\":1549:1555   */\n      dup2\n        /* \"#utility.yul\":1546:1576   */\n      gt\n        /* \"#utility.yul\":1543:1660   */\n      iszero\n      tag_71\n      jumpi\n        /* \"#utility.yul\":1579:1658   */\n      tag_72\n      tag_69\n      jump\t// in\n    tag_72:\n        /* \"#utility.yul\":1543:1660   */\n    tag_71:\n        /* \"#utility.yul\":1684:1747   */\n      tag_73\n        /* \"#utility.yul\":1739:1746   */\n      dup6\n        /* \"#utility.yul\":1730:1736   */\n      dup3\n        /* \"#utility.yul\":1719:1728   */\n      dup7\n        /* \"#utility.yul\":1715:1737   */\n      add\n        /* \"#utility.yul\":1684:1747   */\n      tag_53\n      jump\t// in\n    tag_73:\n        /* \"#utility.yul\":1674:1747   */\n      swap2\n      pop\n        /* \"#utility.yul\":1469:1757   */\n      pop\n        /* \"#utility.yul\":930:1764   */\n      swap3\n      pop\n      swap3\n      swap1\n      pop\n      jump\t// out\n        /* \"#utility.yul\":1770:2099   */\n    tag_9:\n        /* \"#utility.yul\":1829:1835   */\n      0x00\n        /* \"#utility.yul\":1878:1880   */\n      0x20\n        /* \"#utility.yul\":1866:1875   */\n      dup3\n        /* \"#utility.yul\":1857:1864   */\n      dup5\n        /* \"#utility.yul\":1853:1876   */\n      sub\n        /* \"#utility.yul\":1849:1881   */\n      slt\n        /* \"#utility.yul\":1846:1965   */\n      iszero\n      tag_75\n      jumpi\n        /* \"#utility.yul\":1884:1963   */\n      tag_76\n      tag_66\n      jump\t// in\n    tag_76:\n        /* \"#utility.yul\":1846:1965   */\n    tag_75:\n        /* \"#utility.yul\":2004:2005   */\n      0x00\n        /* \"#utility.yul\":2029:2082   */\n      tag_77\n        /* \"#utility.yul\":2074:2081   */\n      dup5\n        /* \"#utility.yul\":2065:2071   */\n      dup3\n        /* \"#utility.yul\":2054:2063   */\n      dup6\n        /* \"#utility.yul\":2050:2072   */\n      add\n        /* \"#utility.yul\":2029:2082   */\n      tag_59\n      jump\t// in\n    tag_77:\n        /* \"#utility.yul\":2019:2082   */\n      swap2\n      pop\n        /* \"#utility.yul\":1975:2092   */\n      pop\n        /* \"#utility.yul\":1770:2099   */\n      swap3\n      swap2\n      pop\n      pop\n      jump\t// out\n        /* \"#utility.yul\":2105:2469   */\n    tag_78:\n        /* \"#utility.yul\":2193:2196   */\n      0x00\n        /* \"#utility.yul\":2221:2260   */\n      tag_80\n        /* \"#utility.yul\":2254:2259   */\n      dup3\n        /* \"#utility.yul\":2221:2260   */\n      tag_81\n      jump\t// in\n    tag_80:\n        /* \"#utility.yul\":2276:2347   */\n      tag_82\n        /* \"#utility.yul\":2340:2346   */\n      dup2\n        /* \"#utility.yul\":2335:2338   */\n      dup6\n        /* \"#utility.yul\":2276:2347   */\n      tag_83\n      jump\t// in\n    tag_82:\n        /* \"#utility.yul\":2269:2347   */\n      swap4\n      pop\n        /* \"#utility.yul\":2356:2408   */\n      tag_84\n        /* \"#utility.yul\":2401:2407   */\n      dup2\n        /* \"#utility.yul\":2396:2399   */\n      dup6\n        /* \"#utility.yul\":2389:2393   */\n      0x20\n        /* \"#utility.yul\":2382:2387   */\n      dup7\n        /* \"#utility.yul\":2378:2394   */\n      add\n        /* \"#utility.yul\":2356:2408   */\n      tag_85\n      jump\t// in\n    tag_84:\n        /* \"#utility.yul\":2433:2462   */\n      tag_86\n        /* \"#utility.yul\":2455:2461   */\n      dup2\n        /* \"#utility.yul\":2433:2462   */\n      tag_87\n      jump\t// in\n    tag_86:\n        /* \"#utility.yul\":2428:2431   */\n      dup5\n        /* \"#utility.yul\":2424:2463   */\n      add\n        /* \"#utility.yul\":2417:2463   */\n      swap2\n      pop\n        /* \"#utility.yul\":2197:2469   */\n      pop\n        /* \"#utility.yul\":2105:2469   */\n      swap3\n      swap2\n      pop\n      pop\n      jump\t// out\n        /* \"#utility.yul\":2475:2852   */\n    tag_88:\n        /* \"#utility.yul\":2581:2584   */\n      0x00\n        /* \"#utility.yul\":2609:2648   */\n      tag_90\n        /* \"#utility.yul\":2642:2647   */\n      dup3\n        /* \"#utility.yul\":2609:2648   */\n      tag_81\n      jump\t// in\n    tag_90:\n        /* \"#utility.yul\":2664:2753   */\n      tag_91\n        /* \"#utility.yul\":2746:2752   */\n      dup2\n        /* \"#utility.yul\":2741:2744   */\n      dup6\n        /* \"#utility.yul\":2664:2753   */\n      tag_92\n      jump\t// in\n    tag_91:\n        /* \"#utility.yul\":2657:2753   */\n      swap4\n      pop\n        /* \"#utility.yul\":2762:2814   */\n      tag_93\n        /* \"#utility.yul\":2807:2813   */\n      dup2\n        /* \"#utility.yul\":2802:2805   */\n      dup6\n        /* \"#utility.yul\":2795:2799   */\n      0x20\n        /* \"#utility.yul\":2788:2793   */\n      dup7\n        /* \"#utility.yul\":2784:2800   */\n      add\n        /* \"#utility.yul\":2762:2814   */\n      tag_85\n      jump\t// in\n    tag_93:\n        /* \"#utility.yul\":2839:2845   */\n      dup1\n        /* \"#utility.yul\":2834:2837   */\n      dup5\n        /* \"#utility.yul\":2830:2846   */\n      add\n        /* \"#utility.yul\":2823:2846   */\n      swap2\n      pop\n        /* \"#utility.yul\":2585:2852   */\n      pop\n        /* \"#utility.yul\":2475:2852   */\n      swap3\n      swap2\n      pop\n      pop\n      jump\t// out\n        /* \"#utility.yul\":2858:3258   */\n    tag_94:\n        /* \"#utility.yul\":3018:3021   */\n      0x00\n        /* \"#utility.yul\":3039:3123   */\n      tag_96\n        /* \"#utility.yul\":3121:3122   */\n      0x01\n        /* \"#utility.yul\":3116:3119   */\n      dup4\n        /* \"#utility.yul\":3039:3123   */\n      tag_92\n      jump\t// in\n    tag_96:\n        /* \"#utility.yul\":3032:3123   */\n      swap2\n      pop\n        /* \"#utility.yul\":3132:3225   */\n      tag_97\n        /* \"#utility.yul\":3221:3224   */\n      dup3\n        /* \"#utility.yul\":3132:3225   */\n      tag_98\n      jump\t// in\n    tag_97:\n        /* \"#utility.yul\":3250:3251   */\n      0x01\n        /* \"#utility.yul\":3245:3248   */\n      dup3\n        /* \"#utility.yul\":3241:3252   */\n      add\n        /* \"#utility.yul\":3234:3252   */\n      swap1\n      pop\n        /* \"#utility.yul\":2858:3258   */\n      swap2\n      swap1\n      pop\n      jump\t// out\n        /* \"#utility.yul\":3264:3382   */\n    tag_99:\n        /* \"#utility.yul\":3351:3375   */\n      tag_101\n        /* \"#utility.yul\":3369:3374   */\n      dup2\n        /* \"#utility.yul\":3351:3375   */\n      tag_102\n      jump\t// in\n    tag_101:\n        /* \"#utility.yul\":3346:3349   */\n      dup3\n        /* \"#utility.yul\":3339:3376   */\n      mstore\n        /* \"#utility.yul\":3264:3382   */\n      pop\n      pop\n      jump\t// out\n        /* \"#utility.yul\":3388:4089   */\n    tag_40:\n        /* \"#utility.yul\":3669:3672   */\n      0x00\n        /* \"#utility.yul\":3691:3786   */\n      tag_104\n        /* \"#utility.yul\":3782:3785   */\n      dup3\n        /* \"#utility.yul\":3773:3779   */\n      dup6\n        /* \"#utility.yul\":3691:3786   */\n      tag_88\n      jump\t// in\n    tag_104:\n        /* \"#utility.yul\":3684:3786   */\n      swap2\n      pop\n        /* \"#utility.yul\":3803:3951   */\n      tag_105\n        /* \"#utility.yul\":3947:3950   */\n      dup3\n        /* \"#utility.yul\":3803:3951   */\n      tag_94\n      jump\t// in\n    tag_105:\n        /* \"#utility.yul\":3796:3951   */\n      swap2\n      pop\n        /* \"#utility.yul\":3968:4063   */\n      tag_106\n        /* \"#utility.yul\":4059:4062   */\n      dup3\n        /* \"#utility.yul\":4050:4056   */\n      dup5\n        /* \"#utility.yul\":3968:4063   */\n      tag_88\n      jump\t// in\n    tag_106:\n        /* \"#utility.yul\":3961:4063   */\n      swap2\n      pop\n        /* \"#utility.yul\":4080:4083   */\n      dup2\n        /* \"#utility.yul\":4073:4083   */\n      swap1\n      pop\n        /* \"#utility.yul\":3388:4089   */\n      swap4\n      swap3\n      pop\n      pop\n      pop\n      jump\t// out\n        /* \"#utility.yul\":4095:4408   */\n    tag_19:\n        /* \"#utility.yul\":4208:4212   */\n      0x00\n        /* \"#utility.yul\":4246:4248   */\n      0x20\n        /* \"#utility.yul\":4235:4244   */\n      dup3\n        /* \"#utility.yul\":4231:4249   */\n      add\n        /* \"#utility.yul\":4223:4249   */\n      swap1\n      pop\n        /* \"#utility.yul\":4295:4304   */\n      dup2\n        /* \"#utility.yul\":4289:4293   */\n      dup2\n        /* \"#utility.yul\":4285:4305   */\n      sub\n        /* \"#utility.yul\":4281:4282   */\n      0x00\n        /* \"#utility.yul\":4270:4279   */\n      dup4\n        /* \"#utility.yul\":4266:4283   */\n      add\n        /* \"#utility.yul\":4259:4306   */\n      mstore\n        /* \"#utility.yul\":4323:4401   */\n      tag_108\n        /* \"#utility.yul\":4396:4400   */\n      dup2\n        /* \"#utility.yul\":4387:4393   */\n      dup5\n        /* \"#utility.yul\":4323:4401   */\n      tag_78\n      jump\t// in\n    tag_108:\n        /* \"#utility.yul\":4315:4401   */\n      swap1\n      pop\n        /* \"#utility.yul\":4095:4408   */\n      swap3\n      swap2\n      pop\n      pop\n      jump\t// out\n        /* \"#utility.yul\":4414:4636   */\n    tag_15:\n        /* \"#utility.yul\":4507:4511   */\n      0x00\n        /* \"#utility.yul\":4545:4547   */\n      0x20\n        /* \"#utility.yul\":4534:4543   */\n      dup3\n        /* \"#utility.yul\":4530:4548   */\n      add\n        /* \"#utility.yul\":4522:4548   */\n      swap1\n      pop\n        /* \"#utility.yul\":4558:4629   */\n      tag_110\n        /* \"#utility.yul\":4626:4627   */\n      0x00\n        /* \"#utility.yul\":4615:4624   */\n      dup4\n        /* \"#utility.yul\":4611:4628   */\n      add\n        /* \"#utility.yul\":4602:4608   */\n      dup5\n        /* \"#utility.yul\":4558:4629   */\n      tag_99\n      jump\t// in\n    tag_110:\n        /* \"#utility.yul\":4414:4636   */\n      swap3\n      swap2\n      pop\n      pop\n      jump\t// out\n        /* \"#utility.yul\":4642:4771   */\n    tag_47:\n        /* \"#utility.yul\":4676:4682   */\n      0x00\n        /* \"#utility.yul\":4703:4723   */\n      tag_112\n      tag_113\n      jump\t// in\n    tag_112:\n        /* \"#utility.yul\":4693:4723   */\n      swap1\n      pop\n        /* \"#utility.yul\":4732:4765   */\n      tag_114\n        /* \"#utility.yul\":4760:4764   */\n      dup3\n        /* \"#utility.yul\":4752:4758   */\n      dup3\n        /* \"#utility.yul\":4732:4765   */\n      tag_115\n      jump\t// in\n    tag_114:\n        /* \"#utility.yul\":4642:4771   */\n      swap2\n      swap1\n      pop\n      jump\t// out\n        /* \"#utility.yul\":4777:4852   */\n    tag_113:\n        /* \"#utility.yul\":4810:4816   */\n      0x00\n        /* \"#utility.yul\":4843:4845   */\n      0x40\n        /* \"#utility.yul\":4837:4846   */\n      mload\n        /* \"#utility.yul\":4827:4846   */\n      swap1\n      pop\n        /* \"#utility.yul\":4777:4852   */\n      swap1\n      jump\t// out\n        /* \"#utility.yul\":4858:5166   */\n    tag_46:\n        /* \"#utility.yul\":4920:4924   */\n      0x00\n        /* \"#utility.yul\":5010:5028   */\n      0xffffffffffffffff\n        /* \"#utility.yul\":5002:5008   */\n      dup3\n        /* \"#utility.yul\":4999:5029   */\n      gt\n        /* \"#utility.yul\":4996:5052   */\n      iszero\n      tag_118\n      jumpi\n        /* \"#utility.yul\":5032:5050   */\n      tag_119\n      tag_120\n      jump\t// in\n    tag_119:\n        /* \"#utility.yul\":4996:5052   */\n    tag_118:\n        /* \"#utility.yul\":5070:5099   */\n      tag_121\n        /* \"#utility.yul\":5092:5098   */\n      dup3\n        /* \"#utility.yul\":5070:5099   */\n      tag_87\n      jump\t// in\n    tag_121:\n        /* \"#utility.yul\":5062:5099   */\n      swap1\n      pop\n        /* \"#utility.yul\":5154:5158   */\n      0x20\n        /* \"#utility.yul\":5148:5152   */\n      dup2\n        /* \"#utility.yul\":5144:5159   */\n      add\n        /* \"#utility.yul\":5136:5159   */\n      swap1\n      pop\n        /* \"#utility.yul\":4858:5166   */\n      swap2\n      swap1\n      pop\n      jump\t// out\n        /* \"#utility.yul\":5172:5271   */\n    tag_81:\n        /* \"#utility.yul\":5224:5230   */\n      0x00\n        /* \"#utility.yul\":5258:5263   */\n      dup2\n        /* \"#utility.yul\":5252:5264   */\n      mload\n        /* \"#utility.yul\":5242:5264   */\n      swap1\n      pop\n        /* \"#utility.yul\":5172:5271   */\n      swap2\n      swap1\n      pop\n      jump\t// out\n        /* \"#utility.yul\":5277:5446   */\n    tag_83:\n        /* \"#utility.yul\":5361:5372   */\n      0x00\n        /* \"#utility.yul\":5395:5401   */\n      dup3\n        /* \"#utility.yul\":5390:5393   */\n      dup3\n        /* \"#utility.yul\":5383:5402   */\n      mstore\n        /* \"#utility.yul\":5435:5439   */\n      0x20\n        /* \"#utility.yul\":5430:5433   */\n      dup3\n        /* \"#utility.yul\":5426:5440   */\n      add\n        /* \"#utility.yul\":5411:5440   */\n      swap1\n      pop\n        /* \"#utility.yul\":5277:5446   */\n      swap3\n      swap2\n      pop\n      pop\n      jump\t// out\n        /* \"#utility.yul\":5452:5600   */\n    tag_92:\n        /* \"#utility.yul\":5554:5565   */\n      0x00\n        /* \"#utility.yul\":5591:5594   */\n      dup2\n        /* \"#utility.yul\":5576:5594   */\n      swap1\n      pop\n        /* \"#utility.yul\":5452:5600   */\n      swap3\n      swap2\n      pop\n      pop\n      jump\t// out\n        /* \"#utility.yul\":5606:5911   */\n    tag_28:\n        /* \"#utility.yul\":5646:5649   */\n      0x00\n        /* \"#utility.yul\":5665:5685   */\n      tag_126\n        /* \"#utility.yul\":5683:5684   */\n      dup3\n        /* \"#utility.yul\":5665:5685   */\n      tag_102\n      jump\t// in\n    tag_126:\n        /* \"#utility.yul\":5660:5685   */\n      swap2\n      pop\n        /* \"#utility.yul\":5699:5719   */\n      tag_127\n        /* \"#utility.yul\":5717:5718   */\n      dup4\n        /* \"#utility.yul\":5699:5719   */\n      tag_102\n      jump\t// in\n    tag_127:\n        /* \"#utility.yul\":5694:5719   */\n      swap3\n      pop\n        /* \"#utility.yul\":5853:5854   */\n      dup3\n        /* \"#utility.yul\":5785:5851   */\n      0xffffffffffffffffffffffffffffffffffffffffffffffffffffffffffffffff\n        /* \"#utility.yul\":5781:5855   */\n      sub\n        /* \"#utility.yul\":5778:5779   */\n      dup3\n        /* \"#utility.yul\":5775:5856   */\n      gt\n        /* \"#utility.yul\":5772:5879   */\n      iszero\n      tag_128\n      jumpi\n        /* \"#utility.yul\":5859:5877   */\n      tag_129\n      tag_130\n      jump\t// in\n    tag_129:\n        /* \"#utility.yul\":5772:5879   */\n    tag_128:\n        /* \"#utility.yul\":5903:5904   */\n      dup3\n        /* \"#utility.yul\":5900:5901   */\n      dup3\n        /* \"#utility.yul\":5896:5905   */\n      add\n        /* \"#utility.yul\":5889:5905   */\n      swap1\n      pop\n        /* \"#utility.yul\":5606:5911   */\n      swap3\n      swap2\n      pop\n      pop\n      jump\t// out\n        /* \"#utility.yul\":5917:6102   */\n    tag_30:\n        /* \"#utility.yul\":5957:5958   */\n      0x00\n        /* \"#utility.yul\":5974:5994   */\n      tag_132\n        /* \"#utility.yul\":5992:5993   */\n      dup3\n        /* \"#utility.yul\":5974:5994   */\n      tag_102\n      jump\t// in\n    tag_132:\n        /* \"#utility.yul\":5969:5994   */\n      swap2\n      pop\n        /* \"#utility.yul\":6008:6028   */\n      tag_133\n        /* \"#utility.yul\":6026:6027   */\n      dup4\n        /* \"#utility.yul\":6008:6028   */\n      tag_102\n      jump\t// in\n    tag_133:\n        /* \"#utility.yul\":6003:6028   */\n      swap3\n      pop\n        /* \"#utility.yul\":6047:6048   */\n      dup3\n        /* \"#utility.yul\":6037:6072   */\n      tag_134\n      jumpi\n        /* \"#utility.yul\":6052:6070   */\n      tag_135\n      tag_136\n      jump\t// in\n    tag_135:\n        /* \"#utility.yul\":6037:6072   */\n    tag_134:\n        /* \"#utility.yul\":6094:6095   */\n      dup3\n        /* \"#utility.yul\":6091:6092   */\n      dup3\n        /* \"#utility.yul\":6087:6096   */\n      div\n        /* \"#utility.yul\":6082:6096   */\n      swap1\n      pop\n        /* \"#utility.yul\":5917:6102   */\n      swap3\n      swap2\n      pop\n      pop\n      jump\t// out\n        /* \"#utility.yul\":6108:6185   */\n    tag_102:\n        /* \"#utility.yul\":6145:6152   */\n      0x00\n        /* \"#utility.yul\":6174:6179   */\n      dup2\n        /* \"#utility.yul\":6163:6179   */\n      swap1\n      pop\n        /* \"#utility.yul\":6108:6185   */\n      swap2\n      swap1\n      pop\n      jump\t// out\n        /* \"#utility.yul\":6191:6345   */\n    tag_52:\n        /* \"#utility.yul\":6275:6281   */\n      dup3\n        /* \"#utility.yul\":6270:6273   */\n      dup2\n        /* \"#utility.yul\":6265:6268   */\n      dup4\n        /* \"#utility.yul\":6252:6282   */\n      calldatacopy\n        /* \"#utility.yul\":6337:6338   */\n      0x00\n        /* \"#utility.yul\":6328:6334   */\n      dup4\n        /* \"#utility.yul\":6323:6326   */\n      dup4\n        /* \"#utility.yul\":6319:6335   */\n      add\n        /* \"#utility.yul\":6312:6339   */\n      mstore\n        /* \"#utility.yul\":6191:6345   */\n      pop\n      pop\n      pop\n      jump\t// out\n        /* \"#utility.yul\":6351:6658   */\n    tag_85:\n        /* \"#utility.yul\":6419:6420   */\n      0x00\n        /* \"#utility.yul\":6429:6542   */\n    tag_140:\n        /* \"#utility.yul\":6443:6449   */\n      dup4\n        /* \"#utility.yul\":6440:6441   */\n      dup2\n        /* \"#utility.yul\":6437:6450   */\n      lt\n        /* \"#utility.yul\":6429:6542   */\n      iszero\n      tag_142\n      jumpi\n        /* \"#utility.yul\":6528:6529   */\n      dup1\n        /* \"#utility.yul\":6523:6526   */\n      dup3\n        /* \"#utility.yul\":6519:6530   */\n      add\n        /* \"#utility.yul\":6513:6531   */\n      mload\n        /* \"#utility.yul\":6509:6510   */\n      dup2\n        /* \"#utility.yul\":6504:6507   */\n      dup5\n        /* \"#utility.yul\":6500:6511   */\n      add\n        /* \"#utility.yul\":6493:6532   */\n      mstore\n        /* \"#utility.yul\":6465:6467   */\n      0x20\n        /* \"#utility.yul\":6462:6463   */\n      dup2\n        /* \"#utility.yul\":6458:6468   */\n      add\n        /* \"#utility.yul\":6453:6468   */\n      swap1\n      pop\n        /* \"#utility.yul\":6429:6542   */\n      jump(tag_140)\n    tag_142:\n        /* \"#utility.yul\":6560:6566   */\n      dup4\n        /* \"#utility.yul\":6557:6558   */\n      dup2\n        /* \"#utility.yul\":6554:6567   */\n      gt\n        /* \"#utility.yul\":6551:6652   */\n      iszero\n      tag_143\n      jumpi\n        /* \"#utility.yul\":6640:6641   */\n      0x00\n        /* \"#utility.yul\":6631:6637   */\n      dup5\n        /* \"#utility.yul\":6626:6629   */\n      dup5\n        /* \"#utility.yul\":6622:6638   */\n      add\n        /* \"#utility.yul\":6615:6642   */\n      mstore\n        /* \"#utility.yul\":6551:6652   */\n    tag_143:\n        /* \"#utility.yul\":6400:6658   */\n      pop\n        /* \"#utility.yul\":6351:6658   */\n      pop\n      pop\n      pop\n      jump\t// out\n        /* \"#utility.yul\":6664:6945   */\n    tag_115:\n        /* \"#utility.yul\":6747:6774   */\n      tag_145\n        /* \"#utility.yul\":6769:6773   */\n      dup3\n        /* \"#utility.yul\":6747:6774   */\n      tag_87\n      jump\t// in\n    tag_145:\n        /* \"#utility.yul\":6739:6745   */\n      dup2\n        /* \"#utility.yul\":6735:6775   */\n      add\n        /* \"#utility.yul\":6877:6883   */\n      dup2\n        /* \"#utility.yul\":6865:6875   */\n      dup2\n        /* \"#utility.yul\":6862:6884   */\n      lt\n        /* \"#utility.yul\":6841:6859   */\n      0xffffffffffffffff\n        /* \"#utility.yul\":6829:6839   */\n      dup3\n        /* \"#utility.yul\":6826:6860   */\n      gt\n        /* \"#utility.yul\":6823:6885   */\n      or\n        /* \"#utility.yul\":6820:6908   */\n      iszero\n      tag_146\n      jumpi\n        /* \"#utility.yul\":6888:6906   */\n      tag_147\n      tag_120\n      jump\t// in\n    tag_147:\n        /* \"#utility.yul\":6820:6908   */\n    tag_146:\n        /* \"#utility.yul\":6928:6938   */\n      dup1\n        /* \"#utility.yul\":6924:6926   */\n      0x40\n        /* \"#utility.yul\":6917:6939   */\n      mstore\n        /* \"#utility.yul\":6707:6945   */\n      pop\n        /* \"#utility.yul\":6664:6945   */\n      pop\n      pop\n      jump\t// out\n        /* \"#utility.yul\":6951:7131   */\n    tag_130:\n        /* \"#utility.yul\":6999:7076   */\n      0x4e487b7100000000000000000000000000000000000000000000000000000000\n        /* \"#utility.yul\":6996:6997   */\n      0x00\n        /* \"#utility.yul\":6989:7077   */\n      mstore\n        /* \"#utility.yul\":7096:7100   */\n      0x11\n        /* \"#utility.yul\":7093:7094   */\n      0x04\n        /* \"#utility.yul\":7086:7101   */\n      mstore\n        /* \"#utility.yul\":7120:7124   */\n      0x24\n        /* \"#utility.yul\":7117:7118   */\n      0x00\n        /* \"#utility.yul\":7110:7125   */\n      revert\n        /* \"#utility.yul\":7137:7317   */\n    tag_136:\n        /* \"#utility.yul\":7185:7262   */\n      0x4e487b7100000000000000000000000000000000000000000000000000000000\n        /* \"#utility.yul\":7182:7183   */\n      0x00\n        /* \"#utility.yul\":7175:7263   */\n      mstore\n        /* \"#utility.yul\":7282:7286   */\n      0x12\n        /* \"#utility.yul\":7279:7280   */\n      0x04\n        /* \"#utility.yul\":7272:7287   */\n      mstore\n        /* \"#utility.yul\":7306:7310   */\n      0x24\n        /* \"#utility.yul\":7303:7304   */\n      0x00\n        /* \"#utility.yul\":7296:7311   */\n      revert\n        /* \"#utility.yul\":7323:7503   */\n    tag_120:\n        /* \"#utility.yul\":7371:7448   */\n      0x4e487b7100000000000000000000000000000000000000000000000000000000\n        /* \"#utility.yul\":7368:7369   */\n      0x00\n        /* \"#utility.yul\":7361:7449   */\n      mstore\n        /* \"#utility.yul\":7468:7472   */\n      0x41\n        /* \"#utility.yul\":7465:7466   */\n      0x04\n        /* \"#utility.yul\":7458:7473   */\n      mstore\n        /* \"#utility.yul\":7492:7496   */\n      0x24\n        /* \"#utility.yul\":7489:7490   */\n      0x00\n        /* \"#utility.yul\":7482:7497   */\n      revert\n        /* \"#utility.yul\":7509:7626   */\n    tag_57:\n        /* \"#utility.yul\":7618:7619   */\n      0x00\n        /* \"#utility.yul\":7615:7616   */\n      dup1\n        /* \"#utility.yul\":7608:7620   */\n      revert\n        /* \"#utility.yul\":7632:7749   */\n    tag_50:\n        /* \"#utility.yul\":7741:7742   */\n      0x00\n        /* \"#utility.yul\":7738:7739   */\n      dup1\n        /* \"#utility.yul\":7731:7743   */\n      revert\n        /* \"#utility.yul\":7755:7872   */\n    tag_69:\n        /* \"#utility.yul\":7864:7865   */\n      0x00\n        /* \"#utility.yul\":7861:7862   */\n      dup1\n        /* \"#utility.yul\":7854:7866   */\n      revert\n        /* \"#utility.yul\":7878:7995   */\n    tag_66:\n        /* \"#utility.yul\":7987:7988   */\n      0x00\n        /* \"#utility.yul\":7984:7985   */\n      dup1\n        /* \"#utility.yul\":7977:7989   */\n      revert\n        /* \"#utility.yul\":8001:8103   */\n    tag_87:\n        /* \"#utility.yul\":8042:8048   */\n      0x00\n        /* \"#utility.yul\":8093:8095   */\n      0x1f\n        /* \"#utility.yul\":8089:8096   */\n      not\n        /* \"#utility.yul\":8084:8086   */\n      0x1f\n        /* \"#utility.yul\":8077:8082   */\n      dup4\n        /* \"#utility.yul\":8073:8087   */\n      add\n        /* \"#utility.yul\":8069:8097   */\n      and\n        /* \"#utility.yul\":8059:8097   */\n      swap1\n      pop\n        /* \"#utility.yul\":8001:8103   */\n      swap2\n      swap1\n      pop\n      jump\t// out\n        /* \"#utility.yul\":8109:8260   */\n    tag_98:\n        /* \"#utility.yul\":8249:8252   */\n      0x2000000000000000000000000000000000000000000000000000000000000000\n        /* \"#utility.yul\":8245:8246   */\n      0x00\n        /* \"#utility.yul\":8237:8243   */\n      dup3\n        /* \"#utility.yul\":8233:8247   */\n      add\n        /* \"#utility.yul\":8226:8253   */\n      mstore\n        /* \"#utility.yul\":8109:8260   */\n      pop\n      jump\t// out\n        /* \"#utility.yul\":8266:8388   */\n    tag_62:\n        /* \"#utility.yul\":8339:8363   */\n      tag_158\n        /* \"#utility.yul\":8357:8362   */\n      dup2\n        /* \"#utility.yul\":8339:8363   */\n      tag_102\n      jump\t// in\n    tag_158:\n        /* \"#utility.yul\":8332:8337   */\n      dup2\n        /* \"#utility.yul\":8329:8364   */\n      eq\n        /* \"#utility.yul\":8319:8382   */\n      tag_159\n      jumpi\n        /* \"#utility.yul\":8378:8379   */\n      0x00\n        /* \"#utility.yul\":8375:8376   */\n      dup1\n        /* \"#utility.yul\":8368:8380   */\n      revert\n        /* \"#utility.yul\":8319:8382   */\n    tag_159:\n        /* \"#utility.yul\":8266:8388   */\n      pop\n      jump\t// out\n\n    auxdata: 0xa2646970667358221220b0baaee5f8c580853c68290fcb62ad7477b8a108d49f678eeee8d68c973bb3ab64736f6c63430008070033\n}\n",
				"bytecode": {
					"linkReferences": {},
					"object": "608060405234801561001057600080fd5b506106e0806100206000396000f3fe608060405234801561001057600080fd5b506004361061004c5760003560e01c806360fe47b114610051578063677342ce1461006d5780636d4ce63c1461009d57806389c19ddb146100bb575b600080fd5b61006b60048036038101906100669190610302565b6100eb565b005b61008760048036038101906100829190610302565b6100f5565b604051610094919061041c565b60405180910390f35b6100a5610158565b6040516100b291906103fa565b60405180910390f35b6100d560048036038101906100d0919061028a565b6101d9565b6040516100e291906103fa565b60405180910390f35b8060008190555050565b600080600260018461010791906104b4565b610111919061050a565b905060008390505b8082101561014e578190506002828386610133919061050a565b61013d91906104b4565b610147919061050a565b9150610119565b8092505050919050565b606060006101d06040518060400160405280600981526020017f636f6d706f6e656e7400000000000000000000000000000000000000000000008152506040518060400160405280600981526020017f636f6d706f6e656e7400000000000000000000000000000000000000000000008152506101d9565b90508091505090565b606082826040516020016101ee9291906103cb565b604051602081830303815290604052905092915050565b60006102186102138461045c565b610437565b9050828152602081018484840111156102345761023361064a565b5b61023f848285610545565b509392505050565b600082601f83011261025c5761025b610645565b5b813561026c848260208601610205565b91505092915050565b60008135905061028481610693565b92915050565b600080604083850312156102a1576102a0610654565b5b600083013567ffffffffffffffff8111156102bf576102be61064f565b5b6102cb85828601610247565b925050602083013567ffffffffffffffff8111156102ec576102eb61064f565b5b6102f885828601610247565b9150509250929050565b60006020828403121561031857610317610654565b5b600061032684828501610275565b91505092915050565b600061033a8261048d565b6103448185610498565b9350610354818560208601610554565b61035d81610659565b840191505092915050565b60006103738261048d565b61037d81856104a9565b935061038d818560208601610554565b80840191505092915050565b60006103a66001836104a9565b91506103b18261066a565b600182019050919050565b6103c58161053b565b82525050565b60006103d78285610368565b91506103e282610399565b91506103ee8284610368565b91508190509392505050565b60006020820190508181036000830152610414818461032f565b905092915050565b600060208201905061043160008301846103bc565b92915050565b6000610441610452565b905061044d8282610587565b919050565b6000604051905090565b600067ffffffffffffffff82111561047757610476610616565b5b61048082610659565b9050602081019050919050565b600081519050919050565b600082825260208201905092915050565b600081905092915050565b60006104bf8261053b565b91506104ca8361053b565b9250827fffffffffffffffffffffffffffffffffffffffffffffffffffffffffffffffff038211156104ff576104fe6105b8565b5b828201905092915050565b60006105158261053b565b91506105208361053b565b9250826105305761052f6105e7565b5b828204905092915050565b6000819050919050565b82818337600083830152505050565b60005b83811015610572578082015181840152602081019050610557565b83811115610581576000848401525b50505050565b61059082610659565b810181811067ffffffffffffffff821117156105af576105ae610616565b5b80604052505050565b7f4e487b7100000000000000000000000000000000000000000000000000000000600052601160045260246000fd5b7f4e487b7100000000000000000000000000000000000000000000000000000000600052601260045260246000fd5b7f4e487b7100000000000000000000000000000000000000000000000000000000600052604160045260246000fd5b600080fd5b600080fd5b600080fd5b600080fd5b6000601f19601f8301169050919050565b7f2000000000000000000000000000000000000000000000000000000000000000600082015250565b61069c8161053b565b81146106a757600080fd5b5056fea2646970667358221220b0baaee5f8c580853c68290fcb62ad7477b8a108d49f678eeee8d68c973bb3ab64736f6c63430008070033",
					"opcodes": "PUSH1 0x80 PUSH1 0x40 MSTORE CALLVALUE DUP1 ISZERO PUSH2 0x10 JUMPI PUSH1 0x0 DUP1 REVERT JUMPDEST POP PUSH2 0x6E0 DUP1 PUSH2 0x20 PUSH1 0x0 CODECOPY PUSH1 0x0 RETURN INVALID PUSH1 0x80 PUSH1 0x40 MSTORE CALLVALUE DUP1 ISZERO PUSH2 0x10 JUMPI PUSH1 0x0 DUP1 REVERT JUMPDEST POP PUSH1 0x4 CALLDATASIZE LT PUSH2 0x4C JUMPI PUSH1 0x0 CALLDATALOAD PUSH1 0xE0 SHR DUP1 PUSH4 0x60FE47B1 EQ PUSH2 0x51 JUMPI DUP1 PUSH4 0x677342CE EQ PUSH2 0x6D JUMPI DUP1 PUSH4 0x6D4CE63C EQ PUSH2 0x9D JUMPI DUP1 PUSH4 0x89C19DDB EQ PUSH2 0xBB JUMPI JUMPDEST PUSH1 0x0 DUP1 REVERT JUMPDEST PUSH2 0x6B PUSH1 0x4 DUP1 CALLDATASIZE SUB DUP2 ADD SWAP1 PUSH2 0x66 SWAP2 SWAP1 PUSH2 0x302 JUMP JUMPDEST PUSH2 0xEB JUMP JUMPDEST STOP JUMPDEST PUSH2 0x87 PUSH1 0x4 DUP1 CALLDATASIZE SUB DUP2 ADD SWAP1 PUSH2 0x82 SWAP2 SWAP1 PUSH2 0x302 JUMP JUMPDEST PUSH2 0xF5 JUMP JUMPDEST PUSH1 0x40 MLOAD PUSH2 0x94 SWAP2 SWAP1 PUSH2 0x41C JUMP JUMPDEST PUSH1 0x40 MLOAD DUP1 SWAP2 SUB SWAP1 RETURN JUMPDEST PUSH2 0xA5 PUSH2 0x158 JUMP JUMPDEST PUSH1 0x40 MLOAD PUSH2 0xB2 SWAP2 SWAP1 PUSH2 0x3FA JUMP JUMPDEST PUSH1 0x40 MLOAD DUP1 SWAP2 SUB SWAP1 RETURN JUMPDEST PUSH2 0xD5 PUSH1 0x4 DUP1 CALLDATASIZE SUB DUP2 ADD SWAP1 PUSH2 0xD0 SWAP2 SWAP1 PUSH2 0x28A JUMP JUMPDEST PUSH2 0x1D9 JUMP JUMPDEST PUSH1 0x40 MLOAD PUSH2 0xE2 SWAP2 SWAP1 PUSH2 0x3FA JUMP JUMPDEST PUSH1 0x40 MLOAD DUP1 SWAP2 SUB SWAP1 RETURN JUMPDEST DUP1 PUSH1 0x0 DUP2 SWAP1 SSTORE POP POP JUMP JUMPDEST PUSH1 0x0 DUP1 PUSH1 0x2 PUSH1 0x1 DUP5 PUSH2 0x107 SWAP2 SWAP1 PUSH2 0x4B4 JUMP JUMPDEST PUSH2 0x111 SWAP2 SWAP1 PUSH2 0x50A JUMP JUMPDEST SWAP1 POP PUSH1 0x0 DUP4 SWAP1 POP JUMPDEST DUP1 DUP3 LT ISZERO PUSH2 0x14E JUMPI DUP2 SWAP1 POP PUSH1 0x2 DUP3 DUP4 DUP7 PUSH2 0x133 SWAP2 SWAP1 PUSH2 0x50A JUMP JUMPDEST PUSH2 0x13D SWAP2 SWAP1 PUSH2 0x4B4 JUMP JUMPDEST PUSH2 0x147 SWAP2 SWAP1 PUSH2 0x50A JUMP JUMPDEST SWAP2 POP PUSH2 0x119 JUMP JUMPDEST DUP1 SWAP3 POP POP POP SWAP2 SWAP1 POP JUMP JUMPDEST PUSH1 0x60 PUSH1 0x0 PUSH2 0x1D0 PUSH1 0x40 MLOAD DUP1 PUSH1 0x40 ADD PUSH1 0x40 MSTORE DUP1 PUSH1 0x9 DUP2 MSTORE PUSH1 0x20 ADD PUSH32 0x636F6D706F6E656E740000000000000000000000000000000000000000000000 DUP2 MSTORE POP PUSH1 0x40 MLOAD DUP1 PUSH1 0x40 ADD PUSH1 0x40 MSTORE DUP1 PUSH1 0x9 DUP2 MSTORE PUSH1 0x20 ADD PUSH32 0x636F6D706F6E656E740000000000000000000000000000000000000000000000 DUP2 MSTORE POP PUSH2 0x1D9 JUMP JUMPDEST SWAP1 POP DUP1 SWAP2 POP POP SWAP1 JUMP JUMPDEST PUSH1 0x60 DUP3 DUP3 PUSH1 0x40 MLOAD PUSH1 0x20 ADD PUSH2 0x1EE SWAP3 SWAP2 SWAP1 PUSH2 0x3CB JUMP JUMPDEST PUSH1 0x40 MLOAD PUSH1 0x20 DUP2 DUP4 SUB SUB DUP2 MSTORE SWAP1 PUSH1 0x40 MSTORE SWAP1 POP SWAP3 SWAP2 POP POP JUMP JUMPDEST PUSH1 0x0 PUSH2 0x218 PUSH2 0x213 DUP5 PUSH2 0x45C JUMP JUMPDEST PUSH2 0x437 JUMP JUMPDEST SWAP1 POP DUP3 DUP2 MSTORE PUSH1 0x20 DUP2 ADD DUP5 DUP5 DUP5 ADD GT ISZERO PUSH2 0x234 JUMPI PUSH2 0x233 PUSH2 0x64A JUMP JUMPDEST JUMPDEST PUSH2 0x23F DUP5 DUP3 DUP6 PUSH2 0x545 JUMP JUMPDEST POP SWAP4 SWAP3 POP POP POP JUMP JUMPDEST PUSH1 0x0 DUP3 PUSH1 0x1F DUP4 ADD SLT PUSH2 0x25C JUMPI PUSH2 0x25B PUSH2 0x645 JUMP JUMPDEST JUMPDEST DUP2 CALLDATALOAD PUSH2 0x26C DUP5 DUP3 PUSH1 0x20 DUP7 ADD PUSH2 0x205 JUMP JUMPDEST SWAP2 POP POP SWAP3 SWAP2 POP POP JUMP JUMPDEST PUSH1 0x0 DUP2 CALLDATALOAD SWAP1 POP PUSH2 0x284 DUP2 PUSH2 0x693 JUMP JUMPDEST SWAP3 SWAP2 POP POP JUMP JUMPDEST PUSH1 0x0 DUP1 PUSH1 0x40 DUP4 DUP6 SUB SLT ISZERO PUSH2 0x2A1 JUMPI PUSH2 0x2A0 PUSH2 0x654 JUMP JUMPDEST JUMPDEST PUSH1 0x0 DUP4 ADD CALLDATALOAD PUSH8 0xFFFFFFFFFFFFFFFF DUP2 GT ISZERO PUSH2 0x2BF JUMPI PUSH2 0x2BE PUSH2 0x64F JUMP JUMPDEST JUMPDEST PUSH2 0x2CB DUP6 DUP3 DUP7 ADD PUSH2 0x247 JUMP JUMPDEST SWAP3 POP POP PUSH1 0x20 DUP4 ADD CALLDATALOAD PUSH8 0xFFFFFFFFFFFFFFFF DUP2 GT ISZERO PUSH2 0x2EC JUMPI PUSH2 0x2EB PUSH2 0x64F JUMP JUMPDEST JUMPDEST PUSH2 0x2F8 DUP6 DUP3 DUP7 ADD PUSH2 0x247 JUMP JUMPDEST SWAP2 POP POP SWAP3 POP SWAP3 SWAP1 POP JUMP JUMPDEST PUSH1 0x0 PUSH1 0x20 DUP3 DUP5 SUB SLT ISZERO PUSH2 0x318 JUMPI PUSH2 0x317 PUSH2 0x654 JUMP JUMPDEST JUMPDEST PUSH1 0x0 PUSH2 0x326 DUP5 DUP3 DUP6 ADD PUSH2 0x275 JUMP JUMPDEST SWAP2 POP POP SWAP3 SWAP2 POP POP JUMP JUMPDEST PUSH1 0x0 PUSH2 0x33A DUP3 PUSH2 0x48D JUMP JUMPDEST PUSH2 0x344 DUP2 DUP6 PUSH2 0x498 JUMP JUMPDEST SWAP4 POP PUSH2 0x354 DUP2 DUP6 PUSH1 0x20 DUP7 ADD PUSH2 0x554 JUMP JUMPDEST PUSH2 0x35D DUP2 PUSH2 0x659 JUMP JUMPDEST DUP5 ADD SWAP2 POP POP SWAP3 SWAP2 POP POP JUMP JUMPDEST PUSH1 0x0 PUSH2 0x373 DUP3 PUSH2 0x48D JUMP JUMPDEST PUSH2 0x37D DUP2 DUP6 PUSH2 0x4A9 JUMP JUMPDEST SWAP4 POP PUSH2 0x38D DUP2 DUP6 PUSH1 0x20 DUP7 ADD PUSH2 0x554 JUMP JUMPDEST DUP1 DUP5 ADD SWAP2 POP POP SWAP3 SWAP2 POP POP JUMP JUMPDEST PUSH1 0x0 PUSH2 0x3A6 PUSH1 0x1 DUP4 PUSH2 0x4A9 JUMP JUMPDEST SWAP2 POP PUSH2 0x3B1 DUP3 PUSH2 0x66A JUMP JUMPDEST PUSH1 0x1 DUP3 ADD SWAP1 POP SWAP2 SWAP1 POP JUMP JUMPDEST PUSH2 0x3C5 DUP2 PUSH2 0x53B JUMP JUMPDEST DUP3 MSTORE POP POP JUMP JUMPDEST PUSH1 0x0 PUSH2 0x3D7 DUP3 DUP6 PUSH2 0x368 JUMP JUMPDEST SWAP2 POP PUSH2 0x3E2 DUP3 PUSH2 0x399 JUMP JUMPDEST SWAP2 POP PUSH2 0x3EE DUP3 DUP5 PUSH2 0x368 JUMP JUMPDEST SWAP2 POP DUP2 SWAP1 POP SWAP4 SWAP3 POP POP POP JUMP JUMPDEST PUSH1 0x0 PUSH1 0x20 DUP3 ADD SWAP1 POP DUP2 DUP2 SUB PUSH1 0x0 DUP4 ADD MSTORE PUSH2 0x414 DUP2 DUP5 PUSH2 0x32F JUMP JUMPDEST SWAP1 POP SWAP3 SWAP2 POP POP JUMP JUMPDEST PUSH1 0x0 PUSH1 0x20 DUP3 ADD SWAP1 POP PUSH2 0x431 PUSH1 0x0 DUP4 ADD DUP5 PUSH2 0x3BC JUMP JUMPDEST SWAP3 SWAP2 POP POP JUMP JUMPDEST PUSH1 0x0 PUSH2 0x441 PUSH2 0x452 JUMP JUMPDEST SWAP1 POP PUSH2 0x44D DUP3 DUP3 PUSH2 0x587 JUMP JUMPDEST SWAP2 SWAP1 POP JUMP JUMPDEST PUSH1 0x0 PUSH1 0x40 MLOAD SWAP1 POP SWAP1 JUMP JUMPDEST PUSH1 0x0 PUSH8 0xFFFFFFFFFFFFFFFF DUP3 GT ISZERO PUSH2 0x477 JUMPI PUSH2 0x476 PUSH2 0x616 JUMP JUMPDEST JUMPDEST PUSH2 0x480 DUP3 PUSH2 0x659 JUMP JUMPDEST SWAP1 POP PUSH1 0x20 DUP2 ADD SWAP1 POP SWAP2 SWAP1 POP JUMP JUMPDEST PUSH1 0x0 DUP2 MLOAD SWAP1 POP SWAP2 SWAP1 POP JUMP JUMPDEST PUSH1 0x0 DUP3 DUP3 MSTORE PUSH1 0x20 DUP3 ADD SWAP1 POP SWAP3 SWAP2 POP POP JUMP JUMPDEST PUSH1 0x0 DUP2 SWAP1 POP SWAP3 SWAP2 POP POP JUMP JUMPDEST PUSH1 0x0 PUSH2 0x4BF DUP3 PUSH2 0x53B JUMP JUMPDEST SWAP2 POP PUSH2 0x4CA DUP4 PUSH2 0x53B JUMP JUMPDEST SWAP3 POP DUP3 PUSH32 0xFFFFFFFFFFFFFFFFFFFFFFFFFFFFFFFFFFFFFFFFFFFFFFFFFFFFFFFFFFFFFFFF SUB DUP3 GT ISZERO PUSH2 0x4FF JUMPI PUSH2 0x4FE PUSH2 0x5B8 JUMP JUMPDEST JUMPDEST DUP3 DUP3 ADD SWAP1 POP SWAP3 SWAP2 POP POP JUMP JUMPDEST PUSH1 0x0 PUSH2 0x515 DUP3 PUSH2 0x53B JUMP JUMPDEST SWAP2 POP PUSH2 0x520 DUP4 PUSH2 0x53B JUMP JUMPDEST SWAP3 POP DUP3 PUSH2 0x530 JUMPI PUSH2 0x52F PUSH2 0x5E7 JUMP JUMPDEST JUMPDEST DUP3 DUP3 DIV SWAP1 POP SWAP3 SWAP2 POP POP JUMP JUMPDEST PUSH1 0x0 DUP2 SWAP1 POP SWAP2 SWAP1 POP JUMP JUMPDEST DUP3 DUP2 DUP4 CALLDATACOPY PUSH1 0x0 DUP4 DUP4 ADD MSTORE POP POP POP JUMP JUMPDEST PUSH1 0x0 JUMPDEST DUP4 DUP2 LT ISZERO PUSH2 0x572 JUMPI DUP1 DUP3 ADD MLOAD DUP2 DUP5 ADD MSTORE PUSH1 0x20 DUP2 ADD SWAP1 POP PUSH2 0x557 JUMP JUMPDEST DUP4 DUP2 GT ISZERO PUSH2 0x581 JUMPI PUSH1 0x0 DUP5 DUP5 ADD MSTORE JUMPDEST POP POP POP POP JUMP JUMPDEST PUSH2 0x590 DUP3 PUSH2 0x659 JUMP JUMPDEST DUP2 ADD DUP2 DUP2 LT PUSH8 0xFFFFFFFFFFFFFFFF DUP3 GT OR ISZERO PUSH2 0x5AF JUMPI PUSH2 0x5AE PUSH2 0x616 JUMP JUMPDEST JUMPDEST DUP1 PUSH1 0x40 MSTORE POP POP POP JUMP JUMPDEST PUSH32 0x4E487B7100000000000000000000000000000000000000000000000000000000 PUSH1 0x0 MSTORE PUSH1 0x11 PUSH1 0x4 MSTORE PUSH1 0x24 PUSH1 0x0 REVERT JUMPDEST PUSH32 0x4E487B7100000000000000000000000000000000000000000000000000000000 PUSH1 0x0 MSTORE PUSH1 0x12 PUSH1 0x4 MSTORE PUSH1 0x24 PUSH1 0x0 REVERT JUMPDEST PUSH32 0x4E487B7100000000000000000000000000000000000000000000000000000000 PUSH1 0x0 MSTORE PUSH1 0x41 PUSH1 0x4 MSTORE PUSH1 0x24 PUSH1 0x0 REVERT JUMPDEST PUSH1 0x0 DUP1 REVERT JUMPDEST PUSH1 0x0 DUP1 REVERT JUMPDEST PUSH1 0x0 DUP1 REVERT JUMPDEST PUSH1 0x0 DUP1 REVERT JUMPDEST PUSH1 0x0 PUSH1 0x1F NOT PUSH1 0x1F DUP4 ADD AND SWAP1 POP SWAP2 SWAP1 POP JUMP JUMPDEST PUSH32 0x2000000000000000000000000000000000000000000000000000000000000000 PUSH1 0x0 DUP3 ADD MSTORE POP JUMP JUMPDEST PUSH2 0x69C DUP2 PUSH2 0x53B JUMP JUMPDEST DUP2 EQ PUSH2 0x6A7 JUMPI PUSH1 0x0 DUP1 REVERT JUMPDEST POP JUMP INVALID LOG2 PUSH5 0x6970667358 0x22 SLT KECCAK256 0xB0 0xBA 0xAE 0xE5 0xF8 0xC5 DUP1 DUP6 EXTCODECOPY PUSH9 0x290FCB62AD7477B8A1 ADDMOD 0xD4 SWAP16 PUSH8 0x8EEEE8D68C973BB3 0xAB PUSH5 0x736F6C6343 STOP ADDMOD SMOD STOP CALLER "
				},
				"gasEstimates": {
					"creation": {
						"codeDepositCost": "352000",
						"executionCost": "386",
						"totalCost": "352386"
					},
					"external": {
						"concat(string,string)": "infinite",
						"get()": "infinite",
						"set(uint256)": "22498",
						"sqrt(uint256)": "infinite"
					}
				},
				"methodIdentifiers": {
					"concat(string,string)": "89c19ddb",
					"get()": "6d4ce63c",
					"set(uint256)": "60fe47b1",
					"sqrt(uint256)": "677342ce"
				}
			},
			"storageLayout": {
				"storage": [
					{
						"astId": 405,
						"contract": "svg.sol:SimpleStorage",
						"label": "number",
						"offset": 0,
						"slot": "0",
						"type": "t_uint256"
					}
				],
				"types": {
					"t_uint256": {
						"encoding": "inplace",
						"label": "uint256",
						"numberOfBytes": "32"
					}
				}
			},
			"userdoc": {
				"kind": "user",
				"methods": {},
				"version": 1
			}
		}
	}
}