{
	".deps/npm/@openzeppelin/contracts/utils/math/Math.sol": {
		"Math": {
			"abi": [
				{
					"inputs": [
						{
							"internalType": "uint256",
							"name": "x",
							"type": "uint256"
						}
					],
					"name": "sqrt",
					"outputs": [
						{
							"internalType": "uint256",
							"name": "",
							"type": "uint256"
						}
					],
					"stateMutability": "pure",
					"type": "function"
				}
			],
			"devdoc": {
				"details": "Standard math utilities missing in the Solidity language.",
				"kind": "dev",
				"methods": {},
				"version": 1
			},
			"evm": {
				"assembly": "    /* \".deps/npm/@openzeppelin/contracts/utils/math/Math.sol\":202:1468  library Math {... */\n  dataSize(sub_0)\n  dataOffset(sub_0)\n  0x0b\n  dup3\n  dup3\n  dup3\n  codecopy\n  dup1\n  mload\n  0x00\n  byte\n  0x73\n  eq\n  tag_1\n  jumpi\n  mstore(0x00, 0x4e487b7100000000000000000000000000000000000000000000000000000000)\n  mstore(0x04, 0x00)\n  revert(0x00, 0x24)\ntag_1:\n  mstore(0x00, address)\n  0x73\n  dup2\n  mstore8\n  dup3\n  dup2\n  return\nstop\n\nsub_0: assembly {\n        /* \".deps/npm/@openzeppelin/contracts/utils/math/Math.sol\":202:1468  library Math {... */\n      eq(address, deployTimeAddress())\n      mstore(0x40, 0x80)\n      jumpi(tag_1, lt(calldatasize, 0x04))\n      shr(0xe0, calldataload(0x00))\n      dup1\n      0x677342ce\n      eq\n      tag_2\n      jumpi\n    tag_1:\n      0x00\n      dup1\n      revert\n        /* \".deps/npm/@openzeppelin/contracts/utils/math/Math.sol\":1229:1466  function sqrt(uint x) public pure returns(uint) {... */\n    tag_2:\n      tag_3\n      0x04\n      dup1\n      calldatasize\n      sub\n      dup2\n      add\n      swap1\n      tag_4\n      swap2\n      swap1\n      tag_5\n      jump\t// in\n    tag_4:\n      tag_6\n      jump\t// in\n    tag_3:\n      mload(0x40)\n      tag_7\n      swap2\n      swap1\n      tag_8\n      jump\t// in\n    tag_7:\n      mload(0x40)\n      dup1\n      swap2\n      sub\n      swap1\n      return\n    tag_6:\n        /* \".deps/npm/@openzeppelin/contracts/utils/math/Math.sol\":1271:1275  uint */\n      0x00\n        /* \".deps/npm/@openzeppelin/contracts/utils/math/Math.sol\":1287:1293  uint z */\n      dup1\n        /* \".deps/npm/@openzeppelin/contracts/utils/math/Math.sol\":1307:1308  2 */\n      0x02\n        /* \".deps/npm/@openzeppelin/contracts/utils/math/Math.sol\":1301:1302  1 */\n      0x01\n        /* \".deps/npm/@openzeppelin/contracts/utils/math/Math.sol\":1297:1298  x */\n      dup5\n        /* \".deps/npm/@openzeppelin/contracts/utils/math/Math.sol\":1297:1302  x + 1 */\n      tag_10\n      swap2\n      swap1\n      tag_11\n      jump\t// in\n    tag_10:\n        /* \".deps/npm/@openzeppelin/contracts/utils/math/Math.sol\":1296:1308  (x + 1 ) / 2 */\n      tag_12\n      swap2\n      swap1\n      tag_13\n      jump\t// in\n    tag_12:\n        /* \".deps/npm/@openzeppelin/contracts/utils/math/Math.sol\":1287:1308  uint z = (x + 1 ) / 2 */\n      swap1\n      pop\n        /* \".deps/npm/@openzeppelin/contracts/utils/math/Math.sol\":1310:1316  uint y */\n      0x00\n        /* \".deps/npm/@openzeppelin/contracts/utils/math/Math.sol\":1319:1320  x */\n      dup4\n        /* \".deps/npm/@openzeppelin/contracts/utils/math/Math.sol\":1310:1320  uint y = x */\n      swap1\n      pop\n        /* \".deps/npm/@openzeppelin/contracts/utils/math/Math.sol\":1331:1436  while(z < y)... */\n    tag_14:\n        /* \".deps/npm/@openzeppelin/contracts/utils/math/Math.sol\":1341:1342  y */\n      dup1\n        /* \".deps/npm/@openzeppelin/contracts/utils/math/Math.sol\":1337:1338  z */\n      dup3\n        /* \".deps/npm/@openzeppelin/contracts/utils/math/Math.sol\":1337:1342  z < y */\n      lt\n        /* \".deps/npm/@openzeppelin/contracts/utils/math/Math.sol\":1331:1436  while(z < y)... */\n      iszero\n      tag_15\n      jumpi\n        /* \".deps/npm/@openzeppelin/contracts/utils/math/Math.sol\":1379:1380  z */\n      dup2\n        /* \".deps/npm/@openzeppelin/contracts/utils/math/Math.sol\":1375:1380  y = z */\n      swap1\n      pop\n        /* \".deps/npm/@openzeppelin/contracts/utils/math/Math.sol\":1419:1420  2 */\n      0x02\n        /* \".deps/npm/@openzeppelin/contracts/utils/math/Math.sol\":1413:1414  z */\n      dup3\n        /* \".deps/npm/@openzeppelin/contracts/utils/math/Math.sol\":1409:1410  z */\n      dup4\n        /* \".deps/npm/@openzeppelin/contracts/utils/math/Math.sol\":1405:1406  x */\n      dup7\n        /* \".deps/npm/@openzeppelin/contracts/utils/math/Math.sol\":1405:1410  x / z */\n      tag_16\n      swap2\n      swap1\n      tag_13\n      jump\t// in\n    tag_16:\n        /* \".deps/npm/@openzeppelin/contracts/utils/math/Math.sol\":1405:1414  x / z + z */\n      tag_17\n      swap2\n      swap1\n      tag_11\n      jump\t// in\n    tag_17:\n        /* \".deps/npm/@openzeppelin/contracts/utils/math/Math.sol\":1403:1420  ( x / z + z ) / 2 */\n      tag_18\n      swap2\n      swap1\n      tag_13\n      jump\t// in\n    tag_18:\n        /* \".deps/npm/@openzeppelin/contracts/utils/math/Math.sol\":1399:1420  z = ( x / z + z ) / 2 */\n      swap2\n      pop\n        /* \".deps/npm/@openzeppelin/contracts/utils/math/Math.sol\":1331:1436  while(z < y)... */\n      jump(tag_14)\n    tag_15:\n        /* \".deps/npm/@openzeppelin/contracts/utils/math/Math.sol\":1453:1454  y */\n      dup1\n        /* \".deps/npm/@openzeppelin/contracts/utils/math/Math.sol\":1446:1454  return y */\n      swap3\n      pop\n      pop\n      pop\n        /* \".deps/npm/@openzeppelin/contracts/utils/math/Math.sol\":1229:1466  function sqrt(uint x) public pure returns(uint) {... */\n      swap2\n      swap1\n      pop\n      jump\t// out\n        /* \"#utility.yul\":7:146   */\n    tag_20:\n        /* \"#utility.yul\":53:58   */\n      0x00\n        /* \"#utility.yul\":91:97   */\n      dup2\n        /* \"#utility.yul\":78:98   */\n      calldataload\n        /* \"#utility.yul\":69:98   */\n      swap1\n      pop\n        /* \"#utility.yul\":107:140   */\n      tag_22\n        /* \"#utility.yul\":134:139   */\n      dup2\n        /* \"#utility.yul\":107:140   */\n      tag_23\n      jump\t// in\n    tag_22:\n        /* \"#utility.yul\":7:146   */\n      swap3\n      swap2\n      pop\n      pop\n      jump\t// out\n        /* \"#utility.yul\":152:481   */\n    tag_5:\n        /* \"#utility.yul\":211:217   */\n      0x00\n        /* \"#utility.yul\":260:262   */\n      0x20\n        /* \"#utility.yul\":248:257   */\n      dup3\n        /* \"#utility.yul\":239:246   */\n      dup5\n        /* \"#utility.yul\":235:258   */\n      sub\n        /* \"#utility.yul\":231:263   */\n      slt\n        /* \"#utility.yul\":228:347   */\n      iszero\n      tag_25\n      jumpi\n        /* \"#utility.yul\":266:345   */\n      tag_26\n      tag_27\n      jump\t// in\n    tag_26:\n        /* \"#utility.yul\":228:347   */\n    tag_25:\n        /* \"#utility.yul\":386:387   */\n      0x00\n        /* \"#utility.yul\":411:464   */\n      tag_28\n        /* \"#utility.yul\":456:463   */\n      dup5\n        /* \"#utility.yul\":447:453   */\n      dup3\n        /* \"#utility.yul\":436:445   */\n      dup6\n        /* \"#utility.yul\":432:454   */\n      add\n        /* \"#utility.yul\":411:464   */\n      tag_20\n      jump\t// in\n    tag_28:\n        /* \"#utility.yul\":401:464   */\n      swap2\n      pop\n        /* \"#utility.yul\":357:474   */\n      pop\n        /* \"#utility.yul\":152:481   */\n      swap3\n      swap2\n      pop\n      pop\n      jump\t// out\n        /* \"#utility.yul\":487:613   */\n    tag_29:\n        /* \"#utility.yul\":582:606   */\n      tag_31\n        /* \"#utility.yul\":600:605   */\n      dup2\n        /* \"#utility.yul\":582:606   */\n      tag_32\n      jump\t// in\n    tag_31:\n        /* \"#utility.yul\":577:580   */\n      dup3\n        /* \"#utility.yul\":570:607   */\n      mstore\n        /* \"#utility.yul\":487:613   */\n      pop\n      pop\n      jump\t// out\n        /* \"#utility.yul\":619:857   */\n    tag_8:\n        /* \"#utility.yul\":720:724   */\n      0x00\n        /* \"#utility.yul\":758:760   */\n      0x20\n        /* \"#utility.yul\":747:756   */\n      dup3\n        /* \"#utility.yul\":743:761   */\n      add\n        /* \"#utility.yul\":735:761   */\n      swap1\n      pop\n        /* \"#utility.yul\":771:850   */\n      tag_34\n        /* \"#utility.yul\":847:848   */\n      0x00\n        /* \"#utility.yul\":836:845   */\n      dup4\n        /* \"#utility.yul\":832:849   */\n      add\n        /* \"#utility.yul\":823:829   */\n      dup5\n        /* \"#utility.yul\":771:850   */\n      tag_29\n      jump\t// in\n    tag_34:\n        /* \"#utility.yul\":619:857   */\n      swap3\n      swap2\n      pop\n      pop\n      jump\t// out\n        /* \"#utility.yul\":944:1249   */\n    tag_11:\n        /* \"#utility.yul\":984:987   */\n      0x00\n        /* \"#utility.yul\":1003:1023   */\n      tag_38\n        /* \"#utility.yul\":1021:1022   */\n      dup3\n        /* \"#utility.yul\":1003:1023   */\n      tag_32\n      jump\t// in\n    tag_38:\n        /* \"#utility.yul\":998:1023   */\n      swap2\n      pop\n        /* \"#utility.yul\":1037:1057   */\n      tag_39\n        /* \"#utility.yul\":1055:1056   */\n      dup4\n        /* \"#utility.yul\":1037:1057   */\n      tag_32\n      jump\t// in\n    tag_39:\n        /* \"#utility.yul\":1032:1057   */\n      swap3\n      pop\n        /* \"#utility.yul\":1191:1192   */\n      dup3\n        /* \"#utility.yul\":1123:1189   */\n      0xffffffffffffffffffffffffffffffffffffffffffffffffffffffffffffffff\n        /* \"#utility.yul\":1119:1193   */\n      sub\n        /* \"#utility.yul\":1116:1117   */\n      dup3\n        /* \"#utility.yul\":1113:1194   */\n      gt\n        /* \"#utility.yul\":1110:1217   */\n      iszero\n      tag_40\n      jumpi\n        /* \"#utility.yul\":1197:1215   */\n      tag_41\n      tag_42\n      jump\t// in\n    tag_41:\n        /* \"#utility.yul\":1110:1217   */\n    tag_40:\n        /* \"#utility.yul\":1241:1242   */\n      dup3\n        /* \"#utility.yul\":1238:1239   */\n      dup3\n        /* \"#utility.yul\":1234:1243   */\n      add\n        /* \"#utility.yul\":1227:1243   */\n      swap1\n      pop\n        /* \"#utility.yul\":944:1249   */\n      swap3\n      swap2\n      pop\n      pop\n      jump\t// out\n        /* \"#utility.yul\":1255:1440   */\n    tag_13:\n        /* \"#utility.yul\":1295:1296   */\n      0x00\n        /* \"#utility.yul\":1312:1332   */\n      tag_44\n        /* \"#utility.yul\":1330:1331   */\n      dup3\n        /* \"#utility.yul\":1312:1332   */\n      tag_32\n      jump\t// in\n    tag_44:\n        /* \"#utility.yul\":1307:1332   */\n      swap2\n      pop\n        /* \"#utility.yul\":1346:1366   */\n      tag_45\n        /* \"#utility.yul\":1364:1365   */\n      dup4\n        /* \"#utility.yul\":1346:1366   */\n      tag_32\n      jump\t// in\n    tag_45:\n        /* \"#utility.yul\":1341:1366   */\n      swap3\n      pop\n        /* \"#utility.yul\":1385:1386   */\n      dup3\n        /* \"#utility.yul\":1375:1410   */\n      tag_46\n      jumpi\n        /* \"#utility.yul\":1390:1408   */\n      tag_47\n      tag_48\n      jump\t// in\n    tag_47:\n        /* \"#utility.yul\":1375:1410   */\n    tag_46:\n        /* \"#utility.yul\":1432:1433   */\n      dup3\n        /* \"#utility.yul\":1429:1430   */\n      dup3\n        /* \"#utility.yul\":1425:1434   */\n      div\n        /* \"#utility.yul\":1420:1434   */\n      swap1\n      pop\n        /* \"#utility.yul\":1255:1440   */\n      swap3\n      swap2\n      pop\n      pop\n      jump\t// out\n        /* \"#utility.yul\":1446:1523   */\n    tag_32:\n        /* \"#utility.yul\":1483:1490   */\n      0x00\n        /* \"#utility.yul\":1512:1517   */\n      dup2\n        /* \"#utility.yul\":1501:1517   */\n      swap1\n      pop\n        /* \"#utility.yul\":1446:1523   */\n      swap2\n      swap1\n      pop\n      jump\t// out\n        /* \"#utility.yul\":1529:1709   */\n    tag_42:\n        /* \"#utility.yul\":1577:1654   */\n      0x4e487b7100000000000000000000000000000000000000000000000000000000\n        /* \"#utility.yul\":1574:1575   */\n      0x00\n        /* \"#utility.yul\":1567:1655   */\n      mstore\n        /* \"#utility.yul\":1674:1678   */\n      0x11\n        /* \"#utility.yul\":1671:1672   */\n      0x04\n        /* \"#utility.yul\":1664:1679   */\n      mstore\n        /* \"#utility.yul\":1698:1702   */\n      0x24\n        /* \"#utility.yul\":1695:1696   */\n      0x00\n        /* \"#utility.yul\":1688:1703   */\n      revert\n        /* \"#utility.yul\":1715:1895   */\n    tag_48:\n        /* \"#utility.yul\":1763:1840   */\n      0x4e487b7100000000000000000000000000000000000000000000000000000000\n        /* \"#utility.yul\":1760:1761   */\n      0x00\n        /* \"#utility.yul\":1753:1841   */\n      mstore\n        /* \"#utility.yul\":1860:1864   */\n      0x12\n        /* \"#utility.yul\":1857:1858   */\n      0x04\n        /* \"#utility.yul\":1850:1865   */\n      mstore\n        /* \"#utility.yul\":1884:1888   */\n      0x24\n        /* \"#utility.yul\":1881:1882   */\n      0x00\n        /* \"#utility.yul\":1874:1889   */\n      revert\n        /* \"#utility.yul\":2024:2141   */\n    tag_27:\n        /* \"#utility.yul\":2133:2134   */\n      0x00\n        /* \"#utility.yul\":2130:2131   */\n      dup1\n        /* \"#utility.yul\":2123:2135   */\n      revert\n        /* \"#utility.yul\":2147:2269   */\n    tag_23:\n        /* \"#utility.yul\":2220:2244   */\n      tag_56\n        /* \"#utility.yul\":2238:2243   */\n      dup2\n        /* \"#utility.yul\":2220:2244   */\n      tag_32\n      jump\t// in\n    tag_56:\n        /* \"#utility.yul\":2213:2218   */\n      dup2\n        /* \"#utility.yul\":2210:2245   */\n      eq\n        /* \"#utility.yul\":2200:2263   */\n      tag_57\n      jumpi\n        /* \"#utility.yul\":2259:2260   */\n      0x00\n        /* \"#utility.yul\":2256:2257   */\n      dup1\n        /* \"#utility.yul\":2249:2261   */\n      revert\n        /* \"#utility.yul\":2200:2263   */\n    tag_57:\n        /* \"#utility.yul\":2147:2269   */\n      pop\n      jump\t// out\n\n    auxdata: 0xa26469706673582212202a78fc5dab88cedf754122b92a8c1f87d505a22d037a6c92a26930a88b0fb42f64736f6c63430008070033\n}\n",
				"bytecode": {
					"linkReferences": {},
					"object": "61027a610053600b82828239805160001a607314610046577f4e487b7100000000000000000000000000000000000000000000000000000000600052600060045260246000fd5b30600052607381538281f3fe73000000000000000000000000000000000000000030146080604052600436106100355760003560e01c8063677342ce1461003a575b600080fd5b610054600480360381019061004f91906100e2565b61006a565b604051610061919061011e565b60405180910390f35b600080600260018461007c9190610139565b610086919061018f565b905060008390505b808210156100c35781905060028283866100a8919061018f565b6100b29190610139565b6100bc919061018f565b915061008e565b8092505050919050565b6000813590506100dc8161022d565b92915050565b6000602082840312156100f8576100f7610228565b5b6000610106848285016100cd565b91505092915050565b610118816101c0565b82525050565b6000602082019050610133600083018461010f565b92915050565b6000610144826101c0565b915061014f836101c0565b9250827fffffffffffffffffffffffffffffffffffffffffffffffffffffffffffffffff03821115610184576101836101ca565b5b828201905092915050565b600061019a826101c0565b91506101a5836101c0565b9250826101b5576101b46101f9565b5b828204905092915050565b6000819050919050565b7f4e487b7100000000000000000000000000000000000000000000000000000000600052601160045260246000fd5b7f4e487b7100000000000000000000000000000000000000000000000000000000600052601260045260246000fd5b600080fd5b610236816101c0565b811461024157600080fd5b5056fea26469706673582212202a78fc5dab88cedf754122b92a8c1f87d505a22d037a6c92a26930a88b0fb42f64736f6c63430008070033",
					"opcodes": "PUSH2 0x27A PUSH2 0x53 PUSH1 0xB DUP3 DUP3 DUP3 CODECOPY DUP1 MLOAD PUSH1 0x0 BYTE PUSH1 0x73 EQ PUSH2 0x46 JUMPI PUSH32 0x4E487B7100000000000000000000000000000000000000000000000000000000 PUSH1 0x0 MSTORE PUSH1 0x0 PUSH1 0x4 MSTORE PUSH1 0x24 PUSH1 0x0 REVERT JUMPDEST ADDRESS PUSH1 0x0 MSTORE PUSH1 0x73 DUP2 MSTORE8 DUP3 DUP2 RETURN INVALID PUSH20 0x0 ADDRESS EQ PUSH1 0x80 PUSH1 0x40 MSTORE PUSH1 0x4 CALLDATASIZE LT PUSH2 0x35 JUMPI PUSH1 0x0 CALLDATALOAD PUSH1 0xE0 SHR DUP1 PUSH4 0x677342CE EQ PUSH2 0x3A JUMPI JUMPDEST PUSH1 0x0 DUP1 REVERT JUMPDEST PUSH2 0x54 PUSH1 0x4 DUP1 CALLDATASIZE SUB DUP2 ADD SWAP1 PUSH2 0x4F SWAP2 SWAP1 PUSH2 0xE2 JUMP JUMPDEST PUSH2 0x6A JUMP JUMPDEST PUSH1 0x40 MLOAD PUSH2 0x61 SWAP2 SWAP1 PUSH2 0x11E JUMP JUMPDEST PUSH1 0x40 MLOAD DUP1 SWAP2 SUB SWAP1 RETURN JUMPDEST PUSH1 0x0 DUP1 PUSH1 0x2 PUSH1 0x1 DUP5 PUSH2 0x7C SWAP2 SWAP1 PUSH2 0x139 JUMP JUMPDEST PUSH2 0x86 SWAP2 SWAP1 PUSH2 0x18F JUMP JUMPDEST SWAP1 POP PUSH1 0x0 DUP4 SWAP1 POP JUMPDEST DUP1 DUP3 LT ISZERO PUSH2 0xC3 JUMPI DUP2 SWAP1 POP PUSH1 0x2 DUP3 DUP4 DUP7 PUSH2 0xA8 SWAP2 SWAP1 PUSH2 0x18F JUMP JUMPDEST PUSH2 0xB2 SWAP2 SWAP1 PUSH2 0x139 JUMP JUMPDEST PUSH2 0xBC SWAP2 SWAP1 PUSH2 0x18F JUMP JUMPDEST SWAP2 POP PUSH2 0x8E JUMP JUMPDEST DUP1 SWAP3 POP POP POP SWAP2 SWAP1 POP JUMP JUMPDEST PUSH1 0x0 DUP2 CALLDATALOAD SWAP1 POP PUSH2 0xDC DUP2 PUSH2 0x22D JUMP JUMPDEST SWAP3 SWAP2 POP POP JUMP JUMPDEST PUSH1 0x0 PUSH1 0x20 DUP3 DUP5 SUB SLT ISZERO PUSH2 0xF8 JUMPI PUSH2 0xF7 PUSH2 0x228 JUMP JUMPDEST JUMPDEST PUSH1 0x0 PUSH2 0x106 DUP5 DUP3 DUP6 ADD PUSH2 0xCD JUMP JUMPDEST SWAP2 POP POP SWAP3 SWAP2 POP POP JUMP JUMPDEST PUSH2 0x118 DUP2 PUSH2 0x1C0 JUMP JUMPDEST DUP3 MSTORE POP POP JUMP JUMPDEST PUSH1 0x0 PUSH1 0x20 DUP3 ADD SWAP1 POP PUSH2 0x133 PUSH1 0x0 DUP4 ADD DUP5 PUSH2 0x10F JUMP JUMPDEST SWAP3 SWAP2 POP POP JUMP JUMPDEST PUSH1 0x0 PUSH2 0x144 DUP3 PUSH2 0x1C0 JUMP JUMPDEST SWAP2 POP PUSH2 0x14F DUP4 PUSH2 0x1C0 JUMP JUMPDEST SWAP3 POP DUP3 PUSH32 0xFFFFFFFFFFFFFFFFFFFFFFFFFFFFFFFFFFFFFFFFFFFFFFFFFFFFFFFFFFFFFFFF SUB DUP3 GT ISZERO PUSH2 0x184 JUMPI PUSH2 0x183 PUSH2 0x1CA JUMP JUMPDEST JUMPDEST DUP3 DUP3 ADD SWAP1 POP SWAP3 SWAP2 POP POP JUMP JUMPDEST PUSH1 0x0 PUSH2 0x19A DUP3 PUSH2 0x1C0 JUMP JUMPDEST SWAP2 POP PUSH2 0x1A5 DUP4 PUSH2 0x1C0 JUMP JUMPDEST SWAP3 POP DUP3 PUSH2 0x1B5 JUMPI PUSH2 0x1B4 PUSH2 0x1F9 JUMP JUMPDEST JUMPDEST DUP3 DUP3 DIV SWAP1 POP SWAP3 SWAP2 POP POP JUMP JUMPDEST PUSH1 0x0 DUP2 SWAP1 POP SWAP2 SWAP1 POP JUMP JUMPDEST PUSH32 0x4E487B7100000000000000000000000000000000000000000000000000000000 PUSH1 0x0 MSTORE PUSH1 0x11 PUSH1 0x4 MSTORE PUSH1 0x24 PUSH1 0x0 REVERT JUMPDEST PUSH32 0x4E487B7100000000000000000000000000000000000000000000000000000000 PUSH1 0x0 MSTORE PUSH1 0x12 PUSH1 0x4 MSTORE PUSH1 0x24 PUSH1 0x0 REVERT JUMPDEST PUSH1 0x0 DUP1 REVERT JUMPDEST PUSH2 0x236 DUP2 PUSH2 0x1C0 JUMP JUMPDEST DUP2 EQ PUSH2 0x241 JUMPI PUSH1 0x0 DUP1 REVERT JUMPDEST POP JUMP INVALID LOG2 PUSH5 0x6970667358 0x22 SLT KECCAK256 0x2A PUSH25 0xFC5DAB88CEDF754122B92A8C1F87D505A22D037A6C92A26930 0xA8 DUP12 0xF 0xB4 0x2F PUSH5 0x736F6C6343 STOP ADDMOD SMOD STOP CALLER "
				},
				"gasEstimates": {
					"creation": {
						"codeDepositCost": "126800",
						"executionCost": "199",
						"totalCost": "126999"
					},
					"external": {
						"sqrt(uint256)": "infinite"
					},
					"internal": {
						"average(uint256,uint256)": "infinite",
						"ceilDiv(uint256,uint256)": "infinite",
						"max(uint256,uint256)": "infinite",
						"min(uint256,uint256)": "infinite"
					}
				},
				"methodIdentifiers": {
					"sqrt(uint256)": "677342ce"
				}
			},
			"storageLayout": {
				"storage": [],
				"types": null
			},
			"userdoc": {
				"kind": "user",
				"methods": {},
				"version": 1
			}
		}
	}
}